{
	"Contracts/vesting.sol": {
		"vesting": {
			"abi": [
				{
					"anonymous": false,
					"inputs": [
						{
							"indexed": false,
							"internalType": "address",
							"name": "beneficiary",
							"type": "address"
						},
						{
							"indexed": false,
							"internalType": "address",
							"name": "Tokenaddress",
							"type": "address"
						},
						{
							"indexed": false,
							"internalType": "uint256",
							"name": "tokens",
							"type": "uint256"
						}
					],
					"name": "tokensLocked",
					"type": "event"
				},
				{
					"anonymous": false,
					"inputs": [
						{
							"indexed": false,
							"internalType": "address",
							"name": "beneficiary",
							"type": "address"
						},
						{
							"indexed": false,
							"internalType": "address",
							"name": "Tokenaddress",
							"type": "address"
						},
						{
							"indexed": false,
							"internalType": "uint256",
							"name": "tokens",
							"type": "uint256"
						}
					],
					"name": "tokensWithdrawn",
					"type": "event"
				},
				{
					"inputs": [
						{
							"internalType": "address",
							"name": "",
							"type": "address"
						},
						{
							"internalType": "uint256",
							"name": "",
							"type": "uint256"
						}
					],
					"name": "beneficiaryDetails",
					"outputs": [
						{
							"internalType": "address",
							"name": "addressOfToken",
							"type": "address"
						},
						{
							"internalType": "uint256",
							"name": "noOfTokens",
							"type": "uint256"
						},
						{
							"internalType": "uint256",
							"name": "cliff",
							"type": "uint256"
						},
						{
							"internalType": "uint256",
							"name": "startTime",
							"type": "uint256"
						},
						{
							"internalType": "uint256",
							"name": "duration",
							"type": "uint256"
						},
						{
							"internalType": "uint256",
							"name": "slicePeriod",
							"type": "uint256"
						},
						{
							"internalType": "bool",
							"name": "locked",
							"type": "bool"
						}
					],
					"stateMutability": "view",
					"type": "function"
				},
				{
					"inputs": [],
					"name": "checkBalance",
					"outputs": [
						{
							"internalType": "uint256",
							"name": "",
							"type": "uint256"
						}
					],
					"stateMutability": "view",
					"type": "function"
				},
				{
					"inputs": [
						{
							"internalType": "address",
							"name": "_tokenaddress",
							"type": "address"
						},
						{
							"internalType": "uint256",
							"name": "_noOfTokens",
							"type": "uint256"
						},
						{
							"internalType": "uint256",
							"name": "_cliff",
							"type": "uint256"
						},
						{
							"internalType": "uint256",
							"name": "_duration",
							"type": "uint256"
						},
						{
							"internalType": "uint256",
							"name": "_sliceperiod",
							"type": "uint256"
						}
					],
					"name": "lockTokens",
					"outputs": [],
					"stateMutability": "nonpayable",
					"type": "function"
				},
				{
					"inputs": [
						{
							"internalType": "address",
							"name": "",
							"type": "address"
						},
						{
							"internalType": "uint256",
							"name": "",
							"type": "uint256"
						}
					],
					"name": "releasedTokens",
					"outputs": [
						{
							"internalType": "uint256",
							"name": "",
							"type": "uint256"
						}
					],
					"stateMutability": "view",
					"type": "function"
				},
				{
					"inputs": [],
					"name": "token",
					"outputs": [
						{
							"internalType": "contract IERC20",
							"name": "",
							"type": "address"
						}
					],
					"stateMutability": "view",
					"type": "function"
				},
				{
					"inputs": [
						{
							"internalType": "address",
							"name": "",
							"type": "address"
						},
						{
							"internalType": "address",
							"name": "",
							"type": "address"
						}
					],
					"name": "whitelist",
					"outputs": [
						{
							"internalType": "bool",
							"name": "",
							"type": "bool"
						}
					],
					"stateMutability": "view",
					"type": "function"
				},
				{
					"inputs": [
						{
							"internalType": "address",
							"name": "_tokenaddress",
							"type": "address"
						}
					],
					"name": "whitelistTokens",
					"outputs": [],
					"stateMutability": "nonpayable",
					"type": "function"
				},
				{
					"inputs": [
						{
							"internalType": "uint8",
							"name": "index",
							"type": "uint8"
						}
					],
					"name": "withdrawTokens",
					"outputs": [],
					"stateMutability": "nonpayable",
					"type": "function"
				}
			],
			"devdoc": {
				"kind": "dev",
				"methods": {},
				"version": 1
			},
			"evm": {
				"assembly": "    /* \"Contracts/vesting.sol\":235:3507  contract vesting{... */\n  mstore(0x40, 0x80)\n  callvalue\n  dup1\n  iszero\n  tag_1\n  jumpi\n  0x00\n  dup1\n  revert\ntag_1:\n  pop\n  dataSize(sub_0)\n  dup1\n  dataOffset(sub_0)\n  0x00\n  codecopy\n  0x00\n  return\nstop\n\nsub_0: assembly {\n        /* \"Contracts/vesting.sol\":235:3507  contract vesting{... */\n      mstore(0x40, 0x80)\n      callvalue\n      dup1\n      iszero\n      tag_1\n      jumpi\n      0x00\n      dup1\n      revert\n    tag_1:\n      pop\n      jumpi(tag_2, lt(calldatasize, 0x04))\n      shr(0xe0, calldataload(0x00))\n      dup1\n      0xb1b39337\n      gt\n      tag_11\n      jumpi\n      dup1\n      0xb1b39337\n      eq\n      tag_7\n      jumpi\n      dup1\n      0xc71daccb\n      eq\n      tag_8\n      jumpi\n      dup1\n      0xeef0934b\n      eq\n      tag_9\n      jumpi\n      dup1\n      0xfc0c546a\n      eq\n      tag_10\n      jumpi\n      jump(tag_2)\n    tag_11:\n      dup1\n      0x3ce301e5\n      eq\n      tag_3\n      jumpi\n      dup1\n      0x5fb2386e\n      eq\n      tag_4\n      jumpi\n      dup1\n      0x73ce12d4\n      eq\n      tag_5\n      jumpi\n      dup1\n      0xb092145e\n      eq\n      tag_6\n      jumpi\n    tag_2:\n      0x00\n      dup1\n      revert\n        /* \"Contracts/vesting.sol\":1164:1933  function lockTokens(address _tokenaddress,uint _noOfTokens,uint _cliff,uint _duration,uint _sliceperiod) external{... */\n    tag_3:\n      tag_12\n      0x04\n      dup1\n      calldatasize\n      sub\n      dup2\n      add\n      swap1\n      tag_13\n      swap2\n      swap1\n      tag_14\n      jump\t// in\n    tag_13:\n      tag_15\n      jump\t// in\n    tag_12:\n      stop\n        /* \"Contracts/vesting.sol\":929:1047  function whitelistTokens(address _tokenaddress) external {... */\n    tag_4:\n      tag_16\n      0x04\n      dup1\n      calldatasize\n      sub\n      dup2\n      add\n      swap1\n      tag_17\n      swap2\n      swap1\n      tag_18\n      jump\t// in\n    tag_17:\n      tag_19\n      jump\t// in\n    tag_16:\n      stop\n        /* \"Contracts/vesting.sol\":490:554  mapping (address => beneficiarydata[]) public beneficiaryDetails */\n    tag_5:\n      tag_20\n      0x04\n      dup1\n      calldatasize\n      sub\n      dup2\n      add\n      swap1\n      tag_21\n      swap2\n      swap1\n      tag_22\n      jump\t// in\n    tag_21:\n      tag_23\n      jump\t// in\n    tag_20:\n      mload(0x40)\n      tag_24\n      swap8\n      swap7\n      swap6\n      swap5\n      swap4\n      swap3\n      swap2\n      swap1\n      tag_25\n      jump\t// in\n    tag_24:\n      mload(0x40)\n      dup1\n      swap2\n      sub\n      swap1\n      return\n        /* \"Contracts/vesting.sol\":699:761  mapping (address => mapping(address => bool)) public whitelist */\n    tag_6:\n      tag_26\n      0x04\n      dup1\n      calldatasize\n      sub\n      dup2\n      add\n      swap1\n      tag_27\n      swap2\n      swap1\n      tag_28\n      jump\t// in\n    tag_27:\n      tag_29\n      jump\t// in\n    tag_26:\n      mload(0x40)\n      tag_30\n      swap2\n      swap1\n      tag_31\n      jump\t// in\n    tag_30:\n      mload(0x40)\n      dup1\n      swap2\n      sub\n      swap1\n      return\n        /* \"Contracts/vesting.sol\":1942:2657  function withdrawTokens(uint8 index) external {... */\n    tag_7:\n      tag_32\n      0x04\n      dup1\n      calldatasize\n      sub\n      dup2\n      add\n      swap1\n      tag_33\n      swap2\n      swap1\n      tag_34\n      jump\t// in\n    tag_33:\n      tag_35\n      jump\t// in\n    tag_32:\n      stop\n        /* \"Contracts/vesting.sol\":1053:1158  function checkBalance() external view returns(uint){... */\n    tag_8:\n      tag_36\n      tag_37\n      jump\t// in\n    tag_36:\n      mload(0x40)\n      tag_38\n      swap2\n      swap1\n      tag_39\n      jump\t// in\n    tag_38:\n      mload(0x40)\n      dup1\n      swap2\n      sub\n      swap1\n      return\n        /* \"Contracts/vesting.sol\":560:624  mapping (address => mapping(uint => uint)) public releasedTokens */\n    tag_9:\n      tag_40\n      0x04\n      dup1\n      calldatasize\n      sub\n      dup2\n      add\n      swap1\n      tag_41\n      swap2\n      swap1\n      tag_22\n      jump\t// in\n    tag_41:\n      tag_42\n      jump\t// in\n    tag_40:\n      mload(0x40)\n      tag_43\n      swap2\n      swap1\n      tag_39\n      jump\t// in\n    tag_43:\n      mload(0x40)\n      dup1\n      swap2\n      sub\n      swap1\n      return\n        /* \"Contracts/vesting.sol\":258:277  IERC20 public token */\n    tag_10:\n      tag_44\n      tag_45\n      jump\t// in\n    tag_44:\n      mload(0x40)\n      tag_46\n      swap2\n      swap1\n      tag_47\n      jump\t// in\n    tag_46:\n      mload(0x40)\n      dup1\n      swap2\n      sub\n      swap1\n      return\n        /* \"Contracts/vesting.sol\":1164:1933  function lockTokens(address _tokenaddress,uint _noOfTokens,uint _cliff,uint _duration,uint _sliceperiod) external{... */\n    tag_15:\n        /* \"Contracts/vesting.sol\":1295:1304  whitelist */\n      0x03\n        /* \"Contracts/vesting.sol\":1295:1316  whitelist[msg.sender] */\n      0x00\n        /* \"Contracts/vesting.sol\":1305:1315  msg.sender */\n      caller\n        /* \"Contracts/vesting.sol\":1295:1316  whitelist[msg.sender] */\n      0xffffffffffffffffffffffffffffffffffffffff\n      and\n      0xffffffffffffffffffffffffffffffffffffffff\n      and\n      dup2\n      mstore\n      0x20\n      add\n      swap1\n      dup2\n      mstore\n      0x20\n      add\n      0x00\n      keccak256\n        /* \"Contracts/vesting.sol\":1295:1331  whitelist[msg.sender][_tokenaddress] */\n      0x00\n        /* \"Contracts/vesting.sol\":1317:1330  _tokenaddress */\n      dup7\n        /* \"Contracts/vesting.sol\":1295:1331  whitelist[msg.sender][_tokenaddress] */\n      0xffffffffffffffffffffffffffffffffffffffff\n      and\n      0xffffffffffffffffffffffffffffffffffffffff\n      and\n      dup2\n      mstore\n      0x20\n      add\n      swap1\n      dup2\n      mstore\n      0x20\n      add\n      0x00\n      keccak256\n      0x00\n      swap1\n      sload\n      swap1\n      0x0100\n      exp\n      swap1\n      div\n      0xff\n      and\n        /* \"Contracts/vesting.sol\":1287:1352  require(whitelist[msg.sender][_tokenaddress],\"Token not allowed\") */\n      tag_49\n      jumpi\n      mload(0x40)\n      0x08c379a000000000000000000000000000000000000000000000000000000000\n      dup2\n      mstore\n      0x04\n      add\n      tag_50\n      swap1\n      tag_51\n      jump\t// in\n    tag_50:\n      mload(0x40)\n      dup1\n      swap2\n      sub\n      swap1\n      revert\n    tag_49:\n        /* \"Contracts/vesting.sol\":1382:1383  0 */\n      0x00\n        /* \"Contracts/vesting.sol\":1370:1381  _noOfTokens */\n      dup5\n        /* \"Contracts/vesting.sol\":1370:1383  _noOfTokens>0 */\n      gt\n        /* \"Contracts/vesting.sol\":1362:1384  require(_noOfTokens>0) */\n      tag_52\n      jumpi\n      0x00\n      dup1\n      revert\n    tag_52:\n        /* \"Contracts/vesting.sol\":1409:1422  _tokenaddress */\n      dup5\n        /* \"Contracts/vesting.sol\":1394:1399  token */\n      0x00\n      dup1\n        /* \"Contracts/vesting.sol\":1394:1423  token = IERC20(_tokenaddress) */\n      0x0100\n      exp\n      dup2\n      sload\n      dup2\n      0xffffffffffffffffffffffffffffffffffffffff\n      mul\n      not\n      and\n      swap1\n      dup4\n      0xffffffffffffffffffffffffffffffffffffffff\n      and\n      mul\n      or\n      swap1\n      sstore\n      pop\n        /* \"Contracts/vesting.sol\":1434:1463  beneficiarydata memory person */\n      0x00\n        /* \"Contracts/vesting.sol\":1466:1741  beneficiarydata({... */\n      mload(0x40)\n      dup1\n      0xe0\n      add\n      0x40\n      mstore\n      dup1\n        /* \"Contracts/vesting.sol\":1511:1524  _tokenaddress */\n      dup8\n        /* \"Contracts/vesting.sol\":1466:1741  beneficiarydata({... */\n      0xffffffffffffffffffffffffffffffffffffffff\n      and\n      dup2\n      mstore\n      0x20\n      add\n        /* \"Contracts/vesting.sol\":1549:1560  _noOfTokens */\n      dup7\n        /* \"Contracts/vesting.sol\":1466:1741  beneficiarydata({... */\n      dup2\n      mstore\n      0x20\n      add\n        /* \"Contracts/vesting.sol\":1580:1586  _cliff */\n      dup6\n        /* \"Contracts/vesting.sol\":1466:1741  beneficiarydata({... */\n      dup2\n      mstore\n      0x20\n      add\n        /* \"Contracts/vesting.sol\":1629:1635  _cliff */\n      dup6\n        /* \"Contracts/vesting.sol\":1611:1626  block.timestamp */\n      timestamp\n        /* \"Contracts/vesting.sol\":1611:1635  block.timestamp + _cliff */\n      tag_53\n      swap2\n      swap1\n      tag_54\n      jump\t// in\n    tag_53:\n        /* \"Contracts/vesting.sol\":1466:1741  beneficiarydata({... */\n      dup2\n      mstore\n      0x20\n      add\n        /* \"Contracts/vesting.sol\":1658:1667  _duration */\n      dup5\n        /* \"Contracts/vesting.sol\":1466:1741  beneficiarydata({... */\n      dup2\n      mstore\n      0x20\n      add\n        /* \"Contracts/vesting.sol\":1693:1705  _sliceperiod */\n      dup4\n        /* \"Contracts/vesting.sol\":1466:1741  beneficiarydata({... */\n      dup2\n      mstore\n      0x20\n      add\n        /* \"Contracts/vesting.sol\":1726:1730  true */\n      0x01\n        /* \"Contracts/vesting.sol\":1466:1741  beneficiarydata({... */\n      iszero\n      iszero\n      dup2\n      mstore\n      pop\n        /* \"Contracts/vesting.sol\":1434:1741  beneficiarydata memory person = beneficiarydata({... */\n      swap1\n      pop\n        /* \"Contracts/vesting.sol\":1752:1770  beneficiaryDetails */\n      0x01\n        /* \"Contracts/vesting.sol\":1752:1782  beneficiaryDetails[msg.sender] */\n      0x00\n        /* \"Contracts/vesting.sol\":1771:1781  msg.sender */\n      caller\n        /* \"Contracts/vesting.sol\":1752:1782  beneficiaryDetails[msg.sender] */\n      0xffffffffffffffffffffffffffffffffffffffff\n      and\n      0xffffffffffffffffffffffffffffffffffffffff\n      and\n      dup2\n      mstore\n      0x20\n      add\n      swap1\n      dup2\n      mstore\n      0x20\n      add\n      0x00\n      keccak256\n        /* \"Contracts/vesting.sol\":1788:1794  person */\n      dup2\n        /* \"Contracts/vesting.sol\":1752:1795  beneficiaryDetails[msg.sender].push(person) */\n      swap1\n      dup1\n      0x01\n      dup2\n      sload\n      add\n      dup1\n      dup3\n      sstore\n      dup1\n      swap2\n      pop\n      pop\n      0x01\n      swap1\n      sub\n      swap1\n      0x00\n      mstore\n      keccak256(0x00, 0x20)\n      swap1\n      0x07\n      mul\n      add\n      0x00\n      swap1\n      swap2\n      swap1\n      swap2\n      swap1\n      swap2\n      pop\n      0x00\n      dup3\n      add\n      mload\n      dup2\n      0x00\n      add\n      exp(0x0100, 0x00)\n      dup2\n      sload\n      dup2\n      0xffffffffffffffffffffffffffffffffffffffff\n      mul\n      not\n      and\n      swap1\n      dup4\n      0xffffffffffffffffffffffffffffffffffffffff\n      and\n      mul\n      or\n      swap1\n      sstore\n      pop\n      0x20\n      dup3\n      add\n      mload\n      dup2\n      0x01\n      add\n      sstore\n      0x40\n      dup3\n      add\n      mload\n      dup2\n      0x02\n      add\n      sstore\n      0x60\n      dup3\n      add\n      mload\n      dup2\n      0x03\n      add\n      sstore\n      0x80\n      dup3\n      add\n      mload\n      dup2\n      0x04\n      add\n      sstore\n      0xa0\n      dup3\n      add\n      mload\n      dup2\n      0x05\n      add\n      sstore\n      0xc0\n      dup3\n      add\n      mload\n      dup2\n      0x06\n      add\n      exp(0x0100, 0x00)\n      dup2\n      sload\n      dup2\n      0xff\n      mul\n      not\n      and\n      swap1\n      dup4\n      iszero\n      iszero\n      mul\n      or\n      swap1\n      sstore\n      pop\n      pop\n      pop\n        /* \"Contracts/vesting.sol\":1805:1810  token */\n      0x00\n      dup1\n      sload\n      swap1\n      0x0100\n      exp\n      swap1\n      div\n      0xffffffffffffffffffffffffffffffffffffffff\n      and\n        /* \"Contracts/vesting.sol\":1805:1823  token.transferFrom */\n      0xffffffffffffffffffffffffffffffffffffffff\n      and\n      0x23b872dd\n        /* \"Contracts/vesting.sol\":1824:1834  msg.sender */\n      caller\n        /* \"Contracts/vesting.sol\":1843:1847  this */\n      address\n        /* \"Contracts/vesting.sol\":1849:1860  _noOfTokens */\n      dup9\n        /* \"Contracts/vesting.sol\":1805:1861  token.transferFrom(msg.sender,address(this),_noOfTokens) */\n      mload(0x40)\n      dup5\n      0xffffffff\n      and\n      0xe0\n      shl\n      dup2\n      mstore\n      0x04\n      add\n      tag_56\n      swap4\n      swap3\n      swap2\n      swap1\n      tag_57\n      jump\t// in\n    tag_56:\n      0x20\n      mload(0x40)\n      dup1\n      dup4\n      sub\n      dup2\n      0x00\n      dup8\n      gas\n      call\n      iszero\n      dup1\n      iszero\n      tag_59\n      jumpi\n      returndatasize\n      0x00\n      dup1\n      returndatacopy\n      revert(0x00, returndatasize)\n    tag_59:\n      pop\n      pop\n      pop\n      pop\n      mload(0x40)\n      returndatasize\n      not(0x1f)\n      0x1f\n      dup3\n      add\n      and\n      dup3\n      add\n      dup1\n      0x40\n      mstore\n      pop\n      dup2\n      add\n      swap1\n      tag_60\n      swap2\n      swap1\n      tag_61\n      jump\t// in\n    tag_60:\n      pop\n        /* \"Contracts/vesting.sol\":1876:1926  tokensLocked(msg.sender,_tokenaddress,_noOfTokens) */\n      0xaadb2f2750cbb4162df8d5f0c90b7562c816e56441c31f6acf40a6c9cd201c58\n        /* \"Contracts/vesting.sol\":1889:1899  msg.sender */\n      caller\n        /* \"Contracts/vesting.sol\":1900:1913  _tokenaddress */\n      dup8\n        /* \"Contracts/vesting.sol\":1914:1925  _noOfTokens */\n      dup8\n        /* \"Contracts/vesting.sol\":1876:1926  tokensLocked(msg.sender,_tokenaddress,_noOfTokens) */\n      mload(0x40)\n      tag_62\n      swap4\n      swap3\n      swap2\n      swap1\n      tag_57\n      jump\t// in\n    tag_62:\n      mload(0x40)\n      dup1\n      swap2\n      sub\n      swap1\n      log1\n        /* \"Contracts/vesting.sol\":1277:1933  {... */\n      pop\n        /* \"Contracts/vesting.sol\":1164:1933  function lockTokens(address _tokenaddress,uint _noOfTokens,uint _cliff,uint _duration,uint _sliceperiod) external{... */\n      pop\n      pop\n      pop\n      pop\n      pop\n      jump\t// out\n        /* \"Contracts/vesting.sol\":929:1047  function whitelistTokens(address _tokenaddress) external {... */\n    tag_19:\n        /* \"Contracts/vesting.sol\":1035:1039  true */\n      0x01\n        /* \"Contracts/vesting.sol\":996:1005  whitelist */\n      0x03\n        /* \"Contracts/vesting.sol\":996:1017  whitelist[msg.sender] */\n      0x00\n        /* \"Contracts/vesting.sol\":1006:1016  msg.sender */\n      caller\n        /* \"Contracts/vesting.sol\":996:1017  whitelist[msg.sender] */\n      0xffffffffffffffffffffffffffffffffffffffff\n      and\n      0xffffffffffffffffffffffffffffffffffffffff\n      and\n      dup2\n      mstore\n      0x20\n      add\n      swap1\n      dup2\n      mstore\n      0x20\n      add\n      0x00\n      keccak256\n        /* \"Contracts/vesting.sol\":996:1032  whitelist[msg.sender][_tokenaddress] */\n      0x00\n        /* \"Contracts/vesting.sol\":1018:1031  _tokenaddress */\n      dup4\n        /* \"Contracts/vesting.sol\":996:1032  whitelist[msg.sender][_tokenaddress] */\n      0xffffffffffffffffffffffffffffffffffffffff\n      and\n      0xffffffffffffffffffffffffffffffffffffffff\n      and\n      dup2\n      mstore\n      0x20\n      add\n      swap1\n      dup2\n      mstore\n      0x20\n      add\n      0x00\n      keccak256\n      0x00\n        /* \"Contracts/vesting.sol\":996:1039  whitelist[msg.sender][_tokenaddress] = true */\n      0x0100\n      exp\n      dup2\n      sload\n      dup2\n      0xff\n      mul\n      not\n      and\n      swap1\n      dup4\n      iszero\n      iszero\n      mul\n      or\n      swap1\n      sstore\n      pop\n        /* \"Contracts/vesting.sol\":929:1047  function whitelistTokens(address _tokenaddress) external {... */\n      pop\n      jump\t// out\n        /* \"Contracts/vesting.sol\":490:554  mapping (address => beneficiarydata[]) public beneficiaryDetails */\n    tag_23:\n      mstore(0x20, 0x01)\n      dup2\n      0x00\n      mstore\n      keccak256(0x00, 0x40)\n      dup2\n      dup2\n      sload\n      dup2\n      lt\n      tag_64\n      jumpi\n      0x00\n      dup1\n      revert\n    tag_64:\n      swap1\n      0x00\n      mstore\n      keccak256(0x00, 0x20)\n      swap1\n      0x07\n      mul\n      add\n      0x00\n      swap2\n      pop\n      swap2\n      pop\n      pop\n      dup1\n      0x00\n      add\n      0x00\n      swap1\n      sload\n      swap1\n      0x0100\n      exp\n      swap1\n      div\n      0xffffffffffffffffffffffffffffffffffffffff\n      and\n      swap1\n      dup1\n      0x01\n      add\n      sload\n      swap1\n      dup1\n      0x02\n      add\n      sload\n      swap1\n      dup1\n      0x03\n      add\n      sload\n      swap1\n      dup1\n      0x04\n      add\n      sload\n      swap1\n      dup1\n      0x05\n      add\n      sload\n      swap1\n      dup1\n      0x06\n      add\n      0x00\n      swap1\n      sload\n      swap1\n      0x0100\n      exp\n      swap1\n      div\n      0xff\n      and\n      swap1\n      pop\n      dup8\n      jump\t// out\n        /* \"Contracts/vesting.sol\":699:761  mapping (address => mapping(address => bool)) public whitelist */\n    tag_29:\n      mstore(0x20, 0x03)\n      dup2\n      0x00\n      mstore\n      mstore(0x20, keccak256(0x00, 0x40))\n      dup1\n      0x00\n      mstore\n      keccak256(0x00, 0x40)\n      0x00\n      swap2\n      pop\n      swap2\n      pop\n      swap1\n      sload\n      swap1\n      0x0100\n      exp\n      swap1\n      div\n      0xff\n      and\n      dup2\n      jump\t// out\n        /* \"Contracts/vesting.sol\":1942:2657  function withdrawTokens(uint8 index) external {... */\n    tag_35:\n        /* \"Contracts/vesting.sol\":2022:2040  beneficiaryDetails */\n      0x01\n        /* \"Contracts/vesting.sol\":2022:2052  beneficiaryDetails[msg.sender] */\n      0x00\n        /* \"Contracts/vesting.sol\":2041:2051  msg.sender */\n      caller\n        /* \"Contracts/vesting.sol\":2022:2052  beneficiaryDetails[msg.sender] */\n      0xffffffffffffffffffffffffffffffffffffffff\n      and\n      0xffffffffffffffffffffffffffffffffffffffff\n      and\n      dup2\n      mstore\n      0x20\n      add\n      swap1\n      dup2\n      mstore\n      0x20\n      add\n      0x00\n      keccak256\n        /* \"Contracts/vesting.sol\":2053:2058  index */\n      dup2\n        /* \"Contracts/vesting.sol\":2022:2059  beneficiaryDetails[msg.sender][index] */\n      0xff\n      and\n      dup2\n      sload\n      dup2\n      lt\n      tag_67\n      jumpi\n      tag_68\n      tag_69\n      jump\t// in\n    tag_68:\n    tag_67:\n      swap1\n      0x00\n      mstore\n      keccak256(0x00, 0x20)\n      swap1\n      0x07\n      mul\n      add\n        /* \"Contracts/vesting.sol\":2022:2069  beneficiaryDetails[msg.sender][index].startTime */\n      0x03\n      add\n      sload\n        /* \"Contracts/vesting.sol\":2006:2021  block.timestamp */\n      timestamp\n        /* \"Contracts/vesting.sol\":2006:2069  block.timestamp>beneficiaryDetails[msg.sender][index].startTime */\n      gt\n        /* \"Contracts/vesting.sol\":1998:2091  require(block.timestamp>beneficiaryDetails[msg.sender][index].startTime,\"No tokens unlocked\") */\n      tag_71\n      jumpi\n      mload(0x40)\n      0x08c379a000000000000000000000000000000000000000000000000000000000\n      dup2\n      mstore\n      0x04\n      add\n      tag_72\n      swap1\n      tag_73\n      jump\t// in\n    tag_72:\n      mload(0x40)\n      dup1\n      swap2\n      sub\n      swap1\n      revert\n    tag_71:\n        /* \"Contracts/vesting.sol\":2143:2161  beneficiaryDetails */\n      0x01\n        /* \"Contracts/vesting.sol\":2143:2173  beneficiaryDetails[msg.sender] */\n      0x00\n        /* \"Contracts/vesting.sol\":2162:2172  msg.sender */\n      caller\n        /* \"Contracts/vesting.sol\":2143:2173  beneficiaryDetails[msg.sender] */\n      0xffffffffffffffffffffffffffffffffffffffff\n      and\n      0xffffffffffffffffffffffffffffffffffffffff\n      and\n      dup2\n      mstore\n      0x20\n      add\n      swap1\n      dup2\n      mstore\n      0x20\n      add\n      0x00\n      keccak256\n        /* \"Contracts/vesting.sol\":2174:2179  index */\n      dup2\n        /* \"Contracts/vesting.sol\":2143:2180  beneficiaryDetails[msg.sender][index] */\n      0xff\n      and\n      dup2\n      sload\n      dup2\n      lt\n      tag_74\n      jumpi\n      tag_75\n      tag_69\n      jump\t// in\n    tag_75:\n    tag_74:\n      swap1\n      0x00\n      mstore\n      keccak256(0x00, 0x20)\n      swap1\n      0x07\n      mul\n      add\n        /* \"Contracts/vesting.sol\":2143:2191  beneficiaryDetails[msg.sender][index].noOfTokens */\n      0x01\n      add\n      sload\n        /* \"Contracts/vesting.sol\":2109:2123  releasedTokens */\n      0x02\n        /* \"Contracts/vesting.sol\":2109:2135  releasedTokens[msg.sender] */\n      0x00\n        /* \"Contracts/vesting.sol\":2124:2134  msg.sender */\n      caller\n        /* \"Contracts/vesting.sol\":2109:2135  releasedTokens[msg.sender] */\n      0xffffffffffffffffffffffffffffffffffffffff\n      and\n      0xffffffffffffffffffffffffffffffffffffffff\n      and\n      dup2\n      mstore\n      0x20\n      add\n      swap1\n      dup2\n      mstore\n      0x20\n      add\n      0x00\n      keccak256\n        /* \"Contracts/vesting.sol\":2109:2142  releasedTokens[msg.sender][index] */\n      0x00\n        /* \"Contracts/vesting.sol\":2136:2141  index */\n      dup4\n        /* \"Contracts/vesting.sol\":2109:2142  releasedTokens[msg.sender][index] */\n      0xff\n      and\n      dup2\n      mstore\n      0x20\n      add\n      swap1\n      dup2\n      mstore\n      0x20\n      add\n      0x00\n      keccak256\n      sload\n        /* \"Contracts/vesting.sol\":2109:2191  releasedTokens[msg.sender][index]<beneficiaryDetails[msg.sender][index].noOfTokens */\n      lt\n        /* \"Contracts/vesting.sol\":2101:2219  require(releasedTokens[msg.sender][index]<beneficiaryDetails[msg.sender][index].noOfTokens,\"Tokens already withdrawn\") */\n      tag_77\n      jumpi\n      mload(0x40)\n      0x08c379a000000000000000000000000000000000000000000000000000000000\n      dup2\n      mstore\n      0x04\n      add\n      tag_78\n      swap1\n      tag_79\n      jump\t// in\n    tag_78:\n      mload(0x40)\n      dup1\n      swap2\n      sub\n      swap1\n      revert\n    tag_77:\n        /* \"Contracts/vesting.sol\":2244:2262  beneficiaryDetails */\n      0x01\n        /* \"Contracts/vesting.sol\":2244:2274  beneficiaryDetails[msg.sender] */\n      0x00\n        /* \"Contracts/vesting.sol\":2263:2273  msg.sender */\n      caller\n        /* \"Contracts/vesting.sol\":2244:2274  beneficiaryDetails[msg.sender] */\n      0xffffffffffffffffffffffffffffffffffffffff\n      and\n      0xffffffffffffffffffffffffffffffffffffffff\n      and\n      dup2\n      mstore\n      0x20\n      add\n      swap1\n      dup2\n      mstore\n      0x20\n      add\n      0x00\n      keccak256\n        /* \"Contracts/vesting.sol\":2275:2280  index */\n      dup2\n        /* \"Contracts/vesting.sol\":2244:2281  beneficiaryDetails[msg.sender][index] */\n      0xff\n      and\n      dup2\n      sload\n      dup2\n      lt\n      tag_80\n      jumpi\n      tag_81\n      tag_69\n      jump\t// in\n    tag_81:\n    tag_80:\n      swap1\n      0x00\n      mstore\n      keccak256(0x00, 0x20)\n      swap1\n      0x07\n      mul\n      add\n        /* \"Contracts/vesting.sol\":2244:2296  beneficiaryDetails[msg.sender][index].addressOfToken */\n      0x00\n      add\n      0x00\n      swap1\n      sload\n      swap1\n      0x0100\n      exp\n      swap1\n      div\n      0xffffffffffffffffffffffffffffffffffffffff\n      and\n        /* \"Contracts/vesting.sol\":2229:2234  token */\n      0x00\n      dup1\n        /* \"Contracts/vesting.sol\":2229:2297  token = IERC20(beneficiaryDetails[msg.sender][index].addressOfToken) */\n      0x0100\n      exp\n      dup2\n      sload\n      dup2\n      0xffffffffffffffffffffffffffffffffffffffff\n      mul\n      not\n      and\n      swap1\n      dup4\n      0xffffffffffffffffffffffffffffffffffffffff\n      and\n      mul\n      or\n      swap1\n      sstore\n      pop\n        /* \"Contracts/vesting.sol\":2307:2322  uint tokensLeft */\n      0x00\n        /* \"Contracts/vesting.sol\":2323:2342  unlockTokens(index) */\n      tag_83\n        /* \"Contracts/vesting.sol\":2336:2341  index */\n      dup3\n        /* \"Contracts/vesting.sol\":2323:2335  unlockTokens */\n      tag_84\n        /* \"Contracts/vesting.sol\":2323:2342  unlockTokens(index) */\n      jump\t// in\n    tag_83:\n        /* \"Contracts/vesting.sol\":2307:2342  uint tokensLeft=unlockTokens(index) */\n      swap1\n      pop\n        /* \"Contracts/vesting.sol\":2372:2373  0 */\n      0x00\n        /* \"Contracts/vesting.sol\":2360:2370  tokensLeft */\n      dup2\n        /* \"Contracts/vesting.sol\":2360:2373  tokensLeft!=0 */\n      sub\n        /* \"Contracts/vesting.sol\":2352:2374  require(tokensLeft!=0) */\n      tag_85\n      jumpi\n      0x00\n      dup1\n      revert\n    tag_85:\n        /* \"Contracts/vesting.sol\":2384:2389  token */\n      0x00\n      dup1\n      sload\n      swap1\n      0x0100\n      exp\n      swap1\n      div\n      0xffffffffffffffffffffffffffffffffffffffff\n      and\n        /* \"Contracts/vesting.sol\":2384:2398  token.transfer */\n      0xffffffffffffffffffffffffffffffffffffffff\n      and\n      0xa9059cbb\n        /* \"Contracts/vesting.sol\":2399:2409  msg.sender */\n      caller\n        /* \"Contracts/vesting.sol\":2410:2420  tokensLeft */\n      dup4\n        /* \"Contracts/vesting.sol\":2384:2421  token.transfer(msg.sender,tokensLeft) */\n      mload(0x40)\n      dup4\n      0xffffffff\n      and\n      0xe0\n      shl\n      dup2\n      mstore\n      0x04\n      add\n      tag_86\n      swap3\n      swap2\n      swap1\n      tag_87\n      jump\t// in\n    tag_86:\n      0x20\n      mload(0x40)\n      dup1\n      dup4\n      sub\n      dup2\n      0x00\n      dup8\n      gas\n      call\n      iszero\n      dup1\n      iszero\n      tag_89\n      jumpi\n      returndatasize\n      0x00\n      dup1\n      returndatacopy\n      revert(0x00, returndatasize)\n    tag_89:\n      pop\n      pop\n      pop\n      pop\n      mload(0x40)\n      returndatasize\n      not(0x1f)\n      0x1f\n      dup3\n      add\n      and\n      dup3\n      add\n      dup1\n      0x40\n      mstore\n      pop\n      dup2\n      add\n      swap1\n      tag_90\n      swap2\n      swap1\n      tag_61\n      jump\t// in\n    tag_90:\n      pop\n        /* \"Contracts/vesting.sol\":2466:2476  tokensLeft */\n      dup1\n        /* \"Contracts/vesting.sol\":2431:2445  releasedTokens */\n      0x02\n        /* \"Contracts/vesting.sol\":2431:2457  releasedTokens[msg.sender] */\n      0x00\n        /* \"Contracts/vesting.sol\":2446:2456  msg.sender */\n      caller\n        /* \"Contracts/vesting.sol\":2431:2457  releasedTokens[msg.sender] */\n      0xffffffffffffffffffffffffffffffffffffffff\n      and\n      0xffffffffffffffffffffffffffffffffffffffff\n      and\n      dup2\n      mstore\n      0x20\n      add\n      swap1\n      dup2\n      mstore\n      0x20\n      add\n      0x00\n      keccak256\n        /* \"Contracts/vesting.sol\":2431:2464  releasedTokens[msg.sender][index] */\n      0x00\n        /* \"Contracts/vesting.sol\":2458:2463  index */\n      dup5\n        /* \"Contracts/vesting.sol\":2431:2464  releasedTokens[msg.sender][index] */\n      0xff\n      and\n      dup2\n      mstore\n      0x20\n      add\n      swap1\n      dup2\n      mstore\n      0x20\n      add\n      0x00\n      keccak256\n      0x00\n        /* \"Contracts/vesting.sol\":2431:2476  releasedTokens[msg.sender][index]+=tokensLeft */\n      dup3\n      dup3\n      sload\n      tag_91\n      swap2\n      swap1\n      tag_54\n      jump\t// in\n    tag_91:\n      swap3\n      pop\n      pop\n      dup2\n      swap1\n      sstore\n      pop\n        /* \"Contracts/vesting.sol\":2486:2506  address Tokenaddress */\n      0x00\n        /* \"Contracts/vesting.sol\":2509:2527  beneficiaryDetails */\n      0x01\n        /* \"Contracts/vesting.sol\":2509:2539  beneficiaryDetails[msg.sender] */\n      0x00\n        /* \"Contracts/vesting.sol\":2528:2538  msg.sender */\n      caller\n        /* \"Contracts/vesting.sol\":2509:2539  beneficiaryDetails[msg.sender] */\n      0xffffffffffffffffffffffffffffffffffffffff\n      and\n      0xffffffffffffffffffffffffffffffffffffffff\n      and\n      dup2\n      mstore\n      0x20\n      add\n      swap1\n      dup2\n      mstore\n      0x20\n      add\n      0x00\n      keccak256\n        /* \"Contracts/vesting.sol\":2540:2545  index */\n      dup4\n        /* \"Contracts/vesting.sol\":2509:2546  beneficiaryDetails[msg.sender][index] */\n      0xff\n      and\n      dup2\n      sload\n      dup2\n      lt\n      tag_92\n      jumpi\n      tag_93\n      tag_69\n      jump\t// in\n    tag_93:\n    tag_92:\n      swap1\n      0x00\n      mstore\n      keccak256(0x00, 0x20)\n      swap1\n      0x07\n      mul\n      add\n        /* \"Contracts/vesting.sol\":2509:2561  beneficiaryDetails[msg.sender][index].addressOfToken */\n      0x00\n      add\n      0x00\n      swap1\n      sload\n      swap1\n      0x0100\n      exp\n      swap1\n      div\n      0xffffffffffffffffffffffffffffffffffffffff\n      and\n        /* \"Contracts/vesting.sol\":2486:2561  address Tokenaddress = beneficiaryDetails[msg.sender][index].addressOfToken */\n      swap1\n      pop\n        /* \"Contracts/vesting.sol\":2576:2650  tokensWithdrawn(msg.sender,Tokenaddress,releasedTokens[msg.sender][index]) */\n      0x2e8fbf54cecd6c94b9cc0a4444bef56d7836157ea1f144da84df7e568c9ae482\n        /* \"Contracts/vesting.sol\":2592:2602  msg.sender */\n      caller\n        /* \"Contracts/vesting.sol\":2603:2615  Tokenaddress */\n      dup3\n        /* \"Contracts/vesting.sol\":2616:2630  releasedTokens */\n      0x02\n        /* \"Contracts/vesting.sol\":2616:2642  releasedTokens[msg.sender] */\n      0x00\n        /* \"Contracts/vesting.sol\":2631:2641  msg.sender */\n      caller\n        /* \"Contracts/vesting.sol\":2616:2642  releasedTokens[msg.sender] */\n      0xffffffffffffffffffffffffffffffffffffffff\n      and\n      0xffffffffffffffffffffffffffffffffffffffff\n      and\n      dup2\n      mstore\n      0x20\n      add\n      swap1\n      dup2\n      mstore\n      0x20\n      add\n      0x00\n      keccak256\n        /* \"Contracts/vesting.sol\":2616:2649  releasedTokens[msg.sender][index] */\n      0x00\n        /* \"Contracts/vesting.sol\":2643:2648  index */\n      dup8\n        /* \"Contracts/vesting.sol\":2616:2649  releasedTokens[msg.sender][index] */\n      0xff\n      and\n      dup2\n      mstore\n      0x20\n      add\n      swap1\n      dup2\n      mstore\n      0x20\n      add\n      0x00\n      keccak256\n      sload\n        /* \"Contracts/vesting.sol\":2576:2650  tokensWithdrawn(msg.sender,Tokenaddress,releasedTokens[msg.sender][index]) */\n      mload(0x40)\n      tag_95\n      swap4\n      swap3\n      swap2\n      swap1\n      tag_57\n      jump\t// in\n    tag_95:\n      mload(0x40)\n      dup1\n      swap2\n      sub\n      swap1\n      log1\n        /* \"Contracts/vesting.sol\":1988:2657  {... */\n      pop\n      pop\n        /* \"Contracts/vesting.sol\":1942:2657  function withdrawTokens(uint8 index) external {... */\n      pop\n      jump\t// out\n        /* \"Contracts/vesting.sol\":1053:1158  function checkBalance() external view returns(uint){... */\n    tag_37:\n        /* \"Contracts/vesting.sol\":1099:1103  uint */\n      0x00\n        /* \"Contracts/vesting.sol\":1121:1126  token */\n      dup1\n      0x00\n      swap1\n      sload\n      swap1\n      0x0100\n      exp\n      swap1\n      div\n      0xffffffffffffffffffffffffffffffffffffffff\n      and\n        /* \"Contracts/vesting.sol\":1121:1136  token.balanceOf */\n      0xffffffffffffffffffffffffffffffffffffffff\n      and\n      0x70a08231\n        /* \"Contracts/vesting.sol\":1145:1149  this */\n      address\n        /* \"Contracts/vesting.sol\":1121:1151  token.balanceOf(address(this)) */\n      mload(0x40)\n      dup3\n      0xffffffff\n      and\n      0xe0\n      shl\n      dup2\n      mstore\n      0x04\n      add\n      tag_97\n      swap2\n      swap1\n      tag_98\n      jump\t// in\n    tag_97:\n      0x20\n      mload(0x40)\n      dup1\n      dup4\n      sub\n      dup2\n      dup7\n      gas\n      staticcall\n      iszero\n      dup1\n      iszero\n      tag_100\n      jumpi\n      returndatasize\n      0x00\n      dup1\n      returndatacopy\n      revert(0x00, returndatasize)\n    tag_100:\n      pop\n      pop\n      pop\n      pop\n      mload(0x40)\n      returndatasize\n      not(0x1f)\n      0x1f\n      dup3\n      add\n      and\n      dup3\n      add\n      dup1\n      0x40\n      mstore\n      pop\n      dup2\n      add\n      swap1\n      tag_101\n      swap2\n      swap1\n      tag_102\n      jump\t// in\n    tag_101:\n        /* \"Contracts/vesting.sol\":1114:1151  return token.balanceOf(address(this)) */\n      swap1\n      pop\n        /* \"Contracts/vesting.sol\":1053:1158  function checkBalance() external view returns(uint){... */\n      swap1\n      jump\t// out\n        /* \"Contracts/vesting.sol\":560:624  mapping (address => mapping(uint => uint)) public releasedTokens */\n    tag_42:\n      mstore(0x20, 0x02)\n      dup2\n      0x00\n      mstore\n      mstore(0x20, keccak256(0x00, 0x40))\n      dup1\n      0x00\n      mstore\n      keccak256(0x00, 0x40)\n      0x00\n      swap2\n      pop\n      swap2\n      pop\n      pop\n      sload\n      dup2\n      jump\t// out\n        /* \"Contracts/vesting.sol\":258:277  IERC20 public token */\n    tag_45:\n      0x00\n      dup1\n      sload\n      swap1\n      0x0100\n      exp\n      swap1\n      div\n      0xffffffffffffffffffffffffffffffffffffffff\n      and\n      dup2\n      jump\t// out\n        /* \"Contracts/vesting.sol\":2667:3503  function unlockTokens(uint8 ind) internal view returns(uint) {... */\n    tag_84:\n        /* \"Contracts/vesting.sol\":2722:2726  uint */\n      0x00\n        /* \"Contracts/vesting.sol\":2739:2760  uint totalNoOfPeriods */\n      dup1\n        /* \"Contracts/vesting.sol\":2808:2826  beneficiaryDetails */\n      0x01\n        /* \"Contracts/vesting.sol\":2808:2838  beneficiaryDetails[msg.sender] */\n      0x00\n        /* \"Contracts/vesting.sol\":2827:2837  msg.sender */\n      caller\n        /* \"Contracts/vesting.sol\":2808:2838  beneficiaryDetails[msg.sender] */\n      0xffffffffffffffffffffffffffffffffffffffff\n      and\n      0xffffffffffffffffffffffffffffffffffffffff\n      and\n      dup2\n      mstore\n      0x20\n      add\n      swap1\n      dup2\n      mstore\n      0x20\n      add\n      0x00\n      keccak256\n        /* \"Contracts/vesting.sol\":2839:2842  ind */\n      dup4\n        /* \"Contracts/vesting.sol\":2808:2843  beneficiaryDetails[msg.sender][ind] */\n      0xff\n      and\n      dup2\n      sload\n      dup2\n      lt\n      tag_104\n      jumpi\n      tag_105\n      tag_69\n      jump\t// in\n    tag_105:\n    tag_104:\n      swap1\n      0x00\n      mstore\n      keccak256(0x00, 0x20)\n      swap1\n      0x07\n      mul\n      add\n        /* \"Contracts/vesting.sol\":2808:2855  beneficiaryDetails[msg.sender][ind].slicePeriod */\n      0x05\n      add\n      sload\n        /* \"Contracts/vesting.sol\":2763:2781  beneficiaryDetails */\n      0x01\n        /* \"Contracts/vesting.sol\":2763:2793  beneficiaryDetails[msg.sender] */\n      0x00\n        /* \"Contracts/vesting.sol\":2782:2792  msg.sender */\n      caller\n        /* \"Contracts/vesting.sol\":2763:2793  beneficiaryDetails[msg.sender] */\n      0xffffffffffffffffffffffffffffffffffffffff\n      and\n      0xffffffffffffffffffffffffffffffffffffffff\n      and\n      dup2\n      mstore\n      0x20\n      add\n      swap1\n      dup2\n      mstore\n      0x20\n      add\n      0x00\n      keccak256\n        /* \"Contracts/vesting.sol\":2794:2797  ind */\n      dup5\n        /* \"Contracts/vesting.sol\":2763:2798  beneficiaryDetails[msg.sender][ind] */\n      0xff\n      and\n      dup2\n      sload\n      dup2\n      lt\n      tag_107\n      jumpi\n      tag_108\n      tag_69\n      jump\t// in\n    tag_108:\n    tag_107:\n      swap1\n      0x00\n      mstore\n      keccak256(0x00, 0x20)\n      swap1\n      0x07\n      mul\n      add\n        /* \"Contracts/vesting.sol\":2763:2807  beneficiaryDetails[msg.sender][ind].duration */\n      0x04\n      add\n      sload\n        /* \"Contracts/vesting.sol\":2763:2855  beneficiaryDetails[msg.sender][ind].duration/beneficiaryDetails[msg.sender][ind].slicePeriod */\n      tag_110\n      swap2\n      swap1\n      tag_111\n      jump\t// in\n    tag_110:\n        /* \"Contracts/vesting.sol\":2739:2855  uint totalNoOfPeriods = beneficiaryDetails[msg.sender][ind].duration/beneficiaryDetails[msg.sender][ind].slicePeriod */\n      swap1\n      pop\n        /* \"Contracts/vesting.sol\":2865:2885  uint tokensPerPeriod */\n      0x00\n        /* \"Contracts/vesting.sol\":2938:2954  totalNoOfPeriods */\n      dup2\n        /* \"Contracts/vesting.sol\":2889:2907  beneficiaryDetails */\n      0x01\n        /* \"Contracts/vesting.sol\":2889:2919  beneficiaryDetails[msg.sender] */\n      0x00\n        /* \"Contracts/vesting.sol\":2908:2918  msg.sender */\n      caller\n        /* \"Contracts/vesting.sol\":2889:2919  beneficiaryDetails[msg.sender] */\n      0xffffffffffffffffffffffffffffffffffffffff\n      and\n      0xffffffffffffffffffffffffffffffffffffffff\n      and\n      dup2\n      mstore\n      0x20\n      add\n      swap1\n      dup2\n      mstore\n      0x20\n      add\n      0x00\n      keccak256\n        /* \"Contracts/vesting.sol\":2920:2923  ind */\n      dup6\n        /* \"Contracts/vesting.sol\":2889:2924  beneficiaryDetails[msg.sender][ind] */\n      0xff\n      and\n      dup2\n      sload\n      dup2\n      lt\n      tag_112\n      jumpi\n      tag_113\n      tag_69\n      jump\t// in\n    tag_113:\n    tag_112:\n      swap1\n      0x00\n      mstore\n      keccak256(0x00, 0x20)\n      swap1\n      0x07\n      mul\n      add\n        /* \"Contracts/vesting.sol\":2889:2935  beneficiaryDetails[msg.sender][ind].noOfTokens */\n      0x01\n      add\n      sload\n        /* \"Contracts/vesting.sol\":2888:2955  (beneficiaryDetails[msg.sender][ind].noOfTokens)/(totalNoOfPeriods) */\n      tag_115\n      swap2\n      swap1\n      tag_111\n      jump\t// in\n    tag_115:\n        /* \"Contracts/vesting.sol\":2865:2955  uint tokensPerPeriod = (beneficiaryDetails[msg.sender][ind].noOfTokens)/(totalNoOfPeriods) */\n      swap1\n      pop\n        /* \"Contracts/vesting.sol\":2965:2990  uint timePeriodSinceStart */\n      0x00\n        /* \"Contracts/vesting.sol\":3011:3029  beneficiaryDetails */\n      0x01\n        /* \"Contracts/vesting.sol\":3011:3041  beneficiaryDetails[msg.sender] */\n      0x00\n        /* \"Contracts/vesting.sol\":3030:3040  msg.sender */\n      caller\n        /* \"Contracts/vesting.sol\":3011:3041  beneficiaryDetails[msg.sender] */\n      0xffffffffffffffffffffffffffffffffffffffff\n      and\n      0xffffffffffffffffffffffffffffffffffffffff\n      and\n      dup2\n      mstore\n      0x20\n      add\n      swap1\n      dup2\n      mstore\n      0x20\n      add\n      0x00\n      keccak256\n        /* \"Contracts/vesting.sol\":3042:3045  ind */\n      dup6\n        /* \"Contracts/vesting.sol\":3011:3046  beneficiaryDetails[msg.sender][ind] */\n      0xff\n      and\n      dup2\n      sload\n      dup2\n      lt\n      tag_116\n      jumpi\n      tag_117\n      tag_69\n      jump\t// in\n    tag_117:\n    tag_116:\n      swap1\n      0x00\n      mstore\n      keccak256(0x00, 0x20)\n      swap1\n      0x07\n      mul\n      add\n        /* \"Contracts/vesting.sol\":3011:3056  beneficiaryDetails[msg.sender][ind].startTime */\n      0x03\n      add\n      sload\n        /* \"Contracts/vesting.sol\":2993:3008  block.timestamp */\n      timestamp\n        /* \"Contracts/vesting.sol\":2993:3056  block.timestamp - beneficiaryDetails[msg.sender][ind].startTime */\n      tag_119\n      swap2\n      swap1\n      tag_120\n      jump\t// in\n    tag_119:\n        /* \"Contracts/vesting.sol\":2965:3056  uint timePeriodSinceStart = block.timestamp - beneficiaryDetails[msg.sender][ind].startTime */\n      swap1\n      pop\n        /* \"Contracts/vesting.sol\":3066:3089  uint noOfPeriodsTillNow */\n      0x00\n        /* \"Contracts/vesting.sol\":3114:3132  beneficiaryDetails */\n      0x01\n        /* \"Contracts/vesting.sol\":3114:3144  beneficiaryDetails[msg.sender] */\n      0x00\n        /* \"Contracts/vesting.sol\":3133:3143  msg.sender */\n      caller\n        /* \"Contracts/vesting.sol\":3114:3144  beneficiaryDetails[msg.sender] */\n      0xffffffffffffffffffffffffffffffffffffffff\n      and\n      0xffffffffffffffffffffffffffffffffffffffff\n      and\n      dup2\n      mstore\n      0x20\n      add\n      swap1\n      dup2\n      mstore\n      0x20\n      add\n      0x00\n      keccak256\n        /* \"Contracts/vesting.sol\":3145:3148  ind */\n      dup7\n        /* \"Contracts/vesting.sol\":3114:3149  beneficiaryDetails[msg.sender][ind] */\n      0xff\n      and\n      dup2\n      sload\n      dup2\n      lt\n      tag_121\n      jumpi\n      tag_122\n      tag_69\n      jump\t// in\n    tag_122:\n    tag_121:\n      swap1\n      0x00\n      mstore\n      keccak256(0x00, 0x20)\n      swap1\n      0x07\n      mul\n      add\n        /* \"Contracts/vesting.sol\":3114:3161  beneficiaryDetails[msg.sender][ind].slicePeriod */\n      0x05\n      add\n      sload\n        /* \"Contracts/vesting.sol\":3092:3112  timePeriodSinceStart */\n      dup3\n        /* \"Contracts/vesting.sol\":3092:3162  timePeriodSinceStart/(beneficiaryDetails[msg.sender][ind].slicePeriod) */\n      tag_124\n      swap2\n      swap1\n      tag_111\n      jump\t// in\n    tag_124:\n        /* \"Contracts/vesting.sol\":3066:3162  uint noOfPeriodsTillNow = timePeriodSinceStart/(beneficiaryDetails[msg.sender][ind].slicePeriod) */\n      swap1\n      pop\n        /* \"Contracts/vesting.sol\":3172:3194  uint noOfTokensTillNow */\n      0x00\n        /* \"Contracts/vesting.sol\":3238:3252  releasedTokens */\n      0x02\n        /* \"Contracts/vesting.sol\":3238:3264  releasedTokens[msg.sender] */\n      0x00\n        /* \"Contracts/vesting.sol\":3253:3263  msg.sender */\n      caller\n        /* \"Contracts/vesting.sol\":3238:3264  releasedTokens[msg.sender] */\n      0xffffffffffffffffffffffffffffffffffffffff\n      and\n      0xffffffffffffffffffffffffffffffffffffffff\n      and\n      dup2\n      mstore\n      0x20\n      add\n      swap1\n      dup2\n      mstore\n      0x20\n      add\n      0x00\n      keccak256\n        /* \"Contracts/vesting.sol\":3238:3269  releasedTokens[msg.sender][ind] */\n      0x00\n        /* \"Contracts/vesting.sol\":3265:3268  ind */\n      dup9\n        /* \"Contracts/vesting.sol\":3238:3269  releasedTokens[msg.sender][ind] */\n      0xff\n      and\n      dup2\n      mstore\n      0x20\n      add\n      swap1\n      dup2\n      mstore\n      0x20\n      add\n      0x00\n      keccak256\n      sload\n        /* \"Contracts/vesting.sol\":3219:3234  tokensPerPeriod */\n      dup5\n        /* \"Contracts/vesting.sol\":3198:3216  noOfPeriodsTillNow */\n      dup4\n        /* \"Contracts/vesting.sol\":3198:3234  noOfPeriodsTillNow * tokensPerPeriod */\n      tag_125\n      swap2\n      swap1\n      tag_126\n      jump\t// in\n    tag_125:\n        /* \"Contracts/vesting.sol\":3197:3269  (noOfPeriodsTillNow * tokensPerPeriod) - releasedTokens[msg.sender][ind] */\n      tag_127\n      swap2\n      swap1\n      tag_120\n      jump\t// in\n    tag_127:\n        /* \"Contracts/vesting.sol\":3172:3269  uint noOfTokensTillNow = (noOfPeriodsTillNow * tokensPerPeriod) - releasedTokens[msg.sender][ind] */\n      swap1\n      pop\n        /* \"Contracts/vesting.sol\":3306:3322  totalNoOfPeriods */\n      dup5\n        /* \"Contracts/vesting.sol\":3284:3302  noOfPeriodsTillNow */\n      dup3\n        /* \"Contracts/vesting.sol\":3284:3322  noOfPeriodsTillNow >= totalNoOfPeriods */\n      lt\n        /* \"Contracts/vesting.sol\":3281:3461  if(noOfPeriodsTillNow >= totalNoOfPeriods){ //Exceeded the duration... */\n      tag_128\n      jumpi\n        /* \"Contracts/vesting.sol\":3419:3433  releasedTokens */\n      0x02\n        /* \"Contracts/vesting.sol\":3419:3445  releasedTokens[msg.sender] */\n      0x00\n        /* \"Contracts/vesting.sol\":3434:3444  msg.sender */\n      caller\n        /* \"Contracts/vesting.sol\":3419:3445  releasedTokens[msg.sender] */\n      0xffffffffffffffffffffffffffffffffffffffff\n      and\n      0xffffffffffffffffffffffffffffffffffffffff\n      and\n      dup2\n      mstore\n      0x20\n      add\n      swap1\n      dup2\n      mstore\n      0x20\n      add\n      0x00\n      keccak256\n        /* \"Contracts/vesting.sol\":3419:3450  releasedTokens[msg.sender][ind] */\n      0x00\n        /* \"Contracts/vesting.sol\":3446:3449  ind */\n      dup9\n        /* \"Contracts/vesting.sol\":3419:3450  releasedTokens[msg.sender][ind] */\n      0xff\n      and\n      dup2\n      mstore\n      0x20\n      add\n      swap1\n      dup2\n      mstore\n      0x20\n      add\n      0x00\n      keccak256\n      sload\n        /* \"Contracts/vesting.sol\":3369:3387  beneficiaryDetails */\n      0x01\n        /* \"Contracts/vesting.sol\":3369:3399  beneficiaryDetails[msg.sender] */\n      0x00\n        /* \"Contracts/vesting.sol\":3388:3398  msg.sender */\n      caller\n        /* \"Contracts/vesting.sol\":3369:3399  beneficiaryDetails[msg.sender] */\n      0xffffffffffffffffffffffffffffffffffffffff\n      and\n      0xffffffffffffffffffffffffffffffffffffffff\n      and\n      dup2\n      mstore\n      0x20\n      add\n      swap1\n      dup2\n      mstore\n      0x20\n      add\n      0x00\n      keccak256\n        /* \"Contracts/vesting.sol\":3400:3403  ind */\n      dup9\n        /* \"Contracts/vesting.sol\":3369:3404  beneficiaryDetails[msg.sender][ind] */\n      0xff\n      and\n      dup2\n      sload\n      dup2\n      lt\n      tag_129\n      jumpi\n      tag_130\n      tag_69\n      jump\t// in\n    tag_130:\n    tag_129:\n      swap1\n      0x00\n      mstore\n      keccak256(0x00, 0x20)\n      swap1\n      0x07\n      mul\n      add\n        /* \"Contracts/vesting.sol\":3369:3415  beneficiaryDetails[msg.sender][ind].noOfTokens */\n      0x01\n      add\n      sload\n        /* \"Contracts/vesting.sol\":3368:3450  (beneficiaryDetails[msg.sender][ind].noOfTokens) - releasedTokens[msg.sender][ind] */\n      tag_132\n      swap2\n      swap1\n      tag_120\n      jump\t// in\n    tag_132:\n        /* \"Contracts/vesting.sol\":3361:3450  return (beneficiaryDetails[msg.sender][ind].noOfTokens) - releasedTokens[msg.sender][ind] */\n      swap6\n      pop\n      pop\n      pop\n      pop\n      pop\n      pop\n      jump(tag_103)\n        /* \"Contracts/vesting.sol\":3281:3461  if(noOfPeriodsTillNow >= totalNoOfPeriods){ //Exceeded the duration... */\n    tag_128:\n        /* \"Contracts/vesting.sol\":3478:3495  noOfTokensTillNow */\n      dup1\n        /* \"Contracts/vesting.sol\":3471:3495  return noOfTokensTillNow */\n      swap6\n      pop\n      pop\n      pop\n      pop\n      pop\n      pop\n        /* \"Contracts/vesting.sol\":2667:3503  function unlockTokens(uint8 ind) internal view returns(uint) {... */\n    tag_103:\n      swap2\n      swap1\n      pop\n      jump\t// out\n        /* \"#utility.yul\":88:205   */\n    tag_134:\n        /* \"#utility.yul\":197:198   */\n      0x00\n        /* \"#utility.yul\":194:195   */\n      dup1\n        /* \"#utility.yul\":187:199   */\n      revert\n        /* \"#utility.yul\":334:460   */\n    tag_136:\n        /* \"#utility.yul\":371:378   */\n      0x00\n        /* \"#utility.yul\":411:453   */\n      0xffffffffffffffffffffffffffffffffffffffff\n        /* \"#utility.yul\":404:409   */\n      dup3\n        /* \"#utility.yul\":400:454   */\n      and\n        /* \"#utility.yul\":389:454   */\n      swap1\n      pop\n        /* \"#utility.yul\":334:460   */\n      swap2\n      swap1\n      pop\n      jump\t// out\n        /* \"#utility.yul\":466:562   */\n    tag_137:\n        /* \"#utility.yul\":503:510   */\n      0x00\n        /* \"#utility.yul\":532:556   */\n      tag_173\n        /* \"#utility.yul\":550:555   */\n      dup3\n        /* \"#utility.yul\":532:556   */\n      tag_136\n      jump\t// in\n    tag_173:\n        /* \"#utility.yul\":521:556   */\n      swap1\n      pop\n        /* \"#utility.yul\":466:562   */\n      swap2\n      swap1\n      pop\n      jump\t// out\n        /* \"#utility.yul\":568:690   */\n    tag_138:\n        /* \"#utility.yul\":641:665   */\n      tag_175\n        /* \"#utility.yul\":659:664   */\n      dup2\n        /* \"#utility.yul\":641:665   */\n      tag_137\n      jump\t// in\n    tag_175:\n        /* \"#utility.yul\":634:639   */\n      dup2\n        /* \"#utility.yul\":631:666   */\n      eq\n        /* \"#utility.yul\":621:684   */\n      tag_176\n      jumpi\n        /* \"#utility.yul\":680:681   */\n      0x00\n        /* \"#utility.yul\":677:678   */\n      dup1\n        /* \"#utility.yul\":670:682   */\n      revert\n        /* \"#utility.yul\":621:684   */\n    tag_176:\n        /* \"#utility.yul\":568:690   */\n      pop\n      jump\t// out\n        /* \"#utility.yul\":696:835   */\n    tag_139:\n        /* \"#utility.yul\":742:747   */\n      0x00\n        /* \"#utility.yul\":780:786   */\n      dup2\n        /* \"#utility.yul\":767:787   */\n      calldataload\n        /* \"#utility.yul\":758:787   */\n      swap1\n      pop\n        /* \"#utility.yul\":796:829   */\n      tag_178\n        /* \"#utility.yul\":823:828   */\n      dup2\n        /* \"#utility.yul\":796:829   */\n      tag_138\n      jump\t// in\n    tag_178:\n        /* \"#utility.yul\":696:835   */\n      swap3\n      swap2\n      pop\n      pop\n      jump\t// out\n        /* \"#utility.yul\":841:918   */\n    tag_140:\n        /* \"#utility.yul\":878:885   */\n      0x00\n        /* \"#utility.yul\":907:912   */\n      dup2\n        /* \"#utility.yul\":896:912   */\n      swap1\n      pop\n        /* \"#utility.yul\":841:918   */\n      swap2\n      swap1\n      pop\n      jump\t// out\n        /* \"#utility.yul\":924:1046   */\n    tag_141:\n        /* \"#utility.yul\":997:1021   */\n      tag_181\n        /* \"#utility.yul\":1015:1020   */\n      dup2\n        /* \"#utility.yul\":997:1021   */\n      tag_140\n      jump\t// in\n    tag_181:\n        /* \"#utility.yul\":990:995   */\n      dup2\n        /* \"#utility.yul\":987:1022   */\n      eq\n        /* \"#utility.yul\":977:1040   */\n      tag_182\n      jumpi\n        /* \"#utility.yul\":1036:1037   */\n      0x00\n        /* \"#utility.yul\":1033:1034   */\n      dup1\n        /* \"#utility.yul\":1026:1038   */\n      revert\n        /* \"#utility.yul\":977:1040   */\n    tag_182:\n        /* \"#utility.yul\":924:1046   */\n      pop\n      jump\t// out\n        /* \"#utility.yul\":1052:1191   */\n    tag_142:\n        /* \"#utility.yul\":1098:1103   */\n      0x00\n        /* \"#utility.yul\":1136:1142   */\n      dup2\n        /* \"#utility.yul\":1123:1143   */\n      calldataload\n        /* \"#utility.yul\":1114:1143   */\n      swap1\n      pop\n        /* \"#utility.yul\":1152:1185   */\n      tag_184\n        /* \"#utility.yul\":1179:1184   */\n      dup2\n        /* \"#utility.yul\":1152:1185   */\n      tag_141\n      jump\t// in\n    tag_184:\n        /* \"#utility.yul\":1052:1191   */\n      swap3\n      swap2\n      pop\n      pop\n      jump\t// out\n        /* \"#utility.yul\":1197:2108   */\n    tag_14:\n        /* \"#utility.yul\":1292:1298   */\n      0x00\n        /* \"#utility.yul\":1300:1306   */\n      dup1\n        /* \"#utility.yul\":1308:1314   */\n      0x00\n        /* \"#utility.yul\":1316:1322   */\n      dup1\n        /* \"#utility.yul\":1324:1330   */\n      0x00\n        /* \"#utility.yul\":1373:1376   */\n      0xa0\n        /* \"#utility.yul\":1361:1370   */\n      dup7\n        /* \"#utility.yul\":1352:1359   */\n      dup9\n        /* \"#utility.yul\":1348:1371   */\n      sub\n        /* \"#utility.yul\":1344:1377   */\n      slt\n        /* \"#utility.yul\":1341:1461   */\n      iszero\n      tag_186\n      jumpi\n        /* \"#utility.yul\":1380:1459   */\n      tag_187\n      tag_134\n      jump\t// in\n    tag_187:\n        /* \"#utility.yul\":1341:1461   */\n    tag_186:\n        /* \"#utility.yul\":1500:1501   */\n      0x00\n        /* \"#utility.yul\":1525:1578   */\n      tag_188\n        /* \"#utility.yul\":1570:1577   */\n      dup9\n        /* \"#utility.yul\":1561:1567   */\n      dup3\n        /* \"#utility.yul\":1550:1559   */\n      dup10\n        /* \"#utility.yul\":1546:1568   */\n      add\n        /* \"#utility.yul\":1525:1578   */\n      tag_139\n      jump\t// in\n    tag_188:\n        /* \"#utility.yul\":1515:1578   */\n      swap6\n      pop\n        /* \"#utility.yul\":1471:1588   */\n      pop\n        /* \"#utility.yul\":1627:1629   */\n      0x20\n        /* \"#utility.yul\":1653:1706   */\n      tag_189\n        /* \"#utility.yul\":1698:1705   */\n      dup9\n        /* \"#utility.yul\":1689:1695   */\n      dup3\n        /* \"#utility.yul\":1678:1687   */\n      dup10\n        /* \"#utility.yul\":1674:1696   */\n      add\n        /* \"#utility.yul\":1653:1706   */\n      tag_142\n      jump\t// in\n    tag_189:\n        /* \"#utility.yul\":1643:1706   */\n      swap5\n      pop\n        /* \"#utility.yul\":1598:1716   */\n      pop\n        /* \"#utility.yul\":1755:1757   */\n      0x40\n        /* \"#utility.yul\":1781:1834   */\n      tag_190\n        /* \"#utility.yul\":1826:1833   */\n      dup9\n        /* \"#utility.yul\":1817:1823   */\n      dup3\n        /* \"#utility.yul\":1806:1815   */\n      dup10\n        /* \"#utility.yul\":1802:1824   */\n      add\n        /* \"#utility.yul\":1781:1834   */\n      tag_142\n      jump\t// in\n    tag_190:\n        /* \"#utility.yul\":1771:1834   */\n      swap4\n      pop\n        /* \"#utility.yul\":1726:1844   */\n      pop\n        /* \"#utility.yul\":1883:1885   */\n      0x60\n        /* \"#utility.yul\":1909:1962   */\n      tag_191\n        /* \"#utility.yul\":1954:1961   */\n      dup9\n        /* \"#utility.yul\":1945:1951   */\n      dup3\n        /* \"#utility.yul\":1934:1943   */\n      dup10\n        /* \"#utility.yul\":1930:1952   */\n      add\n        /* \"#utility.yul\":1909:1962   */\n      tag_142\n      jump\t// in\n    tag_191:\n        /* \"#utility.yul\":1899:1962   */\n      swap3\n      pop\n        /* \"#utility.yul\":1854:1972   */\n      pop\n        /* \"#utility.yul\":2011:2014   */\n      0x80\n        /* \"#utility.yul\":2038:2091   */\n      tag_192\n        /* \"#utility.yul\":2083:2090   */\n      dup9\n        /* \"#utility.yul\":2074:2080   */\n      dup3\n        /* \"#utility.yul\":2063:2072   */\n      dup10\n        /* \"#utility.yul\":2059:2081   */\n      add\n        /* \"#utility.yul\":2038:2091   */\n      tag_142\n      jump\t// in\n    tag_192:\n        /* \"#utility.yul\":2028:2091   */\n      swap2\n      pop\n        /* \"#utility.yul\":1982:2101   */\n      pop\n        /* \"#utility.yul\":1197:2108   */\n      swap3\n      swap6\n      pop\n      swap3\n      swap6\n      swap1\n      swap4\n      pop\n      jump\t// out\n        /* \"#utility.yul\":2114:2443   */\n    tag_18:\n        /* \"#utility.yul\":2173:2179   */\n      0x00\n        /* \"#utility.yul\":2222:2224   */\n      0x20\n        /* \"#utility.yul\":2210:2219   */\n      dup3\n        /* \"#utility.yul\":2201:2208   */\n      dup5\n        /* \"#utility.yul\":2197:2220   */\n      sub\n        /* \"#utility.yul\":2193:2225   */\n      slt\n        /* \"#utility.yul\":2190:2309   */\n      iszero\n      tag_194\n      jumpi\n        /* \"#utility.yul\":2228:2307   */\n      tag_195\n      tag_134\n      jump\t// in\n    tag_195:\n        /* \"#utility.yul\":2190:2309   */\n    tag_194:\n        /* \"#utility.yul\":2348:2349   */\n      0x00\n        /* \"#utility.yul\":2373:2426   */\n      tag_196\n        /* \"#utility.yul\":2418:2425   */\n      dup5\n        /* \"#utility.yul\":2409:2415   */\n      dup3\n        /* \"#utility.yul\":2398:2407   */\n      dup6\n        /* \"#utility.yul\":2394:2416   */\n      add\n        /* \"#utility.yul\":2373:2426   */\n      tag_139\n      jump\t// in\n    tag_196:\n        /* \"#utility.yul\":2363:2426   */\n      swap2\n      pop\n        /* \"#utility.yul\":2319:2436   */\n      pop\n        /* \"#utility.yul\":2114:2443   */\n      swap3\n      swap2\n      pop\n      pop\n      jump\t// out\n        /* \"#utility.yul\":2449:2923   */\n    tag_22:\n        /* \"#utility.yul\":2517:2523   */\n      0x00\n        /* \"#utility.yul\":2525:2531   */\n      dup1\n        /* \"#utility.yul\":2574:2576   */\n      0x40\n        /* \"#utility.yul\":2562:2571   */\n      dup4\n        /* \"#utility.yul\":2553:2560   */\n      dup6\n        /* \"#utility.yul\":2549:2572   */\n      sub\n        /* \"#utility.yul\":2545:2577   */\n      slt\n        /* \"#utility.yul\":2542:2661   */\n      iszero\n      tag_198\n      jumpi\n        /* \"#utility.yul\":2580:2659   */\n      tag_199\n      tag_134\n      jump\t// in\n    tag_199:\n        /* \"#utility.yul\":2542:2661   */\n    tag_198:\n        /* \"#utility.yul\":2700:2701   */\n      0x00\n        /* \"#utility.yul\":2725:2778   */\n      tag_200\n        /* \"#utility.yul\":2770:2777   */\n      dup6\n        /* \"#utility.yul\":2761:2767   */\n      dup3\n        /* \"#utility.yul\":2750:2759   */\n      dup7\n        /* \"#utility.yul\":2746:2768   */\n      add\n        /* \"#utility.yul\":2725:2778   */\n      tag_139\n      jump\t// in\n    tag_200:\n        /* \"#utility.yul\":2715:2778   */\n      swap3\n      pop\n        /* \"#utility.yul\":2671:2788   */\n      pop\n        /* \"#utility.yul\":2827:2829   */\n      0x20\n        /* \"#utility.yul\":2853:2906   */\n      tag_201\n        /* \"#utility.yul\":2898:2905   */\n      dup6\n        /* \"#utility.yul\":2889:2895   */\n      dup3\n        /* \"#utility.yul\":2878:2887   */\n      dup7\n        /* \"#utility.yul\":2874:2896   */\n      add\n        /* \"#utility.yul\":2853:2906   */\n      tag_142\n      jump\t// in\n    tag_201:\n        /* \"#utility.yul\":2843:2906   */\n      swap2\n      pop\n        /* \"#utility.yul\":2798:2916   */\n      pop\n        /* \"#utility.yul\":2449:2923   */\n      swap3\n      pop\n      swap3\n      swap1\n      pop\n      jump\t// out\n        /* \"#utility.yul\":2929:3047   */\n    tag_143:\n        /* \"#utility.yul\":3016:3040   */\n      tag_203\n        /* \"#utility.yul\":3034:3039   */\n      dup2\n        /* \"#utility.yul\":3016:3040   */\n      tag_137\n      jump\t// in\n    tag_203:\n        /* \"#utility.yul\":3011:3014   */\n      dup3\n        /* \"#utility.yul\":3004:3041   */\n      mstore\n        /* \"#utility.yul\":2929:3047   */\n      pop\n      pop\n      jump\t// out\n        /* \"#utility.yul\":3053:3171   */\n    tag_144:\n        /* \"#utility.yul\":3140:3164   */\n      tag_205\n        /* \"#utility.yul\":3158:3163   */\n      dup2\n        /* \"#utility.yul\":3140:3164   */\n      tag_140\n      jump\t// in\n    tag_205:\n        /* \"#utility.yul\":3135:3138   */\n      dup3\n        /* \"#utility.yul\":3128:3165   */\n      mstore\n        /* \"#utility.yul\":3053:3171   */\n      pop\n      pop\n      jump\t// out\n        /* \"#utility.yul\":3177:3267   */\n    tag_145:\n        /* \"#utility.yul\":3211:3218   */\n      0x00\n        /* \"#utility.yul\":3254:3259   */\n      dup2\n        /* \"#utility.yul\":3247:3260   */\n      iszero\n        /* \"#utility.yul\":3240:3261   */\n      iszero\n        /* \"#utility.yul\":3229:3261   */\n      swap1\n      pop\n        /* \"#utility.yul\":3177:3267   */\n      swap2\n      swap1\n      pop\n      jump\t// out\n        /* \"#utility.yul\":3273:3382   */\n    tag_146:\n        /* \"#utility.yul\":3354:3375   */\n      tag_208\n        /* \"#utility.yul\":3369:3374   */\n      dup2\n        /* \"#utility.yul\":3354:3375   */\n      tag_145\n      jump\t// in\n    tag_208:\n        /* \"#utility.yul\":3349:3352   */\n      dup3\n        /* \"#utility.yul\":3342:3376   */\n      mstore\n        /* \"#utility.yul\":3273:3382   */\n      pop\n      pop\n      jump\t// out\n        /* \"#utility.yul\":3388:4262   */\n    tag_25:\n        /* \"#utility.yul\":3643:3647   */\n      0x00\n        /* \"#utility.yul\":3681:3684   */\n      0xe0\n        /* \"#utility.yul\":3670:3679   */\n      dup3\n        /* \"#utility.yul\":3666:3685   */\n      add\n        /* \"#utility.yul\":3658:3685   */\n      swap1\n      pop\n        /* \"#utility.yul\":3695:3766   */\n      tag_210\n        /* \"#utility.yul\":3763:3764   */\n      0x00\n        /* \"#utility.yul\":3752:3761   */\n      dup4\n        /* \"#utility.yul\":3748:3765   */\n      add\n        /* \"#utility.yul\":3739:3745   */\n      dup11\n        /* \"#utility.yul\":3695:3766   */\n      tag_143\n      jump\t// in\n    tag_210:\n        /* \"#utility.yul\":3776:3848   */\n      tag_211\n        /* \"#utility.yul\":3844:3846   */\n      0x20\n        /* \"#utility.yul\":3833:3842   */\n      dup4\n        /* \"#utility.yul\":3829:3847   */\n      add\n        /* \"#utility.yul\":3820:3826   */\n      dup10\n        /* \"#utility.yul\":3776:3848   */\n      tag_144\n      jump\t// in\n    tag_211:\n        /* \"#utility.yul\":3858:3930   */\n      tag_212\n        /* \"#utility.yul\":3926:3928   */\n      0x40\n        /* \"#utility.yul\":3915:3924   */\n      dup4\n        /* \"#utility.yul\":3911:3929   */\n      add\n        /* \"#utility.yul\":3902:3908   */\n      dup9\n        /* \"#utility.yul\":3858:3930   */\n      tag_144\n      jump\t// in\n    tag_212:\n        /* \"#utility.yul\":3940:4012   */\n      tag_213\n        /* \"#utility.yul\":4008:4010   */\n      0x60\n        /* \"#utility.yul\":3997:4006   */\n      dup4\n        /* \"#utility.yul\":3993:4011   */\n      add\n        /* \"#utility.yul\":3984:3990   */\n      dup8\n        /* \"#utility.yul\":3940:4012   */\n      tag_144\n      jump\t// in\n    tag_213:\n        /* \"#utility.yul\":4022:4095   */\n      tag_214\n        /* \"#utility.yul\":4090:4093   */\n      0x80\n        /* \"#utility.yul\":4079:4088   */\n      dup4\n        /* \"#utility.yul\":4075:4094   */\n      add\n        /* \"#utility.yul\":4066:4072   */\n      dup7\n        /* \"#utility.yul\":4022:4095   */\n      tag_144\n      jump\t// in\n    tag_214:\n        /* \"#utility.yul\":4105:4178   */\n      tag_215\n        /* \"#utility.yul\":4173:4176   */\n      0xa0\n        /* \"#utility.yul\":4162:4171   */\n      dup4\n        /* \"#utility.yul\":4158:4177   */\n      add\n        /* \"#utility.yul\":4149:4155   */\n      dup6\n        /* \"#utility.yul\":4105:4178   */\n      tag_144\n      jump\t// in\n    tag_215:\n        /* \"#utility.yul\":4188:4255   */\n      tag_216\n        /* \"#utility.yul\":4250:4253   */\n      0xc0\n        /* \"#utility.yul\":4239:4248   */\n      dup4\n        /* \"#utility.yul\":4235:4254   */\n      add\n        /* \"#utility.yul\":4226:4232   */\n      dup5\n        /* \"#utility.yul\":4188:4255   */\n      tag_146\n      jump\t// in\n    tag_216:\n        /* \"#utility.yul\":3388:4262   */\n      swap9\n      swap8\n      pop\n      pop\n      pop\n      pop\n      pop\n      pop\n      pop\n      pop\n      jump\t// out\n        /* \"#utility.yul\":4268:4742   */\n    tag_28:\n        /* \"#utility.yul\":4336:4342   */\n      0x00\n        /* \"#utility.yul\":4344:4350   */\n      dup1\n        /* \"#utility.yul\":4393:4395   */\n      0x40\n        /* \"#utility.yul\":4381:4390   */\n      dup4\n        /* \"#utility.yul\":4372:4379   */\n      dup6\n        /* \"#utility.yul\":4368:4391   */\n      sub\n        /* \"#utility.yul\":4364:4396   */\n      slt\n        /* \"#utility.yul\":4361:4480   */\n      iszero\n      tag_218\n      jumpi\n        /* \"#utility.yul\":4399:4478   */\n      tag_219\n      tag_134\n      jump\t// in\n    tag_219:\n        /* \"#utility.yul\":4361:4480   */\n    tag_218:\n        /* \"#utility.yul\":4519:4520   */\n      0x00\n        /* \"#utility.yul\":4544:4597   */\n      tag_220\n        /* \"#utility.yul\":4589:4596   */\n      dup6\n        /* \"#utility.yul\":4580:4586   */\n      dup3\n        /* \"#utility.yul\":4569:4578   */\n      dup7\n        /* \"#utility.yul\":4565:4587   */\n      add\n        /* \"#utility.yul\":4544:4597   */\n      tag_139\n      jump\t// in\n    tag_220:\n        /* \"#utility.yul\":4534:4597   */\n      swap3\n      pop\n        /* \"#utility.yul\":4490:4607   */\n      pop\n        /* \"#utility.yul\":4646:4648   */\n      0x20\n        /* \"#utility.yul\":4672:4725   */\n      tag_221\n        /* \"#utility.yul\":4717:4724   */\n      dup6\n        /* \"#utility.yul\":4708:4714   */\n      dup3\n        /* \"#utility.yul\":4697:4706   */\n      dup7\n        /* \"#utility.yul\":4693:4715   */\n      add\n        /* \"#utility.yul\":4672:4725   */\n      tag_139\n      jump\t// in\n    tag_221:\n        /* \"#utility.yul\":4662:4725   */\n      swap2\n      pop\n        /* \"#utility.yul\":4617:4735   */\n      pop\n        /* \"#utility.yul\":4268:4742   */\n      swap3\n      pop\n      swap3\n      swap1\n      pop\n      jump\t// out\n        /* \"#utility.yul\":4748:4958   */\n    tag_31:\n        /* \"#utility.yul\":4835:4839   */\n      0x00\n        /* \"#utility.yul\":4873:4875   */\n      0x20\n        /* \"#utility.yul\":4862:4871   */\n      dup3\n        /* \"#utility.yul\":4858:4876   */\n      add\n        /* \"#utility.yul\":4850:4876   */\n      swap1\n      pop\n        /* \"#utility.yul\":4886:4951   */\n      tag_223\n        /* \"#utility.yul\":4948:4949   */\n      0x00\n        /* \"#utility.yul\":4937:4946   */\n      dup4\n        /* \"#utility.yul\":4933:4950   */\n      add\n        /* \"#utility.yul\":4924:4930   */\n      dup5\n        /* \"#utility.yul\":4886:4951   */\n      tag_146\n      jump\t// in\n    tag_223:\n        /* \"#utility.yul\":4748:4958   */\n      swap3\n      swap2\n      pop\n      pop\n      jump\t// out\n        /* \"#utility.yul\":4964:5050   */\n    tag_147:\n        /* \"#utility.yul\":4999:5006   */\n      0x00\n        /* \"#utility.yul\":5039:5043   */\n      0xff\n        /* \"#utility.yul\":5032:5037   */\n      dup3\n        /* \"#utility.yul\":5028:5044   */\n      and\n        /* \"#utility.yul\":5017:5044   */\n      swap1\n      pop\n        /* \"#utility.yul\":4964:5050   */\n      swap2\n      swap1\n      pop\n      jump\t// out\n        /* \"#utility.yul\":5056:5174   */\n    tag_148:\n        /* \"#utility.yul\":5127:5149   */\n      tag_226\n        /* \"#utility.yul\":5143:5148   */\n      dup2\n        /* \"#utility.yul\":5127:5149   */\n      tag_147\n      jump\t// in\n    tag_226:\n        /* \"#utility.yul\":5120:5125   */\n      dup2\n        /* \"#utility.yul\":5117:5150   */\n      eq\n        /* \"#utility.yul\":5107:5168   */\n      tag_227\n      jumpi\n        /* \"#utility.yul\":5164:5165   */\n      0x00\n        /* \"#utility.yul\":5161:5162   */\n      dup1\n        /* \"#utility.yul\":5154:5166   */\n      revert\n        /* \"#utility.yul\":5107:5168   */\n    tag_227:\n        /* \"#utility.yul\":5056:5174   */\n      pop\n      jump\t// out\n        /* \"#utility.yul\":5180:5315   */\n    tag_149:\n        /* \"#utility.yul\":5224:5229   */\n      0x00\n        /* \"#utility.yul\":5262:5268   */\n      dup2\n        /* \"#utility.yul\":5249:5269   */\n      calldataload\n        /* \"#utility.yul\":5240:5269   */\n      swap1\n      pop\n        /* \"#utility.yul\":5278:5309   */\n      tag_229\n        /* \"#utility.yul\":5303:5308   */\n      dup2\n        /* \"#utility.yul\":5278:5309   */\n      tag_148\n      jump\t// in\n    tag_229:\n        /* \"#utility.yul\":5180:5315   */\n      swap3\n      swap2\n      pop\n      pop\n      jump\t// out\n        /* \"#utility.yul\":5321:5646   */\n    tag_34:\n        /* \"#utility.yul\":5378:5384   */\n      0x00\n        /* \"#utility.yul\":5427:5429   */\n      0x20\n        /* \"#utility.yul\":5415:5424   */\n      dup3\n        /* \"#utility.yul\":5406:5413   */\n      dup5\n        /* \"#utility.yul\":5402:5425   */\n      sub\n        /* \"#utility.yul\":5398:5430   */\n      slt\n        /* \"#utility.yul\":5395:5514   */\n      iszero\n      tag_231\n      jumpi\n        /* \"#utility.yul\":5433:5512   */\n      tag_232\n      tag_134\n      jump\t// in\n    tag_232:\n        /* \"#utility.yul\":5395:5514   */\n    tag_231:\n        /* \"#utility.yul\":5553:5554   */\n      0x00\n        /* \"#utility.yul\":5578:5629   */\n      tag_233\n        /* \"#utility.yul\":5621:5628   */\n      dup5\n        /* \"#utility.yul\":5612:5618   */\n      dup3\n        /* \"#utility.yul\":5601:5610   */\n      dup6\n        /* \"#utility.yul\":5597:5619   */\n      add\n        /* \"#utility.yul\":5578:5629   */\n      tag_149\n      jump\t// in\n    tag_233:\n        /* \"#utility.yul\":5568:5629   */\n      swap2\n      pop\n        /* \"#utility.yul\":5524:5639   */\n      pop\n        /* \"#utility.yul\":5321:5646   */\n      swap3\n      swap2\n      pop\n      pop\n      jump\t// out\n        /* \"#utility.yul\":5652:5874   */\n    tag_39:\n        /* \"#utility.yul\":5745:5749   */\n      0x00\n        /* \"#utility.yul\":5783:5785   */\n      0x20\n        /* \"#utility.yul\":5772:5781   */\n      dup3\n        /* \"#utility.yul\":5768:5786   */\n      add\n        /* \"#utility.yul\":5760:5786   */\n      swap1\n      pop\n        /* \"#utility.yul\":5796:5867   */\n      tag_235\n        /* \"#utility.yul\":5864:5865   */\n      0x00\n        /* \"#utility.yul\":5853:5862   */\n      dup4\n        /* \"#utility.yul\":5849:5866   */\n      add\n        /* \"#utility.yul\":5840:5846   */\n      dup5\n        /* \"#utility.yul\":5796:5867   */\n      tag_144\n      jump\t// in\n    tag_235:\n        /* \"#utility.yul\":5652:5874   */\n      swap3\n      swap2\n      pop\n      pop\n      jump\t// out\n        /* \"#utility.yul\":5880:5940   */\n    tag_150:\n        /* \"#utility.yul\":5908:5911   */\n      0x00\n        /* \"#utility.yul\":5929:5934   */\n      dup2\n        /* \"#utility.yul\":5922:5934   */\n      swap1\n      pop\n        /* \"#utility.yul\":5880:5940   */\n      swap2\n      swap1\n      pop\n      jump\t// out\n        /* \"#utility.yul\":5946:6088   */\n    tag_151:\n        /* \"#utility.yul\":5996:6005   */\n      0x00\n        /* \"#utility.yul\":6029:6082   */\n      tag_238\n        /* \"#utility.yul\":6047:6081   */\n      tag_239\n        /* \"#utility.yul\":6056:6080   */\n      tag_240\n        /* \"#utility.yul\":6074:6079   */\n      dup5\n        /* \"#utility.yul\":6056:6080   */\n      tag_136\n      jump\t// in\n    tag_240:\n        /* \"#utility.yul\":6047:6081   */\n      tag_150\n      jump\t// in\n    tag_239:\n        /* \"#utility.yul\":6029:6082   */\n      tag_136\n      jump\t// in\n    tag_238:\n        /* \"#utility.yul\":6016:6082   */\n      swap1\n      pop\n        /* \"#utility.yul\":5946:6088   */\n      swap2\n      swap1\n      pop\n      jump\t// out\n        /* \"#utility.yul\":6094:6220   */\n    tag_152:\n        /* \"#utility.yul\":6144:6153   */\n      0x00\n        /* \"#utility.yul\":6177:6214   */\n      tag_242\n        /* \"#utility.yul\":6208:6213   */\n      dup3\n        /* \"#utility.yul\":6177:6214   */\n      tag_151\n      jump\t// in\n    tag_242:\n        /* \"#utility.yul\":6164:6214   */\n      swap1\n      pop\n        /* \"#utility.yul\":6094:6220   */\n      swap2\n      swap1\n      pop\n      jump\t// out\n        /* \"#utility.yul\":6226:6366   */\n    tag_153:\n        /* \"#utility.yul\":6290:6299   */\n      0x00\n        /* \"#utility.yul\":6323:6360   */\n      tag_244\n        /* \"#utility.yul\":6354:6359   */\n      dup3\n        /* \"#utility.yul\":6323:6360   */\n      tag_152\n      jump\t// in\n    tag_244:\n        /* \"#utility.yul\":6310:6360   */\n      swap1\n      pop\n        /* \"#utility.yul\":6226:6366   */\n      swap2\n      swap1\n      pop\n      jump\t// out\n        /* \"#utility.yul\":6372:6531   */\n    tag_154:\n        /* \"#utility.yul\":6473:6524   */\n      tag_246\n        /* \"#utility.yul\":6518:6523   */\n      dup2\n        /* \"#utility.yul\":6473:6524   */\n      tag_153\n      jump\t// in\n    tag_246:\n        /* \"#utility.yul\":6468:6471   */\n      dup3\n        /* \"#utility.yul\":6461:6525   */\n      mstore\n        /* \"#utility.yul\":6372:6531   */\n      pop\n      pop\n      jump\t// out\n        /* \"#utility.yul\":6537:6787   */\n    tag_47:\n        /* \"#utility.yul\":6644:6648   */\n      0x00\n        /* \"#utility.yul\":6682:6684   */\n      0x20\n        /* \"#utility.yul\":6671:6680   */\n      dup3\n        /* \"#utility.yul\":6667:6685   */\n      add\n        /* \"#utility.yul\":6659:6685   */\n      swap1\n      pop\n        /* \"#utility.yul\":6695:6780   */\n      tag_248\n        /* \"#utility.yul\":6777:6778   */\n      0x00\n        /* \"#utility.yul\":6766:6775   */\n      dup4\n        /* \"#utility.yul\":6762:6779   */\n      add\n        /* \"#utility.yul\":6753:6759   */\n      dup5\n        /* \"#utility.yul\":6695:6780   */\n      tag_154\n      jump\t// in\n    tag_248:\n        /* \"#utility.yul\":6537:6787   */\n      swap3\n      swap2\n      pop\n      pop\n      jump\t// out\n        /* \"#utility.yul\":6793:6962   */\n    tag_155:\n        /* \"#utility.yul\":6877:6888   */\n      0x00\n        /* \"#utility.yul\":6911:6917   */\n      dup3\n        /* \"#utility.yul\":6906:6909   */\n      dup3\n        /* \"#utility.yul\":6899:6918   */\n      mstore\n        /* \"#utility.yul\":6951:6955   */\n      0x20\n        /* \"#utility.yul\":6946:6949   */\n      dup3\n        /* \"#utility.yul\":6942:6956   */\n      add\n        /* \"#utility.yul\":6927:6956   */\n      swap1\n      pop\n        /* \"#utility.yul\":6793:6962   */\n      swap3\n      swap2\n      pop\n      pop\n      jump\t// out\n        /* \"#utility.yul\":6968:7135   */\n    tag_156:\n        /* \"#utility.yul\":7108:7127   */\n      0x546f6b656e206e6f7420616c6c6f776564000000000000000000000000000000\n        /* \"#utility.yul\":7104:7105   */\n      0x00\n        /* \"#utility.yul\":7096:7102   */\n      dup3\n        /* \"#utility.yul\":7092:7106   */\n      add\n        /* \"#utility.yul\":7085:7128   */\n      mstore\n        /* \"#utility.yul\":6968:7135   */\n      pop\n      jump\t// out\n        /* \"#utility.yul\":7141:7507   */\n    tag_157:\n        /* \"#utility.yul\":7283:7286   */\n      0x00\n        /* \"#utility.yul\":7304:7371   */\n      tag_252\n        /* \"#utility.yul\":7368:7370   */\n      0x11\n        /* \"#utility.yul\":7363:7366   */\n      dup4\n        /* \"#utility.yul\":7304:7371   */\n      tag_155\n      jump\t// in\n    tag_252:\n        /* \"#utility.yul\":7297:7371   */\n      swap2\n      pop\n        /* \"#utility.yul\":7380:7473   */\n      tag_253\n        /* \"#utility.yul\":7469:7472   */\n      dup3\n        /* \"#utility.yul\":7380:7473   */\n      tag_156\n      jump\t// in\n    tag_253:\n        /* \"#utility.yul\":7498:7500   */\n      0x20\n        /* \"#utility.yul\":7493:7496   */\n      dup3\n        /* \"#utility.yul\":7489:7501   */\n      add\n        /* \"#utility.yul\":7482:7501   */\n      swap1\n      pop\n        /* \"#utility.yul\":7141:7507   */\n      swap2\n      swap1\n      pop\n      jump\t// out\n        /* \"#utility.yul\":7513:7932   */\n    tag_51:\n        /* \"#utility.yul\":7679:7683   */\n      0x00\n        /* \"#utility.yul\":7717:7719   */\n      0x20\n        /* \"#utility.yul\":7706:7715   */\n      dup3\n        /* \"#utility.yul\":7702:7720   */\n      add\n        /* \"#utility.yul\":7694:7720   */\n      swap1\n      pop\n        /* \"#utility.yul\":7766:7775   */\n      dup2\n        /* \"#utility.yul\":7760:7764   */\n      dup2\n        /* \"#utility.yul\":7756:7776   */\n      sub\n        /* \"#utility.yul\":7752:7753   */\n      0x00\n        /* \"#utility.yul\":7741:7750   */\n      dup4\n        /* \"#utility.yul\":7737:7754   */\n      add\n        /* \"#utility.yul\":7730:7777   */\n      mstore\n        /* \"#utility.yul\":7794:7925   */\n      tag_255\n        /* \"#utility.yul\":7920:7924   */\n      dup2\n        /* \"#utility.yul\":7794:7925   */\n      tag_157\n      jump\t// in\n    tag_255:\n        /* \"#utility.yul\":7786:7925   */\n      swap1\n      pop\n        /* \"#utility.yul\":7513:7932   */\n      swap2\n      swap1\n      pop\n      jump\t// out\n        /* \"#utility.yul\":7938:8118   */\n    tag_158:\n        /* \"#utility.yul\":7986:8063   */\n      0x4e487b7100000000000000000000000000000000000000000000000000000000\n        /* \"#utility.yul\":7983:7984   */\n      0x00\n        /* \"#utility.yul\":7976:8064   */\n      mstore\n        /* \"#utility.yul\":8083:8087   */\n      0x11\n        /* \"#utility.yul\":8080:8081   */\n      0x04\n        /* \"#utility.yul\":8073:8088   */\n      mstore\n        /* \"#utility.yul\":8107:8111   */\n      0x24\n        /* \"#utility.yul\":8104:8105   */\n      0x00\n        /* \"#utility.yul\":8097:8112   */\n      revert\n        /* \"#utility.yul\":8124:8315   */\n    tag_54:\n        /* \"#utility.yul\":8164:8167   */\n      0x00\n        /* \"#utility.yul\":8183:8203   */\n      tag_258\n        /* \"#utility.yul\":8201:8202   */\n      dup3\n        /* \"#utility.yul\":8183:8203   */\n      tag_140\n      jump\t// in\n    tag_258:\n        /* \"#utility.yul\":8178:8203   */\n      swap2\n      pop\n        /* \"#utility.yul\":8217:8237   */\n      tag_259\n        /* \"#utility.yul\":8235:8236   */\n      dup4\n        /* \"#utility.yul\":8217:8237   */\n      tag_140\n      jump\t// in\n    tag_259:\n        /* \"#utility.yul\":8212:8237   */\n      swap3\n      pop\n        /* \"#utility.yul\":8260:8261   */\n      dup3\n        /* \"#utility.yul\":8257:8258   */\n      dup3\n        /* \"#utility.yul\":8253:8262   */\n      add\n        /* \"#utility.yul\":8246:8262   */\n      swap1\n      pop\n        /* \"#utility.yul\":8281:8284   */\n      dup1\n        /* \"#utility.yul\":8278:8279   */\n      dup3\n        /* \"#utility.yul\":8275:8285   */\n      gt\n        /* \"#utility.yul\":8272:8308   */\n      iszero\n      tag_260\n      jumpi\n        /* \"#utility.yul\":8288:8306   */\n      tag_261\n      tag_158\n      jump\t// in\n    tag_261:\n        /* \"#utility.yul\":8272:8308   */\n    tag_260:\n        /* \"#utility.yul\":8124:8315   */\n      swap3\n      swap2\n      pop\n      pop\n      jump\t// out\n        /* \"#utility.yul\":8321:8763   */\n    tag_57:\n        /* \"#utility.yul\":8470:8474   */\n      0x00\n        /* \"#utility.yul\":8508:8510   */\n      0x60\n        /* \"#utility.yul\":8497:8506   */\n      dup3\n        /* \"#utility.yul\":8493:8511   */\n      add\n        /* \"#utility.yul\":8485:8511   */\n      swap1\n      pop\n        /* \"#utility.yul\":8521:8592   */\n      tag_263\n        /* \"#utility.yul\":8589:8590   */\n      0x00\n        /* \"#utility.yul\":8578:8587   */\n      dup4\n        /* \"#utility.yul\":8574:8591   */\n      add\n        /* \"#utility.yul\":8565:8571   */\n      dup7\n        /* \"#utility.yul\":8521:8592   */\n      tag_143\n      jump\t// in\n    tag_263:\n        /* \"#utility.yul\":8602:8674   */\n      tag_264\n        /* \"#utility.yul\":8670:8672   */\n      0x20\n        /* \"#utility.yul\":8659:8668   */\n      dup4\n        /* \"#utility.yul\":8655:8673   */\n      add\n        /* \"#utility.yul\":8646:8652   */\n      dup6\n        /* \"#utility.yul\":8602:8674   */\n      tag_143\n      jump\t// in\n    tag_264:\n        /* \"#utility.yul\":8684:8756   */\n      tag_265\n        /* \"#utility.yul\":8752:8754   */\n      0x40\n        /* \"#utility.yul\":8741:8750   */\n      dup4\n        /* \"#utility.yul\":8737:8755   */\n      add\n        /* \"#utility.yul\":8728:8734   */\n      dup5\n        /* \"#utility.yul\":8684:8756   */\n      tag_144\n      jump\t// in\n    tag_265:\n        /* \"#utility.yul\":8321:8763   */\n      swap5\n      swap4\n      pop\n      pop\n      pop\n      pop\n      jump\t// out\n        /* \"#utility.yul\":8769:8885   */\n    tag_159:\n        /* \"#utility.yul\":8839:8860   */\n      tag_267\n        /* \"#utility.yul\":8854:8859   */\n      dup2\n        /* \"#utility.yul\":8839:8860   */\n      tag_145\n      jump\t// in\n    tag_267:\n        /* \"#utility.yul\":8832:8837   */\n      dup2\n        /* \"#utility.yul\":8829:8861   */\n      eq\n        /* \"#utility.yul\":8819:8879   */\n      tag_268\n      jumpi\n        /* \"#utility.yul\":8875:8876   */\n      0x00\n        /* \"#utility.yul\":8872:8873   */\n      dup1\n        /* \"#utility.yul\":8865:8877   */\n      revert\n        /* \"#utility.yul\":8819:8879   */\n    tag_268:\n        /* \"#utility.yul\":8769:8885   */\n      pop\n      jump\t// out\n        /* \"#utility.yul\":8891:9028   */\n    tag_160:\n        /* \"#utility.yul\":8945:8950   */\n      0x00\n        /* \"#utility.yul\":8976:8982   */\n      dup2\n        /* \"#utility.yul\":8970:8983   */\n      mload\n        /* \"#utility.yul\":8961:8983   */\n      swap1\n      pop\n        /* \"#utility.yul\":8992:9022   */\n      tag_270\n        /* \"#utility.yul\":9016:9021   */\n      dup2\n        /* \"#utility.yul\":8992:9022   */\n      tag_159\n      jump\t// in\n    tag_270:\n        /* \"#utility.yul\":8891:9028   */\n      swap3\n      swap2\n      pop\n      pop\n      jump\t// out\n        /* \"#utility.yul\":9034:9379   */\n    tag_61:\n        /* \"#utility.yul\":9101:9107   */\n      0x00\n        /* \"#utility.yul\":9150:9152   */\n      0x20\n        /* \"#utility.yul\":9138:9147   */\n      dup3\n        /* \"#utility.yul\":9129:9136   */\n      dup5\n        /* \"#utility.yul\":9125:9148   */\n      sub\n        /* \"#utility.yul\":9121:9153   */\n      slt\n        /* \"#utility.yul\":9118:9237   */\n      iszero\n      tag_272\n      jumpi\n        /* \"#utility.yul\":9156:9235   */\n      tag_273\n      tag_134\n      jump\t// in\n    tag_273:\n        /* \"#utility.yul\":9118:9237   */\n    tag_272:\n        /* \"#utility.yul\":9276:9277   */\n      0x00\n        /* \"#utility.yul\":9301:9362   */\n      tag_274\n        /* \"#utility.yul\":9354:9361   */\n      dup5\n        /* \"#utility.yul\":9345:9351   */\n      dup3\n        /* \"#utility.yul\":9334:9343   */\n      dup6\n        /* \"#utility.yul\":9330:9352   */\n      add\n        /* \"#utility.yul\":9301:9362   */\n      tag_160\n      jump\t// in\n    tag_274:\n        /* \"#utility.yul\":9291:9362   */\n      swap2\n      pop\n        /* \"#utility.yul\":9247:9372   */\n      pop\n        /* \"#utility.yul\":9034:9379   */\n      swap3\n      swap2\n      pop\n      pop\n      jump\t// out\n        /* \"#utility.yul\":9385:9565   */\n    tag_69:\n        /* \"#utility.yul\":9433:9510   */\n      0x4e487b7100000000000000000000000000000000000000000000000000000000\n        /* \"#utility.yul\":9430:9431   */\n      0x00\n        /* \"#utility.yul\":9423:9511   */\n      mstore\n        /* \"#utility.yul\":9530:9534   */\n      0x32\n        /* \"#utility.yul\":9527:9528   */\n      0x04\n        /* \"#utility.yul\":9520:9535   */\n      mstore\n        /* \"#utility.yul\":9554:9558   */\n      0x24\n        /* \"#utility.yul\":9551:9552   */\n      0x00\n        /* \"#utility.yul\":9544:9559   */\n      revert\n        /* \"#utility.yul\":9571:9739   */\n    tag_161:\n        /* \"#utility.yul\":9711:9731   */\n      0x4e6f20746f6b656e7320756e6c6f636b65640000000000000000000000000000\n        /* \"#utility.yul\":9707:9708   */\n      0x00\n        /* \"#utility.yul\":9699:9705   */\n      dup3\n        /* \"#utility.yul\":9695:9709   */\n      add\n        /* \"#utility.yul\":9688:9732   */\n      mstore\n        /* \"#utility.yul\":9571:9739   */\n      pop\n      jump\t// out\n        /* \"#utility.yul\":9745:10111   */\n    tag_162:\n        /* \"#utility.yul\":9887:9890   */\n      0x00\n        /* \"#utility.yul\":9908:9975   */\n      tag_278\n        /* \"#utility.yul\":9972:9974   */\n      0x12\n        /* \"#utility.yul\":9967:9970   */\n      dup4\n        /* \"#utility.yul\":9908:9975   */\n      tag_155\n      jump\t// in\n    tag_278:\n        /* \"#utility.yul\":9901:9975   */\n      swap2\n      pop\n        /* \"#utility.yul\":9984:10077   */\n      tag_279\n        /* \"#utility.yul\":10073:10076   */\n      dup3\n        /* \"#utility.yul\":9984:10077   */\n      tag_161\n      jump\t// in\n    tag_279:\n        /* \"#utility.yul\":10102:10104   */\n      0x20\n        /* \"#utility.yul\":10097:10100   */\n      dup3\n        /* \"#utility.yul\":10093:10105   */\n      add\n        /* \"#utility.yul\":10086:10105   */\n      swap1\n      pop\n        /* \"#utility.yul\":9745:10111   */\n      swap2\n      swap1\n      pop\n      jump\t// out\n        /* \"#utility.yul\":10117:10536   */\n    tag_73:\n        /* \"#utility.yul\":10283:10287   */\n      0x00\n        /* \"#utility.yul\":10321:10323   */\n      0x20\n        /* \"#utility.yul\":10310:10319   */\n      dup3\n        /* \"#utility.yul\":10306:10324   */\n      add\n        /* \"#utility.yul\":10298:10324   */\n      swap1\n      pop\n        /* \"#utility.yul\":10370:10379   */\n      dup2\n        /* \"#utility.yul\":10364:10368   */\n      dup2\n        /* \"#utility.yul\":10360:10380   */\n      sub\n        /* \"#utility.yul\":10356:10357   */\n      0x00\n        /* \"#utility.yul\":10345:10354   */\n      dup4\n        /* \"#utility.yul\":10341:10358   */\n      add\n        /* \"#utility.yul\":10334:10381   */\n      mstore\n        /* \"#utility.yul\":10398:10529   */\n      tag_281\n        /* \"#utility.yul\":10524:10528   */\n      dup2\n        /* \"#utility.yul\":10398:10529   */\n      tag_162\n      jump\t// in\n    tag_281:\n        /* \"#utility.yul\":10390:10529   */\n      swap1\n      pop\n        /* \"#utility.yul\":10117:10536   */\n      swap2\n      swap1\n      pop\n      jump\t// out\n        /* \"#utility.yul\":10542:10716   */\n    tag_163:\n        /* \"#utility.yul\":10682:10708   */\n      0x546f6b656e7320616c72656164792077697468647261776e0000000000000000\n        /* \"#utility.yul\":10678:10679   */\n      0x00\n        /* \"#utility.yul\":10670:10676   */\n      dup3\n        /* \"#utility.yul\":10666:10680   */\n      add\n        /* \"#utility.yul\":10659:10709   */\n      mstore\n        /* \"#utility.yul\":10542:10716   */\n      pop\n      jump\t// out\n        /* \"#utility.yul\":10722:11088   */\n    tag_164:\n        /* \"#utility.yul\":10864:10867   */\n      0x00\n        /* \"#utility.yul\":10885:10952   */\n      tag_284\n        /* \"#utility.yul\":10949:10951   */\n      0x18\n        /* \"#utility.yul\":10944:10947   */\n      dup4\n        /* \"#utility.yul\":10885:10952   */\n      tag_155\n      jump\t// in\n    tag_284:\n        /* \"#utility.yul\":10878:10952   */\n      swap2\n      pop\n        /* \"#utility.yul\":10961:11054   */\n      tag_285\n        /* \"#utility.yul\":11050:11053   */\n      dup3\n        /* \"#utility.yul\":10961:11054   */\n      tag_163\n      jump\t// in\n    tag_285:\n        /* \"#utility.yul\":11079:11081   */\n      0x20\n        /* \"#utility.yul\":11074:11077   */\n      dup3\n        /* \"#utility.yul\":11070:11082   */\n      add\n        /* \"#utility.yul\":11063:11082   */\n      swap1\n      pop\n        /* \"#utility.yul\":10722:11088   */\n      swap2\n      swap1\n      pop\n      jump\t// out\n        /* \"#utility.yul\":11094:11513   */\n    tag_79:\n        /* \"#utility.yul\":11260:11264   */\n      0x00\n        /* \"#utility.yul\":11298:11300   */\n      0x20\n        /* \"#utility.yul\":11287:11296   */\n      dup3\n        /* \"#utility.yul\":11283:11301   */\n      add\n        /* \"#utility.yul\":11275:11301   */\n      swap1\n      pop\n        /* \"#utility.yul\":11347:11356   */\n      dup2\n        /* \"#utility.yul\":11341:11345   */\n      dup2\n        /* \"#utility.yul\":11337:11357   */\n      sub\n        /* \"#utility.yul\":11333:11334   */\n      0x00\n        /* \"#utility.yul\":11322:11331   */\n      dup4\n        /* \"#utility.yul\":11318:11335   */\n      add\n        /* \"#utility.yul\":11311:11358   */\n      mstore\n        /* \"#utility.yul\":11375:11506   */\n      tag_287\n        /* \"#utility.yul\":11501:11505   */\n      dup2\n        /* \"#utility.yul\":11375:11506   */\n      tag_164\n      jump\t// in\n    tag_287:\n        /* \"#utility.yul\":11367:11506   */\n      swap1\n      pop\n        /* \"#utility.yul\":11094:11513   */\n      swap2\n      swap1\n      pop\n      jump\t// out\n        /* \"#utility.yul\":11519:11851   */\n    tag_87:\n        /* \"#utility.yul\":11640:11644   */\n      0x00\n        /* \"#utility.yul\":11678:11680   */\n      0x40\n        /* \"#utility.yul\":11667:11676   */\n      dup3\n        /* \"#utility.yul\":11663:11681   */\n      add\n        /* \"#utility.yul\":11655:11681   */\n      swap1\n      pop\n        /* \"#utility.yul\":11691:11762   */\n      tag_289\n        /* \"#utility.yul\":11759:11760   */\n      0x00\n        /* \"#utility.yul\":11748:11757   */\n      dup4\n        /* \"#utility.yul\":11744:11761   */\n      add\n        /* \"#utility.yul\":11735:11741   */\n      dup6\n        /* \"#utility.yul\":11691:11762   */\n      tag_143\n      jump\t// in\n    tag_289:\n        /* \"#utility.yul\":11772:11844   */\n      tag_290\n        /* \"#utility.yul\":11840:11842   */\n      0x20\n        /* \"#utility.yul\":11829:11838   */\n      dup4\n        /* \"#utility.yul\":11825:11843   */\n      add\n        /* \"#utility.yul\":11816:11822   */\n      dup5\n        /* \"#utility.yul\":11772:11844   */\n      tag_144\n      jump\t// in\n    tag_290:\n        /* \"#utility.yul\":11519:11851   */\n      swap4\n      swap3\n      pop\n      pop\n      pop\n      jump\t// out\n        /* \"#utility.yul\":11857:12079   */\n    tag_98:\n        /* \"#utility.yul\":11950:11954   */\n      0x00\n        /* \"#utility.yul\":11988:11990   */\n      0x20\n        /* \"#utility.yul\":11977:11986   */\n      dup3\n        /* \"#utility.yul\":11973:11991   */\n      add\n        /* \"#utility.yul\":11965:11991   */\n      swap1\n      pop\n        /* \"#utility.yul\":12001:12072   */\n      tag_292\n        /* \"#utility.yul\":12069:12070   */\n      0x00\n        /* \"#utility.yul\":12058:12067   */\n      dup4\n        /* \"#utility.yul\":12054:12071   */\n      add\n        /* \"#utility.yul\":12045:12051   */\n      dup5\n        /* \"#utility.yul\":12001:12072   */\n      tag_143\n      jump\t// in\n    tag_292:\n        /* \"#utility.yul\":11857:12079   */\n      swap3\n      swap2\n      pop\n      pop\n      jump\t// out\n        /* \"#utility.yul\":12085:12228   */\n    tag_165:\n        /* \"#utility.yul\":12142:12147   */\n      0x00\n        /* \"#utility.yul\":12173:12179   */\n      dup2\n        /* \"#utility.yul\":12167:12180   */\n      mload\n        /* \"#utility.yul\":12158:12180   */\n      swap1\n      pop\n        /* \"#utility.yul\":12189:12222   */\n      tag_294\n        /* \"#utility.yul\":12216:12221   */\n      dup2\n        /* \"#utility.yul\":12189:12222   */\n      tag_141\n      jump\t// in\n    tag_294:\n        /* \"#utility.yul\":12085:12228   */\n      swap3\n      swap2\n      pop\n      pop\n      jump\t// out\n        /* \"#utility.yul\":12234:12585   */\n    tag_102:\n        /* \"#utility.yul\":12304:12310   */\n      0x00\n        /* \"#utility.yul\":12353:12355   */\n      0x20\n        /* \"#utility.yul\":12341:12350   */\n      dup3\n        /* \"#utility.yul\":12332:12339   */\n      dup5\n        /* \"#utility.yul\":12328:12351   */\n      sub\n        /* \"#utility.yul\":12324:12356   */\n      slt\n        /* \"#utility.yul\":12321:12440   */\n      iszero\n      tag_296\n      jumpi\n        /* \"#utility.yul\":12359:12438   */\n      tag_297\n      tag_134\n      jump\t// in\n    tag_297:\n        /* \"#utility.yul\":12321:12440   */\n    tag_296:\n        /* \"#utility.yul\":12479:12480   */\n      0x00\n        /* \"#utility.yul\":12504:12568   */\n      tag_298\n        /* \"#utility.yul\":12560:12567   */\n      dup5\n        /* \"#utility.yul\":12551:12557   */\n      dup3\n        /* \"#utility.yul\":12540:12549   */\n      dup6\n        /* \"#utility.yul\":12536:12558   */\n      add\n        /* \"#utility.yul\":12504:12568   */\n      tag_165\n      jump\t// in\n    tag_298:\n        /* \"#utility.yul\":12494:12568   */\n      swap2\n      pop\n        /* \"#utility.yul\":12450:12578   */\n      pop\n        /* \"#utility.yul\":12234:12585   */\n      swap3\n      swap2\n      pop\n      pop\n      jump\t// out\n        /* \"#utility.yul\":12591:12771   */\n    tag_166:\n        /* \"#utility.yul\":12639:12716   */\n      0x4e487b7100000000000000000000000000000000000000000000000000000000\n        /* \"#utility.yul\":12636:12637   */\n      0x00\n        /* \"#utility.yul\":12629:12717   */\n      mstore\n        /* \"#utility.yul\":12736:12740   */\n      0x12\n        /* \"#utility.yul\":12733:12734   */\n      0x04\n        /* \"#utility.yul\":12726:12741   */\n      mstore\n        /* \"#utility.yul\":12760:12764   */\n      0x24\n        /* \"#utility.yul\":12757:12758   */\n      0x00\n        /* \"#utility.yul\":12750:12765   */\n      revert\n        /* \"#utility.yul\":12777:12962   */\n    tag_111:\n        /* \"#utility.yul\":12817:12818   */\n      0x00\n        /* \"#utility.yul\":12834:12854   */\n      tag_301\n        /* \"#utility.yul\":12852:12853   */\n      dup3\n        /* \"#utility.yul\":12834:12854   */\n      tag_140\n      jump\t// in\n    tag_301:\n        /* \"#utility.yul\":12829:12854   */\n      swap2\n      pop\n        /* \"#utility.yul\":12868:12888   */\n      tag_302\n        /* \"#utility.yul\":12886:12887   */\n      dup4\n        /* \"#utility.yul\":12868:12888   */\n      tag_140\n      jump\t// in\n    tag_302:\n        /* \"#utility.yul\":12863:12888   */\n      swap3\n      pop\n        /* \"#utility.yul\":12907:12908   */\n      dup3\n        /* \"#utility.yul\":12897:12932   */\n      tag_303\n      jumpi\n        /* \"#utility.yul\":12912:12930   */\n      tag_304\n      tag_166\n      jump\t// in\n    tag_304:\n        /* \"#utility.yul\":12897:12932   */\n    tag_303:\n        /* \"#utility.yul\":12954:12955   */\n      dup3\n        /* \"#utility.yul\":12951:12952   */\n      dup3\n        /* \"#utility.yul\":12947:12956   */\n      div\n        /* \"#utility.yul\":12942:12956   */\n      swap1\n      pop\n        /* \"#utility.yul\":12777:12962   */\n      swap3\n      swap2\n      pop\n      pop\n      jump\t// out\n        /* \"#utility.yul\":12968:13162   */\n    tag_120:\n        /* \"#utility.yul\":13008:13012   */\n      0x00\n        /* \"#utility.yul\":13028:13048   */\n      tag_306\n        /* \"#utility.yul\":13046:13047   */\n      dup3\n        /* \"#utility.yul\":13028:13048   */\n      tag_140\n      jump\t// in\n    tag_306:\n        /* \"#utility.yul\":13023:13048   */\n      swap2\n      pop\n        /* \"#utility.yul\":13062:13082   */\n      tag_307\n        /* \"#utility.yul\":13080:13081   */\n      dup4\n        /* \"#utility.yul\":13062:13082   */\n      tag_140\n      jump\t// in\n    tag_307:\n        /* \"#utility.yul\":13057:13082   */\n      swap3\n      pop\n        /* \"#utility.yul\":13106:13107   */\n      dup3\n        /* \"#utility.yul\":13103:13104   */\n      dup3\n        /* \"#utility.yul\":13099:13108   */\n      sub\n        /* \"#utility.yul\":13091:13108   */\n      swap1\n      pop\n        /* \"#utility.yul\":13130:13131   */\n      dup2\n        /* \"#utility.yul\":13124:13128   */\n      dup2\n        /* \"#utility.yul\":13121:13132   */\n      gt\n        /* \"#utility.yul\":13118:13155   */\n      iszero\n      tag_308\n      jumpi\n        /* \"#utility.yul\":13135:13153   */\n      tag_309\n      tag_158\n      jump\t// in\n    tag_309:\n        /* \"#utility.yul\":13118:13155   */\n    tag_308:\n        /* \"#utility.yul\":12968:13162   */\n      swap3\n      swap2\n      pop\n      pop\n      jump\t// out\n        /* \"#utility.yul\":13168:13578   */\n    tag_126:\n        /* \"#utility.yul\":13208:13215   */\n      0x00\n        /* \"#utility.yul\":13231:13251   */\n      tag_311\n        /* \"#utility.yul\":13249:13250   */\n      dup3\n        /* \"#utility.yul\":13231:13251   */\n      tag_140\n      jump\t// in\n    tag_311:\n        /* \"#utility.yul\":13226:13251   */\n      swap2\n      pop\n        /* \"#utility.yul\":13265:13285   */\n      tag_312\n        /* \"#utility.yul\":13283:13284   */\n      dup4\n        /* \"#utility.yul\":13265:13285   */\n      tag_140\n      jump\t// in\n    tag_312:\n        /* \"#utility.yul\":13260:13285   */\n      swap3\n      pop\n        /* \"#utility.yul\":13320:13321   */\n      dup3\n        /* \"#utility.yul\":13317:13318   */\n      dup3\n        /* \"#utility.yul\":13313:13322   */\n      mul\n        /* \"#utility.yul\":13342:13372   */\n      tag_313\n        /* \"#utility.yul\":13360:13371   */\n      dup2\n        /* \"#utility.yul\":13342:13372   */\n      tag_140\n      jump\t// in\n    tag_313:\n        /* \"#utility.yul\":13331:13372   */\n      swap2\n      pop\n        /* \"#utility.yul\":13521:13522   */\n      dup3\n        /* \"#utility.yul\":13512:13519   */\n      dup3\n        /* \"#utility.yul\":13508:13523   */\n      div\n        /* \"#utility.yul\":13505:13506   */\n      dup5\n        /* \"#utility.yul\":13502:13524   */\n      eq\n        /* \"#utility.yul\":13482:13483   */\n      dup4\n        /* \"#utility.yul\":13475:13484   */\n      iszero\n        /* \"#utility.yul\":13455:13538   */\n      or\n        /* \"#utility.yul\":13432:13571   */\n      tag_314\n      jumpi\n        /* \"#utility.yul\":13551:13569   */\n      tag_315\n      tag_158\n      jump\t// in\n    tag_315:\n        /* \"#utility.yul\":13432:13571   */\n    tag_314:\n        /* \"#utility.yul\":13216:13578   */\n      pop\n        /* \"#utility.yul\":13168:13578   */\n      swap3\n      swap2\n      pop\n      pop\n      jump\t// out\n\n    auxdata: 0xa26469706673582212208b642bf17019504c1a86161edd6cda9d97ec2d00935895b5795e6e0b65a26ad164736f6c63430008120033\n}\n",
				"bytecode": {
					"linkReferences": {},
					"object": "608060405234801561001057600080fd5b50611705806100206000396000f3fe608060405234801561001057600080fd5b50600436106100885760003560e01c8063b1b393371161005b578063b1b393371461012b578063c71daccb14610147578063eef0934b14610165578063fc0c546a1461019557610088565b80633ce301e51461008d5780635fb2386e146100a957806373ce12d4146100c5578063b092145e146100fb575b600080fd5b6100a760048036038101906100a29190611016565b6101b3565b005b6100c360048036038101906100be9190611091565b61050c565b005b6100df60048036038101906100da91906110be565b6105a4565b6040516100f29796959493929190611137565b60405180910390f35b610115600480360381019061011091906111a6565b610630565b60405161012291906111e6565b60405180910390f35b6101456004803603810190610140919061123a565b61065f565b005b61014f610b05565b60405161015c9190611267565b60405180910390f35b61017f600480360381019061017a91906110be565b610ba7565b60405161018c9190611267565b60405180910390f35b61019d610bcc565b6040516101aa91906112e1565b60405180910390f35b600360003373ffffffffffffffffffffffffffffffffffffffff1673ffffffffffffffffffffffffffffffffffffffff16815260200190815260200160002060008673ffffffffffffffffffffffffffffffffffffffff1673ffffffffffffffffffffffffffffffffffffffff16815260200190815260200160002060009054906101000a900460ff1661027c576040517f08c379a000000000000000000000000000000000000000000000000000000000815260040161027390611359565b60405180910390fd5b6000841161028957600080fd5b846000806101000a81548173ffffffffffffffffffffffffffffffffffffffff021916908373ffffffffffffffffffffffffffffffffffffffff16021790555060006040518060e001604052808773ffffffffffffffffffffffffffffffffffffffff168152602001868152602001858152602001854261030a91906113a8565b8152602001848152602001838152602001600115158152509050600160003373ffffffffffffffffffffffffffffffffffffffff1673ffffffffffffffffffffffffffffffffffffffff16815260200190815260200160002081908060018154018082558091505060019003906000526020600020906007020160009091909190915060008201518160000160006101000a81548173ffffffffffffffffffffffffffffffffffffffff021916908373ffffffffffffffffffffffffffffffffffffffff1602179055506020820151816001015560408201518160020155606082015181600301556080820151816004015560a0820151816005015560c08201518160060160006101000a81548160ff021916908315150217905550505060008054906101000a900473ffffffffffffffffffffffffffffffffffffffff1673ffffffffffffffffffffffffffffffffffffffff166323b872dd3330886040518463ffffffff1660e01b8152600401610485939291906113dc565b6020604051808303816000875af11580156104a4573d6000803e3d6000fd5b505050506040513d601f19601f820116820180604052508101906104c8919061143f565b507faadb2f2750cbb4162df8d5f0c90b7562c816e56441c31f6acf40a6c9cd201c583387876040516104fc939291906113dc565b60405180910390a1505050505050565b6001600360003373ffffffffffffffffffffffffffffffffffffffff1673ffffffffffffffffffffffffffffffffffffffff16815260200190815260200160002060008373ffffffffffffffffffffffffffffffffffffffff1673ffffffffffffffffffffffffffffffffffffffff16815260200190815260200160002060006101000a81548160ff02191690831515021790555050565b600160205281600052604060002081815481106105c057600080fd5b9060005260206000209060070201600091509150508060000160009054906101000a900473ffffffffffffffffffffffffffffffffffffffff16908060010154908060020154908060030154908060040154908060050154908060060160009054906101000a900460ff16905087565b60036020528160005260406000206020528060005260406000206000915091509054906101000a900460ff1681565b600160003373ffffffffffffffffffffffffffffffffffffffff1673ffffffffffffffffffffffffffffffffffffffff1681526020019081526020016000208160ff16815481106106b3576106b261146c565b5b9060005260206000209060070201600301544211610706576040517f08c379a00000000000000000000000000000000000000000000000000000000081526004016106fd906114e7565b60405180910390fd5b600160003373ffffffffffffffffffffffffffffffffffffffff1673ffffffffffffffffffffffffffffffffffffffff1681526020019081526020016000208160ff168154811061075a5761075961146c565b5b906000526020600020906007020160010154600260003373ffffffffffffffffffffffffffffffffffffffff1673ffffffffffffffffffffffffffffffffffffffff16815260200190815260200160002060008360ff1681526020019081526020016000205410610800576040517f08c379a00000000000000000000000000000000000000000000000000000000081526004016107f790611553565b60405180910390fd5b600160003373ffffffffffffffffffffffffffffffffffffffff1673ffffffffffffffffffffffffffffffffffffffff1681526020019081526020016000208160ff16815481106108545761085361146c565b5b906000526020600020906007020160000160009054906101000a900473ffffffffffffffffffffffffffffffffffffffff166000806101000a81548173ffffffffffffffffffffffffffffffffffffffff021916908373ffffffffffffffffffffffffffffffffffffffff16021790555060006108d082610bf0565b9050600081036108df57600080fd5b60008054906101000a900473ffffffffffffffffffffffffffffffffffffffff1673ffffffffffffffffffffffffffffffffffffffff1663a9059cbb33836040518363ffffffff1660e01b815260040161093a929190611573565b6020604051808303816000875af1158015610959573d6000803e3d6000fd5b505050506040513d601f19601f8201168201806040525081019061097d919061143f565b5080600260003373ffffffffffffffffffffffffffffffffffffffff1673ffffffffffffffffffffffffffffffffffffffff16815260200190815260200160002060008460ff16815260200190815260200160002060008282546109e191906113a8565b925050819055506000600160003373ffffffffffffffffffffffffffffffffffffffff1673ffffffffffffffffffffffffffffffffffffffff1681526020019081526020016000208360ff1681548110610a3e57610a3d61146c565b5b906000526020600020906007020160000160009054906101000a900473ffffffffffffffffffffffffffffffffffffffff1690507f2e8fbf54cecd6c94b9cc0a4444bef56d7836157ea1f144da84df7e568c9ae4823382600260003373ffffffffffffffffffffffffffffffffffffffff1673ffffffffffffffffffffffffffffffffffffffff16815260200190815260200160002060008760ff16815260200190815260200160002054604051610af8939291906113dc565b60405180910390a1505050565b60008060009054906101000a900473ffffffffffffffffffffffffffffffffffffffff1673ffffffffffffffffffffffffffffffffffffffff166370a08231306040518263ffffffff1660e01b8152600401610b61919061159c565b602060405180830381865afa158015610b7e573d6000803e3d6000fd5b505050506040513d601f19601f82011682018060405250810190610ba291906115cc565b905090565b6002602052816000526040600020602052806000526040600020600091509150505481565b60008054906101000a900473ffffffffffffffffffffffffffffffffffffffff1681565b600080600160003373ffffffffffffffffffffffffffffffffffffffff1673ffffffffffffffffffffffffffffffffffffffff1681526020019081526020016000208360ff1681548110610c4757610c4661146c565b5b906000526020600020906007020160050154600160003373ffffffffffffffffffffffffffffffffffffffff1673ffffffffffffffffffffffffffffffffffffffff1681526020019081526020016000208460ff1681548110610cad57610cac61146c565b5b906000526020600020906007020160040154610cc99190611628565b9050600081600160003373ffffffffffffffffffffffffffffffffffffffff1673ffffffffffffffffffffffffffffffffffffffff1681526020019081526020016000208560ff1681548110610d2257610d2161146c565b5b906000526020600020906007020160010154610d3e9190611628565b90506000600160003373ffffffffffffffffffffffffffffffffffffffff1673ffffffffffffffffffffffffffffffffffffffff1681526020019081526020016000208560ff1681548110610d9657610d9561146c565b5b90600052602060002090600702016003015442610db39190611659565b90506000600160003373ffffffffffffffffffffffffffffffffffffffff1673ffffffffffffffffffffffffffffffffffffffff1681526020019081526020016000208660ff1681548110610e0b57610e0a61146c565b5b90600052602060002090600702016005015482610e289190611628565b90506000600260003373ffffffffffffffffffffffffffffffffffffffff1673ffffffffffffffffffffffffffffffffffffffff16815260200190815260200160002060008860ff168152602001908152602001600020548483610e8c919061168d565b610e969190611659565b9050848210610f6f57600260003373ffffffffffffffffffffffffffffffffffffffff1673ffffffffffffffffffffffffffffffffffffffff16815260200190815260200160002060008860ff16815260200190815260200160002054600160003373ffffffffffffffffffffffffffffffffffffffff1673ffffffffffffffffffffffffffffffffffffffff1681526020019081526020016000208860ff1681548110610f4757610f4661146c565b5b906000526020600020906007020160010154610f639190611659565b95505050505050610f78565b80955050505050505b919050565b600080fd5b600073ffffffffffffffffffffffffffffffffffffffff82169050919050565b6000610fad82610f82565b9050919050565b610fbd81610fa2565b8114610fc857600080fd5b50565b600081359050610fda81610fb4565b92915050565b6000819050919050565b610ff381610fe0565b8114610ffe57600080fd5b50565b60008135905061101081610fea565b92915050565b600080600080600060a0868803121561103257611031610f7d565b5b600061104088828901610fcb565b955050602061105188828901611001565b945050604061106288828901611001565b935050606061107388828901611001565b925050608061108488828901611001565b9150509295509295909350565b6000602082840312156110a7576110a6610f7d565b5b60006110b584828501610fcb565b91505092915050565b600080604083850312156110d5576110d4610f7d565b5b60006110e385828601610fcb565b92505060206110f485828601611001565b9150509250929050565b61110781610fa2565b82525050565b61111681610fe0565b82525050565b60008115159050919050565b6111318161111c565b82525050565b600060e08201905061114c600083018a6110fe565b611159602083018961110d565b611166604083018861110d565b611173606083018761110d565b611180608083018661110d565b61118d60a083018561110d565b61119a60c0830184611128565b98975050505050505050565b600080604083850312156111bd576111bc610f7d565b5b60006111cb85828601610fcb565b92505060206111dc85828601610fcb565b9150509250929050565b60006020820190506111fb6000830184611128565b92915050565b600060ff82169050919050565b61121781611201565b811461122257600080fd5b50565b6000813590506112348161120e565b92915050565b6000602082840312156112505761124f610f7d565b5b600061125e84828501611225565b91505092915050565b600060208201905061127c600083018461110d565b92915050565b6000819050919050565b60006112a76112a261129d84610f82565b611282565b610f82565b9050919050565b60006112b98261128c565b9050919050565b60006112cb826112ae565b9050919050565b6112db816112c0565b82525050565b60006020820190506112f660008301846112d2565b92915050565b600082825260208201905092915050565b7f546f6b656e206e6f7420616c6c6f776564000000000000000000000000000000600082015250565b60006113436011836112fc565b915061134e8261130d565b602082019050919050565b6000602082019050818103600083015261137281611336565b9050919050565b7f4e487b7100000000000000000000000000000000000000000000000000000000600052601160045260246000fd5b60006113b382610fe0565b91506113be83610fe0565b92508282019050808211156113d6576113d5611379565b5b92915050565b60006060820190506113f160008301866110fe565b6113fe60208301856110fe565b61140b604083018461110d565b949350505050565b61141c8161111c565b811461142757600080fd5b50565b60008151905061143981611413565b92915050565b60006020828403121561145557611454610f7d565b5b60006114638482850161142a565b91505092915050565b7f4e487b7100000000000000000000000000000000000000000000000000000000600052603260045260246000fd5b7f4e6f20746f6b656e7320756e6c6f636b65640000000000000000000000000000600082015250565b60006114d16012836112fc565b91506114dc8261149b565b602082019050919050565b60006020820190508181036000830152611500816114c4565b9050919050565b7f546f6b656e7320616c72656164792077697468647261776e0000000000000000600082015250565b600061153d6018836112fc565b915061154882611507565b602082019050919050565b6000602082019050818103600083015261156c81611530565b9050919050565b600060408201905061158860008301856110fe565b611595602083018461110d565b9392505050565b60006020820190506115b160008301846110fe565b92915050565b6000815190506115c681610fea565b92915050565b6000602082840312156115e2576115e1610f7d565b5b60006115f0848285016115b7565b91505092915050565b7f4e487b7100000000000000000000000000000000000000000000000000000000600052601260045260246000fd5b600061163382610fe0565b915061163e83610fe0565b92508261164e5761164d6115f9565b5b828204905092915050565b600061166482610fe0565b915061166f83610fe0565b925082820390508181111561168757611686611379565b5b92915050565b600061169882610fe0565b91506116a383610fe0565b92508282026116b181610fe0565b915082820484148315176116c8576116c7611379565b5b509291505056fea26469706673582212208b642bf17019504c1a86161edd6cda9d97ec2d00935895b5795e6e0b65a26ad164736f6c63430008120033",
					"opcodes": "PUSH1 0x80 PUSH1 0x40 MSTORE CALLVALUE DUP1 ISZERO PUSH2 0x10 JUMPI PUSH1 0x0 DUP1 REVERT JUMPDEST POP PUSH2 0x1705 DUP1 PUSH2 0x20 PUSH1 0x0 CODECOPY PUSH1 0x0 RETURN INVALID PUSH1 0x80 PUSH1 0x40 MSTORE CALLVALUE DUP1 ISZERO PUSH2 0x10 JUMPI PUSH1 0x0 DUP1 REVERT JUMPDEST POP PUSH1 0x4 CALLDATASIZE LT PUSH2 0x88 JUMPI PUSH1 0x0 CALLDATALOAD PUSH1 0xE0 SHR DUP1 PUSH4 0xB1B39337 GT PUSH2 0x5B JUMPI DUP1 PUSH4 0xB1B39337 EQ PUSH2 0x12B JUMPI DUP1 PUSH4 0xC71DACCB EQ PUSH2 0x147 JUMPI DUP1 PUSH4 0xEEF0934B EQ PUSH2 0x165 JUMPI DUP1 PUSH4 0xFC0C546A EQ PUSH2 0x195 JUMPI PUSH2 0x88 JUMP JUMPDEST DUP1 PUSH4 0x3CE301E5 EQ PUSH2 0x8D JUMPI DUP1 PUSH4 0x5FB2386E EQ PUSH2 0xA9 JUMPI DUP1 PUSH4 0x73CE12D4 EQ PUSH2 0xC5 JUMPI DUP1 PUSH4 0xB092145E EQ PUSH2 0xFB JUMPI JUMPDEST PUSH1 0x0 DUP1 REVERT JUMPDEST PUSH2 0xA7 PUSH1 0x4 DUP1 CALLDATASIZE SUB DUP2 ADD SWAP1 PUSH2 0xA2 SWAP2 SWAP1 PUSH2 0x1016 JUMP JUMPDEST PUSH2 0x1B3 JUMP JUMPDEST STOP JUMPDEST PUSH2 0xC3 PUSH1 0x4 DUP1 CALLDATASIZE SUB DUP2 ADD SWAP1 PUSH2 0xBE SWAP2 SWAP1 PUSH2 0x1091 JUMP JUMPDEST PUSH2 0x50C JUMP JUMPDEST STOP JUMPDEST PUSH2 0xDF PUSH1 0x4 DUP1 CALLDATASIZE SUB DUP2 ADD SWAP1 PUSH2 0xDA SWAP2 SWAP1 PUSH2 0x10BE JUMP JUMPDEST PUSH2 0x5A4 JUMP JUMPDEST PUSH1 0x40 MLOAD PUSH2 0xF2 SWAP8 SWAP7 SWAP6 SWAP5 SWAP4 SWAP3 SWAP2 SWAP1 PUSH2 0x1137 JUMP JUMPDEST PUSH1 0x40 MLOAD DUP1 SWAP2 SUB SWAP1 RETURN JUMPDEST PUSH2 0x115 PUSH1 0x4 DUP1 CALLDATASIZE SUB DUP2 ADD SWAP1 PUSH2 0x110 SWAP2 SWAP1 PUSH2 0x11A6 JUMP JUMPDEST PUSH2 0x630 JUMP JUMPDEST PUSH1 0x40 MLOAD PUSH2 0x122 SWAP2 SWAP1 PUSH2 0x11E6 JUMP JUMPDEST PUSH1 0x40 MLOAD DUP1 SWAP2 SUB SWAP1 RETURN JUMPDEST PUSH2 0x145 PUSH1 0x4 DUP1 CALLDATASIZE SUB DUP2 ADD SWAP1 PUSH2 0x140 SWAP2 SWAP1 PUSH2 0x123A JUMP JUMPDEST PUSH2 0x65F JUMP JUMPDEST STOP JUMPDEST PUSH2 0x14F PUSH2 0xB05 JUMP JUMPDEST PUSH1 0x40 MLOAD PUSH2 0x15C SWAP2 SWAP1 PUSH2 0x1267 JUMP JUMPDEST PUSH1 0x40 MLOAD DUP1 SWAP2 SUB SWAP1 RETURN JUMPDEST PUSH2 0x17F PUSH1 0x4 DUP1 CALLDATASIZE SUB DUP2 ADD SWAP1 PUSH2 0x17A SWAP2 SWAP1 PUSH2 0x10BE JUMP JUMPDEST PUSH2 0xBA7 JUMP JUMPDEST PUSH1 0x40 MLOAD PUSH2 0x18C SWAP2 SWAP1 PUSH2 0x1267 JUMP JUMPDEST PUSH1 0x40 MLOAD DUP1 SWAP2 SUB SWAP1 RETURN JUMPDEST PUSH2 0x19D PUSH2 0xBCC JUMP JUMPDEST PUSH1 0x40 MLOAD PUSH2 0x1AA SWAP2 SWAP1 PUSH2 0x12E1 JUMP JUMPDEST PUSH1 0x40 MLOAD DUP1 SWAP2 SUB SWAP1 RETURN JUMPDEST PUSH1 0x3 PUSH1 0x0 CALLER PUSH20 0xFFFFFFFFFFFFFFFFFFFFFFFFFFFFFFFFFFFFFFFF AND PUSH20 0xFFFFFFFFFFFFFFFFFFFFFFFFFFFFFFFFFFFFFFFF AND DUP2 MSTORE PUSH1 0x20 ADD SWAP1 DUP2 MSTORE PUSH1 0x20 ADD PUSH1 0x0 KECCAK256 PUSH1 0x0 DUP7 PUSH20 0xFFFFFFFFFFFFFFFFFFFFFFFFFFFFFFFFFFFFFFFF AND PUSH20 0xFFFFFFFFFFFFFFFFFFFFFFFFFFFFFFFFFFFFFFFF AND DUP2 MSTORE PUSH1 0x20 ADD SWAP1 DUP2 MSTORE PUSH1 0x20 ADD PUSH1 0x0 KECCAK256 PUSH1 0x0 SWAP1 SLOAD SWAP1 PUSH2 0x100 EXP SWAP1 DIV PUSH1 0xFF AND PUSH2 0x27C JUMPI PUSH1 0x40 MLOAD PUSH32 0x8C379A000000000000000000000000000000000000000000000000000000000 DUP2 MSTORE PUSH1 0x4 ADD PUSH2 0x273 SWAP1 PUSH2 0x1359 JUMP JUMPDEST PUSH1 0x40 MLOAD DUP1 SWAP2 SUB SWAP1 REVERT JUMPDEST PUSH1 0x0 DUP5 GT PUSH2 0x289 JUMPI PUSH1 0x0 DUP1 REVERT JUMPDEST DUP5 PUSH1 0x0 DUP1 PUSH2 0x100 EXP DUP2 SLOAD DUP2 PUSH20 0xFFFFFFFFFFFFFFFFFFFFFFFFFFFFFFFFFFFFFFFF MUL NOT AND SWAP1 DUP4 PUSH20 0xFFFFFFFFFFFFFFFFFFFFFFFFFFFFFFFFFFFFFFFF AND MUL OR SWAP1 SSTORE POP PUSH1 0x0 PUSH1 0x40 MLOAD DUP1 PUSH1 0xE0 ADD PUSH1 0x40 MSTORE DUP1 DUP8 PUSH20 0xFFFFFFFFFFFFFFFFFFFFFFFFFFFFFFFFFFFFFFFF AND DUP2 MSTORE PUSH1 0x20 ADD DUP7 DUP2 MSTORE PUSH1 0x20 ADD DUP6 DUP2 MSTORE PUSH1 0x20 ADD DUP6 TIMESTAMP PUSH2 0x30A SWAP2 SWAP1 PUSH2 0x13A8 JUMP JUMPDEST DUP2 MSTORE PUSH1 0x20 ADD DUP5 DUP2 MSTORE PUSH1 0x20 ADD DUP4 DUP2 MSTORE PUSH1 0x20 ADD PUSH1 0x1 ISZERO ISZERO DUP2 MSTORE POP SWAP1 POP PUSH1 0x1 PUSH1 0x0 CALLER PUSH20 0xFFFFFFFFFFFFFFFFFFFFFFFFFFFFFFFFFFFFFFFF AND PUSH20 0xFFFFFFFFFFFFFFFFFFFFFFFFFFFFFFFFFFFFFFFF AND DUP2 MSTORE PUSH1 0x20 ADD SWAP1 DUP2 MSTORE PUSH1 0x20 ADD PUSH1 0x0 KECCAK256 DUP2 SWAP1 DUP1 PUSH1 0x1 DUP2 SLOAD ADD DUP1 DUP3 SSTORE DUP1 SWAP2 POP POP PUSH1 0x1 SWAP1 SUB SWAP1 PUSH1 0x0 MSTORE PUSH1 0x20 PUSH1 0x0 KECCAK256 SWAP1 PUSH1 0x7 MUL ADD PUSH1 0x0 SWAP1 SWAP2 SWAP1 SWAP2 SWAP1 SWAP2 POP PUSH1 0x0 DUP3 ADD MLOAD DUP2 PUSH1 0x0 ADD PUSH1 0x0 PUSH2 0x100 EXP DUP2 SLOAD DUP2 PUSH20 0xFFFFFFFFFFFFFFFFFFFFFFFFFFFFFFFFFFFFFFFF MUL NOT AND SWAP1 DUP4 PUSH20 0xFFFFFFFFFFFFFFFFFFFFFFFFFFFFFFFFFFFFFFFF AND MUL OR SWAP1 SSTORE POP PUSH1 0x20 DUP3 ADD MLOAD DUP2 PUSH1 0x1 ADD SSTORE PUSH1 0x40 DUP3 ADD MLOAD DUP2 PUSH1 0x2 ADD SSTORE PUSH1 0x60 DUP3 ADD MLOAD DUP2 PUSH1 0x3 ADD SSTORE PUSH1 0x80 DUP3 ADD MLOAD DUP2 PUSH1 0x4 ADD SSTORE PUSH1 0xA0 DUP3 ADD MLOAD DUP2 PUSH1 0x5 ADD SSTORE PUSH1 0xC0 DUP3 ADD MLOAD DUP2 PUSH1 0x6 ADD PUSH1 0x0 PUSH2 0x100 EXP DUP2 SLOAD DUP2 PUSH1 0xFF MUL NOT AND SWAP1 DUP4 ISZERO ISZERO MUL OR SWAP1 SSTORE POP POP POP PUSH1 0x0 DUP1 SLOAD SWAP1 PUSH2 0x100 EXP SWAP1 DIV PUSH20 0xFFFFFFFFFFFFFFFFFFFFFFFFFFFFFFFFFFFFFFFF AND PUSH20 0xFFFFFFFFFFFFFFFFFFFFFFFFFFFFFFFFFFFFFFFF AND PUSH4 0x23B872DD CALLER ADDRESS DUP9 PUSH1 0x40 MLOAD DUP5 PUSH4 0xFFFFFFFF AND PUSH1 0xE0 SHL DUP2 MSTORE PUSH1 0x4 ADD PUSH2 0x485 SWAP4 SWAP3 SWAP2 SWAP1 PUSH2 0x13DC JUMP JUMPDEST PUSH1 0x20 PUSH1 0x40 MLOAD DUP1 DUP4 SUB DUP2 PUSH1 0x0 DUP8 GAS CALL ISZERO DUP1 ISZERO PUSH2 0x4A4 JUMPI RETURNDATASIZE PUSH1 0x0 DUP1 RETURNDATACOPY RETURNDATASIZE PUSH1 0x0 REVERT JUMPDEST POP POP POP POP PUSH1 0x40 MLOAD RETURNDATASIZE PUSH1 0x1F NOT PUSH1 0x1F DUP3 ADD AND DUP3 ADD DUP1 PUSH1 0x40 MSTORE POP DUP2 ADD SWAP1 PUSH2 0x4C8 SWAP2 SWAP1 PUSH2 0x143F JUMP JUMPDEST POP PUSH32 0xAADB2F2750CBB4162DF8D5F0C90B7562C816E56441C31F6ACF40A6C9CD201C58 CALLER DUP8 DUP8 PUSH1 0x40 MLOAD PUSH2 0x4FC SWAP4 SWAP3 SWAP2 SWAP1 PUSH2 0x13DC JUMP JUMPDEST PUSH1 0x40 MLOAD DUP1 SWAP2 SUB SWAP1 LOG1 POP POP POP POP POP POP JUMP JUMPDEST PUSH1 0x1 PUSH1 0x3 PUSH1 0x0 CALLER PUSH20 0xFFFFFFFFFFFFFFFFFFFFFFFFFFFFFFFFFFFFFFFF AND PUSH20 0xFFFFFFFFFFFFFFFFFFFFFFFFFFFFFFFFFFFFFFFF AND DUP2 MSTORE PUSH1 0x20 ADD SWAP1 DUP2 MSTORE PUSH1 0x20 ADD PUSH1 0x0 KECCAK256 PUSH1 0x0 DUP4 PUSH20 0xFFFFFFFFFFFFFFFFFFFFFFFFFFFFFFFFFFFFFFFF AND PUSH20 0xFFFFFFFFFFFFFFFFFFFFFFFFFFFFFFFFFFFFFFFF AND DUP2 MSTORE PUSH1 0x20 ADD SWAP1 DUP2 MSTORE PUSH1 0x20 ADD PUSH1 0x0 KECCAK256 PUSH1 0x0 PUSH2 0x100 EXP DUP2 SLOAD DUP2 PUSH1 0xFF MUL NOT AND SWAP1 DUP4 ISZERO ISZERO MUL OR SWAP1 SSTORE POP POP JUMP JUMPDEST PUSH1 0x1 PUSH1 0x20 MSTORE DUP2 PUSH1 0x0 MSTORE PUSH1 0x40 PUSH1 0x0 KECCAK256 DUP2 DUP2 SLOAD DUP2 LT PUSH2 0x5C0 JUMPI PUSH1 0x0 DUP1 REVERT JUMPDEST SWAP1 PUSH1 0x0 MSTORE PUSH1 0x20 PUSH1 0x0 KECCAK256 SWAP1 PUSH1 0x7 MUL ADD PUSH1 0x0 SWAP2 POP SWAP2 POP POP DUP1 PUSH1 0x0 ADD PUSH1 0x0 SWAP1 SLOAD SWAP1 PUSH2 0x100 EXP SWAP1 DIV PUSH20 0xFFFFFFFFFFFFFFFFFFFFFFFFFFFFFFFFFFFFFFFF AND SWAP1 DUP1 PUSH1 0x1 ADD SLOAD SWAP1 DUP1 PUSH1 0x2 ADD SLOAD SWAP1 DUP1 PUSH1 0x3 ADD SLOAD SWAP1 DUP1 PUSH1 0x4 ADD SLOAD SWAP1 DUP1 PUSH1 0x5 ADD SLOAD SWAP1 DUP1 PUSH1 0x6 ADD PUSH1 0x0 SWAP1 SLOAD SWAP1 PUSH2 0x100 EXP SWAP1 DIV PUSH1 0xFF AND SWAP1 POP DUP8 JUMP JUMPDEST PUSH1 0x3 PUSH1 0x20 MSTORE DUP2 PUSH1 0x0 MSTORE PUSH1 0x40 PUSH1 0x0 KECCAK256 PUSH1 0x20 MSTORE DUP1 PUSH1 0x0 MSTORE PUSH1 0x40 PUSH1 0x0 KECCAK256 PUSH1 0x0 SWAP2 POP SWAP2 POP SWAP1 SLOAD SWAP1 PUSH2 0x100 EXP SWAP1 DIV PUSH1 0xFF AND DUP2 JUMP JUMPDEST PUSH1 0x1 PUSH1 0x0 CALLER PUSH20 0xFFFFFFFFFFFFFFFFFFFFFFFFFFFFFFFFFFFFFFFF AND PUSH20 0xFFFFFFFFFFFFFFFFFFFFFFFFFFFFFFFFFFFFFFFF AND DUP2 MSTORE PUSH1 0x20 ADD SWAP1 DUP2 MSTORE PUSH1 0x20 ADD PUSH1 0x0 KECCAK256 DUP2 PUSH1 0xFF AND DUP2 SLOAD DUP2 LT PUSH2 0x6B3 JUMPI PUSH2 0x6B2 PUSH2 0x146C JUMP JUMPDEST JUMPDEST SWAP1 PUSH1 0x0 MSTORE PUSH1 0x20 PUSH1 0x0 KECCAK256 SWAP1 PUSH1 0x7 MUL ADD PUSH1 0x3 ADD SLOAD TIMESTAMP GT PUSH2 0x706 JUMPI PUSH1 0x40 MLOAD PUSH32 0x8C379A000000000000000000000000000000000000000000000000000000000 DUP2 MSTORE PUSH1 0x4 ADD PUSH2 0x6FD SWAP1 PUSH2 0x14E7 JUMP JUMPDEST PUSH1 0x40 MLOAD DUP1 SWAP2 SUB SWAP1 REVERT JUMPDEST PUSH1 0x1 PUSH1 0x0 CALLER PUSH20 0xFFFFFFFFFFFFFFFFFFFFFFFFFFFFFFFFFFFFFFFF AND PUSH20 0xFFFFFFFFFFFFFFFFFFFFFFFFFFFFFFFFFFFFFFFF AND DUP2 MSTORE PUSH1 0x20 ADD SWAP1 DUP2 MSTORE PUSH1 0x20 ADD PUSH1 0x0 KECCAK256 DUP2 PUSH1 0xFF AND DUP2 SLOAD DUP2 LT PUSH2 0x75A JUMPI PUSH2 0x759 PUSH2 0x146C JUMP JUMPDEST JUMPDEST SWAP1 PUSH1 0x0 MSTORE PUSH1 0x20 PUSH1 0x0 KECCAK256 SWAP1 PUSH1 0x7 MUL ADD PUSH1 0x1 ADD SLOAD PUSH1 0x2 PUSH1 0x0 CALLER PUSH20 0xFFFFFFFFFFFFFFFFFFFFFFFFFFFFFFFFFFFFFFFF AND PUSH20 0xFFFFFFFFFFFFFFFFFFFFFFFFFFFFFFFFFFFFFFFF AND DUP2 MSTORE PUSH1 0x20 ADD SWAP1 DUP2 MSTORE PUSH1 0x20 ADD PUSH1 0x0 KECCAK256 PUSH1 0x0 DUP4 PUSH1 0xFF AND DUP2 MSTORE PUSH1 0x20 ADD SWAP1 DUP2 MSTORE PUSH1 0x20 ADD PUSH1 0x0 KECCAK256 SLOAD LT PUSH2 0x800 JUMPI PUSH1 0x40 MLOAD PUSH32 0x8C379A000000000000000000000000000000000000000000000000000000000 DUP2 MSTORE PUSH1 0x4 ADD PUSH2 0x7F7 SWAP1 PUSH2 0x1553 JUMP JUMPDEST PUSH1 0x40 MLOAD DUP1 SWAP2 SUB SWAP1 REVERT JUMPDEST PUSH1 0x1 PUSH1 0x0 CALLER PUSH20 0xFFFFFFFFFFFFFFFFFFFFFFFFFFFFFFFFFFFFFFFF AND PUSH20 0xFFFFFFFFFFFFFFFFFFFFFFFFFFFFFFFFFFFFFFFF AND DUP2 MSTORE PUSH1 0x20 ADD SWAP1 DUP2 MSTORE PUSH1 0x20 ADD PUSH1 0x0 KECCAK256 DUP2 PUSH1 0xFF AND DUP2 SLOAD DUP2 LT PUSH2 0x854 JUMPI PUSH2 0x853 PUSH2 0x146C JUMP JUMPDEST JUMPDEST SWAP1 PUSH1 0x0 MSTORE PUSH1 0x20 PUSH1 0x0 KECCAK256 SWAP1 PUSH1 0x7 MUL ADD PUSH1 0x0 ADD PUSH1 0x0 SWAP1 SLOAD SWAP1 PUSH2 0x100 EXP SWAP1 DIV PUSH20 0xFFFFFFFFFFFFFFFFFFFFFFFFFFFFFFFFFFFFFFFF AND PUSH1 0x0 DUP1 PUSH2 0x100 EXP DUP2 SLOAD DUP2 PUSH20 0xFFFFFFFFFFFFFFFFFFFFFFFFFFFFFFFFFFFFFFFF MUL NOT AND SWAP1 DUP4 PUSH20 0xFFFFFFFFFFFFFFFFFFFFFFFFFFFFFFFFFFFFFFFF AND MUL OR SWAP1 SSTORE POP PUSH1 0x0 PUSH2 0x8D0 DUP3 PUSH2 0xBF0 JUMP JUMPDEST SWAP1 POP PUSH1 0x0 DUP2 SUB PUSH2 0x8DF JUMPI PUSH1 0x0 DUP1 REVERT JUMPDEST PUSH1 0x0 DUP1 SLOAD SWAP1 PUSH2 0x100 EXP SWAP1 DIV PUSH20 0xFFFFFFFFFFFFFFFFFFFFFFFFFFFFFFFFFFFFFFFF AND PUSH20 0xFFFFFFFFFFFFFFFFFFFFFFFFFFFFFFFFFFFFFFFF AND PUSH4 0xA9059CBB CALLER DUP4 PUSH1 0x40 MLOAD DUP4 PUSH4 0xFFFFFFFF AND PUSH1 0xE0 SHL DUP2 MSTORE PUSH1 0x4 ADD PUSH2 0x93A SWAP3 SWAP2 SWAP1 PUSH2 0x1573 JUMP JUMPDEST PUSH1 0x20 PUSH1 0x40 MLOAD DUP1 DUP4 SUB DUP2 PUSH1 0x0 DUP8 GAS CALL ISZERO DUP1 ISZERO PUSH2 0x959 JUMPI RETURNDATASIZE PUSH1 0x0 DUP1 RETURNDATACOPY RETURNDATASIZE PUSH1 0x0 REVERT JUMPDEST POP POP POP POP PUSH1 0x40 MLOAD RETURNDATASIZE PUSH1 0x1F NOT PUSH1 0x1F DUP3 ADD AND DUP3 ADD DUP1 PUSH1 0x40 MSTORE POP DUP2 ADD SWAP1 PUSH2 0x97D SWAP2 SWAP1 PUSH2 0x143F JUMP JUMPDEST POP DUP1 PUSH1 0x2 PUSH1 0x0 CALLER PUSH20 0xFFFFFFFFFFFFFFFFFFFFFFFFFFFFFFFFFFFFFFFF AND PUSH20 0xFFFFFFFFFFFFFFFFFFFFFFFFFFFFFFFFFFFFFFFF AND DUP2 MSTORE PUSH1 0x20 ADD SWAP1 DUP2 MSTORE PUSH1 0x20 ADD PUSH1 0x0 KECCAK256 PUSH1 0x0 DUP5 PUSH1 0xFF AND DUP2 MSTORE PUSH1 0x20 ADD SWAP1 DUP2 MSTORE PUSH1 0x20 ADD PUSH1 0x0 KECCAK256 PUSH1 0x0 DUP3 DUP3 SLOAD PUSH2 0x9E1 SWAP2 SWAP1 PUSH2 0x13A8 JUMP JUMPDEST SWAP3 POP POP DUP2 SWAP1 SSTORE POP PUSH1 0x0 PUSH1 0x1 PUSH1 0x0 CALLER PUSH20 0xFFFFFFFFFFFFFFFFFFFFFFFFFFFFFFFFFFFFFFFF AND PUSH20 0xFFFFFFFFFFFFFFFFFFFFFFFFFFFFFFFFFFFFFFFF AND DUP2 MSTORE PUSH1 0x20 ADD SWAP1 DUP2 MSTORE PUSH1 0x20 ADD PUSH1 0x0 KECCAK256 DUP4 PUSH1 0xFF AND DUP2 SLOAD DUP2 LT PUSH2 0xA3E JUMPI PUSH2 0xA3D PUSH2 0x146C JUMP JUMPDEST JUMPDEST SWAP1 PUSH1 0x0 MSTORE PUSH1 0x20 PUSH1 0x0 KECCAK256 SWAP1 PUSH1 0x7 MUL ADD PUSH1 0x0 ADD PUSH1 0x0 SWAP1 SLOAD SWAP1 PUSH2 0x100 EXP SWAP1 DIV PUSH20 0xFFFFFFFFFFFFFFFFFFFFFFFFFFFFFFFFFFFFFFFF AND SWAP1 POP PUSH32 0x2E8FBF54CECD6C94B9CC0A4444BEF56D7836157EA1F144DA84DF7E568C9AE482 CALLER DUP3 PUSH1 0x2 PUSH1 0x0 CALLER PUSH20 0xFFFFFFFFFFFFFFFFFFFFFFFFFFFFFFFFFFFFFFFF AND PUSH20 0xFFFFFFFFFFFFFFFFFFFFFFFFFFFFFFFFFFFFFFFF AND DUP2 MSTORE PUSH1 0x20 ADD SWAP1 DUP2 MSTORE PUSH1 0x20 ADD PUSH1 0x0 KECCAK256 PUSH1 0x0 DUP8 PUSH1 0xFF AND DUP2 MSTORE PUSH1 0x20 ADD SWAP1 DUP2 MSTORE PUSH1 0x20 ADD PUSH1 0x0 KECCAK256 SLOAD PUSH1 0x40 MLOAD PUSH2 0xAF8 SWAP4 SWAP3 SWAP2 SWAP1 PUSH2 0x13DC JUMP JUMPDEST PUSH1 0x40 MLOAD DUP1 SWAP2 SUB SWAP1 LOG1 POP POP POP JUMP JUMPDEST PUSH1 0x0 DUP1 PUSH1 0x0 SWAP1 SLOAD SWAP1 PUSH2 0x100 EXP SWAP1 DIV PUSH20 0xFFFFFFFFFFFFFFFFFFFFFFFFFFFFFFFFFFFFFFFF AND PUSH20 0xFFFFFFFFFFFFFFFFFFFFFFFFFFFFFFFFFFFFFFFF AND PUSH4 0x70A08231 ADDRESS PUSH1 0x40 MLOAD DUP3 PUSH4 0xFFFFFFFF AND PUSH1 0xE0 SHL DUP2 MSTORE PUSH1 0x4 ADD PUSH2 0xB61 SWAP2 SWAP1 PUSH2 0x159C JUMP JUMPDEST PUSH1 0x20 PUSH1 0x40 MLOAD DUP1 DUP4 SUB DUP2 DUP7 GAS STATICCALL ISZERO DUP1 ISZERO PUSH2 0xB7E JUMPI RETURNDATASIZE PUSH1 0x0 DUP1 RETURNDATACOPY RETURNDATASIZE PUSH1 0x0 REVERT JUMPDEST POP POP POP POP PUSH1 0x40 MLOAD RETURNDATASIZE PUSH1 0x1F NOT PUSH1 0x1F DUP3 ADD AND DUP3 ADD DUP1 PUSH1 0x40 MSTORE POP DUP2 ADD SWAP1 PUSH2 0xBA2 SWAP2 SWAP1 PUSH2 0x15CC JUMP JUMPDEST SWAP1 POP SWAP1 JUMP JUMPDEST PUSH1 0x2 PUSH1 0x20 MSTORE DUP2 PUSH1 0x0 MSTORE PUSH1 0x40 PUSH1 0x0 KECCAK256 PUSH1 0x20 MSTORE DUP1 PUSH1 0x0 MSTORE PUSH1 0x40 PUSH1 0x0 KECCAK256 PUSH1 0x0 SWAP2 POP SWAP2 POP POP SLOAD DUP2 JUMP JUMPDEST PUSH1 0x0 DUP1 SLOAD SWAP1 PUSH2 0x100 EXP SWAP1 DIV PUSH20 0xFFFFFFFFFFFFFFFFFFFFFFFFFFFFFFFFFFFFFFFF AND DUP2 JUMP JUMPDEST PUSH1 0x0 DUP1 PUSH1 0x1 PUSH1 0x0 CALLER PUSH20 0xFFFFFFFFFFFFFFFFFFFFFFFFFFFFFFFFFFFFFFFF AND PUSH20 0xFFFFFFFFFFFFFFFFFFFFFFFFFFFFFFFFFFFFFFFF AND DUP2 MSTORE PUSH1 0x20 ADD SWAP1 DUP2 MSTORE PUSH1 0x20 ADD PUSH1 0x0 KECCAK256 DUP4 PUSH1 0xFF AND DUP2 SLOAD DUP2 LT PUSH2 0xC47 JUMPI PUSH2 0xC46 PUSH2 0x146C JUMP JUMPDEST JUMPDEST SWAP1 PUSH1 0x0 MSTORE PUSH1 0x20 PUSH1 0x0 KECCAK256 SWAP1 PUSH1 0x7 MUL ADD PUSH1 0x5 ADD SLOAD PUSH1 0x1 PUSH1 0x0 CALLER PUSH20 0xFFFFFFFFFFFFFFFFFFFFFFFFFFFFFFFFFFFFFFFF AND PUSH20 0xFFFFFFFFFFFFFFFFFFFFFFFFFFFFFFFFFFFFFFFF AND DUP2 MSTORE PUSH1 0x20 ADD SWAP1 DUP2 MSTORE PUSH1 0x20 ADD PUSH1 0x0 KECCAK256 DUP5 PUSH1 0xFF AND DUP2 SLOAD DUP2 LT PUSH2 0xCAD JUMPI PUSH2 0xCAC PUSH2 0x146C JUMP JUMPDEST JUMPDEST SWAP1 PUSH1 0x0 MSTORE PUSH1 0x20 PUSH1 0x0 KECCAK256 SWAP1 PUSH1 0x7 MUL ADD PUSH1 0x4 ADD SLOAD PUSH2 0xCC9 SWAP2 SWAP1 PUSH2 0x1628 JUMP JUMPDEST SWAP1 POP PUSH1 0x0 DUP2 PUSH1 0x1 PUSH1 0x0 CALLER PUSH20 0xFFFFFFFFFFFFFFFFFFFFFFFFFFFFFFFFFFFFFFFF AND PUSH20 0xFFFFFFFFFFFFFFFFFFFFFFFFFFFFFFFFFFFFFFFF AND DUP2 MSTORE PUSH1 0x20 ADD SWAP1 DUP2 MSTORE PUSH1 0x20 ADD PUSH1 0x0 KECCAK256 DUP6 PUSH1 0xFF AND DUP2 SLOAD DUP2 LT PUSH2 0xD22 JUMPI PUSH2 0xD21 PUSH2 0x146C JUMP JUMPDEST JUMPDEST SWAP1 PUSH1 0x0 MSTORE PUSH1 0x20 PUSH1 0x0 KECCAK256 SWAP1 PUSH1 0x7 MUL ADD PUSH1 0x1 ADD SLOAD PUSH2 0xD3E SWAP2 SWAP1 PUSH2 0x1628 JUMP JUMPDEST SWAP1 POP PUSH1 0x0 PUSH1 0x1 PUSH1 0x0 CALLER PUSH20 0xFFFFFFFFFFFFFFFFFFFFFFFFFFFFFFFFFFFFFFFF AND PUSH20 0xFFFFFFFFFFFFFFFFFFFFFFFFFFFFFFFFFFFFFFFF AND DUP2 MSTORE PUSH1 0x20 ADD SWAP1 DUP2 MSTORE PUSH1 0x20 ADD PUSH1 0x0 KECCAK256 DUP6 PUSH1 0xFF AND DUP2 SLOAD DUP2 LT PUSH2 0xD96 JUMPI PUSH2 0xD95 PUSH2 0x146C JUMP JUMPDEST JUMPDEST SWAP1 PUSH1 0x0 MSTORE PUSH1 0x20 PUSH1 0x0 KECCAK256 SWAP1 PUSH1 0x7 MUL ADD PUSH1 0x3 ADD SLOAD TIMESTAMP PUSH2 0xDB3 SWAP2 SWAP1 PUSH2 0x1659 JUMP JUMPDEST SWAP1 POP PUSH1 0x0 PUSH1 0x1 PUSH1 0x0 CALLER PUSH20 0xFFFFFFFFFFFFFFFFFFFFFFFFFFFFFFFFFFFFFFFF AND PUSH20 0xFFFFFFFFFFFFFFFFFFFFFFFFFFFFFFFFFFFFFFFF AND DUP2 MSTORE PUSH1 0x20 ADD SWAP1 DUP2 MSTORE PUSH1 0x20 ADD PUSH1 0x0 KECCAK256 DUP7 PUSH1 0xFF AND DUP2 SLOAD DUP2 LT PUSH2 0xE0B JUMPI PUSH2 0xE0A PUSH2 0x146C JUMP JUMPDEST JUMPDEST SWAP1 PUSH1 0x0 MSTORE PUSH1 0x20 PUSH1 0x0 KECCAK256 SWAP1 PUSH1 0x7 MUL ADD PUSH1 0x5 ADD SLOAD DUP3 PUSH2 0xE28 SWAP2 SWAP1 PUSH2 0x1628 JUMP JUMPDEST SWAP1 POP PUSH1 0x0 PUSH1 0x2 PUSH1 0x0 CALLER PUSH20 0xFFFFFFFFFFFFFFFFFFFFFFFFFFFFFFFFFFFFFFFF AND PUSH20 0xFFFFFFFFFFFFFFFFFFFFFFFFFFFFFFFFFFFFFFFF AND DUP2 MSTORE PUSH1 0x20 ADD SWAP1 DUP2 MSTORE PUSH1 0x20 ADD PUSH1 0x0 KECCAK256 PUSH1 0x0 DUP9 PUSH1 0xFF AND DUP2 MSTORE PUSH1 0x20 ADD SWAP1 DUP2 MSTORE PUSH1 0x20 ADD PUSH1 0x0 KECCAK256 SLOAD DUP5 DUP4 PUSH2 0xE8C SWAP2 SWAP1 PUSH2 0x168D JUMP JUMPDEST PUSH2 0xE96 SWAP2 SWAP1 PUSH2 0x1659 JUMP JUMPDEST SWAP1 POP DUP5 DUP3 LT PUSH2 0xF6F JUMPI PUSH1 0x2 PUSH1 0x0 CALLER PUSH20 0xFFFFFFFFFFFFFFFFFFFFFFFFFFFFFFFFFFFFFFFF AND PUSH20 0xFFFFFFFFFFFFFFFFFFFFFFFFFFFFFFFFFFFFFFFF AND DUP2 MSTORE PUSH1 0x20 ADD SWAP1 DUP2 MSTORE PUSH1 0x20 ADD PUSH1 0x0 KECCAK256 PUSH1 0x0 DUP9 PUSH1 0xFF AND DUP2 MSTORE PUSH1 0x20 ADD SWAP1 DUP2 MSTORE PUSH1 0x20 ADD PUSH1 0x0 KECCAK256 SLOAD PUSH1 0x1 PUSH1 0x0 CALLER PUSH20 0xFFFFFFFFFFFFFFFFFFFFFFFFFFFFFFFFFFFFFFFF AND PUSH20 0xFFFFFFFFFFFFFFFFFFFFFFFFFFFFFFFFFFFFFFFF AND DUP2 MSTORE PUSH1 0x20 ADD SWAP1 DUP2 MSTORE PUSH1 0x20 ADD PUSH1 0x0 KECCAK256 DUP9 PUSH1 0xFF AND DUP2 SLOAD DUP2 LT PUSH2 0xF47 JUMPI PUSH2 0xF46 PUSH2 0x146C JUMP JUMPDEST JUMPDEST SWAP1 PUSH1 0x0 MSTORE PUSH1 0x20 PUSH1 0x0 KECCAK256 SWAP1 PUSH1 0x7 MUL ADD PUSH1 0x1 ADD SLOAD PUSH2 0xF63 SWAP2 SWAP1 PUSH2 0x1659 JUMP JUMPDEST SWAP6 POP POP POP POP POP POP PUSH2 0xF78 JUMP JUMPDEST DUP1 SWAP6 POP POP POP POP POP POP JUMPDEST SWAP2 SWAP1 POP JUMP JUMPDEST PUSH1 0x0 DUP1 REVERT JUMPDEST PUSH1 0x0 PUSH20 0xFFFFFFFFFFFFFFFFFFFFFFFFFFFFFFFFFFFFFFFF DUP3 AND SWAP1 POP SWAP2 SWAP1 POP JUMP JUMPDEST PUSH1 0x0 PUSH2 0xFAD DUP3 PUSH2 0xF82 JUMP JUMPDEST SWAP1 POP SWAP2 SWAP1 POP JUMP JUMPDEST PUSH2 0xFBD DUP2 PUSH2 0xFA2 JUMP JUMPDEST DUP2 EQ PUSH2 0xFC8 JUMPI PUSH1 0x0 DUP1 REVERT JUMPDEST POP JUMP JUMPDEST PUSH1 0x0 DUP2 CALLDATALOAD SWAP1 POP PUSH2 0xFDA DUP2 PUSH2 0xFB4 JUMP JUMPDEST SWAP3 SWAP2 POP POP JUMP JUMPDEST PUSH1 0x0 DUP2 SWAP1 POP SWAP2 SWAP1 POP JUMP JUMPDEST PUSH2 0xFF3 DUP2 PUSH2 0xFE0 JUMP JUMPDEST DUP2 EQ PUSH2 0xFFE JUMPI PUSH1 0x0 DUP1 REVERT JUMPDEST POP JUMP JUMPDEST PUSH1 0x0 DUP2 CALLDATALOAD SWAP1 POP PUSH2 0x1010 DUP2 PUSH2 0xFEA JUMP JUMPDEST SWAP3 SWAP2 POP POP JUMP JUMPDEST PUSH1 0x0 DUP1 PUSH1 0x0 DUP1 PUSH1 0x0 PUSH1 0xA0 DUP7 DUP9 SUB SLT ISZERO PUSH2 0x1032 JUMPI PUSH2 0x1031 PUSH2 0xF7D JUMP JUMPDEST JUMPDEST PUSH1 0x0 PUSH2 0x1040 DUP9 DUP3 DUP10 ADD PUSH2 0xFCB JUMP JUMPDEST SWAP6 POP POP PUSH1 0x20 PUSH2 0x1051 DUP9 DUP3 DUP10 ADD PUSH2 0x1001 JUMP JUMPDEST SWAP5 POP POP PUSH1 0x40 PUSH2 0x1062 DUP9 DUP3 DUP10 ADD PUSH2 0x1001 JUMP JUMPDEST SWAP4 POP POP PUSH1 0x60 PUSH2 0x1073 DUP9 DUP3 DUP10 ADD PUSH2 0x1001 JUMP JUMPDEST SWAP3 POP POP PUSH1 0x80 PUSH2 0x1084 DUP9 DUP3 DUP10 ADD PUSH2 0x1001 JUMP JUMPDEST SWAP2 POP POP SWAP3 SWAP6 POP SWAP3 SWAP6 SWAP1 SWAP4 POP JUMP JUMPDEST PUSH1 0x0 PUSH1 0x20 DUP3 DUP5 SUB SLT ISZERO PUSH2 0x10A7 JUMPI PUSH2 0x10A6 PUSH2 0xF7D JUMP JUMPDEST JUMPDEST PUSH1 0x0 PUSH2 0x10B5 DUP5 DUP3 DUP6 ADD PUSH2 0xFCB JUMP JUMPDEST SWAP2 POP POP SWAP3 SWAP2 POP POP JUMP JUMPDEST PUSH1 0x0 DUP1 PUSH1 0x40 DUP4 DUP6 SUB SLT ISZERO PUSH2 0x10D5 JUMPI PUSH2 0x10D4 PUSH2 0xF7D JUMP JUMPDEST JUMPDEST PUSH1 0x0 PUSH2 0x10E3 DUP6 DUP3 DUP7 ADD PUSH2 0xFCB JUMP JUMPDEST SWAP3 POP POP PUSH1 0x20 PUSH2 0x10F4 DUP6 DUP3 DUP7 ADD PUSH2 0x1001 JUMP JUMPDEST SWAP2 POP POP SWAP3 POP SWAP3 SWAP1 POP JUMP JUMPDEST PUSH2 0x1107 DUP2 PUSH2 0xFA2 JUMP JUMPDEST DUP3 MSTORE POP POP JUMP JUMPDEST PUSH2 0x1116 DUP2 PUSH2 0xFE0 JUMP JUMPDEST DUP3 MSTORE POP POP JUMP JUMPDEST PUSH1 0x0 DUP2 ISZERO ISZERO SWAP1 POP SWAP2 SWAP1 POP JUMP JUMPDEST PUSH2 0x1131 DUP2 PUSH2 0x111C JUMP JUMPDEST DUP3 MSTORE POP POP JUMP JUMPDEST PUSH1 0x0 PUSH1 0xE0 DUP3 ADD SWAP1 POP PUSH2 0x114C PUSH1 0x0 DUP4 ADD DUP11 PUSH2 0x10FE JUMP JUMPDEST PUSH2 0x1159 PUSH1 0x20 DUP4 ADD DUP10 PUSH2 0x110D JUMP JUMPDEST PUSH2 0x1166 PUSH1 0x40 DUP4 ADD DUP9 PUSH2 0x110D JUMP JUMPDEST PUSH2 0x1173 PUSH1 0x60 DUP4 ADD DUP8 PUSH2 0x110D JUMP JUMPDEST PUSH2 0x1180 PUSH1 0x80 DUP4 ADD DUP7 PUSH2 0x110D JUMP JUMPDEST PUSH2 0x118D PUSH1 0xA0 DUP4 ADD DUP6 PUSH2 0x110D JUMP JUMPDEST PUSH2 0x119A PUSH1 0xC0 DUP4 ADD DUP5 PUSH2 0x1128 JUMP JUMPDEST SWAP9 SWAP8 POP POP POP POP POP POP POP POP JUMP JUMPDEST PUSH1 0x0 DUP1 PUSH1 0x40 DUP4 DUP6 SUB SLT ISZERO PUSH2 0x11BD JUMPI PUSH2 0x11BC PUSH2 0xF7D JUMP JUMPDEST JUMPDEST PUSH1 0x0 PUSH2 0x11CB DUP6 DUP3 DUP7 ADD PUSH2 0xFCB JUMP JUMPDEST SWAP3 POP POP PUSH1 0x20 PUSH2 0x11DC DUP6 DUP3 DUP7 ADD PUSH2 0xFCB JUMP JUMPDEST SWAP2 POP POP SWAP3 POP SWAP3 SWAP1 POP JUMP JUMPDEST PUSH1 0x0 PUSH1 0x20 DUP3 ADD SWAP1 POP PUSH2 0x11FB PUSH1 0x0 DUP4 ADD DUP5 PUSH2 0x1128 JUMP JUMPDEST SWAP3 SWAP2 POP POP JUMP JUMPDEST PUSH1 0x0 PUSH1 0xFF DUP3 AND SWAP1 POP SWAP2 SWAP1 POP JUMP JUMPDEST PUSH2 0x1217 DUP2 PUSH2 0x1201 JUMP JUMPDEST DUP2 EQ PUSH2 0x1222 JUMPI PUSH1 0x0 DUP1 REVERT JUMPDEST POP JUMP JUMPDEST PUSH1 0x0 DUP2 CALLDATALOAD SWAP1 POP PUSH2 0x1234 DUP2 PUSH2 0x120E JUMP JUMPDEST SWAP3 SWAP2 POP POP JUMP JUMPDEST PUSH1 0x0 PUSH1 0x20 DUP3 DUP5 SUB SLT ISZERO PUSH2 0x1250 JUMPI PUSH2 0x124F PUSH2 0xF7D JUMP JUMPDEST JUMPDEST PUSH1 0x0 PUSH2 0x125E DUP5 DUP3 DUP6 ADD PUSH2 0x1225 JUMP JUMPDEST SWAP2 POP POP SWAP3 SWAP2 POP POP JUMP JUMPDEST PUSH1 0x0 PUSH1 0x20 DUP3 ADD SWAP1 POP PUSH2 0x127C PUSH1 0x0 DUP4 ADD DUP5 PUSH2 0x110D JUMP JUMPDEST SWAP3 SWAP2 POP POP JUMP JUMPDEST PUSH1 0x0 DUP2 SWAP1 POP SWAP2 SWAP1 POP JUMP JUMPDEST PUSH1 0x0 PUSH2 0x12A7 PUSH2 0x12A2 PUSH2 0x129D DUP5 PUSH2 0xF82 JUMP JUMPDEST PUSH2 0x1282 JUMP JUMPDEST PUSH2 0xF82 JUMP JUMPDEST SWAP1 POP SWAP2 SWAP1 POP JUMP JUMPDEST PUSH1 0x0 PUSH2 0x12B9 DUP3 PUSH2 0x128C JUMP JUMPDEST SWAP1 POP SWAP2 SWAP1 POP JUMP JUMPDEST PUSH1 0x0 PUSH2 0x12CB DUP3 PUSH2 0x12AE JUMP JUMPDEST SWAP1 POP SWAP2 SWAP1 POP JUMP JUMPDEST PUSH2 0x12DB DUP2 PUSH2 0x12C0 JUMP JUMPDEST DUP3 MSTORE POP POP JUMP JUMPDEST PUSH1 0x0 PUSH1 0x20 DUP3 ADD SWAP1 POP PUSH2 0x12F6 PUSH1 0x0 DUP4 ADD DUP5 PUSH2 0x12D2 JUMP JUMPDEST SWAP3 SWAP2 POP POP JUMP JUMPDEST PUSH1 0x0 DUP3 DUP3 MSTORE PUSH1 0x20 DUP3 ADD SWAP1 POP SWAP3 SWAP2 POP POP JUMP JUMPDEST PUSH32 0x546F6B656E206E6F7420616C6C6F776564000000000000000000000000000000 PUSH1 0x0 DUP3 ADD MSTORE POP JUMP JUMPDEST PUSH1 0x0 PUSH2 0x1343 PUSH1 0x11 DUP4 PUSH2 0x12FC JUMP JUMPDEST SWAP2 POP PUSH2 0x134E DUP3 PUSH2 0x130D JUMP JUMPDEST PUSH1 0x20 DUP3 ADD SWAP1 POP SWAP2 SWAP1 POP JUMP JUMPDEST PUSH1 0x0 PUSH1 0x20 DUP3 ADD SWAP1 POP DUP2 DUP2 SUB PUSH1 0x0 DUP4 ADD MSTORE PUSH2 0x1372 DUP2 PUSH2 0x1336 JUMP JUMPDEST SWAP1 POP SWAP2 SWAP1 POP JUMP JUMPDEST PUSH32 0x4E487B7100000000000000000000000000000000000000000000000000000000 PUSH1 0x0 MSTORE PUSH1 0x11 PUSH1 0x4 MSTORE PUSH1 0x24 PUSH1 0x0 REVERT JUMPDEST PUSH1 0x0 PUSH2 0x13B3 DUP3 PUSH2 0xFE0 JUMP JUMPDEST SWAP2 POP PUSH2 0x13BE DUP4 PUSH2 0xFE0 JUMP JUMPDEST SWAP3 POP DUP3 DUP3 ADD SWAP1 POP DUP1 DUP3 GT ISZERO PUSH2 0x13D6 JUMPI PUSH2 0x13D5 PUSH2 0x1379 JUMP JUMPDEST JUMPDEST SWAP3 SWAP2 POP POP JUMP JUMPDEST PUSH1 0x0 PUSH1 0x60 DUP3 ADD SWAP1 POP PUSH2 0x13F1 PUSH1 0x0 DUP4 ADD DUP7 PUSH2 0x10FE JUMP JUMPDEST PUSH2 0x13FE PUSH1 0x20 DUP4 ADD DUP6 PUSH2 0x10FE JUMP JUMPDEST PUSH2 0x140B PUSH1 0x40 DUP4 ADD DUP5 PUSH2 0x110D JUMP JUMPDEST SWAP5 SWAP4 POP POP POP POP JUMP JUMPDEST PUSH2 0x141C DUP2 PUSH2 0x111C JUMP JUMPDEST DUP2 EQ PUSH2 0x1427 JUMPI PUSH1 0x0 DUP1 REVERT JUMPDEST POP JUMP JUMPDEST PUSH1 0x0 DUP2 MLOAD SWAP1 POP PUSH2 0x1439 DUP2 PUSH2 0x1413 JUMP JUMPDEST SWAP3 SWAP2 POP POP JUMP JUMPDEST PUSH1 0x0 PUSH1 0x20 DUP3 DUP5 SUB SLT ISZERO PUSH2 0x1455 JUMPI PUSH2 0x1454 PUSH2 0xF7D JUMP JUMPDEST JUMPDEST PUSH1 0x0 PUSH2 0x1463 DUP5 DUP3 DUP6 ADD PUSH2 0x142A JUMP JUMPDEST SWAP2 POP POP SWAP3 SWAP2 POP POP JUMP JUMPDEST PUSH32 0x4E487B7100000000000000000000000000000000000000000000000000000000 PUSH1 0x0 MSTORE PUSH1 0x32 PUSH1 0x4 MSTORE PUSH1 0x24 PUSH1 0x0 REVERT JUMPDEST PUSH32 0x4E6F20746F6B656E7320756E6C6F636B65640000000000000000000000000000 PUSH1 0x0 DUP3 ADD MSTORE POP JUMP JUMPDEST PUSH1 0x0 PUSH2 0x14D1 PUSH1 0x12 DUP4 PUSH2 0x12FC JUMP JUMPDEST SWAP2 POP PUSH2 0x14DC DUP3 PUSH2 0x149B JUMP JUMPDEST PUSH1 0x20 DUP3 ADD SWAP1 POP SWAP2 SWAP1 POP JUMP JUMPDEST PUSH1 0x0 PUSH1 0x20 DUP3 ADD SWAP1 POP DUP2 DUP2 SUB PUSH1 0x0 DUP4 ADD MSTORE PUSH2 0x1500 DUP2 PUSH2 0x14C4 JUMP JUMPDEST SWAP1 POP SWAP2 SWAP1 POP JUMP JUMPDEST PUSH32 0x546F6B656E7320616C72656164792077697468647261776E0000000000000000 PUSH1 0x0 DUP3 ADD MSTORE POP JUMP JUMPDEST PUSH1 0x0 PUSH2 0x153D PUSH1 0x18 DUP4 PUSH2 0x12FC JUMP JUMPDEST SWAP2 POP PUSH2 0x1548 DUP3 PUSH2 0x1507 JUMP JUMPDEST PUSH1 0x20 DUP3 ADD SWAP1 POP SWAP2 SWAP1 POP JUMP JUMPDEST PUSH1 0x0 PUSH1 0x20 DUP3 ADD SWAP1 POP DUP2 DUP2 SUB PUSH1 0x0 DUP4 ADD MSTORE PUSH2 0x156C DUP2 PUSH2 0x1530 JUMP JUMPDEST SWAP1 POP SWAP2 SWAP1 POP JUMP JUMPDEST PUSH1 0x0 PUSH1 0x40 DUP3 ADD SWAP1 POP PUSH2 0x1588 PUSH1 0x0 DUP4 ADD DUP6 PUSH2 0x10FE JUMP JUMPDEST PUSH2 0x1595 PUSH1 0x20 DUP4 ADD DUP5 PUSH2 0x110D JUMP JUMPDEST SWAP4 SWAP3 POP POP POP JUMP JUMPDEST PUSH1 0x0 PUSH1 0x20 DUP3 ADD SWAP1 POP PUSH2 0x15B1 PUSH1 0x0 DUP4 ADD DUP5 PUSH2 0x10FE JUMP JUMPDEST SWAP3 SWAP2 POP POP JUMP JUMPDEST PUSH1 0x0 DUP2 MLOAD SWAP1 POP PUSH2 0x15C6 DUP2 PUSH2 0xFEA JUMP JUMPDEST SWAP3 SWAP2 POP POP JUMP JUMPDEST PUSH1 0x0 PUSH1 0x20 DUP3 DUP5 SUB SLT ISZERO PUSH2 0x15E2 JUMPI PUSH2 0x15E1 PUSH2 0xF7D JUMP JUMPDEST JUMPDEST PUSH1 0x0 PUSH2 0x15F0 DUP5 DUP3 DUP6 ADD PUSH2 0x15B7 JUMP JUMPDEST SWAP2 POP POP SWAP3 SWAP2 POP POP JUMP JUMPDEST PUSH32 0x4E487B7100000000000000000000000000000000000000000000000000000000 PUSH1 0x0 MSTORE PUSH1 0x12 PUSH1 0x4 MSTORE PUSH1 0x24 PUSH1 0x0 REVERT JUMPDEST PUSH1 0x0 PUSH2 0x1633 DUP3 PUSH2 0xFE0 JUMP JUMPDEST SWAP2 POP PUSH2 0x163E DUP4 PUSH2 0xFE0 JUMP JUMPDEST SWAP3 POP DUP3 PUSH2 0x164E JUMPI PUSH2 0x164D PUSH2 0x15F9 JUMP JUMPDEST JUMPDEST DUP3 DUP3 DIV SWAP1 POP SWAP3 SWAP2 POP POP JUMP JUMPDEST PUSH1 0x0 PUSH2 0x1664 DUP3 PUSH2 0xFE0 JUMP JUMPDEST SWAP2 POP PUSH2 0x166F DUP4 PUSH2 0xFE0 JUMP JUMPDEST SWAP3 POP DUP3 DUP3 SUB SWAP1 POP DUP2 DUP2 GT ISZERO PUSH2 0x1687 JUMPI PUSH2 0x1686 PUSH2 0x1379 JUMP JUMPDEST JUMPDEST SWAP3 SWAP2 POP POP JUMP JUMPDEST PUSH1 0x0 PUSH2 0x1698 DUP3 PUSH2 0xFE0 JUMP JUMPDEST SWAP2 POP PUSH2 0x16A3 DUP4 PUSH2 0xFE0 JUMP JUMPDEST SWAP3 POP DUP3 DUP3 MUL PUSH2 0x16B1 DUP2 PUSH2 0xFE0 JUMP JUMPDEST SWAP2 POP DUP3 DUP3 DIV DUP5 EQ DUP4 ISZERO OR PUSH2 0x16C8 JUMPI PUSH2 0x16C7 PUSH2 0x1379 JUMP JUMPDEST JUMPDEST POP SWAP3 SWAP2 POP POP JUMP INVALID LOG2 PUSH5 0x6970667358 0x22 SLT KECCAK256 DUP12 PUSH5 0x2BF1701950 0x4C BYTE DUP7 AND 0x1E 0xDD PUSH13 0xDA9D97EC2D00935895B5795E6E SIGNEXTEND PUSH6 0xA26AD164736F PUSH13 0x63430008120033000000000000 "
				},
				"gasEstimates": {
					"creation": {
						"codeDepositCost": "1178600",
						"executionCost": "1227",
						"totalCost": "1179827"
					},
					"external": {
						"beneficiaryDetails(address,uint256)": "infinite",
						"checkBalance()": "infinite",
						"lockTokens(address,uint256,uint256,uint256,uint256)": "infinite",
						"releasedTokens(address,uint256)": "infinite",
						"token()": "infinite",
						"whitelist(address,address)": "infinite",
						"whitelistTokens(address)": "24924",
						"withdrawTokens(uint8)": "infinite"
					},
					"internal": {
						"unlockTokens(uint8)": "infinite"
					}
				},
				"methodIdentifiers": {
					"beneficiaryDetails(address,uint256)": "73ce12d4",
					"checkBalance()": "c71daccb",
					"lockTokens(address,uint256,uint256,uint256,uint256)": "3ce301e5",
					"releasedTokens(address,uint256)": "eef0934b",
					"token()": "fc0c546a",
					"whitelist(address,address)": "b092145e",
					"whitelistTokens(address)": "5fb2386e",
					"withdrawTokens(uint8)": "b1b39337"
				}
			},
			"storageLayout": {
				"storage": [
					{
						"astId": 318,
						"contract": "Contracts/vesting.sol:vesting",
						"label": "token",
						"offset": 0,
						"slot": "0",
						"type": "t_contract(IERC20)758"
					},
					{
						"astId": 339,
						"contract": "Contracts/vesting.sol:vesting",
						"label": "beneficiaryDetails",
						"offset": 0,
						"slot": "1",
						"type": "t_mapping(t_address,t_array(t_struct(beneficiarydata)333_storage)dyn_storage)"
					},
					{
						"astId": 345,
						"contract": "Contracts/vesting.sol:vesting",
						"label": "releasedTokens",
						"offset": 0,
						"slot": "2",
						"type": "t_mapping(t_address,t_mapping(t_uint256,t_uint256))"
					},
					{
						"astId": 351,
						"contract": "Contracts/vesting.sol:vesting",
						"label": "whitelist",
						"offset": 0,
						"slot": "3",
						"type": "t_mapping(t_address,t_mapping(t_address,t_bool))"
					}
				],
				"types": {
					"t_address": {
						"encoding": "inplace",
						"label": "address",
						"numberOfBytes": "20"
					},
					"t_array(t_struct(beneficiarydata)333_storage)dyn_storage": {
						"base": "t_struct(beneficiarydata)333_storage",
						"encoding": "dynamic_array",
						"label": "struct vesting.beneficiarydata[]",
						"numberOfBytes": "32"
					},
					"t_bool": {
						"encoding": "inplace",
						"label": "bool",
						"numberOfBytes": "1"
					},
					"t_contract(IERC20)758": {
						"encoding": "inplace",
						"label": "contract IERC20",
						"numberOfBytes": "20"
					},
					"t_mapping(t_address,t_array(t_struct(beneficiarydata)333_storage)dyn_storage)": {
						"encoding": "mapping",
						"key": "t_address",
						"label": "mapping(address => struct vesting.beneficiarydata[])",
						"numberOfBytes": "32",
						"value": "t_array(t_struct(beneficiarydata)333_storage)dyn_storage"
					},
					"t_mapping(t_address,t_bool)": {
						"encoding": "mapping",
						"key": "t_address",
						"label": "mapping(address => bool)",
						"numberOfBytes": "32",
						"value": "t_bool"
					},
					"t_mapping(t_address,t_mapping(t_address,t_bool))": {
						"encoding": "mapping",
						"key": "t_address",
						"label": "mapping(address => mapping(address => bool))",
						"numberOfBytes": "32",
						"value": "t_mapping(t_address,t_bool)"
					},
					"t_mapping(t_address,t_mapping(t_uint256,t_uint256))": {
						"encoding": "mapping",
						"key": "t_address",
						"label": "mapping(address => mapping(uint256 => uint256))",
						"numberOfBytes": "32",
						"value": "t_mapping(t_uint256,t_uint256)"
					},
					"t_mapping(t_uint256,t_uint256)": {
						"encoding": "mapping",
						"key": "t_uint256",
						"label": "mapping(uint256 => uint256)",
						"numberOfBytes": "32",
						"value": "t_uint256"
					},
					"t_struct(beneficiarydata)333_storage": {
						"encoding": "inplace",
						"label": "struct vesting.beneficiarydata",
						"members": [
							{
								"astId": 320,
								"contract": "Contracts/vesting.sol:vesting",
								"label": "addressOfToken",
								"offset": 0,
								"slot": "0",
								"type": "t_address"
							},
							{
								"astId": 322,
								"contract": "Contracts/vesting.sol:vesting",
								"label": "noOfTokens",
								"offset": 0,
								"slot": "1",
								"type": "t_uint256"
							},
							{
								"astId": 324,
								"contract": "Contracts/vesting.sol:vesting",
								"label": "cliff",
								"offset": 0,
								"slot": "2",
								"type": "t_uint256"
							},
							{
								"astId": 326,
								"contract": "Contracts/vesting.sol:vesting",
								"label": "startTime",
								"offset": 0,
								"slot": "3",
								"type": "t_uint256"
							},
							{
								"astId": 328,
								"contract": "Contracts/vesting.sol:vesting",
								"label": "duration",
								"offset": 0,
								"slot": "4",
								"type": "t_uint256"
							},
							{
								"astId": 330,
								"contract": "Contracts/vesting.sol:vesting",
								"label": "slicePeriod",
								"offset": 0,
								"slot": "5",
								"type": "t_uint256"
							},
							{
								"astId": 332,
								"contract": "Contracts/vesting.sol:vesting",
								"label": "locked",
								"offset": 0,
								"slot": "6",
								"type": "t_bool"
							}
						],
						"numberOfBytes": "224"
					},
					"t_uint256": {
						"encoding": "inplace",
						"label": "uint256",
						"numberOfBytes": "32"
					}
				}
			},
			"userdoc": {
				"kind": "user",
				"methods": {},
				"version": 1
			}
		}
	}
}