{
	"Contracts/vesting.sol": {
		"vesting": {
			"abi": [
				{
					"anonymous": false,
					"inputs": [
						{
							"indexed": false,
							"internalType": "address",
							"name": "Tokenaddrress",
							"type": "address"
						},
						{
							"indexed": false,
							"internalType": "uint256",
							"name": "tokens",
							"type": "uint256"
						},
						{
							"indexed": false,
							"internalType": "uint256",
							"name": "duration",
							"type": "uint256"
						}
					],
					"name": "tokensLocked",
					"type": "event"
				},
				{
					"anonymous": false,
					"inputs": [
						{
							"indexed": false,
							"internalType": "uint256",
							"name": "",
							"type": "uint256"
						},
						{
							"indexed": false,
							"internalType": "uint256",
							"name": "",
							"type": "uint256"
						},
						{
							"indexed": false,
							"internalType": "uint256",
							"name": "",
							"type": "uint256"
						},
						{
							"indexed": false,
							"internalType": "uint256",
							"name": "",
							"type": "uint256"
						},
						{
							"indexed": false,
							"internalType": "uint256",
							"name": "",
							"type": "uint256"
						}
					],
					"name": "tokensUnLocked",
					"type": "event"
				},
				{
					"anonymous": false,
					"inputs": [
						{
							"indexed": false,
							"internalType": "address",
							"name": "beneficiary",
							"type": "address"
						},
						{
							"indexed": false,
							"internalType": "uint256",
							"name": "tokens",
							"type": "uint256"
						}
					],
					"name": "tokensWithdrawn",
					"type": "event"
				},
				{
					"anonymous": false,
					"inputs": [
						{
							"indexed": false,
							"internalType": "address",
							"name": "",
							"type": "address"
						}
					],
					"name": "whitelisted",
					"type": "event"
				},
				{
					"inputs": [
						{
							"internalType": "address",
							"name": "",
							"type": "address"
						},
						{
							"internalType": "uint256",
							"name": "",
							"type": "uint256"
						}
					],
					"name": "beneficiaryDetails",
					"outputs": [
						{
							"internalType": "address",
							"name": "addressOfToken",
							"type": "address"
						},
						{
							"internalType": "address",
							"name": "beneficiary",
							"type": "address"
						},
						{
							"internalType": "uint256",
							"name": "noOfTokens",
							"type": "uint256"
						},
						{
							"internalType": "uint256",
							"name": "cliff",
							"type": "uint256"
						},
						{
							"internalType": "uint256",
							"name": "startTime",
							"type": "uint256"
						},
						{
							"internalType": "uint256",
							"name": "duration",
							"type": "uint256"
						},
						{
							"internalType": "uint256",
							"name": "slicePeriod",
							"type": "uint256"
						},
						{
							"internalType": "bool",
							"name": "locked",
							"type": "bool"
						}
					],
					"stateMutability": "view",
					"type": "function"
				},
				{
					"inputs": [],
					"name": "checkBalance",
					"outputs": [
						{
							"internalType": "uint256",
							"name": "",
							"type": "uint256"
						}
					],
					"stateMutability": "view",
					"type": "function"
				},
				{
					"inputs": [
						{
							"internalType": "address",
							"name": "_tokenaddress",
							"type": "address"
						},
						{
							"internalType": "uint256",
							"name": "_noOfTokens",
							"type": "uint256"
						},
						{
							"internalType": "uint256",
							"name": "_cliff",
							"type": "uint256"
						},
						{
							"internalType": "uint256",
							"name": "_duration",
							"type": "uint256"
						},
						{
							"internalType": "uint256",
							"name": "_sliceperiod",
							"type": "uint256"
						}
					],
					"name": "lockTokens",
					"outputs": [],
					"stateMutability": "nonpayable",
					"type": "function"
				},
				{
					"inputs": [
						{
							"internalType": "address",
							"name": "",
							"type": "address"
						},
						{
							"internalType": "uint256",
							"name": "",
							"type": "uint256"
						}
					],
					"name": "releasedTokens",
					"outputs": [
						{
							"internalType": "uint256",
							"name": "",
							"type": "uint256"
						}
					],
					"stateMutability": "view",
					"type": "function"
				},
				{
					"inputs": [],
					"name": "token",
					"outputs": [
						{
							"internalType": "contract IERC20",
							"name": "",
							"type": "address"
						}
					],
					"stateMutability": "view",
					"type": "function"
				},
				{
					"inputs": [],
					"name": "tokensLeft",
					"outputs": [
						{
							"internalType": "uint256",
							"name": "",
							"type": "uint256"
						}
					],
					"stateMutability": "view",
					"type": "function"
				},
				{
					"inputs": [
						{
							"internalType": "address",
							"name": "",
							"type": "address"
						},
						{
							"internalType": "address",
							"name": "",
							"type": "address"
						}
					],
					"name": "whitelist",
					"outputs": [
						{
							"internalType": "bool",
							"name": "",
							"type": "bool"
						}
					],
					"stateMutability": "view",
					"type": "function"
				},
				{
					"inputs": [
						{
							"internalType": "address",
							"name": "_tokenaddress",
							"type": "address"
						}
					],
					"name": "whitelistTokens",
					"outputs": [],
					"stateMutability": "nonpayable",
					"type": "function"
				},
				{
					"inputs": [
						{
							"internalType": "uint8",
							"name": "index",
							"type": "uint8"
						}
					],
					"name": "withdrawTokens",
					"outputs": [],
					"stateMutability": "nonpayable",
					"type": "function"
				}
			],
			"devdoc": {
				"kind": "dev",
				"methods": {},
				"version": 1
			},
			"evm": {
				"assembly": "    /* \"Contracts/vesting.sol\":177:3814  contract vesting{... */\n  mstore(0x40, 0x80)\n  callvalue\n  dup1\n  iszero\n  tag_1\n  jumpi\n  0x00\n  dup1\n  revert\ntag_1:\n  pop\n  dataSize(sub_0)\n  dup1\n  dataOffset(sub_0)\n  0x00\n  codecopy\n  0x00\n  return\nstop\n\nsub_0: assembly {\n        /* \"Contracts/vesting.sol\":177:3814  contract vesting{... */\n      mstore(0x40, 0x80)\n      callvalue\n      dup1\n      iszero\n      tag_1\n      jumpi\n      0x00\n      dup1\n      revert\n    tag_1:\n      pop\n      jumpi(tag_2, lt(calldatasize, 0x04))\n      shr(0xe0, calldataload(0x00))\n      dup1\n      0xb1b39337\n      gt\n      tag_12\n      jumpi\n      dup1\n      0xb1b39337\n      eq\n      tag_7\n      jumpi\n      dup1\n      0xb31f8f93\n      eq\n      tag_8\n      jumpi\n      dup1\n      0xc71daccb\n      eq\n      tag_9\n      jumpi\n      dup1\n      0xeef0934b\n      eq\n      tag_10\n      jumpi\n      dup1\n      0xfc0c546a\n      eq\n      tag_11\n      jumpi\n      jump(tag_2)\n    tag_12:\n      dup1\n      0x3ce301e5\n      eq\n      tag_3\n      jumpi\n      dup1\n      0x5fb2386e\n      eq\n      tag_4\n      jumpi\n      dup1\n      0x73ce12d4\n      eq\n      tag_5\n      jumpi\n      dup1\n      0xb092145e\n      eq\n      tag_6\n      jumpi\n    tag_2:\n      0x00\n      dup1\n      revert\n        /* \"Contracts/vesting.sol\":1195:2043  function lockTokens(address _tokenaddress,uint _noOfTokens,uint _cliff,uint _duration,uint _sliceperiod) external{... */\n    tag_3:\n      tag_13\n      0x04\n      dup1\n      calldatasize\n      sub\n      dup2\n      add\n      swap1\n      tag_14\n      swap2\n      swap1\n      tag_15\n      jump\t// in\n    tag_14:\n      tag_16\n      jump\t// in\n    tag_13:\n      stop\n        /* \"Contracts/vesting.sol\":919:1078  function whitelistTokens(address _tokenaddress) external {... */\n    tag_4:\n      tag_17\n      0x04\n      dup1\n      calldatasize\n      sub\n      dup2\n      add\n      swap1\n      tag_18\n      swap2\n      swap1\n      tag_19\n      jump\t// in\n    tag_18:\n      tag_20\n      jump\t// in\n    tag_17:\n      stop\n        /* \"Contracts/vesting.sol\":490:554  mapping (address => beneficiarydata[]) public beneficiaryDetails */\n    tag_5:\n      tag_21\n      0x04\n      dup1\n      calldatasize\n      sub\n      dup2\n      add\n      swap1\n      tag_22\n      swap2\n      swap1\n      tag_23\n      jump\t// in\n    tag_22:\n      tag_24\n      jump\t// in\n    tag_21:\n      mload(0x40)\n      tag_25\n      swap9\n      swap8\n      swap7\n      swap6\n      swap5\n      swap4\n      swap3\n      swap2\n      swap1\n      tag_26\n      jump\t// in\n    tag_25:\n      mload(0x40)\n      dup1\n      swap2\n      sub\n      swap1\n      return\n        /* \"Contracts/vesting.sol\":631:693  mapping (address => mapping(address => bool)) public whitelist */\n    tag_6:\n      tag_27\n      0x04\n      dup1\n      calldatasize\n      sub\n      dup2\n      add\n      swap1\n      tag_28\n      swap2\n      swap1\n      tag_29\n      jump\t// in\n    tag_28:\n      tag_30\n      jump\t// in\n    tag_27:\n      mload(0x40)\n      tag_31\n      swap2\n      swap1\n      tag_32\n      jump\t// in\n    tag_31:\n      mload(0x40)\n      dup1\n      swap2\n      sub\n      swap1\n      return\n        /* \"Contracts/vesting.sol\":2052:2765  function withdrawTokens(uint8 index) external {... */\n    tag_7:\n      tag_33\n      0x04\n      dup1\n      calldatasize\n      sub\n      dup2\n      add\n      swap1\n      tag_34\n      swap2\n      swap1\n      tag_35\n      jump\t// in\n    tag_34:\n      tag_36\n      jump\t// in\n    tag_33:\n      stop\n        /* \"Contracts/vesting.sol\":225:247  uint public tokensLeft */\n    tag_8:\n      tag_37\n      tag_38\n      jump\t// in\n    tag_37:\n      mload(0x40)\n      tag_39\n      swap2\n      swap1\n      tag_40\n      jump\t// in\n    tag_39:\n      mload(0x40)\n      dup1\n      swap2\n      sub\n      swap1\n      return\n        /* \"Contracts/vesting.sol\":1084:1189  function checkBalance() external view returns(uint){... */\n    tag_9:\n      tag_41\n      tag_42\n      jump\t// in\n    tag_41:\n      mload(0x40)\n      tag_43\n      swap2\n      swap1\n      tag_40\n      jump\t// in\n    tag_43:\n      mload(0x40)\n      dup1\n      swap2\n      sub\n      swap1\n      return\n        /* \"Contracts/vesting.sol\":561:625  mapping (address => mapping(uint => uint)) public releasedTokens */\n    tag_10:\n      tag_44\n      0x04\n      dup1\n      calldatasize\n      sub\n      dup2\n      add\n      swap1\n      tag_45\n      swap2\n      swap1\n      tag_23\n      jump\t// in\n    tag_45:\n      tag_46\n      jump\t// in\n    tag_44:\n      mload(0x40)\n      tag_47\n      swap2\n      swap1\n      tag_40\n      jump\t// in\n    tag_47:\n      mload(0x40)\n      dup1\n      swap2\n      sub\n      swap1\n      return\n        /* \"Contracts/vesting.sol\":200:219  IERC20 public token */\n    tag_11:\n      tag_48\n      tag_49\n      jump\t// in\n    tag_48:\n      mload(0x40)\n      tag_50\n      swap2\n      swap1\n      tag_51\n      jump\t// in\n    tag_50:\n      mload(0x40)\n      dup1\n      swap2\n      sub\n      swap1\n      return\n        /* \"Contracts/vesting.sol\":1195:2043  function lockTokens(address _tokenaddress,uint _noOfTokens,uint _cliff,uint _duration,uint _sliceperiod) external{... */\n    tag_16:\n        /* \"Contracts/vesting.sol\":1335:1344  whitelist */\n      0x04\n        /* \"Contracts/vesting.sol\":1335:1356  whitelist[msg.sender] */\n      0x00\n        /* \"Contracts/vesting.sol\":1345:1355  msg.sender */\n      caller\n        /* \"Contracts/vesting.sol\":1335:1356  whitelist[msg.sender] */\n      0xffffffffffffffffffffffffffffffffffffffff\n      and\n      0xffffffffffffffffffffffffffffffffffffffff\n      and\n      dup2\n      mstore\n      0x20\n      add\n      swap1\n      dup2\n      mstore\n      0x20\n      add\n      0x00\n      keccak256\n        /* \"Contracts/vesting.sol\":1335:1371  whitelist[msg.sender][_tokenaddress] */\n      0x00\n        /* \"Contracts/vesting.sol\":1357:1370  _tokenaddress */\n      dup7\n        /* \"Contracts/vesting.sol\":1335:1371  whitelist[msg.sender][_tokenaddress] */\n      0xffffffffffffffffffffffffffffffffffffffff\n      and\n      0xffffffffffffffffffffffffffffffffffffffff\n      and\n      dup2\n      mstore\n      0x20\n      add\n      swap1\n      dup2\n      mstore\n      0x20\n      add\n      0x00\n      keccak256\n      0x00\n      swap1\n      sload\n      swap1\n      0x0100\n      exp\n      swap1\n      div\n      0xff\n      and\n        /* \"Contracts/vesting.sol\":1327:1395  require(whitelist[msg.sender][_tokenaddress],\"Token is not allowed\") */\n      tag_53\n      jumpi\n      mload(0x40)\n      0x08c379a000000000000000000000000000000000000000000000000000000000\n      dup2\n      mstore\n      0x04\n      add\n      tag_54\n      swap1\n      tag_55\n      jump\t// in\n    tag_54:\n      mload(0x40)\n      dup1\n      swap2\n      sub\n      swap1\n      revert\n    tag_53:\n        /* \"Contracts/vesting.sol\":1425:1426  0 */\n      0x00\n        /* \"Contracts/vesting.sol\":1413:1424  _noOfTokens */\n      dup5\n        /* \"Contracts/vesting.sol\":1413:1426  _noOfTokens>0 */\n      gt\n        /* \"Contracts/vesting.sol\":1405:1427  require(_noOfTokens>0) */\n      tag_56\n      jumpi\n      0x00\n      dup1\n      revert\n    tag_56:\n        /* \"Contracts/vesting.sol\":1452:1465  _tokenaddress */\n      dup5\n        /* \"Contracts/vesting.sol\":1437:1442  token */\n      0x00\n      dup1\n        /* \"Contracts/vesting.sol\":1437:1466  token = IERC20(_tokenaddress) */\n      0x0100\n      exp\n      dup2\n      sload\n      dup2\n      0xffffffffffffffffffffffffffffffffffffffff\n      mul\n      not\n      and\n      swap1\n      dup4\n      0xffffffffffffffffffffffffffffffffffffffff\n      and\n      mul\n      or\n      swap1\n      sstore\n      pop\n        /* \"Contracts/vesting.sol\":1476:1505  beneficiarydata memory person */\n      0x00\n        /* \"Contracts/vesting.sol\":1508:1819  beneficiarydata({... */\n      mload(0x40)\n      dup1\n      0x0100\n      add\n      0x40\n      mstore\n      dup1\n        /* \"Contracts/vesting.sol\":1553:1566  _tokenaddress */\n      dup8\n        /* \"Contracts/vesting.sol\":1508:1819  beneficiarydata({... */\n      0xffffffffffffffffffffffffffffffffffffffff\n      and\n      dup2\n      mstore\n      0x20\n      add\n        /* \"Contracts/vesting.sol\":1592:1602  msg.sender */\n      caller\n        /* \"Contracts/vesting.sol\":1508:1819  beneficiarydata({... */\n      0xffffffffffffffffffffffffffffffffffffffff\n      and\n      dup2\n      mstore\n      0x20\n      add\n        /* \"Contracts/vesting.sol\":1627:1638  _noOfTokens */\n      dup7\n        /* \"Contracts/vesting.sol\":1508:1819  beneficiarydata({... */\n      dup2\n      mstore\n      0x20\n      add\n        /* \"Contracts/vesting.sol\":1658:1664  _cliff */\n      dup6\n        /* \"Contracts/vesting.sol\":1508:1819  beneficiarydata({... */\n      dup2\n      mstore\n      0x20\n      add\n        /* \"Contracts/vesting.sol\":1707:1713  _cliff */\n      dup6\n        /* \"Contracts/vesting.sol\":1689:1704  block.timestamp */\n      timestamp\n        /* \"Contracts/vesting.sol\":1689:1713  block.timestamp + _cliff */\n      tag_57\n      swap2\n      swap1\n      tag_58\n      jump\t// in\n    tag_57:\n        /* \"Contracts/vesting.sol\":1508:1819  beneficiarydata({... */\n      dup2\n      mstore\n      0x20\n      add\n        /* \"Contracts/vesting.sol\":1736:1745  _duration */\n      dup5\n        /* \"Contracts/vesting.sol\":1508:1819  beneficiarydata({... */\n      dup2\n      mstore\n      0x20\n      add\n        /* \"Contracts/vesting.sol\":1771:1783  _sliceperiod */\n      dup4\n        /* \"Contracts/vesting.sol\":1508:1819  beneficiarydata({... */\n      dup2\n      mstore\n      0x20\n      add\n        /* \"Contracts/vesting.sol\":1804:1808  true */\n      0x01\n        /* \"Contracts/vesting.sol\":1508:1819  beneficiarydata({... */\n      iszero\n      iszero\n      dup2\n      mstore\n      pop\n        /* \"Contracts/vesting.sol\":1476:1819  beneficiarydata memory person = beneficiarydata({... */\n      swap1\n      pop\n        /* \"Contracts/vesting.sol\":1830:1848  beneficiaryDetails */\n      0x02\n        /* \"Contracts/vesting.sol\":1830:1860  beneficiaryDetails[msg.sender] */\n      0x00\n        /* \"Contracts/vesting.sol\":1849:1859  msg.sender */\n      caller\n        /* \"Contracts/vesting.sol\":1830:1860  beneficiaryDetails[msg.sender] */\n      0xffffffffffffffffffffffffffffffffffffffff\n      and\n      0xffffffffffffffffffffffffffffffffffffffff\n      and\n      dup2\n      mstore\n      0x20\n      add\n      swap1\n      dup2\n      mstore\n      0x20\n      add\n      0x00\n      keccak256\n        /* \"Contracts/vesting.sol\":1866:1872  person */\n      dup2\n        /* \"Contracts/vesting.sol\":1830:1873  beneficiaryDetails[msg.sender].push(person) */\n      swap1\n      dup1\n      0x01\n      dup2\n      sload\n      add\n      dup1\n      dup3\n      sstore\n      dup1\n      swap2\n      pop\n      pop\n      0x01\n      swap1\n      sub\n      swap1\n      0x00\n      mstore\n      keccak256(0x00, 0x20)\n      swap1\n      0x08\n      mul\n      add\n      0x00\n      swap1\n      swap2\n      swap1\n      swap2\n      swap1\n      swap2\n      pop\n      0x00\n      dup3\n      add\n      mload\n      dup2\n      0x00\n      add\n      exp(0x0100, 0x00)\n      dup2\n      sload\n      dup2\n      0xffffffffffffffffffffffffffffffffffffffff\n      mul\n      not\n      and\n      swap1\n      dup4\n      0xffffffffffffffffffffffffffffffffffffffff\n      and\n      mul\n      or\n      swap1\n      sstore\n      pop\n      0x20\n      dup3\n      add\n      mload\n      dup2\n      0x01\n      add\n      exp(0x0100, 0x00)\n      dup2\n      sload\n      dup2\n      0xffffffffffffffffffffffffffffffffffffffff\n      mul\n      not\n      and\n      swap1\n      dup4\n      0xffffffffffffffffffffffffffffffffffffffff\n      and\n      mul\n      or\n      swap1\n      sstore\n      pop\n      0x40\n      dup3\n      add\n      mload\n      dup2\n      0x02\n      add\n      sstore\n      0x60\n      dup3\n      add\n      mload\n      dup2\n      0x03\n      add\n      sstore\n      0x80\n      dup3\n      add\n      mload\n      dup2\n      0x04\n      add\n      sstore\n      0xa0\n      dup3\n      add\n      mload\n      dup2\n      0x05\n      add\n      sstore\n      0xc0\n      dup3\n      add\n      mload\n      dup2\n      0x06\n      add\n      sstore\n      0xe0\n      dup3\n      add\n      mload\n      dup2\n      0x07\n      add\n      exp(0x0100, 0x00)\n      dup2\n      sload\n      dup2\n      0xff\n      mul\n      not\n      and\n      swap1\n      dup4\n      iszero\n      iszero\n      mul\n      or\n      swap1\n      sstore\n      pop\n      pop\n      pop\n        /* \"Contracts/vesting.sol\":1883:1888  token */\n      0x00\n      dup1\n      sload\n      swap1\n      0x0100\n      exp\n      swap1\n      div\n      0xffffffffffffffffffffffffffffffffffffffff\n      and\n        /* \"Contracts/vesting.sol\":1883:1901  token.transferFrom */\n      0xffffffffffffffffffffffffffffffffffffffff\n      and\n      0x23b872dd\n        /* \"Contracts/vesting.sol\":1902:1912  msg.sender */\n      caller\n        /* \"Contracts/vesting.sol\":1921:1925  this */\n      address\n        /* \"Contracts/vesting.sol\":1927:1938  _noOfTokens */\n      dup9\n        /* \"Contracts/vesting.sol\":1883:1939  token.transferFrom(msg.sender,address(this),_noOfTokens) */\n      mload(0x40)\n      dup5\n      0xffffffff\n      and\n      0xe0\n      shl\n      dup2\n      mstore\n      0x04\n      add\n      tag_60\n      swap4\n      swap3\n      swap2\n      swap1\n      tag_61\n      jump\t// in\n    tag_60:\n      0x20\n      mload(0x40)\n      dup1\n      dup4\n      sub\n      dup2\n      0x00\n      dup8\n      gas\n      call\n      iszero\n      dup1\n      iszero\n      tag_63\n      jumpi\n      returndatasize\n      0x00\n      dup1\n      returndatacopy\n      revert(0x00, returndatasize)\n    tag_63:\n      pop\n      pop\n      pop\n      pop\n      mload(0x40)\n      returndatasize\n      not(0x1f)\n      0x1f\n      dup3\n      add\n      and\n      dup3\n      add\n      dup1\n      0x40\n      mstore\n      pop\n      dup2\n      add\n      swap1\n      tag_64\n      swap2\n      swap1\n      tag_65\n      jump\t// in\n    tag_64:\n      pop\n        /* \"Contracts/vesting.sol\":1954:2036  tokensLocked(_tokenaddress,_noOfTokens,beneficiaryDetails[msg.sender][0].duration) */\n      0x661b019a87c9514e94117729b846d626db49cd08807904f023d3ced15365cd68\n        /* \"Contracts/vesting.sol\":1967:1980  _tokenaddress */\n      dup7\n        /* \"Contracts/vesting.sol\":1981:1992  _noOfTokens */\n      dup7\n        /* \"Contracts/vesting.sol\":1993:2011  beneficiaryDetails */\n      0x02\n        /* \"Contracts/vesting.sol\":1993:2023  beneficiaryDetails[msg.sender] */\n      0x00\n        /* \"Contracts/vesting.sol\":2012:2022  msg.sender */\n      caller\n        /* \"Contracts/vesting.sol\":1993:2023  beneficiaryDetails[msg.sender] */\n      0xffffffffffffffffffffffffffffffffffffffff\n      and\n      0xffffffffffffffffffffffffffffffffffffffff\n      and\n      dup2\n      mstore\n      0x20\n      add\n      swap1\n      dup2\n      mstore\n      0x20\n      add\n      0x00\n      keccak256\n        /* \"Contracts/vesting.sol\":2024:2025  0 */\n      0x00\n        /* \"Contracts/vesting.sol\":1993:2026  beneficiaryDetails[msg.sender][0] */\n      dup2\n      sload\n      dup2\n      lt\n      tag_66\n      jumpi\n      tag_67\n      tag_68\n      jump\t// in\n    tag_67:\n    tag_66:\n      swap1\n      0x00\n      mstore\n      keccak256(0x00, 0x20)\n      swap1\n      0x08\n      mul\n      add\n        /* \"Contracts/vesting.sol\":1993:2035  beneficiaryDetails[msg.sender][0].duration */\n      0x05\n      add\n      sload\n        /* \"Contracts/vesting.sol\":1954:2036  tokensLocked(_tokenaddress,_noOfTokens,beneficiaryDetails[msg.sender][0].duration) */\n      mload(0x40)\n      tag_70\n      swap4\n      swap3\n      swap2\n      swap1\n      tag_71\n      jump\t// in\n    tag_70:\n      mload(0x40)\n      dup1\n      swap2\n      sub\n      swap1\n      log1\n        /* \"Contracts/vesting.sol\":1308:2043  {... */\n      pop\n        /* \"Contracts/vesting.sol\":1195:2043  function lockTokens(address _tokenaddress,uint _noOfTokens,uint _cliff,uint _duration,uint _sliceperiod) external{... */\n      pop\n      pop\n      pop\n      pop\n      pop\n      jump\t// out\n        /* \"Contracts/vesting.sol\":919:1078  function whitelistTokens(address _tokenaddress) external {... */\n    tag_20:\n        /* \"Contracts/vesting.sol\":1025:1029  true */\n      0x01\n        /* \"Contracts/vesting.sol\":986:995  whitelist */\n      0x04\n        /* \"Contracts/vesting.sol\":986:1007  whitelist[msg.sender] */\n      0x00\n        /* \"Contracts/vesting.sol\":996:1006  msg.sender */\n      caller\n        /* \"Contracts/vesting.sol\":986:1007  whitelist[msg.sender] */\n      0xffffffffffffffffffffffffffffffffffffffff\n      and\n      0xffffffffffffffffffffffffffffffffffffffff\n      and\n      dup2\n      mstore\n      0x20\n      add\n      swap1\n      dup2\n      mstore\n      0x20\n      add\n      0x00\n      keccak256\n        /* \"Contracts/vesting.sol\":986:1022  whitelist[msg.sender][_tokenaddress] */\n      0x00\n        /* \"Contracts/vesting.sol\":1008:1021  _tokenaddress */\n      dup4\n        /* \"Contracts/vesting.sol\":986:1022  whitelist[msg.sender][_tokenaddress] */\n      0xffffffffffffffffffffffffffffffffffffffff\n      and\n      0xffffffffffffffffffffffffffffffffffffffff\n      and\n      dup2\n      mstore\n      0x20\n      add\n      swap1\n      dup2\n      mstore\n      0x20\n      add\n      0x00\n      keccak256\n      0x00\n        /* \"Contracts/vesting.sol\":986:1029  whitelist[msg.sender][_tokenaddress] = true */\n      0x0100\n      exp\n      dup2\n      sload\n      dup2\n      0xff\n      mul\n      not\n      and\n      swap1\n      dup4\n      iszero\n      iszero\n      mul\n      or\n      swap1\n      sstore\n      pop\n        /* \"Contracts/vesting.sol\":1044:1070  whitelisted(_tokenaddress) */\n      0xd936547e15d595cd7e4c0d71ce9ddbc75ae4fd243d310184fbd19390c58a304b\n        /* \"Contracts/vesting.sol\":1056:1069  _tokenaddress */\n      dup2\n        /* \"Contracts/vesting.sol\":1044:1070  whitelisted(_tokenaddress) */\n      mload(0x40)\n      tag_73\n      swap2\n      swap1\n      tag_74\n      jump\t// in\n    tag_73:\n      mload(0x40)\n      dup1\n      swap2\n      sub\n      swap1\n      log1\n        /* \"Contracts/vesting.sol\":919:1078  function whitelistTokens(address _tokenaddress) external {... */\n      pop\n      jump\t// out\n        /* \"Contracts/vesting.sol\":490:554  mapping (address => beneficiarydata[]) public beneficiaryDetails */\n    tag_24:\n      mstore(0x20, 0x02)\n      dup2\n      0x00\n      mstore\n      keccak256(0x00, 0x40)\n      dup2\n      dup2\n      sload\n      dup2\n      lt\n      tag_75\n      jumpi\n      0x00\n      dup1\n      revert\n    tag_75:\n      swap1\n      0x00\n      mstore\n      keccak256(0x00, 0x20)\n      swap1\n      0x08\n      mul\n      add\n      0x00\n      swap2\n      pop\n      swap2\n      pop\n      pop\n      dup1\n      0x00\n      add\n      0x00\n      swap1\n      sload\n      swap1\n      0x0100\n      exp\n      swap1\n      div\n      0xffffffffffffffffffffffffffffffffffffffff\n      and\n      swap1\n      dup1\n      0x01\n      add\n      0x00\n      swap1\n      sload\n      swap1\n      0x0100\n      exp\n      swap1\n      div\n      0xffffffffffffffffffffffffffffffffffffffff\n      and\n      swap1\n      dup1\n      0x02\n      add\n      sload\n      swap1\n      dup1\n      0x03\n      add\n      sload\n      swap1\n      dup1\n      0x04\n      add\n      sload\n      swap1\n      dup1\n      0x05\n      add\n      sload\n      swap1\n      dup1\n      0x06\n      add\n      sload\n      swap1\n      dup1\n      0x07\n      add\n      0x00\n      swap1\n      sload\n      swap1\n      0x0100\n      exp\n      swap1\n      div\n      0xff\n      and\n      swap1\n      pop\n      dup9\n      jump\t// out\n        /* \"Contracts/vesting.sol\":631:693  mapping (address => mapping(address => bool)) public whitelist */\n    tag_30:\n      mstore(0x20, 0x04)\n      dup2\n      0x00\n      mstore\n      mstore(0x20, keccak256(0x00, 0x40))\n      dup1\n      0x00\n      mstore\n      keccak256(0x00, 0x40)\n      0x00\n      swap2\n      pop\n      swap2\n      pop\n      swap1\n      sload\n      swap1\n      0x0100\n      exp\n      swap1\n      div\n      0xff\n      and\n      dup2\n      jump\t// out\n        /* \"Contracts/vesting.sol\":2052:2765  function withdrawTokens(uint8 index) external {... */\n    tag_36:\n        /* \"Contracts/vesting.sol\":2397:2415  beneficiaryDetails */\n      0x02\n        /* \"Contracts/vesting.sol\":2397:2427  beneficiaryDetails[msg.sender] */\n      0x00\n        /* \"Contracts/vesting.sol\":2416:2426  msg.sender */\n      caller\n        /* \"Contracts/vesting.sol\":2397:2427  beneficiaryDetails[msg.sender] */\n      0xffffffffffffffffffffffffffffffffffffffff\n      and\n      0xffffffffffffffffffffffffffffffffffffffff\n      and\n      dup2\n      mstore\n      0x20\n      add\n      swap1\n      dup2\n      mstore\n      0x20\n      add\n      0x00\n      keccak256\n        /* \"Contracts/vesting.sol\":2428:2433  index */\n      dup2\n        /* \"Contracts/vesting.sol\":2397:2434  beneficiaryDetails[msg.sender][index] */\n      0xff\n      and\n      dup2\n      sload\n      dup2\n      lt\n      tag_78\n      jumpi\n      tag_79\n      tag_68\n      jump\t// in\n    tag_79:\n    tag_78:\n      swap1\n      0x00\n      mstore\n      keccak256(0x00, 0x20)\n      swap1\n      0x08\n      mul\n      add\n        /* \"Contracts/vesting.sol\":2397:2449  beneficiaryDetails[msg.sender][index].addressOfToken */\n      0x00\n      add\n      0x00\n      swap1\n      sload\n      swap1\n      0x0100\n      exp\n      swap1\n      div\n      0xffffffffffffffffffffffffffffffffffffffff\n      and\n        /* \"Contracts/vesting.sol\":2382:2387  token */\n      0x00\n      dup1\n        /* \"Contracts/vesting.sol\":2382:2450  token = IERC20(beneficiaryDetails[msg.sender][index].addressOfToken) */\n      0x0100\n      exp\n      dup2\n      sload\n      dup2\n      0xffffffffffffffffffffffffffffffffffffffff\n      mul\n      not\n      and\n      swap1\n      dup4\n      0xffffffffffffffffffffffffffffffffffffffff\n      and\n      mul\n      or\n      swap1\n      sstore\n      pop\n        /* \"Contracts/vesting.sol\":2471:2490  unlockTokens(index) */\n      tag_81\n        /* \"Contracts/vesting.sol\":2484:2489  index */\n      dup2\n        /* \"Contracts/vesting.sol\":2471:2483  unlockTokens */\n      tag_82\n        /* \"Contracts/vesting.sol\":2471:2490  unlockTokens(index) */\n      jump\t// in\n    tag_81:\n        /* \"Contracts/vesting.sol\":2460:2470  tokensLeft */\n      0x01\n        /* \"Contracts/vesting.sol\":2460:2490  tokensLeft=unlockTokens(index) */\n      dup2\n      swap1\n      sstore\n      pop\n        /* \"Contracts/vesting.sol\":2500:2505  token */\n      0x00\n      dup1\n      sload\n      swap1\n      0x0100\n      exp\n      swap1\n      div\n      0xffffffffffffffffffffffffffffffffffffffff\n      and\n        /* \"Contracts/vesting.sol\":2500:2514  token.transfer */\n      0xffffffffffffffffffffffffffffffffffffffff\n      and\n      0xa9059cbb\n        /* \"Contracts/vesting.sol\":2515:2525  msg.sender */\n      caller\n        /* \"Contracts/vesting.sol\":2526:2536  tokensLeft */\n      sload(0x01)\n        /* \"Contracts/vesting.sol\":2500:2537  token.transfer(msg.sender,tokensLeft) */\n      mload(0x40)\n      dup4\n      0xffffffff\n      and\n      0xe0\n      shl\n      dup2\n      mstore\n      0x04\n      add\n      tag_83\n      swap3\n      swap2\n      swap1\n      tag_84\n      jump\t// in\n    tag_83:\n      0x20\n      mload(0x40)\n      dup1\n      dup4\n      sub\n      dup2\n      0x00\n      dup8\n      gas\n      call\n      iszero\n      dup1\n      iszero\n      tag_86\n      jumpi\n      returndatasize\n      0x00\n      dup1\n      returndatacopy\n      revert(0x00, returndatasize)\n    tag_86:\n      pop\n      pop\n      pop\n      pop\n      mload(0x40)\n      returndatasize\n      not(0x1f)\n      0x1f\n      dup3\n      add\n      and\n      dup3\n      add\n      dup1\n      0x40\n      mstore\n      pop\n      dup2\n      add\n      swap1\n      tag_87\n      swap2\n      swap1\n      tag_65\n      jump\t// in\n    tag_87:\n      pop\n        /* \"Contracts/vesting.sol\":2582:2592  tokensLeft */\n      sload(0x01)\n        /* \"Contracts/vesting.sol\":2547:2561  releasedTokens */\n      0x03\n        /* \"Contracts/vesting.sol\":2547:2573  releasedTokens[msg.sender] */\n      0x00\n        /* \"Contracts/vesting.sol\":2562:2572  msg.sender */\n      caller\n        /* \"Contracts/vesting.sol\":2547:2573  releasedTokens[msg.sender] */\n      0xffffffffffffffffffffffffffffffffffffffff\n      and\n      0xffffffffffffffffffffffffffffffffffffffff\n      and\n      dup2\n      mstore\n      0x20\n      add\n      swap1\n      dup2\n      mstore\n      0x20\n      add\n      0x00\n      keccak256\n        /* \"Contracts/vesting.sol\":2547:2580  releasedTokens[msg.sender][index] */\n      0x00\n        /* \"Contracts/vesting.sol\":2574:2579  index */\n      dup4\n        /* \"Contracts/vesting.sol\":2547:2580  releasedTokens[msg.sender][index] */\n      0xff\n      and\n      dup2\n      mstore\n      0x20\n      add\n      swap1\n      dup2\n      mstore\n      0x20\n      add\n      0x00\n      keccak256\n      0x00\n        /* \"Contracts/vesting.sol\":2547:2592  releasedTokens[msg.sender][index]+=tokensLeft */\n      dup3\n      dup3\n      sload\n      tag_88\n      swap2\n      swap1\n      tag_58\n      jump\t// in\n    tag_88:\n      swap3\n      pop\n      pop\n      dup2\n      swap1\n      sstore\n      pop\n        /* \"Contracts/vesting.sol\":2052:2765  function withdrawTokens(uint8 index) external {... */\n      pop\n      jump\t// out\n        /* \"Contracts/vesting.sol\":225:247  uint public tokensLeft */\n    tag_38:\n      sload(0x01)\n      dup2\n      jump\t// out\n        /* \"Contracts/vesting.sol\":1084:1189  function checkBalance() external view returns(uint){... */\n    tag_42:\n        /* \"Contracts/vesting.sol\":1130:1134  uint */\n      0x00\n        /* \"Contracts/vesting.sol\":1152:1157  token */\n      dup1\n      0x00\n      swap1\n      sload\n      swap1\n      0x0100\n      exp\n      swap1\n      div\n      0xffffffffffffffffffffffffffffffffffffffff\n      and\n        /* \"Contracts/vesting.sol\":1152:1167  token.balanceOf */\n      0xffffffffffffffffffffffffffffffffffffffff\n      and\n      0x70a08231\n        /* \"Contracts/vesting.sol\":1176:1180  this */\n      address\n        /* \"Contracts/vesting.sol\":1152:1182  token.balanceOf(address(this)) */\n      mload(0x40)\n      dup3\n      0xffffffff\n      and\n      0xe0\n      shl\n      dup2\n      mstore\n      0x04\n      add\n      tag_90\n      swap2\n      swap1\n      tag_74\n      jump\t// in\n    tag_90:\n      0x20\n      mload(0x40)\n      dup1\n      dup4\n      sub\n      dup2\n      dup7\n      gas\n      staticcall\n      iszero\n      dup1\n      iszero\n      tag_92\n      jumpi\n      returndatasize\n      0x00\n      dup1\n      returndatacopy\n      revert(0x00, returndatasize)\n    tag_92:\n      pop\n      pop\n      pop\n      pop\n      mload(0x40)\n      returndatasize\n      not(0x1f)\n      0x1f\n      dup3\n      add\n      and\n      dup3\n      add\n      dup1\n      0x40\n      mstore\n      pop\n      dup2\n      add\n      swap1\n      tag_93\n      swap2\n      swap1\n      tag_94\n      jump\t// in\n    tag_93:\n        /* \"Contracts/vesting.sol\":1145:1182  return token.balanceOf(address(this)) */\n      swap1\n      pop\n        /* \"Contracts/vesting.sol\":1084:1189  function checkBalance() external view returns(uint){... */\n      swap1\n      jump\t// out\n        /* \"Contracts/vesting.sol\":561:625  mapping (address => mapping(uint => uint)) public releasedTokens */\n    tag_46:\n      mstore(0x20, 0x03)\n      dup2\n      0x00\n      mstore\n      mstore(0x20, keccak256(0x00, 0x40))\n      dup1\n      0x00\n      mstore\n      keccak256(0x00, 0x40)\n      0x00\n      swap2\n      pop\n      swap2\n      pop\n      pop\n      sload\n      dup2\n      jump\t// out\n        /* \"Contracts/vesting.sol\":200:219  IERC20 public token */\n    tag_49:\n      0x00\n      dup1\n      sload\n      swap1\n      0x0100\n      exp\n      swap1\n      div\n      0xffffffffffffffffffffffffffffffffffffffff\n      and\n      dup2\n      jump\t// out\n        /* \"Contracts/vesting.sol\":2775:3809  function unlockTokens(uint8 ind) internal returns(uint) {... */\n    tag_82:\n        /* \"Contracts/vesting.sol\":2825:2829  uint */\n      0x00\n        /* \"Contracts/vesting.sol\":2842:2863  uint totalNoOfPeriods */\n      dup1\n        /* \"Contracts/vesting.sol\":2911:2929  beneficiaryDetails */\n      0x02\n        /* \"Contracts/vesting.sol\":2911:2941  beneficiaryDetails[msg.sender] */\n      0x00\n        /* \"Contracts/vesting.sol\":2930:2940  msg.sender */\n      caller\n        /* \"Contracts/vesting.sol\":2911:2941  beneficiaryDetails[msg.sender] */\n      0xffffffffffffffffffffffffffffffffffffffff\n      and\n      0xffffffffffffffffffffffffffffffffffffffff\n      and\n      dup2\n      mstore\n      0x20\n      add\n      swap1\n      dup2\n      mstore\n      0x20\n      add\n      0x00\n      keccak256\n        /* \"Contracts/vesting.sol\":2942:2945  ind */\n      dup4\n        /* \"Contracts/vesting.sol\":2911:2946  beneficiaryDetails[msg.sender][ind] */\n      0xff\n      and\n      dup2\n      sload\n      dup2\n      lt\n      tag_96\n      jumpi\n      tag_97\n      tag_68\n      jump\t// in\n    tag_97:\n    tag_96:\n      swap1\n      0x00\n      mstore\n      keccak256(0x00, 0x20)\n      swap1\n      0x08\n      mul\n      add\n        /* \"Contracts/vesting.sol\":2911:2958  beneficiaryDetails[msg.sender][ind].slicePeriod */\n      0x06\n      add\n      sload\n        /* \"Contracts/vesting.sol\":2866:2884  beneficiaryDetails */\n      0x02\n        /* \"Contracts/vesting.sol\":2866:2896  beneficiaryDetails[msg.sender] */\n      0x00\n        /* \"Contracts/vesting.sol\":2885:2895  msg.sender */\n      caller\n        /* \"Contracts/vesting.sol\":2866:2896  beneficiaryDetails[msg.sender] */\n      0xffffffffffffffffffffffffffffffffffffffff\n      and\n      0xffffffffffffffffffffffffffffffffffffffff\n      and\n      dup2\n      mstore\n      0x20\n      add\n      swap1\n      dup2\n      mstore\n      0x20\n      add\n      0x00\n      keccak256\n        /* \"Contracts/vesting.sol\":2897:2900  ind */\n      dup5\n        /* \"Contracts/vesting.sol\":2866:2901  beneficiaryDetails[msg.sender][ind] */\n      0xff\n      and\n      dup2\n      sload\n      dup2\n      lt\n      tag_99\n      jumpi\n      tag_100\n      tag_68\n      jump\t// in\n    tag_100:\n    tag_99:\n      swap1\n      0x00\n      mstore\n      keccak256(0x00, 0x20)\n      swap1\n      0x08\n      mul\n      add\n        /* \"Contracts/vesting.sol\":2866:2910  beneficiaryDetails[msg.sender][ind].duration */\n      0x05\n      add\n      sload\n        /* \"Contracts/vesting.sol\":2866:2958  beneficiaryDetails[msg.sender][ind].duration/beneficiaryDetails[msg.sender][ind].slicePeriod */\n      tag_102\n      swap2\n      swap1\n      tag_103\n      jump\t// in\n    tag_102:\n        /* \"Contracts/vesting.sol\":2842:2958  uint totalNoOfPeriods = beneficiaryDetails[msg.sender][ind].duration/beneficiaryDetails[msg.sender][ind].slicePeriod */\n      swap1\n      pop\n        /* \"Contracts/vesting.sol\":2968:2988  uint tokensPerPeriod */\n      0x00\n        /* \"Contracts/vesting.sol\":3038:3054  totalNoOfPeriods */\n      dup2\n        /* \"Contracts/vesting.sol\":2991:3009  beneficiaryDetails */\n      0x02\n        /* \"Contracts/vesting.sol\":2991:3021  beneficiaryDetails[msg.sender] */\n      0x00\n        /* \"Contracts/vesting.sol\":3010:3020  msg.sender */\n      caller\n        /* \"Contracts/vesting.sol\":2991:3021  beneficiaryDetails[msg.sender] */\n      0xffffffffffffffffffffffffffffffffffffffff\n      and\n      0xffffffffffffffffffffffffffffffffffffffff\n      and\n      dup2\n      mstore\n      0x20\n      add\n      swap1\n      dup2\n      mstore\n      0x20\n      add\n      0x00\n      keccak256\n        /* \"Contracts/vesting.sol\":3022:3025  ind */\n      dup6\n        /* \"Contracts/vesting.sol\":2991:3026  beneficiaryDetails[msg.sender][ind] */\n      0xff\n      and\n      dup2\n      sload\n      dup2\n      lt\n      tag_104\n      jumpi\n      tag_105\n      tag_68\n      jump\t// in\n    tag_105:\n    tag_104:\n      swap1\n      0x00\n      mstore\n      keccak256(0x00, 0x20)\n      swap1\n      0x08\n      mul\n      add\n        /* \"Contracts/vesting.sol\":2991:3037  beneficiaryDetails[msg.sender][ind].noOfTokens */\n      0x02\n      add\n      sload\n        /* \"Contracts/vesting.sol\":2991:3054  beneficiaryDetails[msg.sender][ind].noOfTokens/totalNoOfPeriods */\n      tag_107\n      swap2\n      swap1\n      tag_103\n      jump\t// in\n    tag_107:\n        /* \"Contracts/vesting.sol\":2968:3054  uint tokensPerPeriod = beneficiaryDetails[msg.sender][ind].noOfTokens/totalNoOfPeriods */\n      swap1\n      pop\n        /* \"Contracts/vesting.sol\":3088:3106  beneficiaryDetails */\n      0x02\n        /* \"Contracts/vesting.sol\":3088:3118  beneficiaryDetails[msg.sender] */\n      0x00\n        /* \"Contracts/vesting.sol\":3107:3117  msg.sender */\n      caller\n        /* \"Contracts/vesting.sol\":3088:3118  beneficiaryDetails[msg.sender] */\n      0xffffffffffffffffffffffffffffffffffffffff\n      and\n      0xffffffffffffffffffffffffffffffffffffffff\n      and\n      dup2\n      mstore\n      0x20\n      add\n      swap1\n      dup2\n      mstore\n      0x20\n      add\n      0x00\n      keccak256\n        /* \"Contracts/vesting.sol\":3119:3122  ind */\n      dup5\n        /* \"Contracts/vesting.sol\":3088:3123  beneficiaryDetails[msg.sender][ind] */\n      0xff\n      and\n      dup2\n      sload\n      dup2\n      lt\n      tag_108\n      jumpi\n      tag_109\n      tag_68\n      jump\t// in\n    tag_109:\n    tag_108:\n      swap1\n      0x00\n      mstore\n      keccak256(0x00, 0x20)\n      swap1\n      0x08\n      mul\n      add\n        /* \"Contracts/vesting.sol\":3088:3133  beneficiaryDetails[msg.sender][ind].startTime */\n      0x04\n      add\n      sload\n        /* \"Contracts/vesting.sol\":3072:3087  block.timestamp */\n      timestamp\n        /* \"Contracts/vesting.sol\":3072:3133  block.timestamp>beneficiaryDetails[msg.sender][ind].startTime */\n      gt\n        /* \"Contracts/vesting.sol\":3064:3155  require(block.timestamp>beneficiaryDetails[msg.sender][ind].startTime,\"No tokens unlocked\") */\n      tag_111\n      jumpi\n      mload(0x40)\n      0x08c379a000000000000000000000000000000000000000000000000000000000\n      dup2\n      mstore\n      0x04\n      add\n      tag_112\n      swap1\n      tag_113\n      jump\t// in\n    tag_112:\n      mload(0x40)\n      dup1\n      swap2\n      sub\n      swap1\n      revert\n    tag_111:\n        /* \"Contracts/vesting.sol\":3165:3190  uint timePeriodSinceStart */\n      0x00\n        /* \"Contracts/vesting.sol\":3211:3229  beneficiaryDetails */\n      0x02\n        /* \"Contracts/vesting.sol\":3211:3241  beneficiaryDetails[msg.sender] */\n      0x00\n        /* \"Contracts/vesting.sol\":3230:3240  msg.sender */\n      caller\n        /* \"Contracts/vesting.sol\":3211:3241  beneficiaryDetails[msg.sender] */\n      0xffffffffffffffffffffffffffffffffffffffff\n      and\n      0xffffffffffffffffffffffffffffffffffffffff\n      and\n      dup2\n      mstore\n      0x20\n      add\n      swap1\n      dup2\n      mstore\n      0x20\n      add\n      0x00\n      keccak256\n        /* \"Contracts/vesting.sol\":3242:3245  ind */\n      dup6\n        /* \"Contracts/vesting.sol\":3211:3246  beneficiaryDetails[msg.sender][ind] */\n      0xff\n      and\n      dup2\n      sload\n      dup2\n      lt\n      tag_114\n      jumpi\n      tag_115\n      tag_68\n      jump\t// in\n    tag_115:\n    tag_114:\n      swap1\n      0x00\n      mstore\n      keccak256(0x00, 0x20)\n      swap1\n      0x08\n      mul\n      add\n        /* \"Contracts/vesting.sol\":3211:3256  beneficiaryDetails[msg.sender][ind].startTime */\n      0x04\n      add\n      sload\n        /* \"Contracts/vesting.sol\":3193:3208  block.timestamp */\n      timestamp\n        /* \"Contracts/vesting.sol\":3193:3256  block.timestamp - beneficiaryDetails[msg.sender][ind].startTime */\n      tag_117\n      swap2\n      swap1\n      tag_118\n      jump\t// in\n    tag_117:\n        /* \"Contracts/vesting.sol\":3165:3256  uint timePeriodSinceStart = block.timestamp - beneficiaryDetails[msg.sender][ind].startTime */\n      swap1\n      pop\n        /* \"Contracts/vesting.sol\":3266:3289  uint noOfPeriodsTillNow */\n      0x00\n        /* \"Contracts/vesting.sol\":3313:3331  beneficiaryDetails */\n      0x02\n        /* \"Contracts/vesting.sol\":3313:3343  beneficiaryDetails[msg.sender] */\n      0x00\n        /* \"Contracts/vesting.sol\":3332:3342  msg.sender */\n      caller\n        /* \"Contracts/vesting.sol\":3313:3343  beneficiaryDetails[msg.sender] */\n      0xffffffffffffffffffffffffffffffffffffffff\n      and\n      0xffffffffffffffffffffffffffffffffffffffff\n      and\n      dup2\n      mstore\n      0x20\n      add\n      swap1\n      dup2\n      mstore\n      0x20\n      add\n      0x00\n      keccak256\n        /* \"Contracts/vesting.sol\":3344:3347  ind */\n      dup7\n        /* \"Contracts/vesting.sol\":3313:3348  beneficiaryDetails[msg.sender][ind] */\n      0xff\n      and\n      dup2\n      sload\n      dup2\n      lt\n      tag_119\n      jumpi\n      tag_120\n      tag_68\n      jump\t// in\n    tag_120:\n    tag_119:\n      swap1\n      0x00\n      mstore\n      keccak256(0x00, 0x20)\n      swap1\n      0x08\n      mul\n      add\n        /* \"Contracts/vesting.sol\":3313:3360  beneficiaryDetails[msg.sender][ind].slicePeriod */\n      0x06\n      add\n      sload\n        /* \"Contracts/vesting.sol\":3292:3312  timePeriodSinceStart */\n      dup3\n        /* \"Contracts/vesting.sol\":3292:3360  timePeriodSinceStart/beneficiaryDetails[msg.sender][ind].slicePeriod */\n      tag_122\n      swap2\n      swap1\n      tag_103\n      jump\t// in\n    tag_122:\n        /* \"Contracts/vesting.sol\":3266:3360  uint noOfPeriodsTillNow = timePeriodSinceStart/beneficiaryDetails[msg.sender][ind].slicePeriod */\n      swap1\n      pop\n        /* \"Contracts/vesting.sol\":3370:3392  uint noOfTokensTillNow */\n      0x00\n        /* \"Contracts/vesting.sol\":3434:3448  releasedTokens */\n      0x03\n        /* \"Contracts/vesting.sol\":3434:3460  releasedTokens[msg.sender] */\n      0x00\n        /* \"Contracts/vesting.sol\":3449:3459  msg.sender */\n      caller\n        /* \"Contracts/vesting.sol\":3434:3460  releasedTokens[msg.sender] */\n      0xffffffffffffffffffffffffffffffffffffffff\n      and\n      0xffffffffffffffffffffffffffffffffffffffff\n      and\n      dup2\n      mstore\n      0x20\n      add\n      swap1\n      dup2\n      mstore\n      0x20\n      add\n      0x00\n      keccak256\n        /* \"Contracts/vesting.sol\":3434:3465  releasedTokens[msg.sender][ind] */\n      0x00\n        /* \"Contracts/vesting.sol\":3461:3464  ind */\n      dup9\n        /* \"Contracts/vesting.sol\":3434:3465  releasedTokens[msg.sender][ind] */\n      0xff\n      and\n      dup2\n      mstore\n      0x20\n      add\n      swap1\n      dup2\n      mstore\n      0x20\n      add\n      0x00\n      keccak256\n      sload\n        /* \"Contracts/vesting.sol\":3416:3431  tokensPerPeriod */\n      dup5\n        /* \"Contracts/vesting.sol\":3395:3413  noOfPeriodsTillNow */\n      dup4\n        /* \"Contracts/vesting.sol\":3395:3431  noOfPeriodsTillNow * tokensPerPeriod */\n      tag_123\n      swap2\n      swap1\n      tag_124\n      jump\t// in\n    tag_123:\n        /* \"Contracts/vesting.sol\":3395:3465  noOfPeriodsTillNow * tokensPerPeriod - releasedTokens[msg.sender][ind] */\n      tag_125\n      swap2\n      swap1\n      tag_118\n      jump\t// in\n    tag_125:\n        /* \"Contracts/vesting.sol\":3370:3465  uint noOfTokensTillNow = noOfPeriodsTillNow * tokensPerPeriod - releasedTokens[msg.sender][ind] */\n      swap1\n      pop\n        /* \"Contracts/vesting.sol\":3480:3586  tokensUnLocked(totalNoOfPeriods,tokensPerPeriod,timePeriodSinceStart,noOfPeriodsTillNow,noOfTokensTillNow) */\n      0xf9505c319ea522d7505a903d6db1f2c0fb512fd44ebe39c25777609f6e8266a8\n        /* \"Contracts/vesting.sol\":3495:3511  totalNoOfPeriods */\n      dup6\n        /* \"Contracts/vesting.sol\":3512:3527  tokensPerPeriod */\n      dup6\n        /* \"Contracts/vesting.sol\":3528:3548  timePeriodSinceStart */\n      dup6\n        /* \"Contracts/vesting.sol\":3549:3567  noOfPeriodsTillNow */\n      dup6\n        /* \"Contracts/vesting.sol\":3568:3585  noOfTokensTillNow */\n      dup6\n        /* \"Contracts/vesting.sol\":3480:3586  tokensUnLocked(totalNoOfPeriods,tokensPerPeriod,timePeriodSinceStart,noOfPeriodsTillNow,noOfTokensTillNow) */\n      mload(0x40)\n      tag_126\n      swap6\n      swap5\n      swap4\n      swap3\n      swap2\n      swap1\n      tag_127\n      jump\t// in\n    tag_126:\n      mload(0x40)\n      dup1\n      swap2\n      sub\n      swap1\n      log1\n        /* \"Contracts/vesting.sol\":3629:3645  totalNoOfPeriods */\n      dup5\n        /* \"Contracts/vesting.sol\":3607:3625  noOfPeriodsTillNow */\n      dup3\n        /* \"Contracts/vesting.sol\":3607:3645  noOfPeriodsTillNow >= totalNoOfPeriods */\n      lt\n        /* \"Contracts/vesting.sol\":3604:3768  if(noOfPeriodsTillNow >= totalNoOfPeriods){ //Exceeded the duration... */\n      tag_128\n      jumpi\n        /* \"Contracts/vesting.sol\":3726:3740  releasedTokens */\n      0x03\n        /* \"Contracts/vesting.sol\":3726:3752  releasedTokens[msg.sender] */\n      0x00\n        /* \"Contracts/vesting.sol\":3741:3751  msg.sender */\n      caller\n        /* \"Contracts/vesting.sol\":3726:3752  releasedTokens[msg.sender] */\n      0xffffffffffffffffffffffffffffffffffffffff\n      and\n      0xffffffffffffffffffffffffffffffffffffffff\n      and\n      dup2\n      mstore\n      0x20\n      add\n      swap1\n      dup2\n      mstore\n      0x20\n      add\n      0x00\n      keccak256\n        /* \"Contracts/vesting.sol\":3726:3757  releasedTokens[msg.sender][ind] */\n      0x00\n        /* \"Contracts/vesting.sol\":3753:3756  ind */\n      dup9\n        /* \"Contracts/vesting.sol\":3726:3757  releasedTokens[msg.sender][ind] */\n      0xff\n      and\n      dup2\n      mstore\n      0x20\n      add\n      swap1\n      dup2\n      mstore\n      0x20\n      add\n      0x00\n      keccak256\n      sload\n        /* \"Contracts/vesting.sol\":3707:3723  totalNoOfPeriods */\n      dup6\n        /* \"Contracts/vesting.sol\":3691:3706  tokensPerPeriod */\n      dup6\n        /* \"Contracts/vesting.sol\":3691:3723  tokensPerPeriod*totalNoOfPeriods */\n      tag_129\n      swap2\n      swap1\n      tag_124\n      jump\t// in\n    tag_129:\n        /* \"Contracts/vesting.sol\":3691:3757  tokensPerPeriod*totalNoOfPeriods - releasedTokens[msg.sender][ind] */\n      tag_130\n      swap2\n      swap1\n      tag_118\n      jump\t// in\n    tag_130:\n        /* \"Contracts/vesting.sol\":3684:3757  return tokensPerPeriod*totalNoOfPeriods - releasedTokens[msg.sender][ind] */\n      swap6\n      pop\n      pop\n      pop\n      pop\n      pop\n      pop\n      jump(tag_95)\n        /* \"Contracts/vesting.sol\":3604:3768  if(noOfPeriodsTillNow >= totalNoOfPeriods){ //Exceeded the duration... */\n    tag_128:\n        /* \"Contracts/vesting.sol\":3785:3802  noOfTokensTillNow */\n      dup1\n        /* \"Contracts/vesting.sol\":3778:3802  return noOfTokensTillNow */\n      swap6\n      pop\n      pop\n      pop\n      pop\n      pop\n      pop\n        /* \"Contracts/vesting.sol\":2775:3809  function unlockTokens(uint8 ind) internal returns(uint) {... */\n    tag_95:\n      swap2\n      swap1\n      pop\n      jump\t// out\n        /* \"#utility.yul\":88:205   */\n    tag_132:\n        /* \"#utility.yul\":197:198   */\n      0x00\n        /* \"#utility.yul\":194:195   */\n      dup1\n        /* \"#utility.yul\":187:199   */\n      revert\n        /* \"#utility.yul\":334:460   */\n    tag_134:\n        /* \"#utility.yul\":371:378   */\n      0x00\n        /* \"#utility.yul\":411:453   */\n      0xffffffffffffffffffffffffffffffffffffffff\n        /* \"#utility.yul\":404:409   */\n      dup3\n        /* \"#utility.yul\":400:454   */\n      and\n        /* \"#utility.yul\":389:454   */\n      swap1\n      pop\n        /* \"#utility.yul\":334:460   */\n      swap2\n      swap1\n      pop\n      jump\t// out\n        /* \"#utility.yul\":466:562   */\n    tag_135:\n        /* \"#utility.yul\":503:510   */\n      0x00\n        /* \"#utility.yul\":532:556   */\n      tag_169\n        /* \"#utility.yul\":550:555   */\n      dup3\n        /* \"#utility.yul\":532:556   */\n      tag_134\n      jump\t// in\n    tag_169:\n        /* \"#utility.yul\":521:556   */\n      swap1\n      pop\n        /* \"#utility.yul\":466:562   */\n      swap2\n      swap1\n      pop\n      jump\t// out\n        /* \"#utility.yul\":568:690   */\n    tag_136:\n        /* \"#utility.yul\":641:665   */\n      tag_171\n        /* \"#utility.yul\":659:664   */\n      dup2\n        /* \"#utility.yul\":641:665   */\n      tag_135\n      jump\t// in\n    tag_171:\n        /* \"#utility.yul\":634:639   */\n      dup2\n        /* \"#utility.yul\":631:666   */\n      eq\n        /* \"#utility.yul\":621:684   */\n      tag_172\n      jumpi\n        /* \"#utility.yul\":680:681   */\n      0x00\n        /* \"#utility.yul\":677:678   */\n      dup1\n        /* \"#utility.yul\":670:682   */\n      revert\n        /* \"#utility.yul\":621:684   */\n    tag_172:\n        /* \"#utility.yul\":568:690   */\n      pop\n      jump\t// out\n        /* \"#utility.yul\":696:835   */\n    tag_137:\n        /* \"#utility.yul\":742:747   */\n      0x00\n        /* \"#utility.yul\":780:786   */\n      dup2\n        /* \"#utility.yul\":767:787   */\n      calldataload\n        /* \"#utility.yul\":758:787   */\n      swap1\n      pop\n        /* \"#utility.yul\":796:829   */\n      tag_174\n        /* \"#utility.yul\":823:828   */\n      dup2\n        /* \"#utility.yul\":796:829   */\n      tag_136\n      jump\t// in\n    tag_174:\n        /* \"#utility.yul\":696:835   */\n      swap3\n      swap2\n      pop\n      pop\n      jump\t// out\n        /* \"#utility.yul\":841:918   */\n    tag_138:\n        /* \"#utility.yul\":878:885   */\n      0x00\n        /* \"#utility.yul\":907:912   */\n      dup2\n        /* \"#utility.yul\":896:912   */\n      swap1\n      pop\n        /* \"#utility.yul\":841:918   */\n      swap2\n      swap1\n      pop\n      jump\t// out\n        /* \"#utility.yul\":924:1046   */\n    tag_139:\n        /* \"#utility.yul\":997:1021   */\n      tag_177\n        /* \"#utility.yul\":1015:1020   */\n      dup2\n        /* \"#utility.yul\":997:1021   */\n      tag_138\n      jump\t// in\n    tag_177:\n        /* \"#utility.yul\":990:995   */\n      dup2\n        /* \"#utility.yul\":987:1022   */\n      eq\n        /* \"#utility.yul\":977:1040   */\n      tag_178\n      jumpi\n        /* \"#utility.yul\":1036:1037   */\n      0x00\n        /* \"#utility.yul\":1033:1034   */\n      dup1\n        /* \"#utility.yul\":1026:1038   */\n      revert\n        /* \"#utility.yul\":977:1040   */\n    tag_178:\n        /* \"#utility.yul\":924:1046   */\n      pop\n      jump\t// out\n        /* \"#utility.yul\":1052:1191   */\n    tag_140:\n        /* \"#utility.yul\":1098:1103   */\n      0x00\n        /* \"#utility.yul\":1136:1142   */\n      dup2\n        /* \"#utility.yul\":1123:1143   */\n      calldataload\n        /* \"#utility.yul\":1114:1143   */\n      swap1\n      pop\n        /* \"#utility.yul\":1152:1185   */\n      tag_180\n        /* \"#utility.yul\":1179:1184   */\n      dup2\n        /* \"#utility.yul\":1152:1185   */\n      tag_139\n      jump\t// in\n    tag_180:\n        /* \"#utility.yul\":1052:1191   */\n      swap3\n      swap2\n      pop\n      pop\n      jump\t// out\n        /* \"#utility.yul\":1197:2108   */\n    tag_15:\n        /* \"#utility.yul\":1292:1298   */\n      0x00\n        /* \"#utility.yul\":1300:1306   */\n      dup1\n        /* \"#utility.yul\":1308:1314   */\n      0x00\n        /* \"#utility.yul\":1316:1322   */\n      dup1\n        /* \"#utility.yul\":1324:1330   */\n      0x00\n        /* \"#utility.yul\":1373:1376   */\n      0xa0\n        /* \"#utility.yul\":1361:1370   */\n      dup7\n        /* \"#utility.yul\":1352:1359   */\n      dup9\n        /* \"#utility.yul\":1348:1371   */\n      sub\n        /* \"#utility.yul\":1344:1377   */\n      slt\n        /* \"#utility.yul\":1341:1461   */\n      iszero\n      tag_182\n      jumpi\n        /* \"#utility.yul\":1380:1459   */\n      tag_183\n      tag_132\n      jump\t// in\n    tag_183:\n        /* \"#utility.yul\":1341:1461   */\n    tag_182:\n        /* \"#utility.yul\":1500:1501   */\n      0x00\n        /* \"#utility.yul\":1525:1578   */\n      tag_184\n        /* \"#utility.yul\":1570:1577   */\n      dup9\n        /* \"#utility.yul\":1561:1567   */\n      dup3\n        /* \"#utility.yul\":1550:1559   */\n      dup10\n        /* \"#utility.yul\":1546:1568   */\n      add\n        /* \"#utility.yul\":1525:1578   */\n      tag_137\n      jump\t// in\n    tag_184:\n        /* \"#utility.yul\":1515:1578   */\n      swap6\n      pop\n        /* \"#utility.yul\":1471:1588   */\n      pop\n        /* \"#utility.yul\":1627:1629   */\n      0x20\n        /* \"#utility.yul\":1653:1706   */\n      tag_185\n        /* \"#utility.yul\":1698:1705   */\n      dup9\n        /* \"#utility.yul\":1689:1695   */\n      dup3\n        /* \"#utility.yul\":1678:1687   */\n      dup10\n        /* \"#utility.yul\":1674:1696   */\n      add\n        /* \"#utility.yul\":1653:1706   */\n      tag_140\n      jump\t// in\n    tag_185:\n        /* \"#utility.yul\":1643:1706   */\n      swap5\n      pop\n        /* \"#utility.yul\":1598:1716   */\n      pop\n        /* \"#utility.yul\":1755:1757   */\n      0x40\n        /* \"#utility.yul\":1781:1834   */\n      tag_186\n        /* \"#utility.yul\":1826:1833   */\n      dup9\n        /* \"#utility.yul\":1817:1823   */\n      dup3\n        /* \"#utility.yul\":1806:1815   */\n      dup10\n        /* \"#utility.yul\":1802:1824   */\n      add\n        /* \"#utility.yul\":1781:1834   */\n      tag_140\n      jump\t// in\n    tag_186:\n        /* \"#utility.yul\":1771:1834   */\n      swap4\n      pop\n        /* \"#utility.yul\":1726:1844   */\n      pop\n        /* \"#utility.yul\":1883:1885   */\n      0x60\n        /* \"#utility.yul\":1909:1962   */\n      tag_187\n        /* \"#utility.yul\":1954:1961   */\n      dup9\n        /* \"#utility.yul\":1945:1951   */\n      dup3\n        /* \"#utility.yul\":1934:1943   */\n      dup10\n        /* \"#utility.yul\":1930:1952   */\n      add\n        /* \"#utility.yul\":1909:1962   */\n      tag_140\n      jump\t// in\n    tag_187:\n        /* \"#utility.yul\":1899:1962   */\n      swap3\n      pop\n        /* \"#utility.yul\":1854:1972   */\n      pop\n        /* \"#utility.yul\":2011:2014   */\n      0x80\n        /* \"#utility.yul\":2038:2091   */\n      tag_188\n        /* \"#utility.yul\":2083:2090   */\n      dup9\n        /* \"#utility.yul\":2074:2080   */\n      dup3\n        /* \"#utility.yul\":2063:2072   */\n      dup10\n        /* \"#utility.yul\":2059:2081   */\n      add\n        /* \"#utility.yul\":2038:2091   */\n      tag_140\n      jump\t// in\n    tag_188:\n        /* \"#utility.yul\":2028:2091   */\n      swap2\n      pop\n        /* \"#utility.yul\":1982:2101   */\n      pop\n        /* \"#utility.yul\":1197:2108   */\n      swap3\n      swap6\n      pop\n      swap3\n      swap6\n      swap1\n      swap4\n      pop\n      jump\t// out\n        /* \"#utility.yul\":2114:2443   */\n    tag_19:\n        /* \"#utility.yul\":2173:2179   */\n      0x00\n        /* \"#utility.yul\":2222:2224   */\n      0x20\n        /* \"#utility.yul\":2210:2219   */\n      dup3\n        /* \"#utility.yul\":2201:2208   */\n      dup5\n        /* \"#utility.yul\":2197:2220   */\n      sub\n        /* \"#utility.yul\":2193:2225   */\n      slt\n        /* \"#utility.yul\":2190:2309   */\n      iszero\n      tag_190\n      jumpi\n        /* \"#utility.yul\":2228:2307   */\n      tag_191\n      tag_132\n      jump\t// in\n    tag_191:\n        /* \"#utility.yul\":2190:2309   */\n    tag_190:\n        /* \"#utility.yul\":2348:2349   */\n      0x00\n        /* \"#utility.yul\":2373:2426   */\n      tag_192\n        /* \"#utility.yul\":2418:2425   */\n      dup5\n        /* \"#utility.yul\":2409:2415   */\n      dup3\n        /* \"#utility.yul\":2398:2407   */\n      dup6\n        /* \"#utility.yul\":2394:2416   */\n      add\n        /* \"#utility.yul\":2373:2426   */\n      tag_137\n      jump\t// in\n    tag_192:\n        /* \"#utility.yul\":2363:2426   */\n      swap2\n      pop\n        /* \"#utility.yul\":2319:2436   */\n      pop\n        /* \"#utility.yul\":2114:2443   */\n      swap3\n      swap2\n      pop\n      pop\n      jump\t// out\n        /* \"#utility.yul\":2449:2923   */\n    tag_23:\n        /* \"#utility.yul\":2517:2523   */\n      0x00\n        /* \"#utility.yul\":2525:2531   */\n      dup1\n        /* \"#utility.yul\":2574:2576   */\n      0x40\n        /* \"#utility.yul\":2562:2571   */\n      dup4\n        /* \"#utility.yul\":2553:2560   */\n      dup6\n        /* \"#utility.yul\":2549:2572   */\n      sub\n        /* \"#utility.yul\":2545:2577   */\n      slt\n        /* \"#utility.yul\":2542:2661   */\n      iszero\n      tag_194\n      jumpi\n        /* \"#utility.yul\":2580:2659   */\n      tag_195\n      tag_132\n      jump\t// in\n    tag_195:\n        /* \"#utility.yul\":2542:2661   */\n    tag_194:\n        /* \"#utility.yul\":2700:2701   */\n      0x00\n        /* \"#utility.yul\":2725:2778   */\n      tag_196\n        /* \"#utility.yul\":2770:2777   */\n      dup6\n        /* \"#utility.yul\":2761:2767   */\n      dup3\n        /* \"#utility.yul\":2750:2759   */\n      dup7\n        /* \"#utility.yul\":2746:2768   */\n      add\n        /* \"#utility.yul\":2725:2778   */\n      tag_137\n      jump\t// in\n    tag_196:\n        /* \"#utility.yul\":2715:2778   */\n      swap3\n      pop\n        /* \"#utility.yul\":2671:2788   */\n      pop\n        /* \"#utility.yul\":2827:2829   */\n      0x20\n        /* \"#utility.yul\":2853:2906   */\n      tag_197\n        /* \"#utility.yul\":2898:2905   */\n      dup6\n        /* \"#utility.yul\":2889:2895   */\n      dup3\n        /* \"#utility.yul\":2878:2887   */\n      dup7\n        /* \"#utility.yul\":2874:2896   */\n      add\n        /* \"#utility.yul\":2853:2906   */\n      tag_140\n      jump\t// in\n    tag_197:\n        /* \"#utility.yul\":2843:2906   */\n      swap2\n      pop\n        /* \"#utility.yul\":2798:2916   */\n      pop\n        /* \"#utility.yul\":2449:2923   */\n      swap3\n      pop\n      swap3\n      swap1\n      pop\n      jump\t// out\n        /* \"#utility.yul\":2929:3047   */\n    tag_141:\n        /* \"#utility.yul\":3016:3040   */\n      tag_199\n        /* \"#utility.yul\":3034:3039   */\n      dup2\n        /* \"#utility.yul\":3016:3040   */\n      tag_135\n      jump\t// in\n    tag_199:\n        /* \"#utility.yul\":3011:3014   */\n      dup3\n        /* \"#utility.yul\":3004:3041   */\n      mstore\n        /* \"#utility.yul\":2929:3047   */\n      pop\n      pop\n      jump\t// out\n        /* \"#utility.yul\":3053:3171   */\n    tag_142:\n        /* \"#utility.yul\":3140:3164   */\n      tag_201\n        /* \"#utility.yul\":3158:3163   */\n      dup2\n        /* \"#utility.yul\":3140:3164   */\n      tag_138\n      jump\t// in\n    tag_201:\n        /* \"#utility.yul\":3135:3138   */\n      dup3\n        /* \"#utility.yul\":3128:3165   */\n      mstore\n        /* \"#utility.yul\":3053:3171   */\n      pop\n      pop\n      jump\t// out\n        /* \"#utility.yul\":3177:3267   */\n    tag_143:\n        /* \"#utility.yul\":3211:3218   */\n      0x00\n        /* \"#utility.yul\":3254:3259   */\n      dup2\n        /* \"#utility.yul\":3247:3260   */\n      iszero\n        /* \"#utility.yul\":3240:3261   */\n      iszero\n        /* \"#utility.yul\":3229:3261   */\n      swap1\n      pop\n        /* \"#utility.yul\":3177:3267   */\n      swap2\n      swap1\n      pop\n      jump\t// out\n        /* \"#utility.yul\":3273:3382   */\n    tag_144:\n        /* \"#utility.yul\":3354:3375   */\n      tag_204\n        /* \"#utility.yul\":3369:3374   */\n      dup2\n        /* \"#utility.yul\":3354:3375   */\n      tag_143\n      jump\t// in\n    tag_204:\n        /* \"#utility.yul\":3349:3352   */\n      dup3\n        /* \"#utility.yul\":3342:3376   */\n      mstore\n        /* \"#utility.yul\":3273:3382   */\n      pop\n      pop\n      jump\t// out\n        /* \"#utility.yul\":3388:4373   */\n    tag_26:\n        /* \"#utility.yul\":3671:3675   */\n      0x00\n        /* \"#utility.yul\":3709:3712   */\n      0x0100\n        /* \"#utility.yul\":3698:3707   */\n      dup3\n        /* \"#utility.yul\":3694:3713   */\n      add\n        /* \"#utility.yul\":3686:3713   */\n      swap1\n      pop\n        /* \"#utility.yul\":3723:3794   */\n      tag_206\n        /* \"#utility.yul\":3791:3792   */\n      0x00\n        /* \"#utility.yul\":3780:3789   */\n      dup4\n        /* \"#utility.yul\":3776:3793   */\n      add\n        /* \"#utility.yul\":3767:3773   */\n      dup12\n        /* \"#utility.yul\":3723:3794   */\n      tag_141\n      jump\t// in\n    tag_206:\n        /* \"#utility.yul\":3804:3876   */\n      tag_207\n        /* \"#utility.yul\":3872:3874   */\n      0x20\n        /* \"#utility.yul\":3861:3870   */\n      dup4\n        /* \"#utility.yul\":3857:3875   */\n      add\n        /* \"#utility.yul\":3848:3854   */\n      dup11\n        /* \"#utility.yul\":3804:3876   */\n      tag_141\n      jump\t// in\n    tag_207:\n        /* \"#utility.yul\":3886:3958   */\n      tag_208\n        /* \"#utility.yul\":3954:3956   */\n      0x40\n        /* \"#utility.yul\":3943:3952   */\n      dup4\n        /* \"#utility.yul\":3939:3957   */\n      add\n        /* \"#utility.yul\":3930:3936   */\n      dup10\n        /* \"#utility.yul\":3886:3958   */\n      tag_142\n      jump\t// in\n    tag_208:\n        /* \"#utility.yul\":3968:4040   */\n      tag_209\n        /* \"#utility.yul\":4036:4038   */\n      0x60\n        /* \"#utility.yul\":4025:4034   */\n      dup4\n        /* \"#utility.yul\":4021:4039   */\n      add\n        /* \"#utility.yul\":4012:4018   */\n      dup9\n        /* \"#utility.yul\":3968:4040   */\n      tag_142\n      jump\t// in\n    tag_209:\n        /* \"#utility.yul\":4050:4123   */\n      tag_210\n        /* \"#utility.yul\":4118:4121   */\n      0x80\n        /* \"#utility.yul\":4107:4116   */\n      dup4\n        /* \"#utility.yul\":4103:4122   */\n      add\n        /* \"#utility.yul\":4094:4100   */\n      dup8\n        /* \"#utility.yul\":4050:4123   */\n      tag_142\n      jump\t// in\n    tag_210:\n        /* \"#utility.yul\":4133:4206   */\n      tag_211\n        /* \"#utility.yul\":4201:4204   */\n      0xa0\n        /* \"#utility.yul\":4190:4199   */\n      dup4\n        /* \"#utility.yul\":4186:4205   */\n      add\n        /* \"#utility.yul\":4177:4183   */\n      dup7\n        /* \"#utility.yul\":4133:4206   */\n      tag_142\n      jump\t// in\n    tag_211:\n        /* \"#utility.yul\":4216:4289   */\n      tag_212\n        /* \"#utility.yul\":4284:4287   */\n      0xc0\n        /* \"#utility.yul\":4273:4282   */\n      dup4\n        /* \"#utility.yul\":4269:4288   */\n      add\n        /* \"#utility.yul\":4260:4266   */\n      dup6\n        /* \"#utility.yul\":4216:4289   */\n      tag_142\n      jump\t// in\n    tag_212:\n        /* \"#utility.yul\":4299:4366   */\n      tag_213\n        /* \"#utility.yul\":4361:4364   */\n      0xe0\n        /* \"#utility.yul\":4350:4359   */\n      dup4\n        /* \"#utility.yul\":4346:4365   */\n      add\n        /* \"#utility.yul\":4337:4343   */\n      dup5\n        /* \"#utility.yul\":4299:4366   */\n      tag_144\n      jump\t// in\n    tag_213:\n        /* \"#utility.yul\":3388:4373   */\n      swap10\n      swap9\n      pop\n      pop\n      pop\n      pop\n      pop\n      pop\n      pop\n      pop\n      pop\n      jump\t// out\n        /* \"#utility.yul\":4379:4853   */\n    tag_29:\n        /* \"#utility.yul\":4447:4453   */\n      0x00\n        /* \"#utility.yul\":4455:4461   */\n      dup1\n        /* \"#utility.yul\":4504:4506   */\n      0x40\n        /* \"#utility.yul\":4492:4501   */\n      dup4\n        /* \"#utility.yul\":4483:4490   */\n      dup6\n        /* \"#utility.yul\":4479:4502   */\n      sub\n        /* \"#utility.yul\":4475:4507   */\n      slt\n        /* \"#utility.yul\":4472:4591   */\n      iszero\n      tag_215\n      jumpi\n        /* \"#utility.yul\":4510:4589   */\n      tag_216\n      tag_132\n      jump\t// in\n    tag_216:\n        /* \"#utility.yul\":4472:4591   */\n    tag_215:\n        /* \"#utility.yul\":4630:4631   */\n      0x00\n        /* \"#utility.yul\":4655:4708   */\n      tag_217\n        /* \"#utility.yul\":4700:4707   */\n      dup6\n        /* \"#utility.yul\":4691:4697   */\n      dup3\n        /* \"#utility.yul\":4680:4689   */\n      dup7\n        /* \"#utility.yul\":4676:4698   */\n      add\n        /* \"#utility.yul\":4655:4708   */\n      tag_137\n      jump\t// in\n    tag_217:\n        /* \"#utility.yul\":4645:4708   */\n      swap3\n      pop\n        /* \"#utility.yul\":4601:4718   */\n      pop\n        /* \"#utility.yul\":4757:4759   */\n      0x20\n        /* \"#utility.yul\":4783:4836   */\n      tag_218\n        /* \"#utility.yul\":4828:4835   */\n      dup6\n        /* \"#utility.yul\":4819:4825   */\n      dup3\n        /* \"#utility.yul\":4808:4817   */\n      dup7\n        /* \"#utility.yul\":4804:4826   */\n      add\n        /* \"#utility.yul\":4783:4836   */\n      tag_137\n      jump\t// in\n    tag_218:\n        /* \"#utility.yul\":4773:4836   */\n      swap2\n      pop\n        /* \"#utility.yul\":4728:4846   */\n      pop\n        /* \"#utility.yul\":4379:4853   */\n      swap3\n      pop\n      swap3\n      swap1\n      pop\n      jump\t// out\n        /* \"#utility.yul\":4859:5069   */\n    tag_32:\n        /* \"#utility.yul\":4946:4950   */\n      0x00\n        /* \"#utility.yul\":4984:4986   */\n      0x20\n        /* \"#utility.yul\":4973:4982   */\n      dup3\n        /* \"#utility.yul\":4969:4987   */\n      add\n        /* \"#utility.yul\":4961:4987   */\n      swap1\n      pop\n        /* \"#utility.yul\":4997:5062   */\n      tag_220\n        /* \"#utility.yul\":5059:5060   */\n      0x00\n        /* \"#utility.yul\":5048:5057   */\n      dup4\n        /* \"#utility.yul\":5044:5061   */\n      add\n        /* \"#utility.yul\":5035:5041   */\n      dup5\n        /* \"#utility.yul\":4997:5062   */\n      tag_144\n      jump\t// in\n    tag_220:\n        /* \"#utility.yul\":4859:5069   */\n      swap3\n      swap2\n      pop\n      pop\n      jump\t// out\n        /* \"#utility.yul\":5075:5161   */\n    tag_145:\n        /* \"#utility.yul\":5110:5117   */\n      0x00\n        /* \"#utility.yul\":5150:5154   */\n      0xff\n        /* \"#utility.yul\":5143:5148   */\n      dup3\n        /* \"#utility.yul\":5139:5155   */\n      and\n        /* \"#utility.yul\":5128:5155   */\n      swap1\n      pop\n        /* \"#utility.yul\":5075:5161   */\n      swap2\n      swap1\n      pop\n      jump\t// out\n        /* \"#utility.yul\":5167:5285   */\n    tag_146:\n        /* \"#utility.yul\":5238:5260   */\n      tag_223\n        /* \"#utility.yul\":5254:5259   */\n      dup2\n        /* \"#utility.yul\":5238:5260   */\n      tag_145\n      jump\t// in\n    tag_223:\n        /* \"#utility.yul\":5231:5236   */\n      dup2\n        /* \"#utility.yul\":5228:5261   */\n      eq\n        /* \"#utility.yul\":5218:5279   */\n      tag_224\n      jumpi\n        /* \"#utility.yul\":5275:5276   */\n      0x00\n        /* \"#utility.yul\":5272:5273   */\n      dup1\n        /* \"#utility.yul\":5265:5277   */\n      revert\n        /* \"#utility.yul\":5218:5279   */\n    tag_224:\n        /* \"#utility.yul\":5167:5285   */\n      pop\n      jump\t// out\n        /* \"#utility.yul\":5291:5426   */\n    tag_147:\n        /* \"#utility.yul\":5335:5340   */\n      0x00\n        /* \"#utility.yul\":5373:5379   */\n      dup2\n        /* \"#utility.yul\":5360:5380   */\n      calldataload\n        /* \"#utility.yul\":5351:5380   */\n      swap1\n      pop\n        /* \"#utility.yul\":5389:5420   */\n      tag_226\n        /* \"#utility.yul\":5414:5419   */\n      dup2\n        /* \"#utility.yul\":5389:5420   */\n      tag_146\n      jump\t// in\n    tag_226:\n        /* \"#utility.yul\":5291:5426   */\n      swap3\n      swap2\n      pop\n      pop\n      jump\t// out\n        /* \"#utility.yul\":5432:5757   */\n    tag_35:\n        /* \"#utility.yul\":5489:5495   */\n      0x00\n        /* \"#utility.yul\":5538:5540   */\n      0x20\n        /* \"#utility.yul\":5526:5535   */\n      dup3\n        /* \"#utility.yul\":5517:5524   */\n      dup5\n        /* \"#utility.yul\":5513:5536   */\n      sub\n        /* \"#utility.yul\":5509:5541   */\n      slt\n        /* \"#utility.yul\":5506:5625   */\n      iszero\n      tag_228\n      jumpi\n        /* \"#utility.yul\":5544:5623   */\n      tag_229\n      tag_132\n      jump\t// in\n    tag_229:\n        /* \"#utility.yul\":5506:5625   */\n    tag_228:\n        /* \"#utility.yul\":5664:5665   */\n      0x00\n        /* \"#utility.yul\":5689:5740   */\n      tag_230\n        /* \"#utility.yul\":5732:5739   */\n      dup5\n        /* \"#utility.yul\":5723:5729   */\n      dup3\n        /* \"#utility.yul\":5712:5721   */\n      dup6\n        /* \"#utility.yul\":5708:5730   */\n      add\n        /* \"#utility.yul\":5689:5740   */\n      tag_147\n      jump\t// in\n    tag_230:\n        /* \"#utility.yul\":5679:5740   */\n      swap2\n      pop\n        /* \"#utility.yul\":5635:5750   */\n      pop\n        /* \"#utility.yul\":5432:5757   */\n      swap3\n      swap2\n      pop\n      pop\n      jump\t// out\n        /* \"#utility.yul\":5763:5985   */\n    tag_40:\n        /* \"#utility.yul\":5856:5860   */\n      0x00\n        /* \"#utility.yul\":5894:5896   */\n      0x20\n        /* \"#utility.yul\":5883:5892   */\n      dup3\n        /* \"#utility.yul\":5879:5897   */\n      add\n        /* \"#utility.yul\":5871:5897   */\n      swap1\n      pop\n        /* \"#utility.yul\":5907:5978   */\n      tag_232\n        /* \"#utility.yul\":5975:5976   */\n      0x00\n        /* \"#utility.yul\":5964:5973   */\n      dup4\n        /* \"#utility.yul\":5960:5977   */\n      add\n        /* \"#utility.yul\":5951:5957   */\n      dup5\n        /* \"#utility.yul\":5907:5978   */\n      tag_142\n      jump\t// in\n    tag_232:\n        /* \"#utility.yul\":5763:5985   */\n      swap3\n      swap2\n      pop\n      pop\n      jump\t// out\n        /* \"#utility.yul\":5991:6051   */\n    tag_148:\n        /* \"#utility.yul\":6019:6022   */\n      0x00\n        /* \"#utility.yul\":6040:6045   */\n      dup2\n        /* \"#utility.yul\":6033:6045   */\n      swap1\n      pop\n        /* \"#utility.yul\":5991:6051   */\n      swap2\n      swap1\n      pop\n      jump\t// out\n        /* \"#utility.yul\":6057:6199   */\n    tag_149:\n        /* \"#utility.yul\":6107:6116   */\n      0x00\n        /* \"#utility.yul\":6140:6193   */\n      tag_235\n        /* \"#utility.yul\":6158:6192   */\n      tag_236\n        /* \"#utility.yul\":6167:6191   */\n      tag_237\n        /* \"#utility.yul\":6185:6190   */\n      dup5\n        /* \"#utility.yul\":6167:6191   */\n      tag_134\n      jump\t// in\n    tag_237:\n        /* \"#utility.yul\":6158:6192   */\n      tag_148\n      jump\t// in\n    tag_236:\n        /* \"#utility.yul\":6140:6193   */\n      tag_134\n      jump\t// in\n    tag_235:\n        /* \"#utility.yul\":6127:6193   */\n      swap1\n      pop\n        /* \"#utility.yul\":6057:6199   */\n      swap2\n      swap1\n      pop\n      jump\t// out\n        /* \"#utility.yul\":6205:6331   */\n    tag_150:\n        /* \"#utility.yul\":6255:6264   */\n      0x00\n        /* \"#utility.yul\":6288:6325   */\n      tag_239\n        /* \"#utility.yul\":6319:6324   */\n      dup3\n        /* \"#utility.yul\":6288:6325   */\n      tag_149\n      jump\t// in\n    tag_239:\n        /* \"#utility.yul\":6275:6325   */\n      swap1\n      pop\n        /* \"#utility.yul\":6205:6331   */\n      swap2\n      swap1\n      pop\n      jump\t// out\n        /* \"#utility.yul\":6337:6477   */\n    tag_151:\n        /* \"#utility.yul\":6401:6410   */\n      0x00\n        /* \"#utility.yul\":6434:6471   */\n      tag_241\n        /* \"#utility.yul\":6465:6470   */\n      dup3\n        /* \"#utility.yul\":6434:6471   */\n      tag_150\n      jump\t// in\n    tag_241:\n        /* \"#utility.yul\":6421:6471   */\n      swap1\n      pop\n        /* \"#utility.yul\":6337:6477   */\n      swap2\n      swap1\n      pop\n      jump\t// out\n        /* \"#utility.yul\":6483:6642   */\n    tag_152:\n        /* \"#utility.yul\":6584:6635   */\n      tag_243\n        /* \"#utility.yul\":6629:6634   */\n      dup2\n        /* \"#utility.yul\":6584:6635   */\n      tag_151\n      jump\t// in\n    tag_243:\n        /* \"#utility.yul\":6579:6582   */\n      dup3\n        /* \"#utility.yul\":6572:6636   */\n      mstore\n        /* \"#utility.yul\":6483:6642   */\n      pop\n      pop\n      jump\t// out\n        /* \"#utility.yul\":6648:6898   */\n    tag_51:\n        /* \"#utility.yul\":6755:6759   */\n      0x00\n        /* \"#utility.yul\":6793:6795   */\n      0x20\n        /* \"#utility.yul\":6782:6791   */\n      dup3\n        /* \"#utility.yul\":6778:6796   */\n      add\n        /* \"#utility.yul\":6770:6796   */\n      swap1\n      pop\n        /* \"#utility.yul\":6806:6891   */\n      tag_245\n        /* \"#utility.yul\":6888:6889   */\n      0x00\n        /* \"#utility.yul\":6877:6886   */\n      dup4\n        /* \"#utility.yul\":6873:6890   */\n      add\n        /* \"#utility.yul\":6864:6870   */\n      dup5\n        /* \"#utility.yul\":6806:6891   */\n      tag_152\n      jump\t// in\n    tag_245:\n        /* \"#utility.yul\":6648:6898   */\n      swap3\n      swap2\n      pop\n      pop\n      jump\t// out\n        /* \"#utility.yul\":6904:7073   */\n    tag_153:\n        /* \"#utility.yul\":6988:6999   */\n      0x00\n        /* \"#utility.yul\":7022:7028   */\n      dup3\n        /* \"#utility.yul\":7017:7020   */\n      dup3\n        /* \"#utility.yul\":7010:7029   */\n      mstore\n        /* \"#utility.yul\":7062:7066   */\n      0x20\n        /* \"#utility.yul\":7057:7060   */\n      dup3\n        /* \"#utility.yul\":7053:7067   */\n      add\n        /* \"#utility.yul\":7038:7067   */\n      swap1\n      pop\n        /* \"#utility.yul\":6904:7073   */\n      swap3\n      swap2\n      pop\n      pop\n      jump\t// out\n        /* \"#utility.yul\":7079:7249   */\n    tag_154:\n        /* \"#utility.yul\":7219:7241   */\n      0x546f6b656e206973206e6f7420616c6c6f776564000000000000000000000000\n        /* \"#utility.yul\":7215:7216   */\n      0x00\n        /* \"#utility.yul\":7207:7213   */\n      dup3\n        /* \"#utility.yul\":7203:7217   */\n      add\n        /* \"#utility.yul\":7196:7242   */\n      mstore\n        /* \"#utility.yul\":7079:7249   */\n      pop\n      jump\t// out\n        /* \"#utility.yul\":7255:7621   */\n    tag_155:\n        /* \"#utility.yul\":7397:7400   */\n      0x00\n        /* \"#utility.yul\":7418:7485   */\n      tag_249\n        /* \"#utility.yul\":7482:7484   */\n      0x14\n        /* \"#utility.yul\":7477:7480   */\n      dup4\n        /* \"#utility.yul\":7418:7485   */\n      tag_153\n      jump\t// in\n    tag_249:\n        /* \"#utility.yul\":7411:7485   */\n      swap2\n      pop\n        /* \"#utility.yul\":7494:7587   */\n      tag_250\n        /* \"#utility.yul\":7583:7586   */\n      dup3\n        /* \"#utility.yul\":7494:7587   */\n      tag_154\n      jump\t// in\n    tag_250:\n        /* \"#utility.yul\":7612:7614   */\n      0x20\n        /* \"#utility.yul\":7607:7610   */\n      dup3\n        /* \"#utility.yul\":7603:7615   */\n      add\n        /* \"#utility.yul\":7596:7615   */\n      swap1\n      pop\n        /* \"#utility.yul\":7255:7621   */\n      swap2\n      swap1\n      pop\n      jump\t// out\n        /* \"#utility.yul\":7627:8046   */\n    tag_55:\n        /* \"#utility.yul\":7793:7797   */\n      0x00\n        /* \"#utility.yul\":7831:7833   */\n      0x20\n        /* \"#utility.yul\":7820:7829   */\n      dup3\n        /* \"#utility.yul\":7816:7834   */\n      add\n        /* \"#utility.yul\":7808:7834   */\n      swap1\n      pop\n        /* \"#utility.yul\":7880:7889   */\n      dup2\n        /* \"#utility.yul\":7874:7878   */\n      dup2\n        /* \"#utility.yul\":7870:7890   */\n      sub\n        /* \"#utility.yul\":7866:7867   */\n      0x00\n        /* \"#utility.yul\":7855:7864   */\n      dup4\n        /* \"#utility.yul\":7851:7868   */\n      add\n        /* \"#utility.yul\":7844:7891   */\n      mstore\n        /* \"#utility.yul\":7908:8039   */\n      tag_252\n        /* \"#utility.yul\":8034:8038   */\n      dup2\n        /* \"#utility.yul\":7908:8039   */\n      tag_155\n      jump\t// in\n    tag_252:\n        /* \"#utility.yul\":7900:8039   */\n      swap1\n      pop\n        /* \"#utility.yul\":7627:8046   */\n      swap2\n      swap1\n      pop\n      jump\t// out\n        /* \"#utility.yul\":8052:8232   */\n    tag_156:\n        /* \"#utility.yul\":8100:8177   */\n      0x4e487b7100000000000000000000000000000000000000000000000000000000\n        /* \"#utility.yul\":8097:8098   */\n      0x00\n        /* \"#utility.yul\":8090:8178   */\n      mstore\n        /* \"#utility.yul\":8197:8201   */\n      0x11\n        /* \"#utility.yul\":8194:8195   */\n      0x04\n        /* \"#utility.yul\":8187:8202   */\n      mstore\n        /* \"#utility.yul\":8221:8225   */\n      0x24\n        /* \"#utility.yul\":8218:8219   */\n      0x00\n        /* \"#utility.yul\":8211:8226   */\n      revert\n        /* \"#utility.yul\":8238:8429   */\n    tag_58:\n        /* \"#utility.yul\":8278:8281   */\n      0x00\n        /* \"#utility.yul\":8297:8317   */\n      tag_255\n        /* \"#utility.yul\":8315:8316   */\n      dup3\n        /* \"#utility.yul\":8297:8317   */\n      tag_138\n      jump\t// in\n    tag_255:\n        /* \"#utility.yul\":8292:8317   */\n      swap2\n      pop\n        /* \"#utility.yul\":8331:8351   */\n      tag_256\n        /* \"#utility.yul\":8349:8350   */\n      dup4\n        /* \"#utility.yul\":8331:8351   */\n      tag_138\n      jump\t// in\n    tag_256:\n        /* \"#utility.yul\":8326:8351   */\n      swap3\n      pop\n        /* \"#utility.yul\":8374:8375   */\n      dup3\n        /* \"#utility.yul\":8371:8372   */\n      dup3\n        /* \"#utility.yul\":8367:8376   */\n      add\n        /* \"#utility.yul\":8360:8376   */\n      swap1\n      pop\n        /* \"#utility.yul\":8395:8398   */\n      dup1\n        /* \"#utility.yul\":8392:8393   */\n      dup3\n        /* \"#utility.yul\":8389:8399   */\n      gt\n        /* \"#utility.yul\":8386:8422   */\n      iszero\n      tag_257\n      jumpi\n        /* \"#utility.yul\":8402:8420   */\n      tag_258\n      tag_156\n      jump\t// in\n    tag_258:\n        /* \"#utility.yul\":8386:8422   */\n    tag_257:\n        /* \"#utility.yul\":8238:8429   */\n      swap3\n      swap2\n      pop\n      pop\n      jump\t// out\n        /* \"#utility.yul\":8435:8877   */\n    tag_61:\n        /* \"#utility.yul\":8584:8588   */\n      0x00\n        /* \"#utility.yul\":8622:8624   */\n      0x60\n        /* \"#utility.yul\":8611:8620   */\n      dup3\n        /* \"#utility.yul\":8607:8625   */\n      add\n        /* \"#utility.yul\":8599:8625   */\n      swap1\n      pop\n        /* \"#utility.yul\":8635:8706   */\n      tag_260\n        /* \"#utility.yul\":8703:8704   */\n      0x00\n        /* \"#utility.yul\":8692:8701   */\n      dup4\n        /* \"#utility.yul\":8688:8705   */\n      add\n        /* \"#utility.yul\":8679:8685   */\n      dup7\n        /* \"#utility.yul\":8635:8706   */\n      tag_141\n      jump\t// in\n    tag_260:\n        /* \"#utility.yul\":8716:8788   */\n      tag_261\n        /* \"#utility.yul\":8784:8786   */\n      0x20\n        /* \"#utility.yul\":8773:8782   */\n      dup4\n        /* \"#utility.yul\":8769:8787   */\n      add\n        /* \"#utility.yul\":8760:8766   */\n      dup6\n        /* \"#utility.yul\":8716:8788   */\n      tag_141\n      jump\t// in\n    tag_261:\n        /* \"#utility.yul\":8798:8870   */\n      tag_262\n        /* \"#utility.yul\":8866:8868   */\n      0x40\n        /* \"#utility.yul\":8855:8864   */\n      dup4\n        /* \"#utility.yul\":8851:8869   */\n      add\n        /* \"#utility.yul\":8842:8848   */\n      dup5\n        /* \"#utility.yul\":8798:8870   */\n      tag_142\n      jump\t// in\n    tag_262:\n        /* \"#utility.yul\":8435:8877   */\n      swap5\n      swap4\n      pop\n      pop\n      pop\n      pop\n      jump\t// out\n        /* \"#utility.yul\":8883:8999   */\n    tag_157:\n        /* \"#utility.yul\":8953:8974   */\n      tag_264\n        /* \"#utility.yul\":8968:8973   */\n      dup2\n        /* \"#utility.yul\":8953:8974   */\n      tag_143\n      jump\t// in\n    tag_264:\n        /* \"#utility.yul\":8946:8951   */\n      dup2\n        /* \"#utility.yul\":8943:8975   */\n      eq\n        /* \"#utility.yul\":8933:8993   */\n      tag_265\n      jumpi\n        /* \"#utility.yul\":8989:8990   */\n      0x00\n        /* \"#utility.yul\":8986:8987   */\n      dup1\n        /* \"#utility.yul\":8979:8991   */\n      revert\n        /* \"#utility.yul\":8933:8993   */\n    tag_265:\n        /* \"#utility.yul\":8883:8999   */\n      pop\n      jump\t// out\n        /* \"#utility.yul\":9005:9142   */\n    tag_158:\n        /* \"#utility.yul\":9059:9064   */\n      0x00\n        /* \"#utility.yul\":9090:9096   */\n      dup2\n        /* \"#utility.yul\":9084:9097   */\n      mload\n        /* \"#utility.yul\":9075:9097   */\n      swap1\n      pop\n        /* \"#utility.yul\":9106:9136   */\n      tag_267\n        /* \"#utility.yul\":9130:9135   */\n      dup2\n        /* \"#utility.yul\":9106:9136   */\n      tag_157\n      jump\t// in\n    tag_267:\n        /* \"#utility.yul\":9005:9142   */\n      swap3\n      swap2\n      pop\n      pop\n      jump\t// out\n        /* \"#utility.yul\":9148:9493   */\n    tag_65:\n        /* \"#utility.yul\":9215:9221   */\n      0x00\n        /* \"#utility.yul\":9264:9266   */\n      0x20\n        /* \"#utility.yul\":9252:9261   */\n      dup3\n        /* \"#utility.yul\":9243:9250   */\n      dup5\n        /* \"#utility.yul\":9239:9262   */\n      sub\n        /* \"#utility.yul\":9235:9267   */\n      slt\n        /* \"#utility.yul\":9232:9351   */\n      iszero\n      tag_269\n      jumpi\n        /* \"#utility.yul\":9270:9349   */\n      tag_270\n      tag_132\n      jump\t// in\n    tag_270:\n        /* \"#utility.yul\":9232:9351   */\n    tag_269:\n        /* \"#utility.yul\":9390:9391   */\n      0x00\n        /* \"#utility.yul\":9415:9476   */\n      tag_271\n        /* \"#utility.yul\":9468:9475   */\n      dup5\n        /* \"#utility.yul\":9459:9465   */\n      dup3\n        /* \"#utility.yul\":9448:9457   */\n      dup6\n        /* \"#utility.yul\":9444:9466   */\n      add\n        /* \"#utility.yul\":9415:9476   */\n      tag_158\n      jump\t// in\n    tag_271:\n        /* \"#utility.yul\":9405:9476   */\n      swap2\n      pop\n        /* \"#utility.yul\":9361:9486   */\n      pop\n        /* \"#utility.yul\":9148:9493   */\n      swap3\n      swap2\n      pop\n      pop\n      jump\t// out\n        /* \"#utility.yul\":9499:9679   */\n    tag_68:\n        /* \"#utility.yul\":9547:9624   */\n      0x4e487b7100000000000000000000000000000000000000000000000000000000\n        /* \"#utility.yul\":9544:9545   */\n      0x00\n        /* \"#utility.yul\":9537:9625   */\n      mstore\n        /* \"#utility.yul\":9644:9648   */\n      0x32\n        /* \"#utility.yul\":9641:9642   */\n      0x04\n        /* \"#utility.yul\":9634:9649   */\n      mstore\n        /* \"#utility.yul\":9668:9672   */\n      0x24\n        /* \"#utility.yul\":9665:9666   */\n      0x00\n        /* \"#utility.yul\":9658:9673   */\n      revert\n        /* \"#utility.yul\":9685:10127   */\n    tag_71:\n        /* \"#utility.yul\":9834:9838   */\n      0x00\n        /* \"#utility.yul\":9872:9874   */\n      0x60\n        /* \"#utility.yul\":9861:9870   */\n      dup3\n        /* \"#utility.yul\":9857:9875   */\n      add\n        /* \"#utility.yul\":9849:9875   */\n      swap1\n      pop\n        /* \"#utility.yul\":9885:9956   */\n      tag_274\n        /* \"#utility.yul\":9953:9954   */\n      0x00\n        /* \"#utility.yul\":9942:9951   */\n      dup4\n        /* \"#utility.yul\":9938:9955   */\n      add\n        /* \"#utility.yul\":9929:9935   */\n      dup7\n        /* \"#utility.yul\":9885:9956   */\n      tag_141\n      jump\t// in\n    tag_274:\n        /* \"#utility.yul\":9966:10038   */\n      tag_275\n        /* \"#utility.yul\":10034:10036   */\n      0x20\n        /* \"#utility.yul\":10023:10032   */\n      dup4\n        /* \"#utility.yul\":10019:10037   */\n      add\n        /* \"#utility.yul\":10010:10016   */\n      dup6\n        /* \"#utility.yul\":9966:10038   */\n      tag_142\n      jump\t// in\n    tag_275:\n        /* \"#utility.yul\":10048:10120   */\n      tag_276\n        /* \"#utility.yul\":10116:10118   */\n      0x40\n        /* \"#utility.yul\":10105:10114   */\n      dup4\n        /* \"#utility.yul\":10101:10119   */\n      add\n        /* \"#utility.yul\":10092:10098   */\n      dup5\n        /* \"#utility.yul\":10048:10120   */\n      tag_142\n      jump\t// in\n    tag_276:\n        /* \"#utility.yul\":9685:10127   */\n      swap5\n      swap4\n      pop\n      pop\n      pop\n      pop\n      jump\t// out\n        /* \"#utility.yul\":10133:10355   */\n    tag_74:\n        /* \"#utility.yul\":10226:10230   */\n      0x00\n        /* \"#utility.yul\":10264:10266   */\n      0x20\n        /* \"#utility.yul\":10253:10262   */\n      dup3\n        /* \"#utility.yul\":10249:10267   */\n      add\n        /* \"#utility.yul\":10241:10267   */\n      swap1\n      pop\n        /* \"#utility.yul\":10277:10348   */\n      tag_278\n        /* \"#utility.yul\":10345:10346   */\n      0x00\n        /* \"#utility.yul\":10334:10343   */\n      dup4\n        /* \"#utility.yul\":10330:10347   */\n      add\n        /* \"#utility.yul\":10321:10327   */\n      dup5\n        /* \"#utility.yul\":10277:10348   */\n      tag_141\n      jump\t// in\n    tag_278:\n        /* \"#utility.yul\":10133:10355   */\n      swap3\n      swap2\n      pop\n      pop\n      jump\t// out\n        /* \"#utility.yul\":10361:10693   */\n    tag_84:\n        /* \"#utility.yul\":10482:10486   */\n      0x00\n        /* \"#utility.yul\":10520:10522   */\n      0x40\n        /* \"#utility.yul\":10509:10518   */\n      dup3\n        /* \"#utility.yul\":10505:10523   */\n      add\n        /* \"#utility.yul\":10497:10523   */\n      swap1\n      pop\n        /* \"#utility.yul\":10533:10604   */\n      tag_280\n        /* \"#utility.yul\":10601:10602   */\n      0x00\n        /* \"#utility.yul\":10590:10599   */\n      dup4\n        /* \"#utility.yul\":10586:10603   */\n      add\n        /* \"#utility.yul\":10577:10583   */\n      dup6\n        /* \"#utility.yul\":10533:10604   */\n      tag_141\n      jump\t// in\n    tag_280:\n        /* \"#utility.yul\":10614:10686   */\n      tag_281\n        /* \"#utility.yul\":10682:10684   */\n      0x20\n        /* \"#utility.yul\":10671:10680   */\n      dup4\n        /* \"#utility.yul\":10667:10685   */\n      add\n        /* \"#utility.yul\":10658:10664   */\n      dup5\n        /* \"#utility.yul\":10614:10686   */\n      tag_142\n      jump\t// in\n    tag_281:\n        /* \"#utility.yul\":10361:10693   */\n      swap4\n      swap3\n      pop\n      pop\n      pop\n      jump\t// out\n        /* \"#utility.yul\":10699:10842   */\n    tag_159:\n        /* \"#utility.yul\":10756:10761   */\n      0x00\n        /* \"#utility.yul\":10787:10793   */\n      dup2\n        /* \"#utility.yul\":10781:10794   */\n      mload\n        /* \"#utility.yul\":10772:10794   */\n      swap1\n      pop\n        /* \"#utility.yul\":10803:10836   */\n      tag_283\n        /* \"#utility.yul\":10830:10835   */\n      dup2\n        /* \"#utility.yul\":10803:10836   */\n      tag_139\n      jump\t// in\n    tag_283:\n        /* \"#utility.yul\":10699:10842   */\n      swap3\n      swap2\n      pop\n      pop\n      jump\t// out\n        /* \"#utility.yul\":10848:11199   */\n    tag_94:\n        /* \"#utility.yul\":10918:10924   */\n      0x00\n        /* \"#utility.yul\":10967:10969   */\n      0x20\n        /* \"#utility.yul\":10955:10964   */\n      dup3\n        /* \"#utility.yul\":10946:10953   */\n      dup5\n        /* \"#utility.yul\":10942:10965   */\n      sub\n        /* \"#utility.yul\":10938:10970   */\n      slt\n        /* \"#utility.yul\":10935:11054   */\n      iszero\n      tag_285\n      jumpi\n        /* \"#utility.yul\":10973:11052   */\n      tag_286\n      tag_132\n      jump\t// in\n    tag_286:\n        /* \"#utility.yul\":10935:11054   */\n    tag_285:\n        /* \"#utility.yul\":11093:11094   */\n      0x00\n        /* \"#utility.yul\":11118:11182   */\n      tag_287\n        /* \"#utility.yul\":11174:11181   */\n      dup5\n        /* \"#utility.yul\":11165:11171   */\n      dup3\n        /* \"#utility.yul\":11154:11163   */\n      dup6\n        /* \"#utility.yul\":11150:11172   */\n      add\n        /* \"#utility.yul\":11118:11182   */\n      tag_159\n      jump\t// in\n    tag_287:\n        /* \"#utility.yul\":11108:11182   */\n      swap2\n      pop\n        /* \"#utility.yul\":11064:11192   */\n      pop\n        /* \"#utility.yul\":10848:11199   */\n      swap3\n      swap2\n      pop\n      pop\n      jump\t// out\n        /* \"#utility.yul\":11205:11385   */\n    tag_160:\n        /* \"#utility.yul\":11253:11330   */\n      0x4e487b7100000000000000000000000000000000000000000000000000000000\n        /* \"#utility.yul\":11250:11251   */\n      0x00\n        /* \"#utility.yul\":11243:11331   */\n      mstore\n        /* \"#utility.yul\":11350:11354   */\n      0x12\n        /* \"#utility.yul\":11347:11348   */\n      0x04\n        /* \"#utility.yul\":11340:11355   */\n      mstore\n        /* \"#utility.yul\":11374:11378   */\n      0x24\n        /* \"#utility.yul\":11371:11372   */\n      0x00\n        /* \"#utility.yul\":11364:11379   */\n      revert\n        /* \"#utility.yul\":11391:11576   */\n    tag_103:\n        /* \"#utility.yul\":11431:11432   */\n      0x00\n        /* \"#utility.yul\":11448:11468   */\n      tag_290\n        /* \"#utility.yul\":11466:11467   */\n      dup3\n        /* \"#utility.yul\":11448:11468   */\n      tag_138\n      jump\t// in\n    tag_290:\n        /* \"#utility.yul\":11443:11468   */\n      swap2\n      pop\n        /* \"#utility.yul\":11482:11502   */\n      tag_291\n        /* \"#utility.yul\":11500:11501   */\n      dup4\n        /* \"#utility.yul\":11482:11502   */\n      tag_138\n      jump\t// in\n    tag_291:\n        /* \"#utility.yul\":11477:11502   */\n      swap3\n      pop\n        /* \"#utility.yul\":11521:11522   */\n      dup3\n        /* \"#utility.yul\":11511:11546   */\n      tag_292\n      jumpi\n        /* \"#utility.yul\":11526:11544   */\n      tag_293\n      tag_160\n      jump\t// in\n    tag_293:\n        /* \"#utility.yul\":11511:11546   */\n    tag_292:\n        /* \"#utility.yul\":11568:11569   */\n      dup3\n        /* \"#utility.yul\":11565:11566   */\n      dup3\n        /* \"#utility.yul\":11561:11570   */\n      div\n        /* \"#utility.yul\":11556:11570   */\n      swap1\n      pop\n        /* \"#utility.yul\":11391:11576   */\n      swap3\n      swap2\n      pop\n      pop\n      jump\t// out\n        /* \"#utility.yul\":11582:11750   */\n    tag_161:\n        /* \"#utility.yul\":11722:11742   */\n      0x4e6f20746f6b656e7320756e6c6f636b65640000000000000000000000000000\n        /* \"#utility.yul\":11718:11719   */\n      0x00\n        /* \"#utility.yul\":11710:11716   */\n      dup3\n        /* \"#utility.yul\":11706:11720   */\n      add\n        /* \"#utility.yul\":11699:11743   */\n      mstore\n        /* \"#utility.yul\":11582:11750   */\n      pop\n      jump\t// out\n        /* \"#utility.yul\":11756:12122   */\n    tag_162:\n        /* \"#utility.yul\":11898:11901   */\n      0x00\n        /* \"#utility.yul\":11919:11986   */\n      tag_296\n        /* \"#utility.yul\":11983:11985   */\n      0x12\n        /* \"#utility.yul\":11978:11981   */\n      dup4\n        /* \"#utility.yul\":11919:11986   */\n      tag_153\n      jump\t// in\n    tag_296:\n        /* \"#utility.yul\":11912:11986   */\n      swap2\n      pop\n        /* \"#utility.yul\":11995:12088   */\n      tag_297\n        /* \"#utility.yul\":12084:12087   */\n      dup3\n        /* \"#utility.yul\":11995:12088   */\n      tag_161\n      jump\t// in\n    tag_297:\n        /* \"#utility.yul\":12113:12115   */\n      0x20\n        /* \"#utility.yul\":12108:12111   */\n      dup3\n        /* \"#utility.yul\":12104:12116   */\n      add\n        /* \"#utility.yul\":12097:12116   */\n      swap1\n      pop\n        /* \"#utility.yul\":11756:12122   */\n      swap2\n      swap1\n      pop\n      jump\t// out\n        /* \"#utility.yul\":12128:12547   */\n    tag_113:\n        /* \"#utility.yul\":12294:12298   */\n      0x00\n        /* \"#utility.yul\":12332:12334   */\n      0x20\n        /* \"#utility.yul\":12321:12330   */\n      dup3\n        /* \"#utility.yul\":12317:12335   */\n      add\n        /* \"#utility.yul\":12309:12335   */\n      swap1\n      pop\n        /* \"#utility.yul\":12381:12390   */\n      dup2\n        /* \"#utility.yul\":12375:12379   */\n      dup2\n        /* \"#utility.yul\":12371:12391   */\n      sub\n        /* \"#utility.yul\":12367:12368   */\n      0x00\n        /* \"#utility.yul\":12356:12365   */\n      dup4\n        /* \"#utility.yul\":12352:12369   */\n      add\n        /* \"#utility.yul\":12345:12392   */\n      mstore\n        /* \"#utility.yul\":12409:12540   */\n      tag_299\n        /* \"#utility.yul\":12535:12539   */\n      dup2\n        /* \"#utility.yul\":12409:12540   */\n      tag_162\n      jump\t// in\n    tag_299:\n        /* \"#utility.yul\":12401:12540   */\n      swap1\n      pop\n        /* \"#utility.yul\":12128:12547   */\n      swap2\n      swap1\n      pop\n      jump\t// out\n        /* \"#utility.yul\":12553:12747   */\n    tag_118:\n        /* \"#utility.yul\":12593:12597   */\n      0x00\n        /* \"#utility.yul\":12613:12633   */\n      tag_301\n        /* \"#utility.yul\":12631:12632   */\n      dup3\n        /* \"#utility.yul\":12613:12633   */\n      tag_138\n      jump\t// in\n    tag_301:\n        /* \"#utility.yul\":12608:12633   */\n      swap2\n      pop\n        /* \"#utility.yul\":12647:12667   */\n      tag_302\n        /* \"#utility.yul\":12665:12666   */\n      dup4\n        /* \"#utility.yul\":12647:12667   */\n      tag_138\n      jump\t// in\n    tag_302:\n        /* \"#utility.yul\":12642:12667   */\n      swap3\n      pop\n        /* \"#utility.yul\":12691:12692   */\n      dup3\n        /* \"#utility.yul\":12688:12689   */\n      dup3\n        /* \"#utility.yul\":12684:12693   */\n      sub\n        /* \"#utility.yul\":12676:12693   */\n      swap1\n      pop\n        /* \"#utility.yul\":12715:12716   */\n      dup2\n        /* \"#utility.yul\":12709:12713   */\n      dup2\n        /* \"#utility.yul\":12706:12717   */\n      gt\n        /* \"#utility.yul\":12703:12740   */\n      iszero\n      tag_303\n      jumpi\n        /* \"#utility.yul\":12720:12738   */\n      tag_304\n      tag_156\n      jump\t// in\n    tag_304:\n        /* \"#utility.yul\":12703:12740   */\n    tag_303:\n        /* \"#utility.yul\":12553:12747   */\n      swap3\n      swap2\n      pop\n      pop\n      jump\t// out\n        /* \"#utility.yul\":12753:13163   */\n    tag_124:\n        /* \"#utility.yul\":12793:12800   */\n      0x00\n        /* \"#utility.yul\":12816:12836   */\n      tag_306\n        /* \"#utility.yul\":12834:12835   */\n      dup3\n        /* \"#utility.yul\":12816:12836   */\n      tag_138\n      jump\t// in\n    tag_306:\n        /* \"#utility.yul\":12811:12836   */\n      swap2\n      pop\n        /* \"#utility.yul\":12850:12870   */\n      tag_307\n        /* \"#utility.yul\":12868:12869   */\n      dup4\n        /* \"#utility.yul\":12850:12870   */\n      tag_138\n      jump\t// in\n    tag_307:\n        /* \"#utility.yul\":12845:12870   */\n      swap3\n      pop\n        /* \"#utility.yul\":12905:12906   */\n      dup3\n        /* \"#utility.yul\":12902:12903   */\n      dup3\n        /* \"#utility.yul\":12898:12907   */\n      mul\n        /* \"#utility.yul\":12927:12957   */\n      tag_308\n        /* \"#utility.yul\":12945:12956   */\n      dup2\n        /* \"#utility.yul\":12927:12957   */\n      tag_138\n      jump\t// in\n    tag_308:\n        /* \"#utility.yul\":12916:12957   */\n      swap2\n      pop\n        /* \"#utility.yul\":13106:13107   */\n      dup3\n        /* \"#utility.yul\":13097:13104   */\n      dup3\n        /* \"#utility.yul\":13093:13108   */\n      div\n        /* \"#utility.yul\":13090:13091   */\n      dup5\n        /* \"#utility.yul\":13087:13109   */\n      eq\n        /* \"#utility.yul\":13067:13068   */\n      dup4\n        /* \"#utility.yul\":13060:13069   */\n      iszero\n        /* \"#utility.yul\":13040:13123   */\n      or\n        /* \"#utility.yul\":13017:13156   */\n      tag_309\n      jumpi\n        /* \"#utility.yul\":13136:13154   */\n      tag_310\n      tag_156\n      jump\t// in\n    tag_310:\n        /* \"#utility.yul\":13017:13156   */\n    tag_309:\n        /* \"#utility.yul\":12801:13163   */\n      pop\n        /* \"#utility.yul\":12753:13163   */\n      swap3\n      swap2\n      pop\n      pop\n      jump\t// out\n        /* \"#utility.yul\":13169:13833   */\n    tag_127:\n        /* \"#utility.yul\":13374:13378   */\n      0x00\n        /* \"#utility.yul\":13412:13415   */\n      0xa0\n        /* \"#utility.yul\":13401:13410   */\n      dup3\n        /* \"#utility.yul\":13397:13416   */\n      add\n        /* \"#utility.yul\":13389:13416   */\n      swap1\n      pop\n        /* \"#utility.yul\":13426:13497   */\n      tag_312\n        /* \"#utility.yul\":13494:13495   */\n      0x00\n        /* \"#utility.yul\":13483:13492   */\n      dup4\n        /* \"#utility.yul\":13479:13496   */\n      add\n        /* \"#utility.yul\":13470:13476   */\n      dup9\n        /* \"#utility.yul\":13426:13497   */\n      tag_142\n      jump\t// in\n    tag_312:\n        /* \"#utility.yul\":13507:13579   */\n      tag_313\n        /* \"#utility.yul\":13575:13577   */\n      0x20\n        /* \"#utility.yul\":13564:13573   */\n      dup4\n        /* \"#utility.yul\":13560:13578   */\n      add\n        /* \"#utility.yul\":13551:13557   */\n      dup8\n        /* \"#utility.yul\":13507:13579   */\n      tag_142\n      jump\t// in\n    tag_313:\n        /* \"#utility.yul\":13589:13661   */\n      tag_314\n        /* \"#utility.yul\":13657:13659   */\n      0x40\n        /* \"#utility.yul\":13646:13655   */\n      dup4\n        /* \"#utility.yul\":13642:13660   */\n      add\n        /* \"#utility.yul\":13633:13639   */\n      dup7\n        /* \"#utility.yul\":13589:13661   */\n      tag_142\n      jump\t// in\n    tag_314:\n        /* \"#utility.yul\":13671:13743   */\n      tag_315\n        /* \"#utility.yul\":13739:13741   */\n      0x60\n        /* \"#utility.yul\":13728:13737   */\n      dup4\n        /* \"#utility.yul\":13724:13742   */\n      add\n        /* \"#utility.yul\":13715:13721   */\n      dup6\n        /* \"#utility.yul\":13671:13743   */\n      tag_142\n      jump\t// in\n    tag_315:\n        /* \"#utility.yul\":13753:13826   */\n      tag_316\n        /* \"#utility.yul\":13821:13824   */\n      0x80\n        /* \"#utility.yul\":13810:13819   */\n      dup4\n        /* \"#utility.yul\":13806:13825   */\n      add\n        /* \"#utility.yul\":13797:13803   */\n      dup5\n        /* \"#utility.yul\":13753:13826   */\n      tag_142\n      jump\t// in\n    tag_316:\n        /* \"#utility.yul\":13169:13833   */\n      swap7\n      swap6\n      pop\n      pop\n      pop\n      pop\n      pop\n      pop\n      jump\t// out\n\n    auxdata: 0xa26469706673582212206cb057e49a2a82d0bf7caba8057a5aeba6d4cff9e76b4b2ef4e21ba6956fc6dc64736f6c63430008120033\n}\n",
				"bytecode": {
					"linkReferences": {},
					"object": "608060405234801561001057600080fd5b50611650806100206000396000f3fe608060405234801561001057600080fd5b50600436106100935760003560e01c8063b1b3933711610066578063b1b3933714610137578063b31f8f9314610153578063c71daccb14610171578063eef0934b1461018f578063fc0c546a146101bf57610093565b80633ce301e5146100985780635fb2386e146100b457806373ce12d4146100d0578063b092145e14610107575b600080fd5b6100b260048036038101906100ad9190610f34565b6101dd565b005b6100ce60048036038101906100c99190610faf565b6105fd565b005b6100ea60048036038101906100e59190610fdc565b6106cc565b6040516100fe989796959493929190611055565b60405180910390f35b610121600480360381019061011c91906110d3565b61077e565b60405161012e9190611113565b60405180910390f35b610151600480360381019061014c9190611167565b6107ad565b005b61015b610991565b6040516101689190611194565b60405180910390f35b610179610997565b6040516101869190611194565b60405180910390f35b6101a960048036038101906101a49190610fdc565b610a39565b6040516101b69190611194565b60405180910390f35b6101c7610a5e565b6040516101d4919061120e565b60405180910390f35b600460003373ffffffffffffffffffffffffffffffffffffffff1673ffffffffffffffffffffffffffffffffffffffff16815260200190815260200160002060008673ffffffffffffffffffffffffffffffffffffffff1673ffffffffffffffffffffffffffffffffffffffff16815260200190815260200160002060009054906101000a900460ff166102a6576040517f08c379a000000000000000000000000000000000000000000000000000000000815260040161029d90611286565b60405180910390fd5b600084116102b357600080fd5b846000806101000a81548173ffffffffffffffffffffffffffffffffffffffff021916908373ffffffffffffffffffffffffffffffffffffffff16021790555060006040518061010001604052808773ffffffffffffffffffffffffffffffffffffffff1681526020013373ffffffffffffffffffffffffffffffffffffffff168152602001868152602001858152602001854261035191906112d5565b8152602001848152602001838152602001600115158152509050600260003373ffffffffffffffffffffffffffffffffffffffff1673ffffffffffffffffffffffffffffffffffffffff16815260200190815260200160002081908060018154018082558091505060019003906000526020600020906008020160009091909190915060008201518160000160006101000a81548173ffffffffffffffffffffffffffffffffffffffff021916908373ffffffffffffffffffffffffffffffffffffffff16021790555060208201518160010160006101000a81548173ffffffffffffffffffffffffffffffffffffffff021916908373ffffffffffffffffffffffffffffffffffffffff16021790555060408201518160020155606082015181600301556080820151816004015560a0820151816005015560c0820151816006015560e08201518160070160006101000a81548160ff021916908315150217905550505060008054906101000a900473ffffffffffffffffffffffffffffffffffffffff1673ffffffffffffffffffffffffffffffffffffffff166323b872dd3330886040518463ffffffff1660e01b815260040161051393929190611309565b6020604051808303816000875af1158015610532573d6000803e3d6000fd5b505050506040513d601f19601f82011682018060405250810190610556919061136c565b507f661b019a87c9514e94117729b846d626db49cd08807904f023d3ced15365cd688686600260003373ffffffffffffffffffffffffffffffffffffffff1673ffffffffffffffffffffffffffffffffffffffff1681526020019081526020016000206000815481106105cc576105cb611399565b5b9060005260206000209060080201600501546040516105ed939291906113c8565b60405180910390a1505050505050565b6001600460003373ffffffffffffffffffffffffffffffffffffffff1673ffffffffffffffffffffffffffffffffffffffff16815260200190815260200160002060008373ffffffffffffffffffffffffffffffffffffffff1673ffffffffffffffffffffffffffffffffffffffff16815260200190815260200160002060006101000a81548160ff0219169083151502179055507fd936547e15d595cd7e4c0d71ce9ddbc75ae4fd243d310184fbd19390c58a304b816040516106c191906113ff565b60405180910390a150565b600260205281600052604060002081815481106106e857600080fd5b9060005260206000209060080201600091509150508060000160009054906101000a900473ffffffffffffffffffffffffffffffffffffffff16908060010160009054906101000a900473ffffffffffffffffffffffffffffffffffffffff16908060020154908060030154908060040154908060050154908060060154908060070160009054906101000a900460ff16905088565b60046020528160005260406000206020528060005260406000206000915091509054906101000a900460ff1681565b600260003373ffffffffffffffffffffffffffffffffffffffff1673ffffffffffffffffffffffffffffffffffffffff1681526020019081526020016000208160ff168154811061080157610800611399565b5b906000526020600020906008020160000160009054906101000a900473ffffffffffffffffffffffffffffffffffffffff166000806101000a81548173ffffffffffffffffffffffffffffffffffffffff021916908373ffffffffffffffffffffffffffffffffffffffff16021790555061087b81610a82565b60018190555060008054906101000a900473ffffffffffffffffffffffffffffffffffffffff1673ffffffffffffffffffffffffffffffffffffffff1663a9059cbb336001546040518363ffffffff1660e01b81526004016108de92919061141a565b6020604051808303816000875af11580156108fd573d6000803e3d6000fd5b505050506040513d601f19601f82011682018060405250810190610921919061136c565b50600154600360003373ffffffffffffffffffffffffffffffffffffffff1673ffffffffffffffffffffffffffffffffffffffff16815260200190815260200160002060008360ff168152602001908152602001600020600082825461098791906112d5565b9250508190555050565b60015481565b60008060009054906101000a900473ffffffffffffffffffffffffffffffffffffffff1673ffffffffffffffffffffffffffffffffffffffff166370a08231306040518263ffffffff1660e01b81526004016109f391906113ff565b602060405180830381865afa158015610a10573d6000803e3d6000fd5b505050506040513d601f19601f82011682018060405250810190610a349190611458565b905090565b6003602052816000526040600020602052806000526040600020600091509150505481565b60008054906101000a900473ffffffffffffffffffffffffffffffffffffffff1681565b600080600260003373ffffffffffffffffffffffffffffffffffffffff1673ffffffffffffffffffffffffffffffffffffffff1681526020019081526020016000208360ff1681548110610ad957610ad8611399565b5b906000526020600020906008020160060154600260003373ffffffffffffffffffffffffffffffffffffffff1673ffffffffffffffffffffffffffffffffffffffff1681526020019081526020016000208460ff1681548110610b3f57610b3e611399565b5b906000526020600020906008020160050154610b5b91906114b4565b9050600081600260003373ffffffffffffffffffffffffffffffffffffffff1673ffffffffffffffffffffffffffffffffffffffff1681526020019081526020016000208560ff1681548110610bb457610bb3611399565b5b906000526020600020906008020160020154610bd091906114b4565b9050600260003373ffffffffffffffffffffffffffffffffffffffff1673ffffffffffffffffffffffffffffffffffffffff1681526020019081526020016000208460ff1681548110610c2657610c25611399565b5b9060005260206000209060080201600401544211610c79576040517f08c379a0000000000000000000000000000000000000000000000000000000008152600401610c7090611531565b60405180910390fd5b6000600260003373ffffffffffffffffffffffffffffffffffffffff1673ffffffffffffffffffffffffffffffffffffffff1681526020019081526020016000208560ff1681548110610ccf57610cce611399565b5b90600052602060002090600802016004015442610cec9190611551565b90506000600260003373ffffffffffffffffffffffffffffffffffffffff1673ffffffffffffffffffffffffffffffffffffffff1681526020019081526020016000208660ff1681548110610d4457610d43611399565b5b90600052602060002090600802016006015482610d6191906114b4565b90506000600360003373ffffffffffffffffffffffffffffffffffffffff1673ffffffffffffffffffffffffffffffffffffffff16815260200190815260200160002060008860ff168152602001908152602001600020548483610dc59190611585565b610dcf9190611551565b90507ff9505c319ea522d7505a903d6db1f2c0fb512fd44ebe39c25777609f6e8266a88585858585604051610e089594939291906115c7565b60405180910390a1848210610e8d57600360003373ffffffffffffffffffffffffffffffffffffffff1673ffffffffffffffffffffffffffffffffffffffff16815260200190815260200160002060008860ff168152602001908152602001600020548585610e779190611585565b610e819190611551565b95505050505050610e96565b80955050505050505b919050565b600080fd5b600073ffffffffffffffffffffffffffffffffffffffff82169050919050565b6000610ecb82610ea0565b9050919050565b610edb81610ec0565b8114610ee657600080fd5b50565b600081359050610ef881610ed2565b92915050565b6000819050919050565b610f1181610efe565b8114610f1c57600080fd5b50565b600081359050610f2e81610f08565b92915050565b600080600080600060a08688031215610f5057610f4f610e9b565b5b6000610f5e88828901610ee9565b9550506020610f6f88828901610f1f565b9450506040610f8088828901610f1f565b9350506060610f9188828901610f1f565b9250506080610fa288828901610f1f565b9150509295509295909350565b600060208284031215610fc557610fc4610e9b565b5b6000610fd384828501610ee9565b91505092915050565b60008060408385031215610ff357610ff2610e9b565b5b600061100185828601610ee9565b925050602061101285828601610f1f565b9150509250929050565b61102581610ec0565b82525050565b61103481610efe565b82525050565b60008115159050919050565b61104f8161103a565b82525050565b60006101008201905061106b600083018b61101c565b611078602083018a61101c565b611085604083018961102b565b611092606083018861102b565b61109f608083018761102b565b6110ac60a083018661102b565b6110b960c083018561102b565b6110c660e0830184611046565b9998505050505050505050565b600080604083850312156110ea576110e9610e9b565b5b60006110f885828601610ee9565b925050602061110985828601610ee9565b9150509250929050565b60006020820190506111286000830184611046565b92915050565b600060ff82169050919050565b6111448161112e565b811461114f57600080fd5b50565b6000813590506111618161113b565b92915050565b60006020828403121561117d5761117c610e9b565b5b600061118b84828501611152565b91505092915050565b60006020820190506111a9600083018461102b565b92915050565b6000819050919050565b60006111d46111cf6111ca84610ea0565b6111af565b610ea0565b9050919050565b60006111e6826111b9565b9050919050565b60006111f8826111db565b9050919050565b611208816111ed565b82525050565b600060208201905061122360008301846111ff565b92915050565b600082825260208201905092915050565b7f546f6b656e206973206e6f7420616c6c6f776564000000000000000000000000600082015250565b6000611270601483611229565b915061127b8261123a565b602082019050919050565b6000602082019050818103600083015261129f81611263565b9050919050565b7f4e487b7100000000000000000000000000000000000000000000000000000000600052601160045260246000fd5b60006112e082610efe565b91506112eb83610efe565b9250828201905080821115611303576113026112a6565b5b92915050565b600060608201905061131e600083018661101c565b61132b602083018561101c565b611338604083018461102b565b949350505050565b6113498161103a565b811461135457600080fd5b50565b60008151905061136681611340565b92915050565b60006020828403121561138257611381610e9b565b5b600061139084828501611357565b91505092915050565b7f4e487b7100000000000000000000000000000000000000000000000000000000600052603260045260246000fd5b60006060820190506113dd600083018661101c565b6113ea602083018561102b565b6113f7604083018461102b565b949350505050565b6000602082019050611414600083018461101c565b92915050565b600060408201905061142f600083018561101c565b61143c602083018461102b565b9392505050565b60008151905061145281610f08565b92915050565b60006020828403121561146e5761146d610e9b565b5b600061147c84828501611443565b91505092915050565b7f4e487b7100000000000000000000000000000000000000000000000000000000600052601260045260246000fd5b60006114bf82610efe565b91506114ca83610efe565b9250826114da576114d9611485565b5b828204905092915050565b7f4e6f20746f6b656e7320756e6c6f636b65640000000000000000000000000000600082015250565b600061151b601283611229565b9150611526826114e5565b602082019050919050565b6000602082019050818103600083015261154a8161150e565b9050919050565b600061155c82610efe565b915061156783610efe565b925082820390508181111561157f5761157e6112a6565b5b92915050565b600061159082610efe565b915061159b83610efe565b92508282026115a981610efe565b915082820484148315176115c0576115bf6112a6565b5b5092915050565b600060a0820190506115dc600083018861102b565b6115e9602083018761102b565b6115f6604083018661102b565b611603606083018561102b565b611610608083018461102b565b969550505050505056fea26469706673582212206cb057e49a2a82d0bf7caba8057a5aeba6d4cff9e76b4b2ef4e21ba6956fc6dc64736f6c63430008120033",
					"opcodes": "PUSH1 0x80 PUSH1 0x40 MSTORE CALLVALUE DUP1 ISZERO PUSH2 0x10 JUMPI PUSH1 0x0 DUP1 REVERT JUMPDEST POP PUSH2 0x1650 DUP1 PUSH2 0x20 PUSH1 0x0 CODECOPY PUSH1 0x0 RETURN INVALID PUSH1 0x80 PUSH1 0x40 MSTORE CALLVALUE DUP1 ISZERO PUSH2 0x10 JUMPI PUSH1 0x0 DUP1 REVERT JUMPDEST POP PUSH1 0x4 CALLDATASIZE LT PUSH2 0x93 JUMPI PUSH1 0x0 CALLDATALOAD PUSH1 0xE0 SHR DUP1 PUSH4 0xB1B39337 GT PUSH2 0x66 JUMPI DUP1 PUSH4 0xB1B39337 EQ PUSH2 0x137 JUMPI DUP1 PUSH4 0xB31F8F93 EQ PUSH2 0x153 JUMPI DUP1 PUSH4 0xC71DACCB EQ PUSH2 0x171 JUMPI DUP1 PUSH4 0xEEF0934B EQ PUSH2 0x18F JUMPI DUP1 PUSH4 0xFC0C546A EQ PUSH2 0x1BF JUMPI PUSH2 0x93 JUMP JUMPDEST DUP1 PUSH4 0x3CE301E5 EQ PUSH2 0x98 JUMPI DUP1 PUSH4 0x5FB2386E EQ PUSH2 0xB4 JUMPI DUP1 PUSH4 0x73CE12D4 EQ PUSH2 0xD0 JUMPI DUP1 PUSH4 0xB092145E EQ PUSH2 0x107 JUMPI JUMPDEST PUSH1 0x0 DUP1 REVERT JUMPDEST PUSH2 0xB2 PUSH1 0x4 DUP1 CALLDATASIZE SUB DUP2 ADD SWAP1 PUSH2 0xAD SWAP2 SWAP1 PUSH2 0xF34 JUMP JUMPDEST PUSH2 0x1DD JUMP JUMPDEST STOP JUMPDEST PUSH2 0xCE PUSH1 0x4 DUP1 CALLDATASIZE SUB DUP2 ADD SWAP1 PUSH2 0xC9 SWAP2 SWAP1 PUSH2 0xFAF JUMP JUMPDEST PUSH2 0x5FD JUMP JUMPDEST STOP JUMPDEST PUSH2 0xEA PUSH1 0x4 DUP1 CALLDATASIZE SUB DUP2 ADD SWAP1 PUSH2 0xE5 SWAP2 SWAP1 PUSH2 0xFDC JUMP JUMPDEST PUSH2 0x6CC JUMP JUMPDEST PUSH1 0x40 MLOAD PUSH2 0xFE SWAP9 SWAP8 SWAP7 SWAP6 SWAP5 SWAP4 SWAP3 SWAP2 SWAP1 PUSH2 0x1055 JUMP JUMPDEST PUSH1 0x40 MLOAD DUP1 SWAP2 SUB SWAP1 RETURN JUMPDEST PUSH2 0x121 PUSH1 0x4 DUP1 CALLDATASIZE SUB DUP2 ADD SWAP1 PUSH2 0x11C SWAP2 SWAP1 PUSH2 0x10D3 JUMP JUMPDEST PUSH2 0x77E JUMP JUMPDEST PUSH1 0x40 MLOAD PUSH2 0x12E SWAP2 SWAP1 PUSH2 0x1113 JUMP JUMPDEST PUSH1 0x40 MLOAD DUP1 SWAP2 SUB SWAP1 RETURN JUMPDEST PUSH2 0x151 PUSH1 0x4 DUP1 CALLDATASIZE SUB DUP2 ADD SWAP1 PUSH2 0x14C SWAP2 SWAP1 PUSH2 0x1167 JUMP JUMPDEST PUSH2 0x7AD JUMP JUMPDEST STOP JUMPDEST PUSH2 0x15B PUSH2 0x991 JUMP JUMPDEST PUSH1 0x40 MLOAD PUSH2 0x168 SWAP2 SWAP1 PUSH2 0x1194 JUMP JUMPDEST PUSH1 0x40 MLOAD DUP1 SWAP2 SUB SWAP1 RETURN JUMPDEST PUSH2 0x179 PUSH2 0x997 JUMP JUMPDEST PUSH1 0x40 MLOAD PUSH2 0x186 SWAP2 SWAP1 PUSH2 0x1194 JUMP JUMPDEST PUSH1 0x40 MLOAD DUP1 SWAP2 SUB SWAP1 RETURN JUMPDEST PUSH2 0x1A9 PUSH1 0x4 DUP1 CALLDATASIZE SUB DUP2 ADD SWAP1 PUSH2 0x1A4 SWAP2 SWAP1 PUSH2 0xFDC JUMP JUMPDEST PUSH2 0xA39 JUMP JUMPDEST PUSH1 0x40 MLOAD PUSH2 0x1B6 SWAP2 SWAP1 PUSH2 0x1194 JUMP JUMPDEST PUSH1 0x40 MLOAD DUP1 SWAP2 SUB SWAP1 RETURN JUMPDEST PUSH2 0x1C7 PUSH2 0xA5E JUMP JUMPDEST PUSH1 0x40 MLOAD PUSH2 0x1D4 SWAP2 SWAP1 PUSH2 0x120E JUMP JUMPDEST PUSH1 0x40 MLOAD DUP1 SWAP2 SUB SWAP1 RETURN JUMPDEST PUSH1 0x4 PUSH1 0x0 CALLER PUSH20 0xFFFFFFFFFFFFFFFFFFFFFFFFFFFFFFFFFFFFFFFF AND PUSH20 0xFFFFFFFFFFFFFFFFFFFFFFFFFFFFFFFFFFFFFFFF AND DUP2 MSTORE PUSH1 0x20 ADD SWAP1 DUP2 MSTORE PUSH1 0x20 ADD PUSH1 0x0 KECCAK256 PUSH1 0x0 DUP7 PUSH20 0xFFFFFFFFFFFFFFFFFFFFFFFFFFFFFFFFFFFFFFFF AND PUSH20 0xFFFFFFFFFFFFFFFFFFFFFFFFFFFFFFFFFFFFFFFF AND DUP2 MSTORE PUSH1 0x20 ADD SWAP1 DUP2 MSTORE PUSH1 0x20 ADD PUSH1 0x0 KECCAK256 PUSH1 0x0 SWAP1 SLOAD SWAP1 PUSH2 0x100 EXP SWAP1 DIV PUSH1 0xFF AND PUSH2 0x2A6 JUMPI PUSH1 0x40 MLOAD PUSH32 0x8C379A000000000000000000000000000000000000000000000000000000000 DUP2 MSTORE PUSH1 0x4 ADD PUSH2 0x29D SWAP1 PUSH2 0x1286 JUMP JUMPDEST PUSH1 0x40 MLOAD DUP1 SWAP2 SUB SWAP1 REVERT JUMPDEST PUSH1 0x0 DUP5 GT PUSH2 0x2B3 JUMPI PUSH1 0x0 DUP1 REVERT JUMPDEST DUP5 PUSH1 0x0 DUP1 PUSH2 0x100 EXP DUP2 SLOAD DUP2 PUSH20 0xFFFFFFFFFFFFFFFFFFFFFFFFFFFFFFFFFFFFFFFF MUL NOT AND SWAP1 DUP4 PUSH20 0xFFFFFFFFFFFFFFFFFFFFFFFFFFFFFFFFFFFFFFFF AND MUL OR SWAP1 SSTORE POP PUSH1 0x0 PUSH1 0x40 MLOAD DUP1 PUSH2 0x100 ADD PUSH1 0x40 MSTORE DUP1 DUP8 PUSH20 0xFFFFFFFFFFFFFFFFFFFFFFFFFFFFFFFFFFFFFFFF AND DUP2 MSTORE PUSH1 0x20 ADD CALLER PUSH20 0xFFFFFFFFFFFFFFFFFFFFFFFFFFFFFFFFFFFFFFFF AND DUP2 MSTORE PUSH1 0x20 ADD DUP7 DUP2 MSTORE PUSH1 0x20 ADD DUP6 DUP2 MSTORE PUSH1 0x20 ADD DUP6 TIMESTAMP PUSH2 0x351 SWAP2 SWAP1 PUSH2 0x12D5 JUMP JUMPDEST DUP2 MSTORE PUSH1 0x20 ADD DUP5 DUP2 MSTORE PUSH1 0x20 ADD DUP4 DUP2 MSTORE PUSH1 0x20 ADD PUSH1 0x1 ISZERO ISZERO DUP2 MSTORE POP SWAP1 POP PUSH1 0x2 PUSH1 0x0 CALLER PUSH20 0xFFFFFFFFFFFFFFFFFFFFFFFFFFFFFFFFFFFFFFFF AND PUSH20 0xFFFFFFFFFFFFFFFFFFFFFFFFFFFFFFFFFFFFFFFF AND DUP2 MSTORE PUSH1 0x20 ADD SWAP1 DUP2 MSTORE PUSH1 0x20 ADD PUSH1 0x0 KECCAK256 DUP2 SWAP1 DUP1 PUSH1 0x1 DUP2 SLOAD ADD DUP1 DUP3 SSTORE DUP1 SWAP2 POP POP PUSH1 0x1 SWAP1 SUB SWAP1 PUSH1 0x0 MSTORE PUSH1 0x20 PUSH1 0x0 KECCAK256 SWAP1 PUSH1 0x8 MUL ADD PUSH1 0x0 SWAP1 SWAP2 SWAP1 SWAP2 SWAP1 SWAP2 POP PUSH1 0x0 DUP3 ADD MLOAD DUP2 PUSH1 0x0 ADD PUSH1 0x0 PUSH2 0x100 EXP DUP2 SLOAD DUP2 PUSH20 0xFFFFFFFFFFFFFFFFFFFFFFFFFFFFFFFFFFFFFFFF MUL NOT AND SWAP1 DUP4 PUSH20 0xFFFFFFFFFFFFFFFFFFFFFFFFFFFFFFFFFFFFFFFF AND MUL OR SWAP1 SSTORE POP PUSH1 0x20 DUP3 ADD MLOAD DUP2 PUSH1 0x1 ADD PUSH1 0x0 PUSH2 0x100 EXP DUP2 SLOAD DUP2 PUSH20 0xFFFFFFFFFFFFFFFFFFFFFFFFFFFFFFFFFFFFFFFF MUL NOT AND SWAP1 DUP4 PUSH20 0xFFFFFFFFFFFFFFFFFFFFFFFFFFFFFFFFFFFFFFFF AND MUL OR SWAP1 SSTORE POP PUSH1 0x40 DUP3 ADD MLOAD DUP2 PUSH1 0x2 ADD SSTORE PUSH1 0x60 DUP3 ADD MLOAD DUP2 PUSH1 0x3 ADD SSTORE PUSH1 0x80 DUP3 ADD MLOAD DUP2 PUSH1 0x4 ADD SSTORE PUSH1 0xA0 DUP3 ADD MLOAD DUP2 PUSH1 0x5 ADD SSTORE PUSH1 0xC0 DUP3 ADD MLOAD DUP2 PUSH1 0x6 ADD SSTORE PUSH1 0xE0 DUP3 ADD MLOAD DUP2 PUSH1 0x7 ADD PUSH1 0x0 PUSH2 0x100 EXP DUP2 SLOAD DUP2 PUSH1 0xFF MUL NOT AND SWAP1 DUP4 ISZERO ISZERO MUL OR SWAP1 SSTORE POP POP POP PUSH1 0x0 DUP1 SLOAD SWAP1 PUSH2 0x100 EXP SWAP1 DIV PUSH20 0xFFFFFFFFFFFFFFFFFFFFFFFFFFFFFFFFFFFFFFFF AND PUSH20 0xFFFFFFFFFFFFFFFFFFFFFFFFFFFFFFFFFFFFFFFF AND PUSH4 0x23B872DD CALLER ADDRESS DUP9 PUSH1 0x40 MLOAD DUP5 PUSH4 0xFFFFFFFF AND PUSH1 0xE0 SHL DUP2 MSTORE PUSH1 0x4 ADD PUSH2 0x513 SWAP4 SWAP3 SWAP2 SWAP1 PUSH2 0x1309 JUMP JUMPDEST PUSH1 0x20 PUSH1 0x40 MLOAD DUP1 DUP4 SUB DUP2 PUSH1 0x0 DUP8 GAS CALL ISZERO DUP1 ISZERO PUSH2 0x532 JUMPI RETURNDATASIZE PUSH1 0x0 DUP1 RETURNDATACOPY RETURNDATASIZE PUSH1 0x0 REVERT JUMPDEST POP POP POP POP PUSH1 0x40 MLOAD RETURNDATASIZE PUSH1 0x1F NOT PUSH1 0x1F DUP3 ADD AND DUP3 ADD DUP1 PUSH1 0x40 MSTORE POP DUP2 ADD SWAP1 PUSH2 0x556 SWAP2 SWAP1 PUSH2 0x136C JUMP JUMPDEST POP PUSH32 0x661B019A87C9514E94117729B846D626DB49CD08807904F023D3CED15365CD68 DUP7 DUP7 PUSH1 0x2 PUSH1 0x0 CALLER PUSH20 0xFFFFFFFFFFFFFFFFFFFFFFFFFFFFFFFFFFFFFFFF AND PUSH20 0xFFFFFFFFFFFFFFFFFFFFFFFFFFFFFFFFFFFFFFFF AND DUP2 MSTORE PUSH1 0x20 ADD SWAP1 DUP2 MSTORE PUSH1 0x20 ADD PUSH1 0x0 KECCAK256 PUSH1 0x0 DUP2 SLOAD DUP2 LT PUSH2 0x5CC JUMPI PUSH2 0x5CB PUSH2 0x1399 JUMP JUMPDEST JUMPDEST SWAP1 PUSH1 0x0 MSTORE PUSH1 0x20 PUSH1 0x0 KECCAK256 SWAP1 PUSH1 0x8 MUL ADD PUSH1 0x5 ADD SLOAD PUSH1 0x40 MLOAD PUSH2 0x5ED SWAP4 SWAP3 SWAP2 SWAP1 PUSH2 0x13C8 JUMP JUMPDEST PUSH1 0x40 MLOAD DUP1 SWAP2 SUB SWAP1 LOG1 POP POP POP POP POP POP JUMP JUMPDEST PUSH1 0x1 PUSH1 0x4 PUSH1 0x0 CALLER PUSH20 0xFFFFFFFFFFFFFFFFFFFFFFFFFFFFFFFFFFFFFFFF AND PUSH20 0xFFFFFFFFFFFFFFFFFFFFFFFFFFFFFFFFFFFFFFFF AND DUP2 MSTORE PUSH1 0x20 ADD SWAP1 DUP2 MSTORE PUSH1 0x20 ADD PUSH1 0x0 KECCAK256 PUSH1 0x0 DUP4 PUSH20 0xFFFFFFFFFFFFFFFFFFFFFFFFFFFFFFFFFFFFFFFF AND PUSH20 0xFFFFFFFFFFFFFFFFFFFFFFFFFFFFFFFFFFFFFFFF AND DUP2 MSTORE PUSH1 0x20 ADD SWAP1 DUP2 MSTORE PUSH1 0x20 ADD PUSH1 0x0 KECCAK256 PUSH1 0x0 PUSH2 0x100 EXP DUP2 SLOAD DUP2 PUSH1 0xFF MUL NOT AND SWAP1 DUP4 ISZERO ISZERO MUL OR SWAP1 SSTORE POP PUSH32 0xD936547E15D595CD7E4C0D71CE9DDBC75AE4FD243D310184FBD19390C58A304B DUP2 PUSH1 0x40 MLOAD PUSH2 0x6C1 SWAP2 SWAP1 PUSH2 0x13FF JUMP JUMPDEST PUSH1 0x40 MLOAD DUP1 SWAP2 SUB SWAP1 LOG1 POP JUMP JUMPDEST PUSH1 0x2 PUSH1 0x20 MSTORE DUP2 PUSH1 0x0 MSTORE PUSH1 0x40 PUSH1 0x0 KECCAK256 DUP2 DUP2 SLOAD DUP2 LT PUSH2 0x6E8 JUMPI PUSH1 0x0 DUP1 REVERT JUMPDEST SWAP1 PUSH1 0x0 MSTORE PUSH1 0x20 PUSH1 0x0 KECCAK256 SWAP1 PUSH1 0x8 MUL ADD PUSH1 0x0 SWAP2 POP SWAP2 POP POP DUP1 PUSH1 0x0 ADD PUSH1 0x0 SWAP1 SLOAD SWAP1 PUSH2 0x100 EXP SWAP1 DIV PUSH20 0xFFFFFFFFFFFFFFFFFFFFFFFFFFFFFFFFFFFFFFFF AND SWAP1 DUP1 PUSH1 0x1 ADD PUSH1 0x0 SWAP1 SLOAD SWAP1 PUSH2 0x100 EXP SWAP1 DIV PUSH20 0xFFFFFFFFFFFFFFFFFFFFFFFFFFFFFFFFFFFFFFFF AND SWAP1 DUP1 PUSH1 0x2 ADD SLOAD SWAP1 DUP1 PUSH1 0x3 ADD SLOAD SWAP1 DUP1 PUSH1 0x4 ADD SLOAD SWAP1 DUP1 PUSH1 0x5 ADD SLOAD SWAP1 DUP1 PUSH1 0x6 ADD SLOAD SWAP1 DUP1 PUSH1 0x7 ADD PUSH1 0x0 SWAP1 SLOAD SWAP1 PUSH2 0x100 EXP SWAP1 DIV PUSH1 0xFF AND SWAP1 POP DUP9 JUMP JUMPDEST PUSH1 0x4 PUSH1 0x20 MSTORE DUP2 PUSH1 0x0 MSTORE PUSH1 0x40 PUSH1 0x0 KECCAK256 PUSH1 0x20 MSTORE DUP1 PUSH1 0x0 MSTORE PUSH1 0x40 PUSH1 0x0 KECCAK256 PUSH1 0x0 SWAP2 POP SWAP2 POP SWAP1 SLOAD SWAP1 PUSH2 0x100 EXP SWAP1 DIV PUSH1 0xFF AND DUP2 JUMP JUMPDEST PUSH1 0x2 PUSH1 0x0 CALLER PUSH20 0xFFFFFFFFFFFFFFFFFFFFFFFFFFFFFFFFFFFFFFFF AND PUSH20 0xFFFFFFFFFFFFFFFFFFFFFFFFFFFFFFFFFFFFFFFF AND DUP2 MSTORE PUSH1 0x20 ADD SWAP1 DUP2 MSTORE PUSH1 0x20 ADD PUSH1 0x0 KECCAK256 DUP2 PUSH1 0xFF AND DUP2 SLOAD DUP2 LT PUSH2 0x801 JUMPI PUSH2 0x800 PUSH2 0x1399 JUMP JUMPDEST JUMPDEST SWAP1 PUSH1 0x0 MSTORE PUSH1 0x20 PUSH1 0x0 KECCAK256 SWAP1 PUSH1 0x8 MUL ADD PUSH1 0x0 ADD PUSH1 0x0 SWAP1 SLOAD SWAP1 PUSH2 0x100 EXP SWAP1 DIV PUSH20 0xFFFFFFFFFFFFFFFFFFFFFFFFFFFFFFFFFFFFFFFF AND PUSH1 0x0 DUP1 PUSH2 0x100 EXP DUP2 SLOAD DUP2 PUSH20 0xFFFFFFFFFFFFFFFFFFFFFFFFFFFFFFFFFFFFFFFF MUL NOT AND SWAP1 DUP4 PUSH20 0xFFFFFFFFFFFFFFFFFFFFFFFFFFFFFFFFFFFFFFFF AND MUL OR SWAP1 SSTORE POP PUSH2 0x87B DUP2 PUSH2 0xA82 JUMP JUMPDEST PUSH1 0x1 DUP2 SWAP1 SSTORE POP PUSH1 0x0 DUP1 SLOAD SWAP1 PUSH2 0x100 EXP SWAP1 DIV PUSH20 0xFFFFFFFFFFFFFFFFFFFFFFFFFFFFFFFFFFFFFFFF AND PUSH20 0xFFFFFFFFFFFFFFFFFFFFFFFFFFFFFFFFFFFFFFFF AND PUSH4 0xA9059CBB CALLER PUSH1 0x1 SLOAD PUSH1 0x40 MLOAD DUP4 PUSH4 0xFFFFFFFF AND PUSH1 0xE0 SHL DUP2 MSTORE PUSH1 0x4 ADD PUSH2 0x8DE SWAP3 SWAP2 SWAP1 PUSH2 0x141A JUMP JUMPDEST PUSH1 0x20 PUSH1 0x40 MLOAD DUP1 DUP4 SUB DUP2 PUSH1 0x0 DUP8 GAS CALL ISZERO DUP1 ISZERO PUSH2 0x8FD JUMPI RETURNDATASIZE PUSH1 0x0 DUP1 RETURNDATACOPY RETURNDATASIZE PUSH1 0x0 REVERT JUMPDEST POP POP POP POP PUSH1 0x40 MLOAD RETURNDATASIZE PUSH1 0x1F NOT PUSH1 0x1F DUP3 ADD AND DUP3 ADD DUP1 PUSH1 0x40 MSTORE POP DUP2 ADD SWAP1 PUSH2 0x921 SWAP2 SWAP1 PUSH2 0x136C JUMP JUMPDEST POP PUSH1 0x1 SLOAD PUSH1 0x3 PUSH1 0x0 CALLER PUSH20 0xFFFFFFFFFFFFFFFFFFFFFFFFFFFFFFFFFFFFFFFF AND PUSH20 0xFFFFFFFFFFFFFFFFFFFFFFFFFFFFFFFFFFFFFFFF AND DUP2 MSTORE PUSH1 0x20 ADD SWAP1 DUP2 MSTORE PUSH1 0x20 ADD PUSH1 0x0 KECCAK256 PUSH1 0x0 DUP4 PUSH1 0xFF AND DUP2 MSTORE PUSH1 0x20 ADD SWAP1 DUP2 MSTORE PUSH1 0x20 ADD PUSH1 0x0 KECCAK256 PUSH1 0x0 DUP3 DUP3 SLOAD PUSH2 0x987 SWAP2 SWAP1 PUSH2 0x12D5 JUMP JUMPDEST SWAP3 POP POP DUP2 SWAP1 SSTORE POP POP JUMP JUMPDEST PUSH1 0x1 SLOAD DUP2 JUMP JUMPDEST PUSH1 0x0 DUP1 PUSH1 0x0 SWAP1 SLOAD SWAP1 PUSH2 0x100 EXP SWAP1 DIV PUSH20 0xFFFFFFFFFFFFFFFFFFFFFFFFFFFFFFFFFFFFFFFF AND PUSH20 0xFFFFFFFFFFFFFFFFFFFFFFFFFFFFFFFFFFFFFFFF AND PUSH4 0x70A08231 ADDRESS PUSH1 0x40 MLOAD DUP3 PUSH4 0xFFFFFFFF AND PUSH1 0xE0 SHL DUP2 MSTORE PUSH1 0x4 ADD PUSH2 0x9F3 SWAP2 SWAP1 PUSH2 0x13FF JUMP JUMPDEST PUSH1 0x20 PUSH1 0x40 MLOAD DUP1 DUP4 SUB DUP2 DUP7 GAS STATICCALL ISZERO DUP1 ISZERO PUSH2 0xA10 JUMPI RETURNDATASIZE PUSH1 0x0 DUP1 RETURNDATACOPY RETURNDATASIZE PUSH1 0x0 REVERT JUMPDEST POP POP POP POP PUSH1 0x40 MLOAD RETURNDATASIZE PUSH1 0x1F NOT PUSH1 0x1F DUP3 ADD AND DUP3 ADD DUP1 PUSH1 0x40 MSTORE POP DUP2 ADD SWAP1 PUSH2 0xA34 SWAP2 SWAP1 PUSH2 0x1458 JUMP JUMPDEST SWAP1 POP SWAP1 JUMP JUMPDEST PUSH1 0x3 PUSH1 0x20 MSTORE DUP2 PUSH1 0x0 MSTORE PUSH1 0x40 PUSH1 0x0 KECCAK256 PUSH1 0x20 MSTORE DUP1 PUSH1 0x0 MSTORE PUSH1 0x40 PUSH1 0x0 KECCAK256 PUSH1 0x0 SWAP2 POP SWAP2 POP POP SLOAD DUP2 JUMP JUMPDEST PUSH1 0x0 DUP1 SLOAD SWAP1 PUSH2 0x100 EXP SWAP1 DIV PUSH20 0xFFFFFFFFFFFFFFFFFFFFFFFFFFFFFFFFFFFFFFFF AND DUP2 JUMP JUMPDEST PUSH1 0x0 DUP1 PUSH1 0x2 PUSH1 0x0 CALLER PUSH20 0xFFFFFFFFFFFFFFFFFFFFFFFFFFFFFFFFFFFFFFFF AND PUSH20 0xFFFFFFFFFFFFFFFFFFFFFFFFFFFFFFFFFFFFFFFF AND DUP2 MSTORE PUSH1 0x20 ADD SWAP1 DUP2 MSTORE PUSH1 0x20 ADD PUSH1 0x0 KECCAK256 DUP4 PUSH1 0xFF AND DUP2 SLOAD DUP2 LT PUSH2 0xAD9 JUMPI PUSH2 0xAD8 PUSH2 0x1399 JUMP JUMPDEST JUMPDEST SWAP1 PUSH1 0x0 MSTORE PUSH1 0x20 PUSH1 0x0 KECCAK256 SWAP1 PUSH1 0x8 MUL ADD PUSH1 0x6 ADD SLOAD PUSH1 0x2 PUSH1 0x0 CALLER PUSH20 0xFFFFFFFFFFFFFFFFFFFFFFFFFFFFFFFFFFFFFFFF AND PUSH20 0xFFFFFFFFFFFFFFFFFFFFFFFFFFFFFFFFFFFFFFFF AND DUP2 MSTORE PUSH1 0x20 ADD SWAP1 DUP2 MSTORE PUSH1 0x20 ADD PUSH1 0x0 KECCAK256 DUP5 PUSH1 0xFF AND DUP2 SLOAD DUP2 LT PUSH2 0xB3F JUMPI PUSH2 0xB3E PUSH2 0x1399 JUMP JUMPDEST JUMPDEST SWAP1 PUSH1 0x0 MSTORE PUSH1 0x20 PUSH1 0x0 KECCAK256 SWAP1 PUSH1 0x8 MUL ADD PUSH1 0x5 ADD SLOAD PUSH2 0xB5B SWAP2 SWAP1 PUSH2 0x14B4 JUMP JUMPDEST SWAP1 POP PUSH1 0x0 DUP2 PUSH1 0x2 PUSH1 0x0 CALLER PUSH20 0xFFFFFFFFFFFFFFFFFFFFFFFFFFFFFFFFFFFFFFFF AND PUSH20 0xFFFFFFFFFFFFFFFFFFFFFFFFFFFFFFFFFFFFFFFF AND DUP2 MSTORE PUSH1 0x20 ADD SWAP1 DUP2 MSTORE PUSH1 0x20 ADD PUSH1 0x0 KECCAK256 DUP6 PUSH1 0xFF AND DUP2 SLOAD DUP2 LT PUSH2 0xBB4 JUMPI PUSH2 0xBB3 PUSH2 0x1399 JUMP JUMPDEST JUMPDEST SWAP1 PUSH1 0x0 MSTORE PUSH1 0x20 PUSH1 0x0 KECCAK256 SWAP1 PUSH1 0x8 MUL ADD PUSH1 0x2 ADD SLOAD PUSH2 0xBD0 SWAP2 SWAP1 PUSH2 0x14B4 JUMP JUMPDEST SWAP1 POP PUSH1 0x2 PUSH1 0x0 CALLER PUSH20 0xFFFFFFFFFFFFFFFFFFFFFFFFFFFFFFFFFFFFFFFF AND PUSH20 0xFFFFFFFFFFFFFFFFFFFFFFFFFFFFFFFFFFFFFFFF AND DUP2 MSTORE PUSH1 0x20 ADD SWAP1 DUP2 MSTORE PUSH1 0x20 ADD PUSH1 0x0 KECCAK256 DUP5 PUSH1 0xFF AND DUP2 SLOAD DUP2 LT PUSH2 0xC26 JUMPI PUSH2 0xC25 PUSH2 0x1399 JUMP JUMPDEST JUMPDEST SWAP1 PUSH1 0x0 MSTORE PUSH1 0x20 PUSH1 0x0 KECCAK256 SWAP1 PUSH1 0x8 MUL ADD PUSH1 0x4 ADD SLOAD TIMESTAMP GT PUSH2 0xC79 JUMPI PUSH1 0x40 MLOAD PUSH32 0x8C379A000000000000000000000000000000000000000000000000000000000 DUP2 MSTORE PUSH1 0x4 ADD PUSH2 0xC70 SWAP1 PUSH2 0x1531 JUMP JUMPDEST PUSH1 0x40 MLOAD DUP1 SWAP2 SUB SWAP1 REVERT JUMPDEST PUSH1 0x0 PUSH1 0x2 PUSH1 0x0 CALLER PUSH20 0xFFFFFFFFFFFFFFFFFFFFFFFFFFFFFFFFFFFFFFFF AND PUSH20 0xFFFFFFFFFFFFFFFFFFFFFFFFFFFFFFFFFFFFFFFF AND DUP2 MSTORE PUSH1 0x20 ADD SWAP1 DUP2 MSTORE PUSH1 0x20 ADD PUSH1 0x0 KECCAK256 DUP6 PUSH1 0xFF AND DUP2 SLOAD DUP2 LT PUSH2 0xCCF JUMPI PUSH2 0xCCE PUSH2 0x1399 JUMP JUMPDEST JUMPDEST SWAP1 PUSH1 0x0 MSTORE PUSH1 0x20 PUSH1 0x0 KECCAK256 SWAP1 PUSH1 0x8 MUL ADD PUSH1 0x4 ADD SLOAD TIMESTAMP PUSH2 0xCEC SWAP2 SWAP1 PUSH2 0x1551 JUMP JUMPDEST SWAP1 POP PUSH1 0x0 PUSH1 0x2 PUSH1 0x0 CALLER PUSH20 0xFFFFFFFFFFFFFFFFFFFFFFFFFFFFFFFFFFFFFFFF AND PUSH20 0xFFFFFFFFFFFFFFFFFFFFFFFFFFFFFFFFFFFFFFFF AND DUP2 MSTORE PUSH1 0x20 ADD SWAP1 DUP2 MSTORE PUSH1 0x20 ADD PUSH1 0x0 KECCAK256 DUP7 PUSH1 0xFF AND DUP2 SLOAD DUP2 LT PUSH2 0xD44 JUMPI PUSH2 0xD43 PUSH2 0x1399 JUMP JUMPDEST JUMPDEST SWAP1 PUSH1 0x0 MSTORE PUSH1 0x20 PUSH1 0x0 KECCAK256 SWAP1 PUSH1 0x8 MUL ADD PUSH1 0x6 ADD SLOAD DUP3 PUSH2 0xD61 SWAP2 SWAP1 PUSH2 0x14B4 JUMP JUMPDEST SWAP1 POP PUSH1 0x0 PUSH1 0x3 PUSH1 0x0 CALLER PUSH20 0xFFFFFFFFFFFFFFFFFFFFFFFFFFFFFFFFFFFFFFFF AND PUSH20 0xFFFFFFFFFFFFFFFFFFFFFFFFFFFFFFFFFFFFFFFF AND DUP2 MSTORE PUSH1 0x20 ADD SWAP1 DUP2 MSTORE PUSH1 0x20 ADD PUSH1 0x0 KECCAK256 PUSH1 0x0 DUP9 PUSH1 0xFF AND DUP2 MSTORE PUSH1 0x20 ADD SWAP1 DUP2 MSTORE PUSH1 0x20 ADD PUSH1 0x0 KECCAK256 SLOAD DUP5 DUP4 PUSH2 0xDC5 SWAP2 SWAP1 PUSH2 0x1585 JUMP JUMPDEST PUSH2 0xDCF SWAP2 SWAP1 PUSH2 0x1551 JUMP JUMPDEST SWAP1 POP PUSH32 0xF9505C319EA522D7505A903D6DB1F2C0FB512FD44EBE39C25777609F6E8266A8 DUP6 DUP6 DUP6 DUP6 DUP6 PUSH1 0x40 MLOAD PUSH2 0xE08 SWAP6 SWAP5 SWAP4 SWAP3 SWAP2 SWAP1 PUSH2 0x15C7 JUMP JUMPDEST PUSH1 0x40 MLOAD DUP1 SWAP2 SUB SWAP1 LOG1 DUP5 DUP3 LT PUSH2 0xE8D JUMPI PUSH1 0x3 PUSH1 0x0 CALLER PUSH20 0xFFFFFFFFFFFFFFFFFFFFFFFFFFFFFFFFFFFFFFFF AND PUSH20 0xFFFFFFFFFFFFFFFFFFFFFFFFFFFFFFFFFFFFFFFF AND DUP2 MSTORE PUSH1 0x20 ADD SWAP1 DUP2 MSTORE PUSH1 0x20 ADD PUSH1 0x0 KECCAK256 PUSH1 0x0 DUP9 PUSH1 0xFF AND DUP2 MSTORE PUSH1 0x20 ADD SWAP1 DUP2 MSTORE PUSH1 0x20 ADD PUSH1 0x0 KECCAK256 SLOAD DUP6 DUP6 PUSH2 0xE77 SWAP2 SWAP1 PUSH2 0x1585 JUMP JUMPDEST PUSH2 0xE81 SWAP2 SWAP1 PUSH2 0x1551 JUMP JUMPDEST SWAP6 POP POP POP POP POP POP PUSH2 0xE96 JUMP JUMPDEST DUP1 SWAP6 POP POP POP POP POP POP JUMPDEST SWAP2 SWAP1 POP JUMP JUMPDEST PUSH1 0x0 DUP1 REVERT JUMPDEST PUSH1 0x0 PUSH20 0xFFFFFFFFFFFFFFFFFFFFFFFFFFFFFFFFFFFFFFFF DUP3 AND SWAP1 POP SWAP2 SWAP1 POP JUMP JUMPDEST PUSH1 0x0 PUSH2 0xECB DUP3 PUSH2 0xEA0 JUMP JUMPDEST SWAP1 POP SWAP2 SWAP1 POP JUMP JUMPDEST PUSH2 0xEDB DUP2 PUSH2 0xEC0 JUMP JUMPDEST DUP2 EQ PUSH2 0xEE6 JUMPI PUSH1 0x0 DUP1 REVERT JUMPDEST POP JUMP JUMPDEST PUSH1 0x0 DUP2 CALLDATALOAD SWAP1 POP PUSH2 0xEF8 DUP2 PUSH2 0xED2 JUMP JUMPDEST SWAP3 SWAP2 POP POP JUMP JUMPDEST PUSH1 0x0 DUP2 SWAP1 POP SWAP2 SWAP1 POP JUMP JUMPDEST PUSH2 0xF11 DUP2 PUSH2 0xEFE JUMP JUMPDEST DUP2 EQ PUSH2 0xF1C JUMPI PUSH1 0x0 DUP1 REVERT JUMPDEST POP JUMP JUMPDEST PUSH1 0x0 DUP2 CALLDATALOAD SWAP1 POP PUSH2 0xF2E DUP2 PUSH2 0xF08 JUMP JUMPDEST SWAP3 SWAP2 POP POP JUMP JUMPDEST PUSH1 0x0 DUP1 PUSH1 0x0 DUP1 PUSH1 0x0 PUSH1 0xA0 DUP7 DUP9 SUB SLT ISZERO PUSH2 0xF50 JUMPI PUSH2 0xF4F PUSH2 0xE9B JUMP JUMPDEST JUMPDEST PUSH1 0x0 PUSH2 0xF5E DUP9 DUP3 DUP10 ADD PUSH2 0xEE9 JUMP JUMPDEST SWAP6 POP POP PUSH1 0x20 PUSH2 0xF6F DUP9 DUP3 DUP10 ADD PUSH2 0xF1F JUMP JUMPDEST SWAP5 POP POP PUSH1 0x40 PUSH2 0xF80 DUP9 DUP3 DUP10 ADD PUSH2 0xF1F JUMP JUMPDEST SWAP4 POP POP PUSH1 0x60 PUSH2 0xF91 DUP9 DUP3 DUP10 ADD PUSH2 0xF1F JUMP JUMPDEST SWAP3 POP POP PUSH1 0x80 PUSH2 0xFA2 DUP9 DUP3 DUP10 ADD PUSH2 0xF1F JUMP JUMPDEST SWAP2 POP POP SWAP3 SWAP6 POP SWAP3 SWAP6 SWAP1 SWAP4 POP JUMP JUMPDEST PUSH1 0x0 PUSH1 0x20 DUP3 DUP5 SUB SLT ISZERO PUSH2 0xFC5 JUMPI PUSH2 0xFC4 PUSH2 0xE9B JUMP JUMPDEST JUMPDEST PUSH1 0x0 PUSH2 0xFD3 DUP5 DUP3 DUP6 ADD PUSH2 0xEE9 JUMP JUMPDEST SWAP2 POP POP SWAP3 SWAP2 POP POP JUMP JUMPDEST PUSH1 0x0 DUP1 PUSH1 0x40 DUP4 DUP6 SUB SLT ISZERO PUSH2 0xFF3 JUMPI PUSH2 0xFF2 PUSH2 0xE9B JUMP JUMPDEST JUMPDEST PUSH1 0x0 PUSH2 0x1001 DUP6 DUP3 DUP7 ADD PUSH2 0xEE9 JUMP JUMPDEST SWAP3 POP POP PUSH1 0x20 PUSH2 0x1012 DUP6 DUP3 DUP7 ADD PUSH2 0xF1F JUMP JUMPDEST SWAP2 POP POP SWAP3 POP SWAP3 SWAP1 POP JUMP JUMPDEST PUSH2 0x1025 DUP2 PUSH2 0xEC0 JUMP JUMPDEST DUP3 MSTORE POP POP JUMP JUMPDEST PUSH2 0x1034 DUP2 PUSH2 0xEFE JUMP JUMPDEST DUP3 MSTORE POP POP JUMP JUMPDEST PUSH1 0x0 DUP2 ISZERO ISZERO SWAP1 POP SWAP2 SWAP1 POP JUMP JUMPDEST PUSH2 0x104F DUP2 PUSH2 0x103A JUMP JUMPDEST DUP3 MSTORE POP POP JUMP JUMPDEST PUSH1 0x0 PUSH2 0x100 DUP3 ADD SWAP1 POP PUSH2 0x106B PUSH1 0x0 DUP4 ADD DUP12 PUSH2 0x101C JUMP JUMPDEST PUSH2 0x1078 PUSH1 0x20 DUP4 ADD DUP11 PUSH2 0x101C JUMP JUMPDEST PUSH2 0x1085 PUSH1 0x40 DUP4 ADD DUP10 PUSH2 0x102B JUMP JUMPDEST PUSH2 0x1092 PUSH1 0x60 DUP4 ADD DUP9 PUSH2 0x102B JUMP JUMPDEST PUSH2 0x109F PUSH1 0x80 DUP4 ADD DUP8 PUSH2 0x102B JUMP JUMPDEST PUSH2 0x10AC PUSH1 0xA0 DUP4 ADD DUP7 PUSH2 0x102B JUMP JUMPDEST PUSH2 0x10B9 PUSH1 0xC0 DUP4 ADD DUP6 PUSH2 0x102B JUMP JUMPDEST PUSH2 0x10C6 PUSH1 0xE0 DUP4 ADD DUP5 PUSH2 0x1046 JUMP JUMPDEST SWAP10 SWAP9 POP POP POP POP POP POP POP POP POP JUMP JUMPDEST PUSH1 0x0 DUP1 PUSH1 0x40 DUP4 DUP6 SUB SLT ISZERO PUSH2 0x10EA JUMPI PUSH2 0x10E9 PUSH2 0xE9B JUMP JUMPDEST JUMPDEST PUSH1 0x0 PUSH2 0x10F8 DUP6 DUP3 DUP7 ADD PUSH2 0xEE9 JUMP JUMPDEST SWAP3 POP POP PUSH1 0x20 PUSH2 0x1109 DUP6 DUP3 DUP7 ADD PUSH2 0xEE9 JUMP JUMPDEST SWAP2 POP POP SWAP3 POP SWAP3 SWAP1 POP JUMP JUMPDEST PUSH1 0x0 PUSH1 0x20 DUP3 ADD SWAP1 POP PUSH2 0x1128 PUSH1 0x0 DUP4 ADD DUP5 PUSH2 0x1046 JUMP JUMPDEST SWAP3 SWAP2 POP POP JUMP JUMPDEST PUSH1 0x0 PUSH1 0xFF DUP3 AND SWAP1 POP SWAP2 SWAP1 POP JUMP JUMPDEST PUSH2 0x1144 DUP2 PUSH2 0x112E JUMP JUMPDEST DUP2 EQ PUSH2 0x114F JUMPI PUSH1 0x0 DUP1 REVERT JUMPDEST POP JUMP JUMPDEST PUSH1 0x0 DUP2 CALLDATALOAD SWAP1 POP PUSH2 0x1161 DUP2 PUSH2 0x113B JUMP JUMPDEST SWAP3 SWAP2 POP POP JUMP JUMPDEST PUSH1 0x0 PUSH1 0x20 DUP3 DUP5 SUB SLT ISZERO PUSH2 0x117D JUMPI PUSH2 0x117C PUSH2 0xE9B JUMP JUMPDEST JUMPDEST PUSH1 0x0 PUSH2 0x118B DUP5 DUP3 DUP6 ADD PUSH2 0x1152 JUMP JUMPDEST SWAP2 POP POP SWAP3 SWAP2 POP POP JUMP JUMPDEST PUSH1 0x0 PUSH1 0x20 DUP3 ADD SWAP1 POP PUSH2 0x11A9 PUSH1 0x0 DUP4 ADD DUP5 PUSH2 0x102B JUMP JUMPDEST SWAP3 SWAP2 POP POP JUMP JUMPDEST PUSH1 0x0 DUP2 SWAP1 POP SWAP2 SWAP1 POP JUMP JUMPDEST PUSH1 0x0 PUSH2 0x11D4 PUSH2 0x11CF PUSH2 0x11CA DUP5 PUSH2 0xEA0 JUMP JUMPDEST PUSH2 0x11AF JUMP JUMPDEST PUSH2 0xEA0 JUMP JUMPDEST SWAP1 POP SWAP2 SWAP1 POP JUMP JUMPDEST PUSH1 0x0 PUSH2 0x11E6 DUP3 PUSH2 0x11B9 JUMP JUMPDEST SWAP1 POP SWAP2 SWAP1 POP JUMP JUMPDEST PUSH1 0x0 PUSH2 0x11F8 DUP3 PUSH2 0x11DB JUMP JUMPDEST SWAP1 POP SWAP2 SWAP1 POP JUMP JUMPDEST PUSH2 0x1208 DUP2 PUSH2 0x11ED JUMP JUMPDEST DUP3 MSTORE POP POP JUMP JUMPDEST PUSH1 0x0 PUSH1 0x20 DUP3 ADD SWAP1 POP PUSH2 0x1223 PUSH1 0x0 DUP4 ADD DUP5 PUSH2 0x11FF JUMP JUMPDEST SWAP3 SWAP2 POP POP JUMP JUMPDEST PUSH1 0x0 DUP3 DUP3 MSTORE PUSH1 0x20 DUP3 ADD SWAP1 POP SWAP3 SWAP2 POP POP JUMP JUMPDEST PUSH32 0x546F6B656E206973206E6F7420616C6C6F776564000000000000000000000000 PUSH1 0x0 DUP3 ADD MSTORE POP JUMP JUMPDEST PUSH1 0x0 PUSH2 0x1270 PUSH1 0x14 DUP4 PUSH2 0x1229 JUMP JUMPDEST SWAP2 POP PUSH2 0x127B DUP3 PUSH2 0x123A JUMP JUMPDEST PUSH1 0x20 DUP3 ADD SWAP1 POP SWAP2 SWAP1 POP JUMP JUMPDEST PUSH1 0x0 PUSH1 0x20 DUP3 ADD SWAP1 POP DUP2 DUP2 SUB PUSH1 0x0 DUP4 ADD MSTORE PUSH2 0x129F DUP2 PUSH2 0x1263 JUMP JUMPDEST SWAP1 POP SWAP2 SWAP1 POP JUMP JUMPDEST PUSH32 0x4E487B7100000000000000000000000000000000000000000000000000000000 PUSH1 0x0 MSTORE PUSH1 0x11 PUSH1 0x4 MSTORE PUSH1 0x24 PUSH1 0x0 REVERT JUMPDEST PUSH1 0x0 PUSH2 0x12E0 DUP3 PUSH2 0xEFE JUMP JUMPDEST SWAP2 POP PUSH2 0x12EB DUP4 PUSH2 0xEFE JUMP JUMPDEST SWAP3 POP DUP3 DUP3 ADD SWAP1 POP DUP1 DUP3 GT ISZERO PUSH2 0x1303 JUMPI PUSH2 0x1302 PUSH2 0x12A6 JUMP JUMPDEST JUMPDEST SWAP3 SWAP2 POP POP JUMP JUMPDEST PUSH1 0x0 PUSH1 0x60 DUP3 ADD SWAP1 POP PUSH2 0x131E PUSH1 0x0 DUP4 ADD DUP7 PUSH2 0x101C JUMP JUMPDEST PUSH2 0x132B PUSH1 0x20 DUP4 ADD DUP6 PUSH2 0x101C JUMP JUMPDEST PUSH2 0x1338 PUSH1 0x40 DUP4 ADD DUP5 PUSH2 0x102B JUMP JUMPDEST SWAP5 SWAP4 POP POP POP POP JUMP JUMPDEST PUSH2 0x1349 DUP2 PUSH2 0x103A JUMP JUMPDEST DUP2 EQ PUSH2 0x1354 JUMPI PUSH1 0x0 DUP1 REVERT JUMPDEST POP JUMP JUMPDEST PUSH1 0x0 DUP2 MLOAD SWAP1 POP PUSH2 0x1366 DUP2 PUSH2 0x1340 JUMP JUMPDEST SWAP3 SWAP2 POP POP JUMP JUMPDEST PUSH1 0x0 PUSH1 0x20 DUP3 DUP5 SUB SLT ISZERO PUSH2 0x1382 JUMPI PUSH2 0x1381 PUSH2 0xE9B JUMP JUMPDEST JUMPDEST PUSH1 0x0 PUSH2 0x1390 DUP5 DUP3 DUP6 ADD PUSH2 0x1357 JUMP JUMPDEST SWAP2 POP POP SWAP3 SWAP2 POP POP JUMP JUMPDEST PUSH32 0x4E487B7100000000000000000000000000000000000000000000000000000000 PUSH1 0x0 MSTORE PUSH1 0x32 PUSH1 0x4 MSTORE PUSH1 0x24 PUSH1 0x0 REVERT JUMPDEST PUSH1 0x0 PUSH1 0x60 DUP3 ADD SWAP1 POP PUSH2 0x13DD PUSH1 0x0 DUP4 ADD DUP7 PUSH2 0x101C JUMP JUMPDEST PUSH2 0x13EA PUSH1 0x20 DUP4 ADD DUP6 PUSH2 0x102B JUMP JUMPDEST PUSH2 0x13F7 PUSH1 0x40 DUP4 ADD DUP5 PUSH2 0x102B JUMP JUMPDEST SWAP5 SWAP4 POP POP POP POP JUMP JUMPDEST PUSH1 0x0 PUSH1 0x20 DUP3 ADD SWAP1 POP PUSH2 0x1414 PUSH1 0x0 DUP4 ADD DUP5 PUSH2 0x101C JUMP JUMPDEST SWAP3 SWAP2 POP POP JUMP JUMPDEST PUSH1 0x0 PUSH1 0x40 DUP3 ADD SWAP1 POP PUSH2 0x142F PUSH1 0x0 DUP4 ADD DUP6 PUSH2 0x101C JUMP JUMPDEST PUSH2 0x143C PUSH1 0x20 DUP4 ADD DUP5 PUSH2 0x102B JUMP JUMPDEST SWAP4 SWAP3 POP POP POP JUMP JUMPDEST PUSH1 0x0 DUP2 MLOAD SWAP1 POP PUSH2 0x1452 DUP2 PUSH2 0xF08 JUMP JUMPDEST SWAP3 SWAP2 POP POP JUMP JUMPDEST PUSH1 0x0 PUSH1 0x20 DUP3 DUP5 SUB SLT ISZERO PUSH2 0x146E JUMPI PUSH2 0x146D PUSH2 0xE9B JUMP JUMPDEST JUMPDEST PUSH1 0x0 PUSH2 0x147C DUP5 DUP3 DUP6 ADD PUSH2 0x1443 JUMP JUMPDEST SWAP2 POP POP SWAP3 SWAP2 POP POP JUMP JUMPDEST PUSH32 0x4E487B7100000000000000000000000000000000000000000000000000000000 PUSH1 0x0 MSTORE PUSH1 0x12 PUSH1 0x4 MSTORE PUSH1 0x24 PUSH1 0x0 REVERT JUMPDEST PUSH1 0x0 PUSH2 0x14BF DUP3 PUSH2 0xEFE JUMP JUMPDEST SWAP2 POP PUSH2 0x14CA DUP4 PUSH2 0xEFE JUMP JUMPDEST SWAP3 POP DUP3 PUSH2 0x14DA JUMPI PUSH2 0x14D9 PUSH2 0x1485 JUMP JUMPDEST JUMPDEST DUP3 DUP3 DIV SWAP1 POP SWAP3 SWAP2 POP POP JUMP JUMPDEST PUSH32 0x4E6F20746F6B656E7320756E6C6F636B65640000000000000000000000000000 PUSH1 0x0 DUP3 ADD MSTORE POP JUMP JUMPDEST PUSH1 0x0 PUSH2 0x151B PUSH1 0x12 DUP4 PUSH2 0x1229 JUMP JUMPDEST SWAP2 POP PUSH2 0x1526 DUP3 PUSH2 0x14E5 JUMP JUMPDEST PUSH1 0x20 DUP3 ADD SWAP1 POP SWAP2 SWAP1 POP JUMP JUMPDEST PUSH1 0x0 PUSH1 0x20 DUP3 ADD SWAP1 POP DUP2 DUP2 SUB PUSH1 0x0 DUP4 ADD MSTORE PUSH2 0x154A DUP2 PUSH2 0x150E JUMP JUMPDEST SWAP1 POP SWAP2 SWAP1 POP JUMP JUMPDEST PUSH1 0x0 PUSH2 0x155C DUP3 PUSH2 0xEFE JUMP JUMPDEST SWAP2 POP PUSH2 0x1567 DUP4 PUSH2 0xEFE JUMP JUMPDEST SWAP3 POP DUP3 DUP3 SUB SWAP1 POP DUP2 DUP2 GT ISZERO PUSH2 0x157F JUMPI PUSH2 0x157E PUSH2 0x12A6 JUMP JUMPDEST JUMPDEST SWAP3 SWAP2 POP POP JUMP JUMPDEST PUSH1 0x0 PUSH2 0x1590 DUP3 PUSH2 0xEFE JUMP JUMPDEST SWAP2 POP PUSH2 0x159B DUP4 PUSH2 0xEFE JUMP JUMPDEST SWAP3 POP DUP3 DUP3 MUL PUSH2 0x15A9 DUP2 PUSH2 0xEFE JUMP JUMPDEST SWAP2 POP DUP3 DUP3 DIV DUP5 EQ DUP4 ISZERO OR PUSH2 0x15C0 JUMPI PUSH2 0x15BF PUSH2 0x12A6 JUMP JUMPDEST JUMPDEST POP SWAP3 SWAP2 POP POP JUMP JUMPDEST PUSH1 0x0 PUSH1 0xA0 DUP3 ADD SWAP1 POP PUSH2 0x15DC PUSH1 0x0 DUP4 ADD DUP9 PUSH2 0x102B JUMP JUMPDEST PUSH2 0x15E9 PUSH1 0x20 DUP4 ADD DUP8 PUSH2 0x102B JUMP JUMPDEST PUSH2 0x15F6 PUSH1 0x40 DUP4 ADD DUP7 PUSH2 0x102B JUMP JUMPDEST PUSH2 0x1603 PUSH1 0x60 DUP4 ADD DUP6 PUSH2 0x102B JUMP JUMPDEST PUSH2 0x1610 PUSH1 0x80 DUP4 ADD DUP5 PUSH2 0x102B JUMP JUMPDEST SWAP7 SWAP6 POP POP POP POP POP POP JUMP INVALID LOG2 PUSH5 0x6970667358 0x22 SLT KECCAK256 PUSH13 0xB057E49A2A82D0BF7CABA8057A GAS 0xEB 0xA6 0xD4 0xCF 0xF9 0xE7 PUSH12 0x4B2EF4E21BA6956FC6DC6473 PUSH16 0x6C634300081200330000000000000000 "
				},
				"gasEstimates": {
					"creation": {
						"codeDepositCost": "1142400",
						"executionCost": "1187",
						"totalCost": "1143587"
					},
					"external": {
						"beneficiaryDetails(address,uint256)": "infinite",
						"checkBalance()": "infinite",
						"lockTokens(address,uint256,uint256,uint256,uint256)": "infinite",
						"releasedTokens(address,uint256)": "infinite",
						"token()": "infinite",
						"tokensLeft()": "2451",
						"whitelist(address,address)": "infinite",
						"whitelistTokens(address)": "infinite",
						"withdrawTokens(uint8)": "infinite"
					},
					"internal": {
						"unlockTokens(uint8)": "infinite"
					}
				},
				"methodIdentifiers": {
					"beneficiaryDetails(address,uint256)": "73ce12d4",
					"checkBalance()": "c71daccb",
					"lockTokens(address,uint256,uint256,uint256,uint256)": "3ce301e5",
					"releasedTokens(address,uint256)": "eef0934b",
					"token()": "fc0c546a",
					"tokensLeft()": "b31f8f93",
					"whitelist(address,address)": "b092145e",
					"whitelistTokens(address)": "5fb2386e",
					"withdrawTokens(uint8)": "b1b39337"
				}
			},
			"storageLayout": {
				"storage": [
					{
						"astId": 5,
						"contract": "Contracts/vesting.sol:vesting",
						"label": "token",
						"offset": 0,
						"slot": "0",
						"type": "t_contract(IERC20)427"
					},
					{
						"astId": 7,
						"contract": "Contracts/vesting.sol:vesting",
						"label": "tokensLeft",
						"offset": 0,
						"slot": "1",
						"type": "t_uint256"
					},
					{
						"astId": 30,
						"contract": "Contracts/vesting.sol:vesting",
						"label": "beneficiaryDetails",
						"offset": 0,
						"slot": "2",
						"type": "t_mapping(t_address,t_array(t_struct(beneficiarydata)24_storage)dyn_storage)"
					},
					{
						"astId": 36,
						"contract": "Contracts/vesting.sol:vesting",
						"label": "releasedTokens",
						"offset": 0,
						"slot": "3",
						"type": "t_mapping(t_address,t_mapping(t_uint256,t_uint256))"
					},
					{
						"astId": 42,
						"contract": "Contracts/vesting.sol:vesting",
						"label": "whitelist",
						"offset": 0,
						"slot": "4",
						"type": "t_mapping(t_address,t_mapping(t_address,t_bool))"
					}
				],
				"types": {
					"t_address": {
						"encoding": "inplace",
						"label": "address",
						"numberOfBytes": "20"
					},
					"t_array(t_struct(beneficiarydata)24_storage)dyn_storage": {
						"base": "t_struct(beneficiarydata)24_storage",
						"encoding": "dynamic_array",
						"label": "struct vesting.beneficiarydata[]",
						"numberOfBytes": "32"
					},
					"t_bool": {
						"encoding": "inplace",
						"label": "bool",
						"numberOfBytes": "1"
					},
					"t_contract(IERC20)427": {
						"encoding": "inplace",
						"label": "contract IERC20",
						"numberOfBytes": "20"
					},
					"t_mapping(t_address,t_array(t_struct(beneficiarydata)24_storage)dyn_storage)": {
						"encoding": "mapping",
						"key": "t_address",
						"label": "mapping(address => struct vesting.beneficiarydata[])",
						"numberOfBytes": "32",
						"value": "t_array(t_struct(beneficiarydata)24_storage)dyn_storage"
					},
					"t_mapping(t_address,t_bool)": {
						"encoding": "mapping",
						"key": "t_address",
						"label": "mapping(address => bool)",
						"numberOfBytes": "32",
						"value": "t_bool"
					},
					"t_mapping(t_address,t_mapping(t_address,t_bool))": {
						"encoding": "mapping",
						"key": "t_address",
						"label": "mapping(address => mapping(address => bool))",
						"numberOfBytes": "32",
						"value": "t_mapping(t_address,t_bool)"
					},
					"t_mapping(t_address,t_mapping(t_uint256,t_uint256))": {
						"encoding": "mapping",
						"key": "t_address",
						"label": "mapping(address => mapping(uint256 => uint256))",
						"numberOfBytes": "32",
						"value": "t_mapping(t_uint256,t_uint256)"
					},
					"t_mapping(t_uint256,t_uint256)": {
						"encoding": "mapping",
						"key": "t_uint256",
						"label": "mapping(uint256 => uint256)",
						"numberOfBytes": "32",
						"value": "t_uint256"
					},
					"t_struct(beneficiarydata)24_storage": {
						"encoding": "inplace",
						"label": "struct vesting.beneficiarydata",
						"members": [
							{
								"astId": 9,
								"contract": "Contracts/vesting.sol:vesting",
								"label": "addressOfToken",
								"offset": 0,
								"slot": "0",
								"type": "t_address"
							},
							{
								"astId": 11,
								"contract": "Contracts/vesting.sol:vesting",
								"label": "beneficiary",
								"offset": 0,
								"slot": "1",
								"type": "t_address"
							},
							{
								"astId": 13,
								"contract": "Contracts/vesting.sol:vesting",
								"label": "noOfTokens",
								"offset": 0,
								"slot": "2",
								"type": "t_uint256"
							},
							{
								"astId": 15,
								"contract": "Contracts/vesting.sol:vesting",
								"label": "cliff",
								"offset": 0,
								"slot": "3",
								"type": "t_uint256"
							},
							{
								"astId": 17,
								"contract": "Contracts/vesting.sol:vesting",
								"label": "startTime",
								"offset": 0,
								"slot": "4",
								"type": "t_uint256"
							},
							{
								"astId": 19,
								"contract": "Contracts/vesting.sol:vesting",
								"label": "duration",
								"offset": 0,
								"slot": "5",
								"type": "t_uint256"
							},
							{
								"astId": 21,
								"contract": "Contracts/vesting.sol:vesting",
								"label": "slicePeriod",
								"offset": 0,
								"slot": "6",
								"type": "t_uint256"
							},
							{
								"astId": 23,
								"contract": "Contracts/vesting.sol:vesting",
								"label": "locked",
								"offset": 0,
								"slot": "7",
								"type": "t_bool"
							}
						],
						"numberOfBytes": "256"
					},
					"t_uint256": {
						"encoding": "inplace",
						"label": "uint256",
						"numberOfBytes": "32"
					}
				}
			},
			"userdoc": {
				"kind": "user",
				"methods": {},
				"version": 1
			}
		}
	}
}