{
	"Contracts/vesting.sol": {
		"vesting": {
			"abi": [
				{
					"anonymous": false,
					"inputs": [
						{
							"indexed": false,
							"internalType": "address",
							"name": "beneficiary",
							"type": "address"
						},
						{
							"indexed": false,
							"internalType": "address",
							"name": "Tokenaddrress",
							"type": "address"
						},
						{
							"indexed": false,
							"internalType": "uint256",
							"name": "tokens",
							"type": "uint256"
						}
					],
					"name": "tokensLocked",
					"type": "event"
				},
				{
					"anonymous": false,
					"inputs": [
						{
							"indexed": false,
							"internalType": "address",
							"name": "beneficiary",
							"type": "address"
						},
						{
							"indexed": false,
							"internalType": "address",
							"name": "Tokenaddrress",
							"type": "address"
						},
						{
							"indexed": false,
							"internalType": "uint256",
							"name": "tokens",
							"type": "uint256"
						}
					],
					"name": "tokensWithdrawn",
					"type": "event"
				},
				{
					"inputs": [
						{
							"internalType": "address",
							"name": "",
							"type": "address"
						},
						{
							"internalType": "uint256",
							"name": "",
							"type": "uint256"
						}
					],
					"name": "beneficiaryDetails",
					"outputs": [
						{
							"internalType": "address",
							"name": "addressOfToken",
							"type": "address"
						},
						{
							"internalType": "address",
							"name": "beneficiary",
							"type": "address"
						},
						{
							"internalType": "uint8",
							"name": "noOfTokens",
							"type": "uint8"
						},
						{
							"internalType": "uint8",
							"name": "cliff",
							"type": "uint8"
						},
						{
							"internalType": "uint8",
							"name": "startTime",
							"type": "uint8"
						},
						{
							"internalType": "uint8",
							"name": "duration",
							"type": "uint8"
						},
						{
							"internalType": "uint8",
							"name": "slicePeriod",
							"type": "uint8"
						},
						{
							"internalType": "bool",
							"name": "locked",
							"type": "bool"
						}
					],
					"stateMutability": "view",
					"type": "function"
				},
				{
					"inputs": [],
					"name": "checkBalance",
					"outputs": [
						{
							"internalType": "uint256",
							"name": "",
							"type": "uint256"
						}
					],
					"stateMutability": "view",
					"type": "function"
				},
				{
					"inputs": [
						{
							"internalType": "address",
							"name": "_tokenaddress",
							"type": "address"
						},
						{
							"internalType": "uint8",
							"name": "_noOfTokens",
							"type": "uint8"
						},
						{
							"internalType": "uint8",
							"name": "_cliff",
							"type": "uint8"
						},
						{
							"internalType": "uint8",
							"name": "_duration",
							"type": "uint8"
						},
						{
							"internalType": "uint8",
							"name": "_sliceperiod",
							"type": "uint8"
						}
					],
					"name": "lockTokens",
					"outputs": [],
					"stateMutability": "nonpayable",
					"type": "function"
				},
				{
					"inputs": [
						{
							"internalType": "address",
							"name": "",
							"type": "address"
						},
						{
							"internalType": "uint256",
							"name": "",
							"type": "uint256"
						}
					],
					"name": "releasedTokens",
					"outputs": [
						{
							"internalType": "uint256",
							"name": "",
							"type": "uint256"
						}
					],
					"stateMutability": "view",
					"type": "function"
				},
				{
					"inputs": [
						{
							"internalType": "address",
							"name": "",
							"type": "address"
						},
						{
							"internalType": "address",
							"name": "",
							"type": "address"
						}
					],
					"name": "whitelist",
					"outputs": [
						{
							"internalType": "bool",
							"name": "",
							"type": "bool"
						}
					],
					"stateMutability": "view",
					"type": "function"
				},
				{
					"inputs": [
						{
							"internalType": "address",
							"name": "_tokenaddress",
							"type": "address"
						}
					],
					"name": "whitelistTokens",
					"outputs": [],
					"stateMutability": "nonpayable",
					"type": "function"
				},
				{
					"inputs": [
						{
							"internalType": "uint8",
							"name": "index",
							"type": "uint8"
						}
					],
					"name": "withdrawTokens",
					"outputs": [],
					"stateMutability": "nonpayable",
					"type": "function"
				}
			],
			"devdoc": {
				"kind": "dev",
				"methods": {},
				"version": 1
			},
			"evm": {
				"assembly": "    /* \"Contracts/vesting.sol\":177:3511  contract vesting{... */\n  mstore(0x40, 0x80)\n  callvalue\n  dup1\n  iszero\n  tag_1\n  jumpi\n  0x00\n  dup1\n  revert\ntag_1:\n  pop\n  dataSize(sub_0)\n  dup1\n  dataOffset(sub_0)\n  0x00\n  codecopy\n  0x00\n  return\nstop\n\nsub_0: assembly {\n        /* \"Contracts/vesting.sol\":177:3511  contract vesting{... */\n      mstore(0x40, 0x80)\n      callvalue\n      dup1\n      iszero\n      tag_1\n      jumpi\n      0x00\n      dup1\n      revert\n    tag_1:\n      pop\n      jumpi(tag_2, lt(calldatasize, 0x04))\n      shr(0xe0, calldataload(0x00))\n      dup1\n      0xb092145e\n      gt\n      tag_10\n      jumpi\n      dup1\n      0xb092145e\n      eq\n      tag_6\n      jumpi\n      dup1\n      0xb1b39337\n      eq\n      tag_7\n      jumpi\n      dup1\n      0xc71daccb\n      eq\n      tag_8\n      jumpi\n      dup1\n      0xeef0934b\n      eq\n      tag_9\n      jumpi\n      jump(tag_2)\n    tag_10:\n      dup1\n      0x5fb2386e\n      eq\n      tag_3\n      jumpi\n      dup1\n      0x73ce12d4\n      eq\n      tag_4\n      jumpi\n      dup1\n      0x79c15cad\n      eq\n      tag_5\n      jumpi\n    tag_2:\n      0x00\n      dup1\n      revert\n        /* \"Contracts/vesting.sol\":918:1034  function whitelistTokens(address _tokenaddress) external{... */\n    tag_3:\n      tag_11\n      0x04\n      dup1\n      calldatasize\n      sub\n      dup2\n      add\n      swap1\n      tag_12\n      swap2\n      swap1\n      tag_13\n      jump\t// in\n    tag_12:\n      tag_14\n      jump\t// in\n    tag_11:\n      stop\n        /* \"Contracts/vesting.sol\":467:530  mapping (address => beneficiarydata[])public beneficiaryDetails */\n    tag_4:\n      tag_15\n      0x04\n      dup1\n      calldatasize\n      sub\n      dup2\n      add\n      swap1\n      tag_16\n      swap2\n      swap1\n      tag_17\n      jump\t// in\n    tag_16:\n      tag_18\n      jump\t// in\n    tag_15:\n      mload(0x40)\n      tag_19\n      swap9\n      swap8\n      swap7\n      swap6\n      swap5\n      swap4\n      swap3\n      swap2\n      swap1\n      tag_20\n      jump\t// in\n    tag_19:\n      mload(0x40)\n      dup1\n      swap2\n      sub\n      swap1\n      return\n        /* \"Contracts/vesting.sol\":1151:2063  function lockTokens(address _tokenaddress,uint8 _noOfTokens,uint8 _cliff,uint8 _duration,uint8 _sliceperiod) external{... */\n    tag_5:\n      tag_21\n      0x04\n      dup1\n      calldatasize\n      sub\n      dup2\n      add\n      swap1\n      tag_22\n      swap2\n      swap1\n      tag_23\n      jump\t// in\n    tag_22:\n      tag_24\n      jump\t// in\n    tag_21:\n      stop\n        /* \"Contracts/vesting.sol\":592:654  mapping (address => mapping(address => bool)) public whitelist */\n    tag_6:\n      tag_25\n      0x04\n      dup1\n      calldatasize\n      sub\n      dup2\n      add\n      swap1\n      tag_26\n      swap2\n      swap1\n      tag_27\n      jump\t// in\n    tag_26:\n      tag_28\n      jump\t// in\n    tag_25:\n      mload(0x40)\n      tag_29\n      swap2\n      swap1\n      tag_30\n      jump\t// in\n    tag_29:\n      mload(0x40)\n      dup1\n      swap2\n      sub\n      swap1\n      return\n        /* \"Contracts/vesting.sol\":2072:2676  function withdrawTokens(uint8 index) external{... */\n    tag_7:\n      tag_31\n      0x04\n      dup1\n      calldatasize\n      sub\n      dup2\n      add\n      swap1\n      tag_32\n      swap2\n      swap1\n      tag_33\n      jump\t// in\n    tag_32:\n      tag_34\n      jump\t// in\n    tag_31:\n      stop\n        /* \"Contracts/vesting.sol\":1040:1145  function checkBalance() external view returns(uint){... */\n    tag_8:\n      tag_35\n      tag_36\n      jump\t// in\n    tag_35:\n      mload(0x40)\n      tag_37\n      swap2\n      swap1\n      tag_38\n      jump\t// in\n    tag_37:\n      mload(0x40)\n      dup1\n      swap2\n      sub\n      swap1\n      return\n        /* \"Contracts/vesting.sol\":537:586  mapping (address => uint[]) public releasedTokens */\n    tag_9:\n      tag_39\n      0x04\n      dup1\n      calldatasize\n      sub\n      dup2\n      add\n      swap1\n      tag_40\n      swap2\n      swap1\n      tag_17\n      jump\t// in\n    tag_40:\n      tag_41\n      jump\t// in\n    tag_39:\n      mload(0x40)\n      tag_42\n      swap2\n      swap1\n      tag_38\n      jump\t// in\n    tag_42:\n      mload(0x40)\n      dup1\n      swap2\n      sub\n      swap1\n      return\n        /* \"Contracts/vesting.sol\":918:1034  function whitelistTokens(address _tokenaddress) external{... */\n    tag_14:\n        /* \"Contracts/vesting.sol\":1023:1027  true */\n      0x01\n        /* \"Contracts/vesting.sol\":984:993  whitelist */\n      0x03\n        /* \"Contracts/vesting.sol\":984:1005  whitelist[msg.sender] */\n      0x00\n        /* \"Contracts/vesting.sol\":994:1004  msg.sender */\n      caller\n        /* \"Contracts/vesting.sol\":984:1005  whitelist[msg.sender] */\n      0xffffffffffffffffffffffffffffffffffffffff\n      and\n      0xffffffffffffffffffffffffffffffffffffffff\n      and\n      dup2\n      mstore\n      0x20\n      add\n      swap1\n      dup2\n      mstore\n      0x20\n      add\n      0x00\n      keccak256\n        /* \"Contracts/vesting.sol\":984:1020  whitelist[msg.sender][_tokenaddress] */\n      0x00\n        /* \"Contracts/vesting.sol\":1006:1019  _tokenaddress */\n      dup4\n        /* \"Contracts/vesting.sol\":984:1020  whitelist[msg.sender][_tokenaddress] */\n      0xffffffffffffffffffffffffffffffffffffffff\n      and\n      0xffffffffffffffffffffffffffffffffffffffff\n      and\n      dup2\n      mstore\n      0x20\n      add\n      swap1\n      dup2\n      mstore\n      0x20\n      add\n      0x00\n      keccak256\n      0x00\n        /* \"Contracts/vesting.sol\":984:1027  whitelist[msg.sender][_tokenaddress] = true */\n      0x0100\n      exp\n      dup2\n      sload\n      dup2\n      0xff\n      mul\n      not\n      and\n      swap1\n      dup4\n      iszero\n      iszero\n      mul\n      or\n      swap1\n      sstore\n      pop\n        /* \"Contracts/vesting.sol\":918:1034  function whitelistTokens(address _tokenaddress) external{... */\n      pop\n      jump\t// out\n        /* \"Contracts/vesting.sol\":467:530  mapping (address => beneficiarydata[])public beneficiaryDetails */\n    tag_18:\n      mstore(0x20, 0x01)\n      dup2\n      0x00\n      mstore\n      keccak256(0x00, 0x40)\n      dup2\n      dup2\n      sload\n      dup2\n      lt\n      tag_44\n      jumpi\n      0x00\n      dup1\n      revert\n    tag_44:\n      swap1\n      0x00\n      mstore\n      keccak256(0x00, 0x20)\n      swap1\n      0x02\n      mul\n      add\n      0x00\n      swap2\n      pop\n      swap2\n      pop\n      pop\n      dup1\n      0x00\n      add\n      0x00\n      swap1\n      sload\n      swap1\n      0x0100\n      exp\n      swap1\n      div\n      0xffffffffffffffffffffffffffffffffffffffff\n      and\n      swap1\n      dup1\n      0x01\n      add\n      0x00\n      swap1\n      sload\n      swap1\n      0x0100\n      exp\n      swap1\n      div\n      0xffffffffffffffffffffffffffffffffffffffff\n      and\n      swap1\n      dup1\n      0x01\n      add\n      0x14\n      swap1\n      sload\n      swap1\n      0x0100\n      exp\n      swap1\n      div\n      0xff\n      and\n      swap1\n      dup1\n      0x01\n      add\n      0x15\n      swap1\n      sload\n      swap1\n      0x0100\n      exp\n      swap1\n      div\n      0xff\n      and\n      swap1\n      dup1\n      0x01\n      add\n      0x16\n      swap1\n      sload\n      swap1\n      0x0100\n      exp\n      swap1\n      div\n      0xff\n      and\n      swap1\n      dup1\n      0x01\n      add\n      0x17\n      swap1\n      sload\n      swap1\n      0x0100\n      exp\n      swap1\n      div\n      0xff\n      and\n      swap1\n      dup1\n      0x01\n      add\n      0x18\n      swap1\n      sload\n      swap1\n      0x0100\n      exp\n      swap1\n      div\n      0xff\n      and\n      swap1\n      dup1\n      0x01\n      add\n      0x19\n      swap1\n      sload\n      swap1\n      0x0100\n      exp\n      swap1\n      div\n      0xff\n      and\n      swap1\n      pop\n      dup9\n      jump\t// out\n        /* \"Contracts/vesting.sol\":1151:2063  function lockTokens(address _tokenaddress,uint8 _noOfTokens,uint8 _cliff,uint8 _duration,uint8 _sliceperiod) external{... */\n    tag_24:\n        /* \"Contracts/vesting.sol\":1286:1295  whitelist */\n      0x03\n        /* \"Contracts/vesting.sol\":1286:1307  whitelist[msg.sender] */\n      0x00\n        /* \"Contracts/vesting.sol\":1296:1306  msg.sender */\n      caller\n        /* \"Contracts/vesting.sol\":1286:1307  whitelist[msg.sender] */\n      0xffffffffffffffffffffffffffffffffffffffff\n      and\n      0xffffffffffffffffffffffffffffffffffffffff\n      and\n      dup2\n      mstore\n      0x20\n      add\n      swap1\n      dup2\n      mstore\n      0x20\n      add\n      0x00\n      keccak256\n        /* \"Contracts/vesting.sol\":1286:1322  whitelist[msg.sender][_tokenaddress] */\n      0x00\n        /* \"Contracts/vesting.sol\":1308:1321  _tokenaddress */\n      dup7\n        /* \"Contracts/vesting.sol\":1286:1322  whitelist[msg.sender][_tokenaddress] */\n      0xffffffffffffffffffffffffffffffffffffffff\n      and\n      0xffffffffffffffffffffffffffffffffffffffff\n      and\n      dup2\n      mstore\n      0x20\n      add\n      swap1\n      dup2\n      mstore\n      0x20\n      add\n      0x00\n      keccak256\n      0x00\n      swap1\n      sload\n      swap1\n      0x0100\n      exp\n      swap1\n      div\n      0xff\n      and\n        /* \"Contracts/vesting.sol\":1278:1346  require(whitelist[msg.sender][_tokenaddress],\"Token is not allowed\") */\n      tag_47\n      jumpi\n      mload(0x40)\n      0x08c379a000000000000000000000000000000000000000000000000000000000\n      dup2\n      mstore\n      0x04\n      add\n      tag_48\n      swap1\n      tag_49\n      jump\t// in\n    tag_48:\n      mload(0x40)\n      dup1\n      swap2\n      sub\n      swap1\n      revert\n    tag_47:\n        /* \"Contracts/vesting.sol\":1376:1377  0 */\n      0x00\n        /* \"Contracts/vesting.sol\":1364:1375  _noOfTokens */\n      dup5\n        /* \"Contracts/vesting.sol\":1364:1377  _noOfTokens>0 */\n      0xff\n      and\n      gt\n        /* \"Contracts/vesting.sol\":1356:1378  require(_noOfTokens>0) */\n      tag_50\n      jumpi\n      0x00\n      dup1\n      revert\n    tag_50:\n        /* \"Contracts/vesting.sol\":1403:1416  _tokenaddress */\n      dup5\n        /* \"Contracts/vesting.sol\":1388:1393  token */\n      0x00\n      dup1\n        /* \"Contracts/vesting.sol\":1388:1417  token = IERC20(_tokenaddress) */\n      0x0100\n      exp\n      dup2\n      sload\n      dup2\n      0xffffffffffffffffffffffffffffffffffffffff\n      mul\n      not\n      and\n      swap1\n      dup4\n      0xffffffffffffffffffffffffffffffffffffffff\n      and\n      mul\n      or\n      swap1\n      sstore\n      pop\n        /* \"Contracts/vesting.sol\":1427:1456  beneficiarydata memory person */\n      0x00\n        /* \"Contracts/vesting.sol\":1459:1774  beneficiarydata({... */\n      mload(0x40)\n      dup1\n      0x0100\n      add\n      0x40\n      mstore\n      dup1\n        /* \"Contracts/vesting.sol\":1504:1517  _tokenaddress */\n      dup8\n        /* \"Contracts/vesting.sol\":1459:1774  beneficiarydata({... */\n      0xffffffffffffffffffffffffffffffffffffffff\n      and\n      dup2\n      mstore\n      0x20\n      add\n        /* \"Contracts/vesting.sol\":1543:1553  msg.sender */\n      caller\n        /* \"Contracts/vesting.sol\":1459:1774  beneficiarydata({... */\n      0xffffffffffffffffffffffffffffffffffffffff\n      and\n      dup2\n      mstore\n      0x20\n      add\n        /* \"Contracts/vesting.sol\":1578:1589  _noOfTokens */\n      dup7\n        /* \"Contracts/vesting.sol\":1459:1774  beneficiarydata({... */\n      0xff\n      and\n      dup2\n      mstore\n      0x20\n      add\n        /* \"Contracts/vesting.sol\":1609:1615  _cliff */\n      dup6\n        /* \"Contracts/vesting.sol\":1459:1774  beneficiarydata({... */\n      0xff\n      and\n      dup2\n      mstore\n      0x20\n      add\n        /* \"Contracts/vesting.sol\":1662:1668  _cliff */\n      dup6\n        /* \"Contracts/vesting.sol\":1645:1660  block.timestamp */\n      timestamp\n        /* \"Contracts/vesting.sol\":1639:1668  uint8(block.timestamp)+_cliff */\n      tag_51\n      swap2\n      swap1\n      tag_52\n      jump\t// in\n    tag_51:\n        /* \"Contracts/vesting.sol\":1459:1774  beneficiarydata({... */\n      0xff\n      and\n      dup2\n      mstore\n      0x20\n      add\n        /* \"Contracts/vesting.sol\":1691:1700  _duration */\n      dup5\n        /* \"Contracts/vesting.sol\":1459:1774  beneficiarydata({... */\n      0xff\n      and\n      dup2\n      mstore\n      0x20\n      add\n        /* \"Contracts/vesting.sol\":1726:1738  _sliceperiod */\n      dup4\n        /* \"Contracts/vesting.sol\":1459:1774  beneficiarydata({... */\n      0xff\n      and\n      dup2\n      mstore\n      0x20\n      add\n        /* \"Contracts/vesting.sol\":1759:1763  true */\n      0x01\n        /* \"Contracts/vesting.sol\":1459:1774  beneficiarydata({... */\n      iszero\n      iszero\n      dup2\n      mstore\n      pop\n        /* \"Contracts/vesting.sol\":1427:1774  beneficiarydata memory person = beneficiarydata({... */\n      swap1\n      pop\n        /* \"Contracts/vesting.sol\":1784:1802  beneficiaryDetails */\n      0x01\n        /* \"Contracts/vesting.sol\":1784:1814  beneficiaryDetails[msg.sender] */\n      0x00\n        /* \"Contracts/vesting.sol\":1803:1813  msg.sender */\n      caller\n        /* \"Contracts/vesting.sol\":1784:1814  beneficiaryDetails[msg.sender] */\n      0xffffffffffffffffffffffffffffffffffffffff\n      and\n      0xffffffffffffffffffffffffffffffffffffffff\n      and\n      dup2\n      mstore\n      0x20\n      add\n      swap1\n      dup2\n      mstore\n      0x20\n      add\n      0x00\n      keccak256\n        /* \"Contracts/vesting.sol\":1820:1826  person */\n      dup2\n        /* \"Contracts/vesting.sol\":1784:1827  beneficiaryDetails[msg.sender].push(person) */\n      swap1\n      dup1\n      0x01\n      dup2\n      sload\n      add\n      dup1\n      dup3\n      sstore\n      dup1\n      swap2\n      pop\n      pop\n      0x01\n      swap1\n      sub\n      swap1\n      0x00\n      mstore\n      keccak256(0x00, 0x20)\n      swap1\n      0x02\n      mul\n      add\n      0x00\n      swap1\n      swap2\n      swap1\n      swap2\n      swap1\n      swap2\n      pop\n      0x00\n      dup3\n      add\n      mload\n      dup2\n      0x00\n      add\n      exp(0x0100, 0x00)\n      dup2\n      sload\n      dup2\n      0xffffffffffffffffffffffffffffffffffffffff\n      mul\n      not\n      and\n      swap1\n      dup4\n      0xffffffffffffffffffffffffffffffffffffffff\n      and\n      mul\n      or\n      swap1\n      sstore\n      pop\n      0x20\n      dup3\n      add\n      mload\n      dup2\n      0x01\n      add\n      exp(0x0100, 0x00)\n      dup2\n      sload\n      dup2\n      0xffffffffffffffffffffffffffffffffffffffff\n      mul\n      not\n      and\n      swap1\n      dup4\n      0xffffffffffffffffffffffffffffffffffffffff\n      and\n      mul\n      or\n      swap1\n      sstore\n      pop\n      0x40\n      dup3\n      add\n      mload\n      dup2\n      0x01\n      add\n      exp(0x0100, 0x14)\n      dup2\n      sload\n      dup2\n      0xff\n      mul\n      not\n      and\n      swap1\n      dup4\n      0xff\n      and\n      mul\n      or\n      swap1\n      sstore\n      pop\n      0x60\n      dup3\n      add\n      mload\n      dup2\n      0x01\n      add\n      exp(0x0100, 0x15)\n      dup2\n      sload\n      dup2\n      0xff\n      mul\n      not\n      and\n      swap1\n      dup4\n      0xff\n      and\n      mul\n      or\n      swap1\n      sstore\n      pop\n      0x80\n      dup3\n      add\n      mload\n      dup2\n      0x01\n      add\n      exp(0x0100, 0x16)\n      dup2\n      sload\n      dup2\n      0xff\n      mul\n      not\n      and\n      swap1\n      dup4\n      0xff\n      and\n      mul\n      or\n      swap1\n      sstore\n      pop\n      0xa0\n      dup3\n      add\n      mload\n      dup2\n      0x01\n      add\n      exp(0x0100, 0x17)\n      dup2\n      sload\n      dup2\n      0xff\n      mul\n      not\n      and\n      swap1\n      dup4\n      0xff\n      and\n      mul\n      or\n      swap1\n      sstore\n      pop\n      0xc0\n      dup3\n      add\n      mload\n      dup2\n      0x01\n      add\n      exp(0x0100, 0x18)\n      dup2\n      sload\n      dup2\n      0xff\n      mul\n      not\n      and\n      swap1\n      dup4\n      0xff\n      and\n      mul\n      or\n      swap1\n      sstore\n      pop\n      0xe0\n      dup3\n      add\n      mload\n      dup2\n      0x01\n      add\n      exp(0x0100, 0x19)\n      dup2\n      sload\n      dup2\n      0xff\n      mul\n      not\n      and\n      swap1\n      dup4\n      iszero\n      iszero\n      mul\n      or\n      swap1\n      sstore\n      pop\n      pop\n      pop\n        /* \"Contracts/vesting.sol\":1863:1872  _duration */\n      dup3\n        /* \"Contracts/vesting.sol\":1846:1872  person.startTime<_duration */\n      0xff\n      and\n        /* \"Contracts/vesting.sol\":1846:1852  person */\n      dup2\n        /* \"Contracts/vesting.sol\":1846:1862  person.startTime */\n      0x80\n      add\n      mload\n        /* \"Contracts/vesting.sol\":1846:1872  person.startTime<_duration */\n      0xff\n      and\n      lt\n        /* \"Contracts/vesting.sol\":1838:1873  require(person.startTime<_duration) */\n      tag_54\n      jumpi\n      0x00\n      dup1\n      revert\n    tag_54:\n        /* \"Contracts/vesting.sol\":1935:1940  token */\n      0x00\n      dup1\n      sload\n      swap1\n      0x0100\n      exp\n      swap1\n      div\n      0xffffffffffffffffffffffffffffffffffffffff\n      and\n        /* \"Contracts/vesting.sol\":1935:1953  token.transferFrom */\n      0xffffffffffffffffffffffffffffffffffffffff\n      and\n      0x23b872dd\n        /* \"Contracts/vesting.sol\":1954:1964  msg.sender */\n      caller\n        /* \"Contracts/vesting.sol\":1973:1977  this */\n      address\n        /* \"Contracts/vesting.sol\":1979:1990  _noOfTokens */\n      dup9\n        /* \"Contracts/vesting.sol\":1935:1991  token.transferFrom(msg.sender,address(this),_noOfTokens) */\n      mload(0x40)\n      dup5\n      0xffffffff\n      and\n      0xe0\n      shl\n      dup2\n      mstore\n      0x04\n      add\n      tag_55\n      swap4\n      swap3\n      swap2\n      swap1\n      tag_56\n      jump\t// in\n    tag_55:\n      0x20\n      mload(0x40)\n      dup1\n      dup4\n      sub\n      dup2\n      0x00\n      dup8\n      gas\n      call\n      iszero\n      dup1\n      iszero\n      tag_58\n      jumpi\n      returndatasize\n      0x00\n      dup1\n      returndatacopy\n      revert(0x00, returndatasize)\n    tag_58:\n      pop\n      pop\n      pop\n      pop\n      mload(0x40)\n      returndatasize\n      not(0x1f)\n      0x1f\n      dup3\n      add\n      and\n      dup3\n      add\n      dup1\n      0x40\n      mstore\n      pop\n      dup2\n      add\n      swap1\n      tag_59\n      swap2\n      swap1\n      tag_60\n      jump\t// in\n    tag_59:\n      pop\n        /* \"Contracts/vesting.sol\":2006:2056  tokensLocked(msg.sender,_tokenaddress,_noOfTokens) */\n      0xaadb2f2750cbb4162df8d5f0c90b7562c816e56441c31f6acf40a6c9cd201c58\n        /* \"Contracts/vesting.sol\":2019:2029  msg.sender */\n      caller\n        /* \"Contracts/vesting.sol\":2030:2043  _tokenaddress */\n      dup8\n        /* \"Contracts/vesting.sol\":2044:2055  _noOfTokens */\n      dup8\n        /* \"Contracts/vesting.sol\":2006:2056  tokensLocked(msg.sender,_tokenaddress,_noOfTokens) */\n      mload(0x40)\n      tag_61\n      swap4\n      swap3\n      swap2\n      swap1\n      tag_56\n      jump\t// in\n    tag_61:\n      mload(0x40)\n      dup1\n      swap2\n      sub\n      swap1\n      log1\n        /* \"Contracts/vesting.sol\":1268:2063  {... */\n      pop\n        /* \"Contracts/vesting.sol\":1151:2063  function lockTokens(address _tokenaddress,uint8 _noOfTokens,uint8 _cliff,uint8 _duration,uint8 _sliceperiod) external{... */\n      pop\n      pop\n      pop\n      pop\n      pop\n      jump\t// out\n        /* \"Contracts/vesting.sol\":592:654  mapping (address => mapping(address => bool)) public whitelist */\n    tag_28:\n      mstore(0x20, 0x03)\n      dup2\n      0x00\n      mstore\n      mstore(0x20, keccak256(0x00, 0x40))\n      dup1\n      0x00\n      mstore\n      keccak256(0x00, 0x40)\n      0x00\n      swap2\n      pop\n      swap2\n      pop\n      swap1\n      sload\n      swap1\n      0x0100\n      exp\n      swap1\n      div\n      0xff\n      and\n      dup2\n      jump\t// out\n        /* \"Contracts/vesting.sol\":2072:2676  function withdrawTokens(uint8 index) external{... */\n    tag_34:\n        /* \"Contracts/vesting.sol\":2322:2337  uint tokensLeft */\n      0x00\n        /* \"Contracts/vesting.sol\":2340:2359  unlockTokens(index) */\n      tag_63\n        /* \"Contracts/vesting.sol\":2353:2358  index */\n      dup3\n        /* \"Contracts/vesting.sol\":2340:2352  unlockTokens */\n      tag_64\n        /* \"Contracts/vesting.sol\":2340:2359  unlockTokens(index) */\n      jump\t// in\n    tag_63:\n        /* \"Contracts/vesting.sol\":2322:2359  uint tokensLeft = unlockTokens(index) */\n      swap1\n      pop\n        /* \"Contracts/vesting.sol\":2389:2390  0 */\n      0x00\n        /* \"Contracts/vesting.sol\":2377:2387  tokensLeft */\n      dup2\n        /* \"Contracts/vesting.sol\":2377:2390  tokensLeft!=0 */\n      sub\n        /* \"Contracts/vesting.sol\":2369:2391  require(tokensLeft!=0) */\n      tag_65\n      jumpi\n      0x00\n      dup1\n      revert\n    tag_65:\n        /* \"Contracts/vesting.sol\":2401:2406  token */\n      0x00\n      dup1\n      sload\n      swap1\n      0x0100\n      exp\n      swap1\n      div\n      0xffffffffffffffffffffffffffffffffffffffff\n      and\n        /* \"Contracts/vesting.sol\":2401:2415  token.transfer */\n      0xffffffffffffffffffffffffffffffffffffffff\n      and\n      0xa9059cbb\n        /* \"Contracts/vesting.sol\":2416:2426  msg.sender */\n      caller\n        /* \"Contracts/vesting.sol\":2427:2437  tokensLeft */\n      dup4\n        /* \"Contracts/vesting.sol\":2401:2438  token.transfer(msg.sender,tokensLeft) */\n      mload(0x40)\n      dup4\n      0xffffffff\n      and\n      0xe0\n      shl\n      dup2\n      mstore\n      0x04\n      add\n      tag_66\n      swap3\n      swap2\n      swap1\n      tag_67\n      jump\t// in\n    tag_66:\n      0x20\n      mload(0x40)\n      dup1\n      dup4\n      sub\n      dup2\n      0x00\n      dup8\n      gas\n      call\n      iszero\n      dup1\n      iszero\n      tag_69\n      jumpi\n      returndatasize\n      0x00\n      dup1\n      returndatacopy\n      revert(0x00, returndatasize)\n    tag_69:\n      pop\n      pop\n      pop\n      pop\n      mload(0x40)\n      returndatasize\n      not(0x1f)\n      0x1f\n      dup3\n      add\n      and\n      dup3\n      add\n      dup1\n      0x40\n      mstore\n      pop\n      dup2\n      add\n      swap1\n      tag_70\n      swap2\n      swap1\n      tag_60\n      jump\t// in\n    tag_70:\n      pop\n        /* \"Contracts/vesting.sol\":2483:2493  tokensLeft */\n      dup1\n        /* \"Contracts/vesting.sol\":2448:2462  releasedTokens */\n      0x02\n        /* \"Contracts/vesting.sol\":2448:2474  releasedTokens[msg.sender] */\n      0x00\n        /* \"Contracts/vesting.sol\":2463:2473  msg.sender */\n      caller\n        /* \"Contracts/vesting.sol\":2448:2474  releasedTokens[msg.sender] */\n      0xffffffffffffffffffffffffffffffffffffffff\n      and\n      0xffffffffffffffffffffffffffffffffffffffff\n      and\n      dup2\n      mstore\n      0x20\n      add\n      swap1\n      dup2\n      mstore\n      0x20\n      add\n      0x00\n      keccak256\n        /* \"Contracts/vesting.sol\":2475:2480  index */\n      dup4\n        /* \"Contracts/vesting.sol\":2448:2481  releasedTokens[msg.sender][index] */\n      0xff\n      and\n      dup2\n      sload\n      dup2\n      lt\n      tag_71\n      jumpi\n      tag_72\n      tag_73\n      jump\t// in\n    tag_72:\n    tag_71:\n      swap1\n      0x00\n      mstore\n      keccak256(0x00, 0x20)\n      add\n      0x00\n        /* \"Contracts/vesting.sol\":2448:2493  releasedTokens[msg.sender][index]+=tokensLeft */\n      dup3\n      dup3\n      sload\n      tag_75\n      swap2\n      swap1\n      tag_76\n      jump\t// in\n    tag_75:\n      swap3\n      pop\n      pop\n      dup2\n      swap1\n      sstore\n      pop\n        /* \"Contracts/vesting.sol\":2503:2524  address Tokenaddrress */\n      0x00\n        /* \"Contracts/vesting.sol\":2527:2545  beneficiaryDetails */\n      0x01\n        /* \"Contracts/vesting.sol\":2527:2557  beneficiaryDetails[msg.sender] */\n      0x00\n        /* \"Contracts/vesting.sol\":2546:2556  msg.sender */\n      caller\n        /* \"Contracts/vesting.sol\":2527:2557  beneficiaryDetails[msg.sender] */\n      0xffffffffffffffffffffffffffffffffffffffff\n      and\n      0xffffffffffffffffffffffffffffffffffffffff\n      and\n      dup2\n      mstore\n      0x20\n      add\n      swap1\n      dup2\n      mstore\n      0x20\n      add\n      0x00\n      keccak256\n        /* \"Contracts/vesting.sol\":2558:2563  index */\n      dup4\n        /* \"Contracts/vesting.sol\":2527:2564  beneficiaryDetails[msg.sender][index] */\n      0xff\n      and\n      dup2\n      sload\n      dup2\n      lt\n      tag_77\n      jumpi\n      tag_78\n      tag_73\n      jump\t// in\n    tag_78:\n    tag_77:\n      swap1\n      0x00\n      mstore\n      keccak256(0x00, 0x20)\n      swap1\n      0x02\n      mul\n      add\n        /* \"Contracts/vesting.sol\":2527:2579  beneficiaryDetails[msg.sender][index].addressOfToken */\n      0x00\n      add\n      0x00\n      swap1\n      sload\n      swap1\n      0x0100\n      exp\n      swap1\n      div\n      0xffffffffffffffffffffffffffffffffffffffff\n      and\n        /* \"Contracts/vesting.sol\":2503:2579  address Tokenaddrress = beneficiaryDetails[msg.sender][index].addressOfToken */\n      swap1\n      pop\n        /* \"Contracts/vesting.sol\":2594:2669  tokensWithdrawn(msg.sender,Tokenaddrress,releasedTokens[msg.sender][index]) */\n      0x2e8fbf54cecd6c94b9cc0a4444bef56d7836157ea1f144da84df7e568c9ae482\n        /* \"Contracts/vesting.sol\":2610:2620  msg.sender */\n      caller\n        /* \"Contracts/vesting.sol\":2621:2634  Tokenaddrress */\n      dup3\n        /* \"Contracts/vesting.sol\":2635:2649  releasedTokens */\n      0x02\n        /* \"Contracts/vesting.sol\":2635:2661  releasedTokens[msg.sender] */\n      0x00\n        /* \"Contracts/vesting.sol\":2650:2660  msg.sender */\n      caller\n        /* \"Contracts/vesting.sol\":2635:2661  releasedTokens[msg.sender] */\n      0xffffffffffffffffffffffffffffffffffffffff\n      and\n      0xffffffffffffffffffffffffffffffffffffffff\n      and\n      dup2\n      mstore\n      0x20\n      add\n      swap1\n      dup2\n      mstore\n      0x20\n      add\n      0x00\n      keccak256\n        /* \"Contracts/vesting.sol\":2662:2667  index */\n      dup7\n        /* \"Contracts/vesting.sol\":2635:2668  releasedTokens[msg.sender][index] */\n      0xff\n      and\n      dup2\n      sload\n      dup2\n      lt\n      tag_80\n      jumpi\n      tag_81\n      tag_73\n      jump\t// in\n    tag_81:\n    tag_80:\n      swap1\n      0x00\n      mstore\n      keccak256(0x00, 0x20)\n      add\n      sload\n        /* \"Contracts/vesting.sol\":2594:2669  tokensWithdrawn(msg.sender,Tokenaddrress,releasedTokens[msg.sender][index]) */\n      mload(0x40)\n      tag_83\n      swap4\n      swap3\n      swap2\n      swap1\n      tag_84\n      jump\t// in\n    tag_83:\n      mload(0x40)\n      dup1\n      swap2\n      sub\n      swap1\n      log1\n        /* \"Contracts/vesting.sol\":2117:2676  {... */\n      pop\n      pop\n        /* \"Contracts/vesting.sol\":2072:2676  function withdrawTokens(uint8 index) external{... */\n      pop\n      jump\t// out\n        /* \"Contracts/vesting.sol\":1040:1145  function checkBalance() external view returns(uint){... */\n    tag_36:\n        /* \"Contracts/vesting.sol\":1086:1090  uint */\n      0x00\n        /* \"Contracts/vesting.sol\":1108:1113  token */\n      dup1\n      0x00\n      swap1\n      sload\n      swap1\n      0x0100\n      exp\n      swap1\n      div\n      0xffffffffffffffffffffffffffffffffffffffff\n      and\n        /* \"Contracts/vesting.sol\":1108:1123  token.balanceOf */\n      0xffffffffffffffffffffffffffffffffffffffff\n      and\n      0x70a08231\n        /* \"Contracts/vesting.sol\":1132:1136  this */\n      address\n        /* \"Contracts/vesting.sol\":1108:1138  token.balanceOf(address(this)) */\n      mload(0x40)\n      dup3\n      0xffffffff\n      and\n      0xe0\n      shl\n      dup2\n      mstore\n      0x04\n      add\n      tag_86\n      swap2\n      swap1\n      tag_87\n      jump\t// in\n    tag_86:\n      0x20\n      mload(0x40)\n      dup1\n      dup4\n      sub\n      dup2\n      dup7\n      gas\n      staticcall\n      iszero\n      dup1\n      iszero\n      tag_89\n      jumpi\n      returndatasize\n      0x00\n      dup1\n      returndatacopy\n      revert(0x00, returndatasize)\n    tag_89:\n      pop\n      pop\n      pop\n      pop\n      mload(0x40)\n      returndatasize\n      not(0x1f)\n      0x1f\n      dup3\n      add\n      and\n      dup3\n      add\n      dup1\n      0x40\n      mstore\n      pop\n      dup2\n      add\n      swap1\n      tag_90\n      swap2\n      swap1\n      tag_91\n      jump\t// in\n    tag_90:\n        /* \"Contracts/vesting.sol\":1101:1138  return token.balanceOf(address(this)) */\n      swap1\n      pop\n        /* \"Contracts/vesting.sol\":1040:1145  function checkBalance() external view returns(uint){... */\n      swap1\n      jump\t// out\n        /* \"Contracts/vesting.sol\":537:586  mapping (address => uint[]) public releasedTokens */\n    tag_41:\n      mstore(0x20, 0x02)\n      dup2\n      0x00\n      mstore\n      keccak256(0x00, 0x40)\n      dup2\n      dup2\n      sload\n      dup2\n      lt\n      tag_92\n      jumpi\n      0x00\n      dup1\n      revert\n    tag_92:\n      swap1\n      0x00\n      mstore\n      keccak256(0x00, 0x20)\n      add\n      0x00\n      swap2\n      pop\n      swap2\n      pop\n      pop\n      sload\n      dup2\n      jump\t// out\n        /* \"Contracts/vesting.sol\":2682:3509  function unlockTokens(uint8 ind) internal view returns(uint) {... */\n    tag_64:\n        /* \"Contracts/vesting.sol\":2737:2741  uint */\n      0x00\n        /* \"Contracts/vesting.sol\":2753:2775  uint8 totalNoOfPeriods */\n      dup1\n        /* \"Contracts/vesting.sol\":2823:2841  beneficiaryDetails */\n      0x01\n        /* \"Contracts/vesting.sol\":2823:2853  beneficiaryDetails[msg.sender] */\n      0x00\n        /* \"Contracts/vesting.sol\":2842:2852  msg.sender */\n      caller\n        /* \"Contracts/vesting.sol\":2823:2853  beneficiaryDetails[msg.sender] */\n      0xffffffffffffffffffffffffffffffffffffffff\n      and\n      0xffffffffffffffffffffffffffffffffffffffff\n      and\n      dup2\n      mstore\n      0x20\n      add\n      swap1\n      dup2\n      mstore\n      0x20\n      add\n      0x00\n      keccak256\n        /* \"Contracts/vesting.sol\":2854:2857  ind */\n      dup4\n        /* \"Contracts/vesting.sol\":2823:2858  beneficiaryDetails[msg.sender][ind] */\n      0xff\n      and\n      dup2\n      sload\n      dup2\n      lt\n      tag_95\n      jumpi\n      tag_96\n      tag_73\n      jump\t// in\n    tag_96:\n    tag_95:\n      swap1\n      0x00\n      mstore\n      keccak256(0x00, 0x20)\n      swap1\n      0x02\n      mul\n      add\n        /* \"Contracts/vesting.sol\":2823:2870  beneficiaryDetails[msg.sender][ind].slicePeriod */\n      0x01\n      add\n      0x18\n      swap1\n      sload\n      swap1\n      0x0100\n      exp\n      swap1\n      div\n      0xff\n      and\n        /* \"Contracts/vesting.sol\":2778:2796  beneficiaryDetails */\n      0x01\n        /* \"Contracts/vesting.sol\":2778:2808  beneficiaryDetails[msg.sender] */\n      0x00\n        /* \"Contracts/vesting.sol\":2797:2807  msg.sender */\n      caller\n        /* \"Contracts/vesting.sol\":2778:2808  beneficiaryDetails[msg.sender] */\n      0xffffffffffffffffffffffffffffffffffffffff\n      and\n      0xffffffffffffffffffffffffffffffffffffffff\n      and\n      dup2\n      mstore\n      0x20\n      add\n      swap1\n      dup2\n      mstore\n      0x20\n      add\n      0x00\n      keccak256\n        /* \"Contracts/vesting.sol\":2809:2812  ind */\n      dup5\n        /* \"Contracts/vesting.sol\":2778:2813  beneficiaryDetails[msg.sender][ind] */\n      0xff\n      and\n      dup2\n      sload\n      dup2\n      lt\n      tag_98\n      jumpi\n      tag_99\n      tag_73\n      jump\t// in\n    tag_99:\n    tag_98:\n      swap1\n      0x00\n      mstore\n      keccak256(0x00, 0x20)\n      swap1\n      0x02\n      mul\n      add\n        /* \"Contracts/vesting.sol\":2778:2822  beneficiaryDetails[msg.sender][ind].duration */\n      0x01\n      add\n      0x17\n      swap1\n      sload\n      swap1\n      0x0100\n      exp\n      swap1\n      div\n      0xff\n      and\n        /* \"Contracts/vesting.sol\":2778:2870  beneficiaryDetails[msg.sender][ind].duration/beneficiaryDetails[msg.sender][ind].slicePeriod */\n      tag_101\n      swap2\n      swap1\n      tag_102\n      jump\t// in\n    tag_101:\n        /* \"Contracts/vesting.sol\":2753:2870  uint8 totalNoOfPeriods = beneficiaryDetails[msg.sender][ind].duration/beneficiaryDetails[msg.sender][ind].slicePeriod */\n      swap1\n      pop\n        /* \"Contracts/vesting.sol\":2880:2901  uint8 tokensPerPeriod */\n      0x00\n        /* \"Contracts/vesting.sol\":2951:2967  totalNoOfPeriods */\n      dup2\n        /* \"Contracts/vesting.sol\":2904:2922  beneficiaryDetails */\n      0x01\n        /* \"Contracts/vesting.sol\":2904:2934  beneficiaryDetails[msg.sender] */\n      0x00\n        /* \"Contracts/vesting.sol\":2923:2933  msg.sender */\n      caller\n        /* \"Contracts/vesting.sol\":2904:2934  beneficiaryDetails[msg.sender] */\n      0xffffffffffffffffffffffffffffffffffffffff\n      and\n      0xffffffffffffffffffffffffffffffffffffffff\n      and\n      dup2\n      mstore\n      0x20\n      add\n      swap1\n      dup2\n      mstore\n      0x20\n      add\n      0x00\n      keccak256\n        /* \"Contracts/vesting.sol\":2935:2938  ind */\n      dup6\n        /* \"Contracts/vesting.sol\":2904:2939  beneficiaryDetails[msg.sender][ind] */\n      0xff\n      and\n      dup2\n      sload\n      dup2\n      lt\n      tag_103\n      jumpi\n      tag_104\n      tag_73\n      jump\t// in\n    tag_104:\n    tag_103:\n      swap1\n      0x00\n      mstore\n      keccak256(0x00, 0x20)\n      swap1\n      0x02\n      mul\n      add\n        /* \"Contracts/vesting.sol\":2904:2950  beneficiaryDetails[msg.sender][ind].noOfTokens */\n      0x01\n      add\n      0x14\n      swap1\n      sload\n      swap1\n      0x0100\n      exp\n      swap1\n      div\n      0xff\n      and\n        /* \"Contracts/vesting.sol\":2904:2967  beneficiaryDetails[msg.sender][ind].noOfTokens/totalNoOfPeriods */\n      tag_106\n      swap2\n      swap1\n      tag_102\n      jump\t// in\n    tag_106:\n        /* \"Contracts/vesting.sol\":2880:2967  uint8 tokensPerPeriod = beneficiaryDetails[msg.sender][ind].noOfTokens/totalNoOfPeriods */\n      swap1\n      pop\n        /* \"Contracts/vesting.sol\":2977:3003  uint8 timePeriodSinceStart */\n      0x00\n        /* \"Contracts/vesting.sol\":3031:3049  beneficiaryDetails */\n      0x01\n        /* \"Contracts/vesting.sol\":3031:3061  beneficiaryDetails[msg.sender] */\n      0x00\n        /* \"Contracts/vesting.sol\":3050:3060  msg.sender */\n      caller\n        /* \"Contracts/vesting.sol\":3031:3061  beneficiaryDetails[msg.sender] */\n      0xffffffffffffffffffffffffffffffffffffffff\n      and\n      0xffffffffffffffffffffffffffffffffffffffff\n      and\n      dup2\n      mstore\n      0x20\n      add\n      swap1\n      dup2\n      mstore\n      0x20\n      add\n      0x00\n      keccak256\n        /* \"Contracts/vesting.sol\":3062:3065  ind */\n      dup6\n        /* \"Contracts/vesting.sol\":3031:3066  beneficiaryDetails[msg.sender][ind] */\n      0xff\n      and\n      dup2\n      sload\n      dup2\n      lt\n      tag_107\n      jumpi\n      tag_108\n      tag_73\n      jump\t// in\n    tag_108:\n    tag_107:\n      swap1\n      0x00\n      mstore\n      keccak256(0x00, 0x20)\n      swap1\n      0x02\n      mul\n      add\n        /* \"Contracts/vesting.sol\":3031:3076  beneficiaryDetails[msg.sender][ind].startTime */\n      0x01\n      add\n      0x16\n      swap1\n      sload\n      swap1\n      0x0100\n      exp\n      swap1\n      div\n      0xff\n      and\n        /* \"Contracts/vesting.sol\":3012:3027  block.timestamp */\n      timestamp\n        /* \"Contracts/vesting.sol\":3006:3076  uint8(block.timestamp) - beneficiaryDetails[msg.sender][ind].startTime */\n      tag_110\n      swap2\n      swap1\n      tag_111\n      jump\t// in\n    tag_110:\n        /* \"Contracts/vesting.sol\":2977:3076  uint8 timePeriodSinceStart = uint8(block.timestamp) - beneficiaryDetails[msg.sender][ind].startTime */\n      swap1\n      pop\n        /* \"Contracts/vesting.sol\":3086:3110  uint8 noOfPeriodsTillNow */\n      0x00\n        /* \"Contracts/vesting.sol\":3134:3152  beneficiaryDetails */\n      0x01\n        /* \"Contracts/vesting.sol\":3134:3164  beneficiaryDetails[msg.sender] */\n      0x00\n        /* \"Contracts/vesting.sol\":3153:3163  msg.sender */\n      caller\n        /* \"Contracts/vesting.sol\":3134:3164  beneficiaryDetails[msg.sender] */\n      0xffffffffffffffffffffffffffffffffffffffff\n      and\n      0xffffffffffffffffffffffffffffffffffffffff\n      and\n      dup2\n      mstore\n      0x20\n      add\n      swap1\n      dup2\n      mstore\n      0x20\n      add\n      0x00\n      keccak256\n        /* \"Contracts/vesting.sol\":3165:3168  ind */\n      dup7\n        /* \"Contracts/vesting.sol\":3134:3169  beneficiaryDetails[msg.sender][ind] */\n      0xff\n      and\n      dup2\n      sload\n      dup2\n      lt\n      tag_112\n      jumpi\n      tag_113\n      tag_73\n      jump\t// in\n    tag_113:\n    tag_112:\n      swap1\n      0x00\n      mstore\n      keccak256(0x00, 0x20)\n      swap1\n      0x02\n      mul\n      add\n        /* \"Contracts/vesting.sol\":3134:3181  beneficiaryDetails[msg.sender][ind].slicePeriod */\n      0x01\n      add\n      0x18\n      swap1\n      sload\n      swap1\n      0x0100\n      exp\n      swap1\n      div\n      0xff\n      and\n        /* \"Contracts/vesting.sol\":3113:3133  timePeriodSinceStart */\n      dup3\n        /* \"Contracts/vesting.sol\":3113:3181  timePeriodSinceStart/beneficiaryDetails[msg.sender][ind].slicePeriod */\n      tag_115\n      swap2\n      swap1\n      tag_102\n      jump\t// in\n    tag_115:\n        /* \"Contracts/vesting.sol\":3086:3181  uint8 noOfPeriodsTillNow = timePeriodSinceStart/beneficiaryDetails[msg.sender][ind].slicePeriod */\n      swap1\n      pop\n        /* \"Contracts/vesting.sol\":3191:3213  uint noOfTokensTillNow */\n      0x00\n        /* \"Contracts/vesting.sol\":3255:3269  releasedTokens */\n      0x02\n        /* \"Contracts/vesting.sol\":3255:3281  releasedTokens[msg.sender] */\n      0x00\n        /* \"Contracts/vesting.sol\":3270:3280  msg.sender */\n      caller\n        /* \"Contracts/vesting.sol\":3255:3281  releasedTokens[msg.sender] */\n      0xffffffffffffffffffffffffffffffffffffffff\n      and\n      0xffffffffffffffffffffffffffffffffffffffff\n      and\n      dup2\n      mstore\n      0x20\n      add\n      swap1\n      dup2\n      mstore\n      0x20\n      add\n      0x00\n      keccak256\n        /* \"Contracts/vesting.sol\":3282:3285  ind */\n      dup8\n        /* \"Contracts/vesting.sol\":3255:3286  releasedTokens[msg.sender][ind] */\n      0xff\n      and\n      dup2\n      sload\n      dup2\n      lt\n      tag_116\n      jumpi\n      tag_117\n      tag_73\n      jump\t// in\n    tag_117:\n    tag_116:\n      swap1\n      0x00\n      mstore\n      keccak256(0x00, 0x20)\n      add\n      sload\n        /* \"Contracts/vesting.sol\":3237:3252  tokensPerPeriod */\n      dup5\n        /* \"Contracts/vesting.sol\":3216:3234  noOfPeriodsTillNow */\n      dup4\n        /* \"Contracts/vesting.sol\":3216:3252  noOfPeriodsTillNow * tokensPerPeriod */\n      tag_119\n      swap2\n      swap1\n      tag_120\n      jump\t// in\n    tag_119:\n        /* \"Contracts/vesting.sol\":3216:3286  noOfPeriodsTillNow * tokensPerPeriod - releasedTokens[msg.sender][ind] */\n      0xff\n      and\n      tag_121\n      swap2\n      swap1\n      tag_122\n      jump\t// in\n    tag_121:\n        /* \"Contracts/vesting.sol\":3191:3286  uint noOfTokensTillNow = noOfPeriodsTillNow * tokensPerPeriod - releasedTokens[msg.sender][ind] */\n      swap1\n      pop\n        /* \"Contracts/vesting.sol\":3330:3346  totalNoOfPeriods */\n      dup5\n        /* \"Contracts/vesting.sol\":3308:3346  noOfPeriodsTillNow >= totalNoOfPeriods */\n      0xff\n      and\n        /* \"Contracts/vesting.sol\":3308:3326  noOfPeriodsTillNow */\n      dup3\n        /* \"Contracts/vesting.sol\":3308:3346  noOfPeriodsTillNow >= totalNoOfPeriods */\n      0xff\n      and\n      lt\n        /* \"Contracts/vesting.sol\":3305:3469  if(noOfPeriodsTillNow >= totalNoOfPeriods){ //Exceeded the duration... */\n      tag_123\n      jumpi\n        /* \"Contracts/vesting.sol\":3427:3441  releasedTokens */\n      0x02\n        /* \"Contracts/vesting.sol\":3427:3453  releasedTokens[msg.sender] */\n      0x00\n        /* \"Contracts/vesting.sol\":3442:3452  msg.sender */\n      caller\n        /* \"Contracts/vesting.sol\":3427:3453  releasedTokens[msg.sender] */\n      0xffffffffffffffffffffffffffffffffffffffff\n      and\n      0xffffffffffffffffffffffffffffffffffffffff\n      and\n      dup2\n      mstore\n      0x20\n      add\n      swap1\n      dup2\n      mstore\n      0x20\n      add\n      0x00\n      keccak256\n        /* \"Contracts/vesting.sol\":3454:3457  ind */\n      dup8\n        /* \"Contracts/vesting.sol\":3427:3458  releasedTokens[msg.sender][ind] */\n      0xff\n      and\n      dup2\n      sload\n      dup2\n      lt\n      tag_124\n      jumpi\n      tag_125\n      tag_73\n      jump\t// in\n    tag_125:\n    tag_124:\n      swap1\n      0x00\n      mstore\n      keccak256(0x00, 0x20)\n      add\n      sload\n        /* \"Contracts/vesting.sol\":3408:3424  totalNoOfPeriods */\n      dup6\n        /* \"Contracts/vesting.sol\":3392:3407  tokensPerPeriod */\n      dup6\n        /* \"Contracts/vesting.sol\":3392:3424  tokensPerPeriod*totalNoOfPeriods */\n      tag_127\n      swap2\n      swap1\n      tag_120\n      jump\t// in\n    tag_127:\n        /* \"Contracts/vesting.sol\":3392:3458  tokensPerPeriod*totalNoOfPeriods - releasedTokens[msg.sender][ind] */\n      0xff\n      and\n      tag_128\n      swap2\n      swap1\n      tag_122\n      jump\t// in\n    tag_128:\n        /* \"Contracts/vesting.sol\":3385:3458  return tokensPerPeriod*totalNoOfPeriods - releasedTokens[msg.sender][ind] */\n      swap6\n      pop\n      pop\n      pop\n      pop\n      pop\n      pop\n      jump(tag_94)\n        /* \"Contracts/vesting.sol\":3305:3469  if(noOfPeriodsTillNow >= totalNoOfPeriods){ //Exceeded the duration... */\n    tag_123:\n        /* \"Contracts/vesting.sol\":3485:3502  noOfTokensTillNow */\n      dup1\n        /* \"Contracts/vesting.sol\":3478:3502  return noOfTokensTillNow */\n      swap6\n      pop\n      pop\n      pop\n      pop\n      pop\n      pop\n        /* \"Contracts/vesting.sol\":2682:3509  function unlockTokens(uint8 ind) internal view returns(uint) {... */\n    tag_94:\n      swap2\n      swap1\n      pop\n      jump\t// out\n        /* \"#utility.yul\":88:205   */\n    tag_130:\n        /* \"#utility.yul\":197:198   */\n      0x00\n        /* \"#utility.yul\":194:195   */\n      dup1\n        /* \"#utility.yul\":187:199   */\n      revert\n        /* \"#utility.yul\":334:460   */\n    tag_132:\n        /* \"#utility.yul\":371:378   */\n      0x00\n        /* \"#utility.yul\":411:453   */\n      0xffffffffffffffffffffffffffffffffffffffff\n        /* \"#utility.yul\":404:409   */\n      dup3\n        /* \"#utility.yul\":400:454   */\n      and\n        /* \"#utility.yul\":389:454   */\n      swap1\n      pop\n        /* \"#utility.yul\":334:460   */\n      swap2\n      swap1\n      pop\n      jump\t// out\n        /* \"#utility.yul\":466:562   */\n    tag_133:\n        /* \"#utility.yul\":503:510   */\n      0x00\n        /* \"#utility.yul\":532:556   */\n      tag_164\n        /* \"#utility.yul\":550:555   */\n      dup3\n        /* \"#utility.yul\":532:556   */\n      tag_132\n      jump\t// in\n    tag_164:\n        /* \"#utility.yul\":521:556   */\n      swap1\n      pop\n        /* \"#utility.yul\":466:562   */\n      swap2\n      swap1\n      pop\n      jump\t// out\n        /* \"#utility.yul\":568:690   */\n    tag_134:\n        /* \"#utility.yul\":641:665   */\n      tag_166\n        /* \"#utility.yul\":659:664   */\n      dup2\n        /* \"#utility.yul\":641:665   */\n      tag_133\n      jump\t// in\n    tag_166:\n        /* \"#utility.yul\":634:639   */\n      dup2\n        /* \"#utility.yul\":631:666   */\n      eq\n        /* \"#utility.yul\":621:684   */\n      tag_167\n      jumpi\n        /* \"#utility.yul\":680:681   */\n      0x00\n        /* \"#utility.yul\":677:678   */\n      dup1\n        /* \"#utility.yul\":670:682   */\n      revert\n        /* \"#utility.yul\":621:684   */\n    tag_167:\n        /* \"#utility.yul\":568:690   */\n      pop\n      jump\t// out\n        /* \"#utility.yul\":696:835   */\n    tag_135:\n        /* \"#utility.yul\":742:747   */\n      0x00\n        /* \"#utility.yul\":780:786   */\n      dup2\n        /* \"#utility.yul\":767:787   */\n      calldataload\n        /* \"#utility.yul\":758:787   */\n      swap1\n      pop\n        /* \"#utility.yul\":796:829   */\n      tag_169\n        /* \"#utility.yul\":823:828   */\n      dup2\n        /* \"#utility.yul\":796:829   */\n      tag_134\n      jump\t// in\n    tag_169:\n        /* \"#utility.yul\":696:835   */\n      swap3\n      swap2\n      pop\n      pop\n      jump\t// out\n        /* \"#utility.yul\":841:1170   */\n    tag_13:\n        /* \"#utility.yul\":900:906   */\n      0x00\n        /* \"#utility.yul\":949:951   */\n      0x20\n        /* \"#utility.yul\":937:946   */\n      dup3\n        /* \"#utility.yul\":928:935   */\n      dup5\n        /* \"#utility.yul\":924:947   */\n      sub\n        /* \"#utility.yul\":920:952   */\n      slt\n        /* \"#utility.yul\":917:1036   */\n      iszero\n      tag_171\n      jumpi\n        /* \"#utility.yul\":955:1034   */\n      tag_172\n      tag_130\n      jump\t// in\n    tag_172:\n        /* \"#utility.yul\":917:1036   */\n    tag_171:\n        /* \"#utility.yul\":1075:1076   */\n      0x00\n        /* \"#utility.yul\":1100:1153   */\n      tag_173\n        /* \"#utility.yul\":1145:1152   */\n      dup5\n        /* \"#utility.yul\":1136:1142   */\n      dup3\n        /* \"#utility.yul\":1125:1134   */\n      dup6\n        /* \"#utility.yul\":1121:1143   */\n      add\n        /* \"#utility.yul\":1100:1153   */\n      tag_135\n      jump\t// in\n    tag_173:\n        /* \"#utility.yul\":1090:1153   */\n      swap2\n      pop\n        /* \"#utility.yul\":1046:1163   */\n      pop\n        /* \"#utility.yul\":841:1170   */\n      swap3\n      swap2\n      pop\n      pop\n      jump\t// out\n        /* \"#utility.yul\":1176:1253   */\n    tag_136:\n        /* \"#utility.yul\":1213:1220   */\n      0x00\n        /* \"#utility.yul\":1242:1247   */\n      dup2\n        /* \"#utility.yul\":1231:1247   */\n      swap1\n      pop\n        /* \"#utility.yul\":1176:1253   */\n      swap2\n      swap1\n      pop\n      jump\t// out\n        /* \"#utility.yul\":1259:1381   */\n    tag_137:\n        /* \"#utility.yul\":1332:1356   */\n      tag_176\n        /* \"#utility.yul\":1350:1355   */\n      dup2\n        /* \"#utility.yul\":1332:1356   */\n      tag_136\n      jump\t// in\n    tag_176:\n        /* \"#utility.yul\":1325:1330   */\n      dup2\n        /* \"#utility.yul\":1322:1357   */\n      eq\n        /* \"#utility.yul\":1312:1375   */\n      tag_177\n      jumpi\n        /* \"#utility.yul\":1371:1372   */\n      0x00\n        /* \"#utility.yul\":1368:1369   */\n      dup1\n        /* \"#utility.yul\":1361:1373   */\n      revert\n        /* \"#utility.yul\":1312:1375   */\n    tag_177:\n        /* \"#utility.yul\":1259:1381   */\n      pop\n      jump\t// out\n        /* \"#utility.yul\":1387:1526   */\n    tag_138:\n        /* \"#utility.yul\":1433:1438   */\n      0x00\n        /* \"#utility.yul\":1471:1477   */\n      dup2\n        /* \"#utility.yul\":1458:1478   */\n      calldataload\n        /* \"#utility.yul\":1449:1478   */\n      swap1\n      pop\n        /* \"#utility.yul\":1487:1520   */\n      tag_179\n        /* \"#utility.yul\":1514:1519   */\n      dup2\n        /* \"#utility.yul\":1487:1520   */\n      tag_137\n      jump\t// in\n    tag_179:\n        /* \"#utility.yul\":1387:1526   */\n      swap3\n      swap2\n      pop\n      pop\n      jump\t// out\n        /* \"#utility.yul\":1532:2006   */\n    tag_17:\n        /* \"#utility.yul\":1600:1606   */\n      0x00\n        /* \"#utility.yul\":1608:1614   */\n      dup1\n        /* \"#utility.yul\":1657:1659   */\n      0x40\n        /* \"#utility.yul\":1645:1654   */\n      dup4\n        /* \"#utility.yul\":1636:1643   */\n      dup6\n        /* \"#utility.yul\":1632:1655   */\n      sub\n        /* \"#utility.yul\":1628:1660   */\n      slt\n        /* \"#utility.yul\":1625:1744   */\n      iszero\n      tag_181\n      jumpi\n        /* \"#utility.yul\":1663:1742   */\n      tag_182\n      tag_130\n      jump\t// in\n    tag_182:\n        /* \"#utility.yul\":1625:1744   */\n    tag_181:\n        /* \"#utility.yul\":1783:1784   */\n      0x00\n        /* \"#utility.yul\":1808:1861   */\n      tag_183\n        /* \"#utility.yul\":1853:1860   */\n      dup6\n        /* \"#utility.yul\":1844:1850   */\n      dup3\n        /* \"#utility.yul\":1833:1842   */\n      dup7\n        /* \"#utility.yul\":1829:1851   */\n      add\n        /* \"#utility.yul\":1808:1861   */\n      tag_135\n      jump\t// in\n    tag_183:\n        /* \"#utility.yul\":1798:1861   */\n      swap3\n      pop\n        /* \"#utility.yul\":1754:1871   */\n      pop\n        /* \"#utility.yul\":1910:1912   */\n      0x20\n        /* \"#utility.yul\":1936:1989   */\n      tag_184\n        /* \"#utility.yul\":1981:1988   */\n      dup6\n        /* \"#utility.yul\":1972:1978   */\n      dup3\n        /* \"#utility.yul\":1961:1970   */\n      dup7\n        /* \"#utility.yul\":1957:1979   */\n      add\n        /* \"#utility.yul\":1936:1989   */\n      tag_138\n      jump\t// in\n    tag_184:\n        /* \"#utility.yul\":1926:1989   */\n      swap2\n      pop\n        /* \"#utility.yul\":1881:1999   */\n      pop\n        /* \"#utility.yul\":1532:2006   */\n      swap3\n      pop\n      swap3\n      swap1\n      pop\n      jump\t// out\n        /* \"#utility.yul\":2012:2130   */\n    tag_139:\n        /* \"#utility.yul\":2099:2123   */\n      tag_186\n        /* \"#utility.yul\":2117:2122   */\n      dup2\n        /* \"#utility.yul\":2099:2123   */\n      tag_133\n      jump\t// in\n    tag_186:\n        /* \"#utility.yul\":2094:2097   */\n      dup3\n        /* \"#utility.yul\":2087:2124   */\n      mstore\n        /* \"#utility.yul\":2012:2130   */\n      pop\n      pop\n      jump\t// out\n        /* \"#utility.yul\":2136:2222   */\n    tag_140:\n        /* \"#utility.yul\":2171:2178   */\n      0x00\n        /* \"#utility.yul\":2211:2215   */\n      0xff\n        /* \"#utility.yul\":2204:2209   */\n      dup3\n        /* \"#utility.yul\":2200:2216   */\n      and\n        /* \"#utility.yul\":2189:2216   */\n      swap1\n      pop\n        /* \"#utility.yul\":2136:2222   */\n      swap2\n      swap1\n      pop\n      jump\t// out\n        /* \"#utility.yul\":2228:2340   */\n    tag_141:\n        /* \"#utility.yul\":2311:2333   */\n      tag_189\n        /* \"#utility.yul\":2327:2332   */\n      dup2\n        /* \"#utility.yul\":2311:2333   */\n      tag_140\n      jump\t// in\n    tag_189:\n        /* \"#utility.yul\":2306:2309   */\n      dup3\n        /* \"#utility.yul\":2299:2334   */\n      mstore\n        /* \"#utility.yul\":2228:2340   */\n      pop\n      pop\n      jump\t// out\n        /* \"#utility.yul\":2346:2436   */\n    tag_142:\n        /* \"#utility.yul\":2380:2387   */\n      0x00\n        /* \"#utility.yul\":2423:2428   */\n      dup2\n        /* \"#utility.yul\":2416:2429   */\n      iszero\n        /* \"#utility.yul\":2409:2430   */\n      iszero\n        /* \"#utility.yul\":2398:2430   */\n      swap1\n      pop\n        /* \"#utility.yul\":2346:2436   */\n      swap2\n      swap1\n      pop\n      jump\t// out\n        /* \"#utility.yul\":2442:2551   */\n    tag_143:\n        /* \"#utility.yul\":2523:2544   */\n      tag_192\n        /* \"#utility.yul\":2538:2543   */\n      dup2\n        /* \"#utility.yul\":2523:2544   */\n      tag_142\n      jump\t// in\n    tag_192:\n        /* \"#utility.yul\":2518:2521   */\n      dup3\n        /* \"#utility.yul\":2511:2545   */\n      mstore\n        /* \"#utility.yul\":2442:2551   */\n      pop\n      pop\n      jump\t// out\n        /* \"#utility.yul\":2557:3502   */\n    tag_20:\n        /* \"#utility.yul\":2820:2824   */\n      0x00\n        /* \"#utility.yul\":2858:2861   */\n      0x0100\n        /* \"#utility.yul\":2847:2856   */\n      dup3\n        /* \"#utility.yul\":2843:2862   */\n      add\n        /* \"#utility.yul\":2835:2862   */\n      swap1\n      pop\n        /* \"#utility.yul\":2872:2943   */\n      tag_194\n        /* \"#utility.yul\":2940:2941   */\n      0x00\n        /* \"#utility.yul\":2929:2938   */\n      dup4\n        /* \"#utility.yul\":2925:2942   */\n      add\n        /* \"#utility.yul\":2916:2922   */\n      dup12\n        /* \"#utility.yul\":2872:2943   */\n      tag_139\n      jump\t// in\n    tag_194:\n        /* \"#utility.yul\":2953:3025   */\n      tag_195\n        /* \"#utility.yul\":3021:3023   */\n      0x20\n        /* \"#utility.yul\":3010:3019   */\n      dup4\n        /* \"#utility.yul\":3006:3024   */\n      add\n        /* \"#utility.yul\":2997:3003   */\n      dup11\n        /* \"#utility.yul\":2953:3025   */\n      tag_139\n      jump\t// in\n    tag_195:\n        /* \"#utility.yul\":3035:3103   */\n      tag_196\n        /* \"#utility.yul\":3099:3101   */\n      0x40\n        /* \"#utility.yul\":3088:3097   */\n      dup4\n        /* \"#utility.yul\":3084:3102   */\n      add\n        /* \"#utility.yul\":3075:3081   */\n      dup10\n        /* \"#utility.yul\":3035:3103   */\n      tag_141\n      jump\t// in\n    tag_196:\n        /* \"#utility.yul\":3113:3181   */\n      tag_197\n        /* \"#utility.yul\":3177:3179   */\n      0x60\n        /* \"#utility.yul\":3166:3175   */\n      dup4\n        /* \"#utility.yul\":3162:3180   */\n      add\n        /* \"#utility.yul\":3153:3159   */\n      dup9\n        /* \"#utility.yul\":3113:3181   */\n      tag_141\n      jump\t// in\n    tag_197:\n        /* \"#utility.yul\":3191:3260   */\n      tag_198\n        /* \"#utility.yul\":3255:3258   */\n      0x80\n        /* \"#utility.yul\":3244:3253   */\n      dup4\n        /* \"#utility.yul\":3240:3259   */\n      add\n        /* \"#utility.yul\":3231:3237   */\n      dup8\n        /* \"#utility.yul\":3191:3260   */\n      tag_141\n      jump\t// in\n    tag_198:\n        /* \"#utility.yul\":3270:3339   */\n      tag_199\n        /* \"#utility.yul\":3334:3337   */\n      0xa0\n        /* \"#utility.yul\":3323:3332   */\n      dup4\n        /* \"#utility.yul\":3319:3338   */\n      add\n        /* \"#utility.yul\":3310:3316   */\n      dup7\n        /* \"#utility.yul\":3270:3339   */\n      tag_141\n      jump\t// in\n    tag_199:\n        /* \"#utility.yul\":3349:3418   */\n      tag_200\n        /* \"#utility.yul\":3413:3416   */\n      0xc0\n        /* \"#utility.yul\":3402:3411   */\n      dup4\n        /* \"#utility.yul\":3398:3417   */\n      add\n        /* \"#utility.yul\":3389:3395   */\n      dup6\n        /* \"#utility.yul\":3349:3418   */\n      tag_141\n      jump\t// in\n    tag_200:\n        /* \"#utility.yul\":3428:3495   */\n      tag_201\n        /* \"#utility.yul\":3490:3493   */\n      0xe0\n        /* \"#utility.yul\":3479:3488   */\n      dup4\n        /* \"#utility.yul\":3475:3494   */\n      add\n        /* \"#utility.yul\":3466:3472   */\n      dup5\n        /* \"#utility.yul\":3428:3495   */\n      tag_143\n      jump\t// in\n    tag_201:\n        /* \"#utility.yul\":2557:3502   */\n      swap10\n      swap9\n      pop\n      pop\n      pop\n      pop\n      pop\n      pop\n      pop\n      pop\n      pop\n      jump\t// out\n        /* \"#utility.yul\":3508:3626   */\n    tag_144:\n        /* \"#utility.yul\":3579:3601   */\n      tag_203\n        /* \"#utility.yul\":3595:3600   */\n      dup2\n        /* \"#utility.yul\":3579:3601   */\n      tag_140\n      jump\t// in\n    tag_203:\n        /* \"#utility.yul\":3572:3577   */\n      dup2\n        /* \"#utility.yul\":3569:3602   */\n      eq\n        /* \"#utility.yul\":3559:3620   */\n      tag_204\n      jumpi\n        /* \"#utility.yul\":3616:3617   */\n      0x00\n        /* \"#utility.yul\":3613:3614   */\n      dup1\n        /* \"#utility.yul\":3606:3618   */\n      revert\n        /* \"#utility.yul\":3559:3620   */\n    tag_204:\n        /* \"#utility.yul\":3508:3626   */\n      pop\n      jump\t// out\n        /* \"#utility.yul\":3632:3767   */\n    tag_145:\n        /* \"#utility.yul\":3676:3681   */\n      0x00\n        /* \"#utility.yul\":3714:3720   */\n      dup2\n        /* \"#utility.yul\":3701:3721   */\n      calldataload\n        /* \"#utility.yul\":3692:3721   */\n      swap1\n      pop\n        /* \"#utility.yul\":3730:3761   */\n      tag_206\n        /* \"#utility.yul\":3755:3760   */\n      dup2\n        /* \"#utility.yul\":3730:3761   */\n      tag_144\n      jump\t// in\n    tag_206:\n        /* \"#utility.yul\":3632:3767   */\n      swap3\n      swap2\n      pop\n      pop\n      jump\t// out\n        /* \"#utility.yul\":3773:4668   */\n    tag_23:\n        /* \"#utility.yul\":3860:3866   */\n      0x00\n        /* \"#utility.yul\":3868:3874   */\n      dup1\n        /* \"#utility.yul\":3876:3882   */\n      0x00\n        /* \"#utility.yul\":3884:3890   */\n      dup1\n        /* \"#utility.yul\":3892:3898   */\n      0x00\n        /* \"#utility.yul\":3941:3944   */\n      0xa0\n        /* \"#utility.yul\":3929:3938   */\n      dup7\n        /* \"#utility.yul\":3920:3927   */\n      dup9\n        /* \"#utility.yul\":3916:3939   */\n      sub\n        /* \"#utility.yul\":3912:3945   */\n      slt\n        /* \"#utility.yul\":3909:4029   */\n      iszero\n      tag_208\n      jumpi\n        /* \"#utility.yul\":3948:4027   */\n      tag_209\n      tag_130\n      jump\t// in\n    tag_209:\n        /* \"#utility.yul\":3909:4029   */\n    tag_208:\n        /* \"#utility.yul\":4068:4069   */\n      0x00\n        /* \"#utility.yul\":4093:4146   */\n      tag_210\n        /* \"#utility.yul\":4138:4145   */\n      dup9\n        /* \"#utility.yul\":4129:4135   */\n      dup3\n        /* \"#utility.yul\":4118:4127   */\n      dup10\n        /* \"#utility.yul\":4114:4136   */\n      add\n        /* \"#utility.yul\":4093:4146   */\n      tag_135\n      jump\t// in\n    tag_210:\n        /* \"#utility.yul\":4083:4146   */\n      swap6\n      pop\n        /* \"#utility.yul\":4039:4156   */\n      pop\n        /* \"#utility.yul\":4195:4197   */\n      0x20\n        /* \"#utility.yul\":4221:4272   */\n      tag_211\n        /* \"#utility.yul\":4264:4271   */\n      dup9\n        /* \"#utility.yul\":4255:4261   */\n      dup3\n        /* \"#utility.yul\":4244:4253   */\n      dup10\n        /* \"#utility.yul\":4240:4262   */\n      add\n        /* \"#utility.yul\":4221:4272   */\n      tag_145\n      jump\t// in\n    tag_211:\n        /* \"#utility.yul\":4211:4272   */\n      swap5\n      pop\n        /* \"#utility.yul\":4166:4282   */\n      pop\n        /* \"#utility.yul\":4321:4323   */\n      0x40\n        /* \"#utility.yul\":4347:4398   */\n      tag_212\n        /* \"#utility.yul\":4390:4397   */\n      dup9\n        /* \"#utility.yul\":4381:4387   */\n      dup3\n        /* \"#utility.yul\":4370:4379   */\n      dup10\n        /* \"#utility.yul\":4366:4388   */\n      add\n        /* \"#utility.yul\":4347:4398   */\n      tag_145\n      jump\t// in\n    tag_212:\n        /* \"#utility.yul\":4337:4398   */\n      swap4\n      pop\n        /* \"#utility.yul\":4292:4408   */\n      pop\n        /* \"#utility.yul\":4447:4449   */\n      0x60\n        /* \"#utility.yul\":4473:4524   */\n      tag_213\n        /* \"#utility.yul\":4516:4523   */\n      dup9\n        /* \"#utility.yul\":4507:4513   */\n      dup3\n        /* \"#utility.yul\":4496:4505   */\n      dup10\n        /* \"#utility.yul\":4492:4514   */\n      add\n        /* \"#utility.yul\":4473:4524   */\n      tag_145\n      jump\t// in\n    tag_213:\n        /* \"#utility.yul\":4463:4524   */\n      swap3\n      pop\n        /* \"#utility.yul\":4418:4534   */\n      pop\n        /* \"#utility.yul\":4573:4576   */\n      0x80\n        /* \"#utility.yul\":4600:4651   */\n      tag_214\n        /* \"#utility.yul\":4643:4650   */\n      dup9\n        /* \"#utility.yul\":4634:4640   */\n      dup3\n        /* \"#utility.yul\":4623:4632   */\n      dup10\n        /* \"#utility.yul\":4619:4641   */\n      add\n        /* \"#utility.yul\":4600:4651   */\n      tag_145\n      jump\t// in\n    tag_214:\n        /* \"#utility.yul\":4590:4651   */\n      swap2\n      pop\n        /* \"#utility.yul\":4544:4661   */\n      pop\n        /* \"#utility.yul\":3773:4668   */\n      swap3\n      swap6\n      pop\n      swap3\n      swap6\n      swap1\n      swap4\n      pop\n      jump\t// out\n        /* \"#utility.yul\":4674:5148   */\n    tag_27:\n        /* \"#utility.yul\":4742:4748   */\n      0x00\n        /* \"#utility.yul\":4750:4756   */\n      dup1\n        /* \"#utility.yul\":4799:4801   */\n      0x40\n        /* \"#utility.yul\":4787:4796   */\n      dup4\n        /* \"#utility.yul\":4778:4785   */\n      dup6\n        /* \"#utility.yul\":4774:4797   */\n      sub\n        /* \"#utility.yul\":4770:4802   */\n      slt\n        /* \"#utility.yul\":4767:4886   */\n      iszero\n      tag_216\n      jumpi\n        /* \"#utility.yul\":4805:4884   */\n      tag_217\n      tag_130\n      jump\t// in\n    tag_217:\n        /* \"#utility.yul\":4767:4886   */\n    tag_216:\n        /* \"#utility.yul\":4925:4926   */\n      0x00\n        /* \"#utility.yul\":4950:5003   */\n      tag_218\n        /* \"#utility.yul\":4995:5002   */\n      dup6\n        /* \"#utility.yul\":4986:4992   */\n      dup3\n        /* \"#utility.yul\":4975:4984   */\n      dup7\n        /* \"#utility.yul\":4971:4993   */\n      add\n        /* \"#utility.yul\":4950:5003   */\n      tag_135\n      jump\t// in\n    tag_218:\n        /* \"#utility.yul\":4940:5003   */\n      swap3\n      pop\n        /* \"#utility.yul\":4896:5013   */\n      pop\n        /* \"#utility.yul\":5052:5054   */\n      0x20\n        /* \"#utility.yul\":5078:5131   */\n      tag_219\n        /* \"#utility.yul\":5123:5130   */\n      dup6\n        /* \"#utility.yul\":5114:5120   */\n      dup3\n        /* \"#utility.yul\":5103:5112   */\n      dup7\n        /* \"#utility.yul\":5099:5121   */\n      add\n        /* \"#utility.yul\":5078:5131   */\n      tag_135\n      jump\t// in\n    tag_219:\n        /* \"#utility.yul\":5068:5131   */\n      swap2\n      pop\n        /* \"#utility.yul\":5023:5141   */\n      pop\n        /* \"#utility.yul\":4674:5148   */\n      swap3\n      pop\n      swap3\n      swap1\n      pop\n      jump\t// out\n        /* \"#utility.yul\":5154:5364   */\n    tag_30:\n        /* \"#utility.yul\":5241:5245   */\n      0x00\n        /* \"#utility.yul\":5279:5281   */\n      0x20\n        /* \"#utility.yul\":5268:5277   */\n      dup3\n        /* \"#utility.yul\":5264:5282   */\n      add\n        /* \"#utility.yul\":5256:5282   */\n      swap1\n      pop\n        /* \"#utility.yul\":5292:5357   */\n      tag_221\n        /* \"#utility.yul\":5354:5355   */\n      0x00\n        /* \"#utility.yul\":5343:5352   */\n      dup4\n        /* \"#utility.yul\":5339:5356   */\n      add\n        /* \"#utility.yul\":5330:5336   */\n      dup5\n        /* \"#utility.yul\":5292:5357   */\n      tag_143\n      jump\t// in\n    tag_221:\n        /* \"#utility.yul\":5154:5364   */\n      swap3\n      swap2\n      pop\n      pop\n      jump\t// out\n        /* \"#utility.yul\":5370:5695   */\n    tag_33:\n        /* \"#utility.yul\":5427:5433   */\n      0x00\n        /* \"#utility.yul\":5476:5478   */\n      0x20\n        /* \"#utility.yul\":5464:5473   */\n      dup3\n        /* \"#utility.yul\":5455:5462   */\n      dup5\n        /* \"#utility.yul\":5451:5474   */\n      sub\n        /* \"#utility.yul\":5447:5479   */\n      slt\n        /* \"#utility.yul\":5444:5563   */\n      iszero\n      tag_223\n      jumpi\n        /* \"#utility.yul\":5482:5561   */\n      tag_224\n      tag_130\n      jump\t// in\n    tag_224:\n        /* \"#utility.yul\":5444:5563   */\n    tag_223:\n        /* \"#utility.yul\":5602:5603   */\n      0x00\n        /* \"#utility.yul\":5627:5678   */\n      tag_225\n        /* \"#utility.yul\":5670:5677   */\n      dup5\n        /* \"#utility.yul\":5661:5667   */\n      dup3\n        /* \"#utility.yul\":5650:5659   */\n      dup6\n        /* \"#utility.yul\":5646:5668   */\n      add\n        /* \"#utility.yul\":5627:5678   */\n      tag_145\n      jump\t// in\n    tag_225:\n        /* \"#utility.yul\":5617:5678   */\n      swap2\n      pop\n        /* \"#utility.yul\":5573:5688   */\n      pop\n        /* \"#utility.yul\":5370:5695   */\n      swap3\n      swap2\n      pop\n      pop\n      jump\t// out\n        /* \"#utility.yul\":5701:5819   */\n    tag_146:\n        /* \"#utility.yul\":5788:5812   */\n      tag_227\n        /* \"#utility.yul\":5806:5811   */\n      dup2\n        /* \"#utility.yul\":5788:5812   */\n      tag_136\n      jump\t// in\n    tag_227:\n        /* \"#utility.yul\":5783:5786   */\n      dup3\n        /* \"#utility.yul\":5776:5813   */\n      mstore\n        /* \"#utility.yul\":5701:5819   */\n      pop\n      pop\n      jump\t// out\n        /* \"#utility.yul\":5825:6047   */\n    tag_38:\n        /* \"#utility.yul\":5918:5922   */\n      0x00\n        /* \"#utility.yul\":5956:5958   */\n      0x20\n        /* \"#utility.yul\":5945:5954   */\n      dup3\n        /* \"#utility.yul\":5941:5959   */\n      add\n        /* \"#utility.yul\":5933:5959   */\n      swap1\n      pop\n        /* \"#utility.yul\":5969:6040   */\n      tag_229\n        /* \"#utility.yul\":6037:6038   */\n      0x00\n        /* \"#utility.yul\":6026:6035   */\n      dup4\n        /* \"#utility.yul\":6022:6039   */\n      add\n        /* \"#utility.yul\":6013:6019   */\n      dup5\n        /* \"#utility.yul\":5969:6040   */\n      tag_146\n      jump\t// in\n    tag_229:\n        /* \"#utility.yul\":5825:6047   */\n      swap3\n      swap2\n      pop\n      pop\n      jump\t// out\n        /* \"#utility.yul\":6053:6222   */\n    tag_147:\n        /* \"#utility.yul\":6137:6148   */\n      0x00\n        /* \"#utility.yul\":6171:6177   */\n      dup3\n        /* \"#utility.yul\":6166:6169   */\n      dup3\n        /* \"#utility.yul\":6159:6178   */\n      mstore\n        /* \"#utility.yul\":6211:6215   */\n      0x20\n        /* \"#utility.yul\":6206:6209   */\n      dup3\n        /* \"#utility.yul\":6202:6216   */\n      add\n        /* \"#utility.yul\":6187:6216   */\n      swap1\n      pop\n        /* \"#utility.yul\":6053:6222   */\n      swap3\n      swap2\n      pop\n      pop\n      jump\t// out\n        /* \"#utility.yul\":6228:6398   */\n    tag_148:\n        /* \"#utility.yul\":6368:6390   */\n      0x546f6b656e206973206e6f7420616c6c6f776564000000000000000000000000\n        /* \"#utility.yul\":6364:6365   */\n      0x00\n        /* \"#utility.yul\":6356:6362   */\n      dup3\n        /* \"#utility.yul\":6352:6366   */\n      add\n        /* \"#utility.yul\":6345:6391   */\n      mstore\n        /* \"#utility.yul\":6228:6398   */\n      pop\n      jump\t// out\n        /* \"#utility.yul\":6404:6770   */\n    tag_149:\n        /* \"#utility.yul\":6546:6549   */\n      0x00\n        /* \"#utility.yul\":6567:6634   */\n      tag_233\n        /* \"#utility.yul\":6631:6633   */\n      0x14\n        /* \"#utility.yul\":6626:6629   */\n      dup4\n        /* \"#utility.yul\":6567:6634   */\n      tag_147\n      jump\t// in\n    tag_233:\n        /* \"#utility.yul\":6560:6634   */\n      swap2\n      pop\n        /* \"#utility.yul\":6643:6736   */\n      tag_234\n        /* \"#utility.yul\":6732:6735   */\n      dup3\n        /* \"#utility.yul\":6643:6736   */\n      tag_148\n      jump\t// in\n    tag_234:\n        /* \"#utility.yul\":6761:6763   */\n      0x20\n        /* \"#utility.yul\":6756:6759   */\n      dup3\n        /* \"#utility.yul\":6752:6764   */\n      add\n        /* \"#utility.yul\":6745:6764   */\n      swap1\n      pop\n        /* \"#utility.yul\":6404:6770   */\n      swap2\n      swap1\n      pop\n      jump\t// out\n        /* \"#utility.yul\":6776:7195   */\n    tag_49:\n        /* \"#utility.yul\":6942:6946   */\n      0x00\n        /* \"#utility.yul\":6980:6982   */\n      0x20\n        /* \"#utility.yul\":6969:6978   */\n      dup3\n        /* \"#utility.yul\":6965:6983   */\n      add\n        /* \"#utility.yul\":6957:6983   */\n      swap1\n      pop\n        /* \"#utility.yul\":7029:7038   */\n      dup2\n        /* \"#utility.yul\":7023:7027   */\n      dup2\n        /* \"#utility.yul\":7019:7039   */\n      sub\n        /* \"#utility.yul\":7015:7016   */\n      0x00\n        /* \"#utility.yul\":7004:7013   */\n      dup4\n        /* \"#utility.yul\":7000:7017   */\n      add\n        /* \"#utility.yul\":6993:7040   */\n      mstore\n        /* \"#utility.yul\":7057:7188   */\n      tag_236\n        /* \"#utility.yul\":7183:7187   */\n      dup2\n        /* \"#utility.yul\":7057:7188   */\n      tag_149\n      jump\t// in\n    tag_236:\n        /* \"#utility.yul\":7049:7188   */\n      swap1\n      pop\n        /* \"#utility.yul\":6776:7195   */\n      swap2\n      swap1\n      pop\n      jump\t// out\n        /* \"#utility.yul\":7201:7381   */\n    tag_150:\n        /* \"#utility.yul\":7249:7326   */\n      0x4e487b7100000000000000000000000000000000000000000000000000000000\n        /* \"#utility.yul\":7246:7247   */\n      0x00\n        /* \"#utility.yul\":7239:7327   */\n      mstore\n        /* \"#utility.yul\":7346:7350   */\n      0x11\n        /* \"#utility.yul\":7343:7344   */\n      0x04\n        /* \"#utility.yul\":7336:7351   */\n      mstore\n        /* \"#utility.yul\":7370:7374   */\n      0x24\n        /* \"#utility.yul\":7367:7368   */\n      0x00\n        /* \"#utility.yul\":7360:7375   */\n      revert\n        /* \"#utility.yul\":7387:7575   */\n    tag_52:\n        /* \"#utility.yul\":7425:7428   */\n      0x00\n        /* \"#utility.yul\":7444:7462   */\n      tag_239\n        /* \"#utility.yul\":7460:7461   */\n      dup3\n        /* \"#utility.yul\":7444:7462   */\n      tag_140\n      jump\t// in\n    tag_239:\n        /* \"#utility.yul\":7439:7462   */\n      swap2\n      pop\n        /* \"#utility.yul\":7476:7494   */\n      tag_240\n        /* \"#utility.yul\":7492:7493   */\n      dup4\n        /* \"#utility.yul\":7476:7494   */\n      tag_140\n      jump\t// in\n    tag_240:\n        /* \"#utility.yul\":7471:7494   */\n      swap3\n      pop\n        /* \"#utility.yul\":7517:7518   */\n      dup3\n        /* \"#utility.yul\":7514:7515   */\n      dup3\n        /* \"#utility.yul\":7510:7519   */\n      add\n        /* \"#utility.yul\":7503:7519   */\n      swap1\n      pop\n        /* \"#utility.yul\":7540:7544   */\n      0xff\n        /* \"#utility.yul\":7535:7538   */\n      dup2\n        /* \"#utility.yul\":7532:7545   */\n      gt\n        /* \"#utility.yul\":7529:7568   */\n      iszero\n      tag_241\n      jumpi\n        /* \"#utility.yul\":7548:7566   */\n      tag_242\n      tag_150\n      jump\t// in\n    tag_242:\n        /* \"#utility.yul\":7529:7568   */\n    tag_241:\n        /* \"#utility.yul\":7387:7575   */\n      swap3\n      swap2\n      pop\n      pop\n      jump\t// out\n        /* \"#utility.yul\":7581:7641   */\n    tag_151:\n        /* \"#utility.yul\":7609:7612   */\n      0x00\n        /* \"#utility.yul\":7630:7635   */\n      dup2\n        /* \"#utility.yul\":7623:7635   */\n      swap1\n      pop\n        /* \"#utility.yul\":7581:7641   */\n      swap2\n      swap1\n      pop\n      jump\t// out\n        /* \"#utility.yul\":7647:7785   */\n    tag_152:\n        /* \"#utility.yul\":7695:7704   */\n      0x00\n        /* \"#utility.yul\":7728:7779   */\n      tag_245\n        /* \"#utility.yul\":7746:7778   */\n      tag_246\n        /* \"#utility.yul\":7755:7777   */\n      tag_247\n        /* \"#utility.yul\":7771:7776   */\n      dup5\n        /* \"#utility.yul\":7755:7777   */\n      tag_140\n      jump\t// in\n    tag_247:\n        /* \"#utility.yul\":7746:7778   */\n      tag_151\n      jump\t// in\n    tag_246:\n        /* \"#utility.yul\":7728:7779   */\n      tag_136\n      jump\t// in\n    tag_245:\n        /* \"#utility.yul\":7715:7779   */\n      swap1\n      pop\n        /* \"#utility.yul\":7647:7785   */\n      swap2\n      swap1\n      pop\n      jump\t// out\n        /* \"#utility.yul\":7791:7918   */\n    tag_153:\n        /* \"#utility.yul\":7876:7911   */\n      tag_249\n        /* \"#utility.yul\":7905:7910   */\n      dup2\n        /* \"#utility.yul\":7876:7911   */\n      tag_152\n      jump\t// in\n    tag_249:\n        /* \"#utility.yul\":7871:7874   */\n      dup3\n        /* \"#utility.yul\":7864:7912   */\n      mstore\n        /* \"#utility.yul\":7791:7918   */\n      pop\n      pop\n      jump\t// out\n        /* \"#utility.yul\":7924:8362   */\n    tag_56:\n        /* \"#utility.yul\":8071:8075   */\n      0x00\n        /* \"#utility.yul\":8109:8111   */\n      0x60\n        /* \"#utility.yul\":8098:8107   */\n      dup3\n        /* \"#utility.yul\":8094:8112   */\n      add\n        /* \"#utility.yul\":8086:8112   */\n      swap1\n      pop\n        /* \"#utility.yul\":8122:8193   */\n      tag_251\n        /* \"#utility.yul\":8190:8191   */\n      0x00\n        /* \"#utility.yul\":8179:8188   */\n      dup4\n        /* \"#utility.yul\":8175:8192   */\n      add\n        /* \"#utility.yul\":8166:8172   */\n      dup7\n        /* \"#utility.yul\":8122:8193   */\n      tag_139\n      jump\t// in\n    tag_251:\n        /* \"#utility.yul\":8203:8275   */\n      tag_252\n        /* \"#utility.yul\":8271:8273   */\n      0x20\n        /* \"#utility.yul\":8260:8269   */\n      dup4\n        /* \"#utility.yul\":8256:8274   */\n      add\n        /* \"#utility.yul\":8247:8253   */\n      dup6\n        /* \"#utility.yul\":8203:8275   */\n      tag_139\n      jump\t// in\n    tag_252:\n        /* \"#utility.yul\":8285:8355   */\n      tag_253\n        /* \"#utility.yul\":8351:8353   */\n      0x40\n        /* \"#utility.yul\":8340:8349   */\n      dup4\n        /* \"#utility.yul\":8336:8354   */\n      add\n        /* \"#utility.yul\":8327:8333   */\n      dup5\n        /* \"#utility.yul\":8285:8355   */\n      tag_153\n      jump\t// in\n    tag_253:\n        /* \"#utility.yul\":7924:8362   */\n      swap5\n      swap4\n      pop\n      pop\n      pop\n      pop\n      jump\t// out\n        /* \"#utility.yul\":8368:8484   */\n    tag_154:\n        /* \"#utility.yul\":8438:8459   */\n      tag_255\n        /* \"#utility.yul\":8453:8458   */\n      dup2\n        /* \"#utility.yul\":8438:8459   */\n      tag_142\n      jump\t// in\n    tag_255:\n        /* \"#utility.yul\":8431:8436   */\n      dup2\n        /* \"#utility.yul\":8428:8460   */\n      eq\n        /* \"#utility.yul\":8418:8478   */\n      tag_256\n      jumpi\n        /* \"#utility.yul\":8474:8475   */\n      0x00\n        /* \"#utility.yul\":8471:8472   */\n      dup1\n        /* \"#utility.yul\":8464:8476   */\n      revert\n        /* \"#utility.yul\":8418:8478   */\n    tag_256:\n        /* \"#utility.yul\":8368:8484   */\n      pop\n      jump\t// out\n        /* \"#utility.yul\":8490:8627   */\n    tag_155:\n        /* \"#utility.yul\":8544:8549   */\n      0x00\n        /* \"#utility.yul\":8575:8581   */\n      dup2\n        /* \"#utility.yul\":8569:8582   */\n      mload\n        /* \"#utility.yul\":8560:8582   */\n      swap1\n      pop\n        /* \"#utility.yul\":8591:8621   */\n      tag_258\n        /* \"#utility.yul\":8615:8620   */\n      dup2\n        /* \"#utility.yul\":8591:8621   */\n      tag_154\n      jump\t// in\n    tag_258:\n        /* \"#utility.yul\":8490:8627   */\n      swap3\n      swap2\n      pop\n      pop\n      jump\t// out\n        /* \"#utility.yul\":8633:8978   */\n    tag_60:\n        /* \"#utility.yul\":8700:8706   */\n      0x00\n        /* \"#utility.yul\":8749:8751   */\n      0x20\n        /* \"#utility.yul\":8737:8746   */\n      dup3\n        /* \"#utility.yul\":8728:8735   */\n      dup5\n        /* \"#utility.yul\":8724:8747   */\n      sub\n        /* \"#utility.yul\":8720:8752   */\n      slt\n        /* \"#utility.yul\":8717:8836   */\n      iszero\n      tag_260\n      jumpi\n        /* \"#utility.yul\":8755:8834   */\n      tag_261\n      tag_130\n      jump\t// in\n    tag_261:\n        /* \"#utility.yul\":8717:8836   */\n    tag_260:\n        /* \"#utility.yul\":8875:8876   */\n      0x00\n        /* \"#utility.yul\":8900:8961   */\n      tag_262\n        /* \"#utility.yul\":8953:8960   */\n      dup5\n        /* \"#utility.yul\":8944:8950   */\n      dup3\n        /* \"#utility.yul\":8933:8942   */\n      dup6\n        /* \"#utility.yul\":8929:8951   */\n      add\n        /* \"#utility.yul\":8900:8961   */\n      tag_155\n      jump\t// in\n    tag_262:\n        /* \"#utility.yul\":8890:8961   */\n      swap2\n      pop\n        /* \"#utility.yul\":8846:8971   */\n      pop\n        /* \"#utility.yul\":8633:8978   */\n      swap3\n      swap2\n      pop\n      pop\n      jump\t// out\n        /* \"#utility.yul\":8984:9316   */\n    tag_67:\n        /* \"#utility.yul\":9105:9109   */\n      0x00\n        /* \"#utility.yul\":9143:9145   */\n      0x40\n        /* \"#utility.yul\":9132:9141   */\n      dup3\n        /* \"#utility.yul\":9128:9146   */\n      add\n        /* \"#utility.yul\":9120:9146   */\n      swap1\n      pop\n        /* \"#utility.yul\":9156:9227   */\n      tag_264\n        /* \"#utility.yul\":9224:9225   */\n      0x00\n        /* \"#utility.yul\":9213:9222   */\n      dup4\n        /* \"#utility.yul\":9209:9226   */\n      add\n        /* \"#utility.yul\":9200:9206   */\n      dup6\n        /* \"#utility.yul\":9156:9227   */\n      tag_139\n      jump\t// in\n    tag_264:\n        /* \"#utility.yul\":9237:9309   */\n      tag_265\n        /* \"#utility.yul\":9305:9307   */\n      0x20\n        /* \"#utility.yul\":9294:9303   */\n      dup4\n        /* \"#utility.yul\":9290:9308   */\n      add\n        /* \"#utility.yul\":9281:9287   */\n      dup5\n        /* \"#utility.yul\":9237:9309   */\n      tag_146\n      jump\t// in\n    tag_265:\n        /* \"#utility.yul\":8984:9316   */\n      swap4\n      swap3\n      pop\n      pop\n      pop\n      jump\t// out\n        /* \"#utility.yul\":9322:9502   */\n    tag_73:\n        /* \"#utility.yul\":9370:9447   */\n      0x4e487b7100000000000000000000000000000000000000000000000000000000\n        /* \"#utility.yul\":9367:9368   */\n      0x00\n        /* \"#utility.yul\":9360:9448   */\n      mstore\n        /* \"#utility.yul\":9467:9471   */\n      0x32\n        /* \"#utility.yul\":9464:9465   */\n      0x04\n        /* \"#utility.yul\":9457:9472   */\n      mstore\n        /* \"#utility.yul\":9491:9495   */\n      0x24\n        /* \"#utility.yul\":9488:9489   */\n      0x00\n        /* \"#utility.yul\":9481:9496   */\n      revert\n        /* \"#utility.yul\":9508:9699   */\n    tag_76:\n        /* \"#utility.yul\":9548:9551   */\n      0x00\n        /* \"#utility.yul\":9567:9587   */\n      tag_268\n        /* \"#utility.yul\":9585:9586   */\n      dup3\n        /* \"#utility.yul\":9567:9587   */\n      tag_136\n      jump\t// in\n    tag_268:\n        /* \"#utility.yul\":9562:9587   */\n      swap2\n      pop\n        /* \"#utility.yul\":9601:9621   */\n      tag_269\n        /* \"#utility.yul\":9619:9620   */\n      dup4\n        /* \"#utility.yul\":9601:9621   */\n      tag_136\n      jump\t// in\n    tag_269:\n        /* \"#utility.yul\":9596:9621   */\n      swap3\n      pop\n        /* \"#utility.yul\":9644:9645   */\n      dup3\n        /* \"#utility.yul\":9641:9642   */\n      dup3\n        /* \"#utility.yul\":9637:9646   */\n      add\n        /* \"#utility.yul\":9630:9646   */\n      swap1\n      pop\n        /* \"#utility.yul\":9665:9668   */\n      dup1\n        /* \"#utility.yul\":9662:9663   */\n      dup3\n        /* \"#utility.yul\":9659:9669   */\n      gt\n        /* \"#utility.yul\":9656:9692   */\n      iszero\n      tag_270\n      jumpi\n        /* \"#utility.yul\":9672:9690   */\n      tag_271\n      tag_150\n      jump\t// in\n    tag_271:\n        /* \"#utility.yul\":9656:9692   */\n    tag_270:\n        /* \"#utility.yul\":9508:9699   */\n      swap3\n      swap2\n      pop\n      pop\n      jump\t// out\n        /* \"#utility.yul\":9705:10147   */\n    tag_84:\n        /* \"#utility.yul\":9854:9858   */\n      0x00\n        /* \"#utility.yul\":9892:9894   */\n      0x60\n        /* \"#utility.yul\":9881:9890   */\n      dup3\n        /* \"#utility.yul\":9877:9895   */\n      add\n        /* \"#utility.yul\":9869:9895   */\n      swap1\n      pop\n        /* \"#utility.yul\":9905:9976   */\n      tag_273\n        /* \"#utility.yul\":9973:9974   */\n      0x00\n        /* \"#utility.yul\":9962:9971   */\n      dup4\n        /* \"#utility.yul\":9958:9975   */\n      add\n        /* \"#utility.yul\":9949:9955   */\n      dup7\n        /* \"#utility.yul\":9905:9976   */\n      tag_139\n      jump\t// in\n    tag_273:\n        /* \"#utility.yul\":9986:10058   */\n      tag_274\n        /* \"#utility.yul\":10054:10056   */\n      0x20\n        /* \"#utility.yul\":10043:10052   */\n      dup4\n        /* \"#utility.yul\":10039:10057   */\n      add\n        /* \"#utility.yul\":10030:10036   */\n      dup6\n        /* \"#utility.yul\":9986:10058   */\n      tag_139\n      jump\t// in\n    tag_274:\n        /* \"#utility.yul\":10068:10140   */\n      tag_275\n        /* \"#utility.yul\":10136:10138   */\n      0x40\n        /* \"#utility.yul\":10125:10134   */\n      dup4\n        /* \"#utility.yul\":10121:10139   */\n      add\n        /* \"#utility.yul\":10112:10118   */\n      dup5\n        /* \"#utility.yul\":10068:10140   */\n      tag_146\n      jump\t// in\n    tag_275:\n        /* \"#utility.yul\":9705:10147   */\n      swap5\n      swap4\n      pop\n      pop\n      pop\n      pop\n      jump\t// out\n        /* \"#utility.yul\":10153:10375   */\n    tag_87:\n        /* \"#utility.yul\":10246:10250   */\n      0x00\n        /* \"#utility.yul\":10284:10286   */\n      0x20\n        /* \"#utility.yul\":10273:10282   */\n      dup3\n        /* \"#utility.yul\":10269:10287   */\n      add\n        /* \"#utility.yul\":10261:10287   */\n      swap1\n      pop\n        /* \"#utility.yul\":10297:10368   */\n      tag_277\n        /* \"#utility.yul\":10365:10366   */\n      0x00\n        /* \"#utility.yul\":10354:10363   */\n      dup4\n        /* \"#utility.yul\":10350:10367   */\n      add\n        /* \"#utility.yul\":10341:10347   */\n      dup5\n        /* \"#utility.yul\":10297:10368   */\n      tag_139\n      jump\t// in\n    tag_277:\n        /* \"#utility.yul\":10153:10375   */\n      swap3\n      swap2\n      pop\n      pop\n      jump\t// out\n        /* \"#utility.yul\":10381:10524   */\n    tag_156:\n        /* \"#utility.yul\":10438:10443   */\n      0x00\n        /* \"#utility.yul\":10469:10475   */\n      dup2\n        /* \"#utility.yul\":10463:10476   */\n      mload\n        /* \"#utility.yul\":10454:10476   */\n      swap1\n      pop\n        /* \"#utility.yul\":10485:10518   */\n      tag_279\n        /* \"#utility.yul\":10512:10517   */\n      dup2\n        /* \"#utility.yul\":10485:10518   */\n      tag_137\n      jump\t// in\n    tag_279:\n        /* \"#utility.yul\":10381:10524   */\n      swap3\n      swap2\n      pop\n      pop\n      jump\t// out\n        /* \"#utility.yul\":10530:10881   */\n    tag_91:\n        /* \"#utility.yul\":10600:10606   */\n      0x00\n        /* \"#utility.yul\":10649:10651   */\n      0x20\n        /* \"#utility.yul\":10637:10646   */\n      dup3\n        /* \"#utility.yul\":10628:10635   */\n      dup5\n        /* \"#utility.yul\":10624:10647   */\n      sub\n        /* \"#utility.yul\":10620:10652   */\n      slt\n        /* \"#utility.yul\":10617:10736   */\n      iszero\n      tag_281\n      jumpi\n        /* \"#utility.yul\":10655:10734   */\n      tag_282\n      tag_130\n      jump\t// in\n    tag_282:\n        /* \"#utility.yul\":10617:10736   */\n    tag_281:\n        /* \"#utility.yul\":10775:10776   */\n      0x00\n        /* \"#utility.yul\":10800:10864   */\n      tag_283\n        /* \"#utility.yul\":10856:10863   */\n      dup5\n        /* \"#utility.yul\":10847:10853   */\n      dup3\n        /* \"#utility.yul\":10836:10845   */\n      dup6\n        /* \"#utility.yul\":10832:10854   */\n      add\n        /* \"#utility.yul\":10800:10864   */\n      tag_156\n      jump\t// in\n    tag_283:\n        /* \"#utility.yul\":10790:10864   */\n      swap2\n      pop\n        /* \"#utility.yul\":10746:10874   */\n      pop\n        /* \"#utility.yul\":10530:10881   */\n      swap3\n      swap2\n      pop\n      pop\n      jump\t// out\n        /* \"#utility.yul\":10887:11067   */\n    tag_157:\n        /* \"#utility.yul\":10935:11012   */\n      0x4e487b7100000000000000000000000000000000000000000000000000000000\n        /* \"#utility.yul\":10932:10933   */\n      0x00\n        /* \"#utility.yul\":10925:11013   */\n      mstore\n        /* \"#utility.yul\":11032:11036   */\n      0x12\n        /* \"#utility.yul\":11029:11030   */\n      0x04\n        /* \"#utility.yul\":11022:11037   */\n      mstore\n        /* \"#utility.yul\":11056:11060   */\n      0x24\n        /* \"#utility.yul\":11053:11054   */\n      0x00\n        /* \"#utility.yul\":11046:11061   */\n      revert\n        /* \"#utility.yul\":11073:11252   */\n    tag_102:\n        /* \"#utility.yul\":11111:11112   */\n      0x00\n        /* \"#utility.yul\":11128:11146   */\n      tag_286\n        /* \"#utility.yul\":11144:11145   */\n      dup3\n        /* \"#utility.yul\":11128:11146   */\n      tag_140\n      jump\t// in\n    tag_286:\n        /* \"#utility.yul\":11123:11146   */\n      swap2\n      pop\n        /* \"#utility.yul\":11160:11178   */\n      tag_287\n        /* \"#utility.yul\":11176:11177   */\n      dup4\n        /* \"#utility.yul\":11160:11178   */\n      tag_140\n      jump\t// in\n    tag_287:\n        /* \"#utility.yul\":11155:11178   */\n      swap3\n      pop\n        /* \"#utility.yul\":11197:11198   */\n      dup3\n        /* \"#utility.yul\":11187:11222   */\n      tag_288\n      jumpi\n        /* \"#utility.yul\":11202:11220   */\n      tag_289\n      tag_157\n      jump\t// in\n    tag_289:\n        /* \"#utility.yul\":11187:11222   */\n    tag_288:\n        /* \"#utility.yul\":11244:11245   */\n      dup3\n        /* \"#utility.yul\":11241:11242   */\n      dup3\n        /* \"#utility.yul\":11237:11246   */\n      div\n        /* \"#utility.yul\":11232:11246   */\n      swap1\n      pop\n        /* \"#utility.yul\":11073:11252   */\n      swap3\n      swap2\n      pop\n      pop\n      jump\t// out\n        /* \"#utility.yul\":11258:11449   */\n    tag_111:\n        /* \"#utility.yul\":11296:11300   */\n      0x00\n        /* \"#utility.yul\":11316:11334   */\n      tag_291\n        /* \"#utility.yul\":11332:11333   */\n      dup3\n        /* \"#utility.yul\":11316:11334   */\n      tag_140\n      jump\t// in\n    tag_291:\n        /* \"#utility.yul\":11311:11334   */\n      swap2\n      pop\n        /* \"#utility.yul\":11348:11366   */\n      tag_292\n        /* \"#utility.yul\":11364:11365   */\n      dup4\n        /* \"#utility.yul\":11348:11366   */\n      tag_140\n      jump\t// in\n    tag_292:\n        /* \"#utility.yul\":11343:11366   */\n      swap3\n      pop\n        /* \"#utility.yul\":11390:11391   */\n      dup3\n        /* \"#utility.yul\":11387:11388   */\n      dup3\n        /* \"#utility.yul\":11383:11392   */\n      sub\n        /* \"#utility.yul\":11375:11392   */\n      swap1\n      pop\n        /* \"#utility.yul\":11414:11418   */\n      0xff\n        /* \"#utility.yul\":11408:11412   */\n      dup2\n        /* \"#utility.yul\":11405:11419   */\n      gt\n        /* \"#utility.yul\":11402:11442   */\n      iszero\n      tag_293\n      jumpi\n        /* \"#utility.yul\":11422:11440   */\n      tag_294\n      tag_150\n      jump\t// in\n    tag_294:\n        /* \"#utility.yul\":11402:11442   */\n    tag_293:\n        /* \"#utility.yul\":11258:11449   */\n      swap3\n      swap2\n      pop\n      pop\n      jump\t// out\n        /* \"#utility.yul\":11455:11726   */\n    tag_120:\n        /* \"#utility.yul\":11493:11500   */\n      0x00\n        /* \"#utility.yul\":11516:11534   */\n      tag_296\n        /* \"#utility.yul\":11532:11533   */\n      dup3\n        /* \"#utility.yul\":11516:11534   */\n      tag_140\n      jump\t// in\n    tag_296:\n        /* \"#utility.yul\":11511:11534   */\n      swap2\n      pop\n        /* \"#utility.yul\":11548:11566   */\n      tag_297\n        /* \"#utility.yul\":11564:11565   */\n      dup4\n        /* \"#utility.yul\":11548:11566   */\n      tag_140\n      jump\t// in\n    tag_297:\n        /* \"#utility.yul\":11543:11566   */\n      swap3\n      pop\n        /* \"#utility.yul\":11601:11602   */\n      dup3\n        /* \"#utility.yul\":11598:11599   */\n      dup3\n        /* \"#utility.yul\":11594:11603   */\n      mul\n        /* \"#utility.yul\":11623:11651   */\n      tag_298\n        /* \"#utility.yul\":11639:11650   */\n      dup2\n        /* \"#utility.yul\":11623:11651   */\n      tag_140\n      jump\t// in\n    tag_298:\n        /* \"#utility.yul\":11612:11651   */\n      swap2\n      pop\n        /* \"#utility.yul\":11683:11694   */\n      dup1\n        /* \"#utility.yul\":11674:11681   */\n      dup3\n        /* \"#utility.yul\":11671:11695   */\n      eq\n        /* \"#utility.yul\":11661:11719   */\n      tag_299\n      jumpi\n        /* \"#utility.yul\":11699:11717   */\n      tag_300\n      tag_150\n      jump\t// in\n    tag_300:\n        /* \"#utility.yul\":11661:11719   */\n    tag_299:\n        /* \"#utility.yul\":11501:11726   */\n      pop\n        /* \"#utility.yul\":11455:11726   */\n      swap3\n      swap2\n      pop\n      pop\n      jump\t// out\n        /* \"#utility.yul\":11732:11926   */\n    tag_122:\n        /* \"#utility.yul\":11772:11776   */\n      0x00\n        /* \"#utility.yul\":11792:11812   */\n      tag_302\n        /* \"#utility.yul\":11810:11811   */\n      dup3\n        /* \"#utility.yul\":11792:11812   */\n      tag_136\n      jump\t// in\n    tag_302:\n        /* \"#utility.yul\":11787:11812   */\n      swap2\n      pop\n        /* \"#utility.yul\":11826:11846   */\n      tag_303\n        /* \"#utility.yul\":11844:11845   */\n      dup4\n        /* \"#utility.yul\":11826:11846   */\n      tag_136\n      jump\t// in\n    tag_303:\n        /* \"#utility.yul\":11821:11846   */\n      swap3\n      pop\n        /* \"#utility.yul\":11870:11871   */\n      dup3\n        /* \"#utility.yul\":11867:11868   */\n      dup3\n        /* \"#utility.yul\":11863:11872   */\n      sub\n        /* \"#utility.yul\":11855:11872   */\n      swap1\n      pop\n        /* \"#utility.yul\":11894:11895   */\n      dup2\n        /* \"#utility.yul\":11888:11892   */\n      dup2\n        /* \"#utility.yul\":11885:11896   */\n      gt\n        /* \"#utility.yul\":11882:11919   */\n      iszero\n      tag_304\n      jumpi\n        /* \"#utility.yul\":11899:11917   */\n      tag_305\n      tag_150\n      jump\t// in\n    tag_305:\n        /* \"#utility.yul\":11882:11919   */\n    tag_304:\n        /* \"#utility.yul\":11732:11926   */\n      swap3\n      swap2\n      pop\n      pop\n      jump\t// out\n\n    auxdata: 0xa26469706673582212204eb2f3b2f058885135949fced4dbf34cee3e894974bcb9f03dddb051da3a2c9f64736f6c63430008120033\n}\n",
				"bytecode": {
					"linkReferences": {},
					"object": "608060405234801561001057600080fd5b50611587806100206000396000f3fe608060405234801561001057600080fd5b506004361061007d5760003560e01c8063b092145e1161005b578063b092145e146100f1578063b1b3933714610121578063c71daccb1461013d578063eef0934b1461015b5761007d565b80635fb2386e1461008257806373ce12d41461009e57806379c15cad146100d5575b600080fd5b61009c60048036038101906100979190610ebf565b61018b565b005b6100b860048036038101906100b39190610f22565b610223565b6040516100cc989796959493929190610fa8565b60405180910390f35b6100ef60048036038101906100ea9190611052565b610316565b005b61010b600480360381019061010691906110cd565b61076e565b604051610118919061110d565b60405180910390f35b61013b60048036038101906101369190611128565b61079d565b005b6101456109f3565b6040516101529190611164565b60405180910390f35b61017560048036038101906101709190610f22565b610a95565b6040516101829190611164565b60405180910390f35b6001600360003373ffffffffffffffffffffffffffffffffffffffff1673ffffffffffffffffffffffffffffffffffffffff16815260200190815260200160002060008373ffffffffffffffffffffffffffffffffffffffff1673ffffffffffffffffffffffffffffffffffffffff16815260200190815260200160002060006101000a81548160ff02191690831515021790555050565b6001602052816000526040600020818154811061023f57600080fd5b9060005260206000209060020201600091509150508060000160009054906101000a900473ffffffffffffffffffffffffffffffffffffffff16908060010160009054906101000a900473ffffffffffffffffffffffffffffffffffffffff16908060010160149054906101000a900460ff16908060010160159054906101000a900460ff16908060010160169054906101000a900460ff16908060010160179054906101000a900460ff16908060010160189054906101000a900460ff16908060010160199054906101000a900460ff16905088565b600360003373ffffffffffffffffffffffffffffffffffffffff1673ffffffffffffffffffffffffffffffffffffffff16815260200190815260200160002060008673ffffffffffffffffffffffffffffffffffffffff1673ffffffffffffffffffffffffffffffffffffffff16815260200190815260200160002060009054906101000a900460ff166103df576040517f08c379a00000000000000000000000000000000000000000000000000000000081526004016103d6906111dc565b60405180910390fd5b60008460ff16116103ef57600080fd5b846000806101000a81548173ffffffffffffffffffffffffffffffffffffffff021916908373ffffffffffffffffffffffffffffffffffffffff16021790555060006040518061010001604052808773ffffffffffffffffffffffffffffffffffffffff1681526020013373ffffffffffffffffffffffffffffffffffffffff1681526020018660ff1681526020018560ff1681526020018542610493919061122b565b60ff1681526020018460ff1681526020018360ff168152602001600115158152509050600160003373ffffffffffffffffffffffffffffffffffffffff1673ffffffffffffffffffffffffffffffffffffffff16815260200190815260200160002081908060018154018082558091505060019003906000526020600020906002020160009091909190915060008201518160000160006101000a81548173ffffffffffffffffffffffffffffffffffffffff021916908373ffffffffffffffffffffffffffffffffffffffff16021790555060208201518160010160006101000a81548173ffffffffffffffffffffffffffffffffffffffff021916908373ffffffffffffffffffffffffffffffffffffffff16021790555060408201518160010160146101000a81548160ff021916908360ff16021790555060608201518160010160156101000a81548160ff021916908360ff16021790555060808201518160010160166101000a81548160ff021916908360ff16021790555060a08201518160010160176101000a81548160ff021916908360ff16021790555060c08201518160010160186101000a81548160ff021916908360ff16021790555060e08201518160010160196101000a81548160ff02191690831515021790555050508260ff16816080015160ff161061068a57600080fd5b60008054906101000a900473ffffffffffffffffffffffffffffffffffffffff1673ffffffffffffffffffffffffffffffffffffffff166323b872dd3330886040518463ffffffff1660e01b81526004016106e79392919061129b565b6020604051808303816000875af1158015610706573d6000803e3d6000fd5b505050506040513d601f19601f8201168201806040525081019061072a91906112fe565b507faadb2f2750cbb4162df8d5f0c90b7562c816e56441c31f6acf40a6c9cd201c5833878760405161075e9392919061129b565b60405180910390a1505050505050565b60036020528160005260406000206020528060005260406000206000915091509054906101000a900460ff1681565b60006107a882610ac6565b9050600081036107b757600080fd5b60008054906101000a900473ffffffffffffffffffffffffffffffffffffffff1673ffffffffffffffffffffffffffffffffffffffff1663a9059cbb33836040518363ffffffff1660e01b815260040161081292919061132b565b6020604051808303816000875af1158015610831573d6000803e3d6000fd5b505050506040513d601f19601f8201168201806040525081019061085591906112fe565b5080600260003373ffffffffffffffffffffffffffffffffffffffff1673ffffffffffffffffffffffffffffffffffffffff1681526020019081526020016000208360ff16815481106108ab576108aa611354565b5b9060005260206000200160008282546108c49190611383565b925050819055506000600160003373ffffffffffffffffffffffffffffffffffffffff1673ffffffffffffffffffffffffffffffffffffffff1681526020019081526020016000208360ff168154811061092157610920611354565b5b906000526020600020906002020160000160009054906101000a900473ffffffffffffffffffffffffffffffffffffffff1690507f2e8fbf54cecd6c94b9cc0a4444bef56d7836157ea1f144da84df7e568c9ae4823382600260003373ffffffffffffffffffffffffffffffffffffffff1673ffffffffffffffffffffffffffffffffffffffff1681526020019081526020016000208660ff16815481106109cc576109cb611354565b5b90600052602060002001546040516109e6939291906113b7565b60405180910390a1505050565b60008060009054906101000a900473ffffffffffffffffffffffffffffffffffffffff1673ffffffffffffffffffffffffffffffffffffffff166370a08231306040518263ffffffff1660e01b8152600401610a4f91906113ee565b602060405180830381865afa158015610a6c573d6000803e3d6000fd5b505050506040513d601f19601f82011682018060405250810190610a90919061141e565b905090565b60026020528160005260406000208181548110610ab157600080fd5b90600052602060002001600091509150505481565b600080600160003373ffffffffffffffffffffffffffffffffffffffff1673ffffffffffffffffffffffffffffffffffffffff1681526020019081526020016000208360ff1681548110610b1d57610b1c611354565b5b906000526020600020906002020160010160189054906101000a900460ff16600160003373ffffffffffffffffffffffffffffffffffffffff1673ffffffffffffffffffffffffffffffffffffffff1681526020019081526020016000208460ff1681548110610b9057610b8f611354565b5b906000526020600020906002020160010160179054906101000a900460ff16610bb9919061147a565b9050600081600160003373ffffffffffffffffffffffffffffffffffffffff1673ffffffffffffffffffffffffffffffffffffffff1681526020019081526020016000208560ff1681548110610c1257610c11611354565b5b906000526020600020906002020160010160149054906101000a900460ff16610c3b919061147a565b90506000600160003373ffffffffffffffffffffffffffffffffffffffff1673ffffffffffffffffffffffffffffffffffffffff1681526020019081526020016000208560ff1681548110610c9357610c92611354565b5b906000526020600020906002020160010160169054906101000a900460ff1642610cbd91906114ab565b90506000600160003373ffffffffffffffffffffffffffffffffffffffff1673ffffffffffffffffffffffffffffffffffffffff1681526020019081526020016000208660ff1681548110610d1557610d14611354565b5b906000526020600020906002020160010160189054906101000a900460ff1682610d3f919061147a565b90506000600260003373ffffffffffffffffffffffffffffffffffffffff1673ffffffffffffffffffffffffffffffffffffffff1681526020019081526020016000208760ff1681548110610d9757610d96611354565b5b90600052602060002001548483610dae91906114e0565b60ff16610dbb919061151d565b90508460ff168260ff1610610e4e57600260003373ffffffffffffffffffffffffffffffffffffffff1673ffffffffffffffffffffffffffffffffffffffff1681526020019081526020016000208760ff1681548110610e1e57610e1d611354565b5b90600052602060002001548585610e3591906114e0565b60ff16610e42919061151d565b95505050505050610e57565b80955050505050505b919050565b600080fd5b600073ffffffffffffffffffffffffffffffffffffffff82169050919050565b6000610e8c82610e61565b9050919050565b610e9c81610e81565b8114610ea757600080fd5b50565b600081359050610eb981610e93565b92915050565b600060208284031215610ed557610ed4610e5c565b5b6000610ee384828501610eaa565b91505092915050565b6000819050919050565b610eff81610eec565b8114610f0a57600080fd5b50565b600081359050610f1c81610ef6565b92915050565b60008060408385031215610f3957610f38610e5c565b5b6000610f4785828601610eaa565b9250506020610f5885828601610f0d565b9150509250929050565b610f6b81610e81565b82525050565b600060ff82169050919050565b610f8781610f71565b82525050565b60008115159050919050565b610fa281610f8d565b82525050565b600061010082019050610fbe600083018b610f62565b610fcb602083018a610f62565b610fd86040830189610f7e565b610fe56060830188610f7e565b610ff26080830187610f7e565b610fff60a0830186610f7e565b61100c60c0830185610f7e565b61101960e0830184610f99565b9998505050505050505050565b61102f81610f71565b811461103a57600080fd5b50565b60008135905061104c81611026565b92915050565b600080600080600060a0868803121561106e5761106d610e5c565b5b600061107c88828901610eaa565b955050602061108d8882890161103d565b945050604061109e8882890161103d565b93505060606110af8882890161103d565b92505060806110c08882890161103d565b9150509295509295909350565b600080604083850312156110e4576110e3610e5c565b5b60006110f285828601610eaa565b925050602061110385828601610eaa565b9150509250929050565b60006020820190506111226000830184610f99565b92915050565b60006020828403121561113e5761113d610e5c565b5b600061114c8482850161103d565b91505092915050565b61115e81610eec565b82525050565b60006020820190506111796000830184611155565b92915050565b600082825260208201905092915050565b7f546f6b656e206973206e6f7420616c6c6f776564000000000000000000000000600082015250565b60006111c660148361117f565b91506111d182611190565b602082019050919050565b600060208201905081810360008301526111f5816111b9565b9050919050565b7f4e487b7100000000000000000000000000000000000000000000000000000000600052601160045260246000fd5b600061123682610f71565b915061124183610f71565b9250828201905060ff81111561125a576112596111fc565b5b92915050565b6000819050919050565b600061128561128061127b84610f71565b611260565b610eec565b9050919050565b6112958161126a565b82525050565b60006060820190506112b06000830186610f62565b6112bd6020830185610f62565b6112ca604083018461128c565b949350505050565b6112db81610f8d565b81146112e657600080fd5b50565b6000815190506112f8816112d2565b92915050565b60006020828403121561131457611313610e5c565b5b6000611322848285016112e9565b91505092915050565b60006040820190506113406000830185610f62565b61134d6020830184611155565b9392505050565b7f4e487b7100000000000000000000000000000000000000000000000000000000600052603260045260246000fd5b600061138e82610eec565b915061139983610eec565b92508282019050808211156113b1576113b06111fc565b5b92915050565b60006060820190506113cc6000830186610f62565b6113d96020830185610f62565b6113e66040830184611155565b949350505050565b60006020820190506114036000830184610f62565b92915050565b60008151905061141881610ef6565b92915050565b60006020828403121561143457611433610e5c565b5b600061144284828501611409565b91505092915050565b7f4e487b7100000000000000000000000000000000000000000000000000000000600052601260045260246000fd5b600061148582610f71565b915061149083610f71565b9250826114a05761149f61144b565b5b828204905092915050565b60006114b682610f71565b91506114c183610f71565b9250828203905060ff8111156114da576114d96111fc565b5b92915050565b60006114eb82610f71565b91506114f683610f71565b925082820261150481610f71565b9150808214611516576115156111fc565b5b5092915050565b600061152882610eec565b915061153383610eec565b925082820390508181111561154b5761154a6111fc565b5b9291505056fea26469706673582212204eb2f3b2f058885135949fced4dbf34cee3e894974bcb9f03dddb051da3a2c9f64736f6c63430008120033",
					"opcodes": "PUSH1 0x80 PUSH1 0x40 MSTORE CALLVALUE DUP1 ISZERO PUSH2 0x10 JUMPI PUSH1 0x0 DUP1 REVERT JUMPDEST POP PUSH2 0x1587 DUP1 PUSH2 0x20 PUSH1 0x0 CODECOPY PUSH1 0x0 RETURN INVALID PUSH1 0x80 PUSH1 0x40 MSTORE CALLVALUE DUP1 ISZERO PUSH2 0x10 JUMPI PUSH1 0x0 DUP1 REVERT JUMPDEST POP PUSH1 0x4 CALLDATASIZE LT PUSH2 0x7D JUMPI PUSH1 0x0 CALLDATALOAD PUSH1 0xE0 SHR DUP1 PUSH4 0xB092145E GT PUSH2 0x5B JUMPI DUP1 PUSH4 0xB092145E EQ PUSH2 0xF1 JUMPI DUP1 PUSH4 0xB1B39337 EQ PUSH2 0x121 JUMPI DUP1 PUSH4 0xC71DACCB EQ PUSH2 0x13D JUMPI DUP1 PUSH4 0xEEF0934B EQ PUSH2 0x15B JUMPI PUSH2 0x7D JUMP JUMPDEST DUP1 PUSH4 0x5FB2386E EQ PUSH2 0x82 JUMPI DUP1 PUSH4 0x73CE12D4 EQ PUSH2 0x9E JUMPI DUP1 PUSH4 0x79C15CAD EQ PUSH2 0xD5 JUMPI JUMPDEST PUSH1 0x0 DUP1 REVERT JUMPDEST PUSH2 0x9C PUSH1 0x4 DUP1 CALLDATASIZE SUB DUP2 ADD SWAP1 PUSH2 0x97 SWAP2 SWAP1 PUSH2 0xEBF JUMP JUMPDEST PUSH2 0x18B JUMP JUMPDEST STOP JUMPDEST PUSH2 0xB8 PUSH1 0x4 DUP1 CALLDATASIZE SUB DUP2 ADD SWAP1 PUSH2 0xB3 SWAP2 SWAP1 PUSH2 0xF22 JUMP JUMPDEST PUSH2 0x223 JUMP JUMPDEST PUSH1 0x40 MLOAD PUSH2 0xCC SWAP9 SWAP8 SWAP7 SWAP6 SWAP5 SWAP4 SWAP3 SWAP2 SWAP1 PUSH2 0xFA8 JUMP JUMPDEST PUSH1 0x40 MLOAD DUP1 SWAP2 SUB SWAP1 RETURN JUMPDEST PUSH2 0xEF PUSH1 0x4 DUP1 CALLDATASIZE SUB DUP2 ADD SWAP1 PUSH2 0xEA SWAP2 SWAP1 PUSH2 0x1052 JUMP JUMPDEST PUSH2 0x316 JUMP JUMPDEST STOP JUMPDEST PUSH2 0x10B PUSH1 0x4 DUP1 CALLDATASIZE SUB DUP2 ADD SWAP1 PUSH2 0x106 SWAP2 SWAP1 PUSH2 0x10CD JUMP JUMPDEST PUSH2 0x76E JUMP JUMPDEST PUSH1 0x40 MLOAD PUSH2 0x118 SWAP2 SWAP1 PUSH2 0x110D JUMP JUMPDEST PUSH1 0x40 MLOAD DUP1 SWAP2 SUB SWAP1 RETURN JUMPDEST PUSH2 0x13B PUSH1 0x4 DUP1 CALLDATASIZE SUB DUP2 ADD SWAP1 PUSH2 0x136 SWAP2 SWAP1 PUSH2 0x1128 JUMP JUMPDEST PUSH2 0x79D JUMP JUMPDEST STOP JUMPDEST PUSH2 0x145 PUSH2 0x9F3 JUMP JUMPDEST PUSH1 0x40 MLOAD PUSH2 0x152 SWAP2 SWAP1 PUSH2 0x1164 JUMP JUMPDEST PUSH1 0x40 MLOAD DUP1 SWAP2 SUB SWAP1 RETURN JUMPDEST PUSH2 0x175 PUSH1 0x4 DUP1 CALLDATASIZE SUB DUP2 ADD SWAP1 PUSH2 0x170 SWAP2 SWAP1 PUSH2 0xF22 JUMP JUMPDEST PUSH2 0xA95 JUMP JUMPDEST PUSH1 0x40 MLOAD PUSH2 0x182 SWAP2 SWAP1 PUSH2 0x1164 JUMP JUMPDEST PUSH1 0x40 MLOAD DUP1 SWAP2 SUB SWAP1 RETURN JUMPDEST PUSH1 0x1 PUSH1 0x3 PUSH1 0x0 CALLER PUSH20 0xFFFFFFFFFFFFFFFFFFFFFFFFFFFFFFFFFFFFFFFF AND PUSH20 0xFFFFFFFFFFFFFFFFFFFFFFFFFFFFFFFFFFFFFFFF AND DUP2 MSTORE PUSH1 0x20 ADD SWAP1 DUP2 MSTORE PUSH1 0x20 ADD PUSH1 0x0 KECCAK256 PUSH1 0x0 DUP4 PUSH20 0xFFFFFFFFFFFFFFFFFFFFFFFFFFFFFFFFFFFFFFFF AND PUSH20 0xFFFFFFFFFFFFFFFFFFFFFFFFFFFFFFFFFFFFFFFF AND DUP2 MSTORE PUSH1 0x20 ADD SWAP1 DUP2 MSTORE PUSH1 0x20 ADD PUSH1 0x0 KECCAK256 PUSH1 0x0 PUSH2 0x100 EXP DUP2 SLOAD DUP2 PUSH1 0xFF MUL NOT AND SWAP1 DUP4 ISZERO ISZERO MUL OR SWAP1 SSTORE POP POP JUMP JUMPDEST PUSH1 0x1 PUSH1 0x20 MSTORE DUP2 PUSH1 0x0 MSTORE PUSH1 0x40 PUSH1 0x0 KECCAK256 DUP2 DUP2 SLOAD DUP2 LT PUSH2 0x23F JUMPI PUSH1 0x0 DUP1 REVERT JUMPDEST SWAP1 PUSH1 0x0 MSTORE PUSH1 0x20 PUSH1 0x0 KECCAK256 SWAP1 PUSH1 0x2 MUL ADD PUSH1 0x0 SWAP2 POP SWAP2 POP POP DUP1 PUSH1 0x0 ADD PUSH1 0x0 SWAP1 SLOAD SWAP1 PUSH2 0x100 EXP SWAP1 DIV PUSH20 0xFFFFFFFFFFFFFFFFFFFFFFFFFFFFFFFFFFFFFFFF AND SWAP1 DUP1 PUSH1 0x1 ADD PUSH1 0x0 SWAP1 SLOAD SWAP1 PUSH2 0x100 EXP SWAP1 DIV PUSH20 0xFFFFFFFFFFFFFFFFFFFFFFFFFFFFFFFFFFFFFFFF AND SWAP1 DUP1 PUSH1 0x1 ADD PUSH1 0x14 SWAP1 SLOAD SWAP1 PUSH2 0x100 EXP SWAP1 DIV PUSH1 0xFF AND SWAP1 DUP1 PUSH1 0x1 ADD PUSH1 0x15 SWAP1 SLOAD SWAP1 PUSH2 0x100 EXP SWAP1 DIV PUSH1 0xFF AND SWAP1 DUP1 PUSH1 0x1 ADD PUSH1 0x16 SWAP1 SLOAD SWAP1 PUSH2 0x100 EXP SWAP1 DIV PUSH1 0xFF AND SWAP1 DUP1 PUSH1 0x1 ADD PUSH1 0x17 SWAP1 SLOAD SWAP1 PUSH2 0x100 EXP SWAP1 DIV PUSH1 0xFF AND SWAP1 DUP1 PUSH1 0x1 ADD PUSH1 0x18 SWAP1 SLOAD SWAP1 PUSH2 0x100 EXP SWAP1 DIV PUSH1 0xFF AND SWAP1 DUP1 PUSH1 0x1 ADD PUSH1 0x19 SWAP1 SLOAD SWAP1 PUSH2 0x100 EXP SWAP1 DIV PUSH1 0xFF AND SWAP1 POP DUP9 JUMP JUMPDEST PUSH1 0x3 PUSH1 0x0 CALLER PUSH20 0xFFFFFFFFFFFFFFFFFFFFFFFFFFFFFFFFFFFFFFFF AND PUSH20 0xFFFFFFFFFFFFFFFFFFFFFFFFFFFFFFFFFFFFFFFF AND DUP2 MSTORE PUSH1 0x20 ADD SWAP1 DUP2 MSTORE PUSH1 0x20 ADD PUSH1 0x0 KECCAK256 PUSH1 0x0 DUP7 PUSH20 0xFFFFFFFFFFFFFFFFFFFFFFFFFFFFFFFFFFFFFFFF AND PUSH20 0xFFFFFFFFFFFFFFFFFFFFFFFFFFFFFFFFFFFFFFFF AND DUP2 MSTORE PUSH1 0x20 ADD SWAP1 DUP2 MSTORE PUSH1 0x20 ADD PUSH1 0x0 KECCAK256 PUSH1 0x0 SWAP1 SLOAD SWAP1 PUSH2 0x100 EXP SWAP1 DIV PUSH1 0xFF AND PUSH2 0x3DF JUMPI PUSH1 0x40 MLOAD PUSH32 0x8C379A000000000000000000000000000000000000000000000000000000000 DUP2 MSTORE PUSH1 0x4 ADD PUSH2 0x3D6 SWAP1 PUSH2 0x11DC JUMP JUMPDEST PUSH1 0x40 MLOAD DUP1 SWAP2 SUB SWAP1 REVERT JUMPDEST PUSH1 0x0 DUP5 PUSH1 0xFF AND GT PUSH2 0x3EF JUMPI PUSH1 0x0 DUP1 REVERT JUMPDEST DUP5 PUSH1 0x0 DUP1 PUSH2 0x100 EXP DUP2 SLOAD DUP2 PUSH20 0xFFFFFFFFFFFFFFFFFFFFFFFFFFFFFFFFFFFFFFFF MUL NOT AND SWAP1 DUP4 PUSH20 0xFFFFFFFFFFFFFFFFFFFFFFFFFFFFFFFFFFFFFFFF AND MUL OR SWAP1 SSTORE POP PUSH1 0x0 PUSH1 0x40 MLOAD DUP1 PUSH2 0x100 ADD PUSH1 0x40 MSTORE DUP1 DUP8 PUSH20 0xFFFFFFFFFFFFFFFFFFFFFFFFFFFFFFFFFFFFFFFF AND DUP2 MSTORE PUSH1 0x20 ADD CALLER PUSH20 0xFFFFFFFFFFFFFFFFFFFFFFFFFFFFFFFFFFFFFFFF AND DUP2 MSTORE PUSH1 0x20 ADD DUP7 PUSH1 0xFF AND DUP2 MSTORE PUSH1 0x20 ADD DUP6 PUSH1 0xFF AND DUP2 MSTORE PUSH1 0x20 ADD DUP6 TIMESTAMP PUSH2 0x493 SWAP2 SWAP1 PUSH2 0x122B JUMP JUMPDEST PUSH1 0xFF AND DUP2 MSTORE PUSH1 0x20 ADD DUP5 PUSH1 0xFF AND DUP2 MSTORE PUSH1 0x20 ADD DUP4 PUSH1 0xFF AND DUP2 MSTORE PUSH1 0x20 ADD PUSH1 0x1 ISZERO ISZERO DUP2 MSTORE POP SWAP1 POP PUSH1 0x1 PUSH1 0x0 CALLER PUSH20 0xFFFFFFFFFFFFFFFFFFFFFFFFFFFFFFFFFFFFFFFF AND PUSH20 0xFFFFFFFFFFFFFFFFFFFFFFFFFFFFFFFFFFFFFFFF AND DUP2 MSTORE PUSH1 0x20 ADD SWAP1 DUP2 MSTORE PUSH1 0x20 ADD PUSH1 0x0 KECCAK256 DUP2 SWAP1 DUP1 PUSH1 0x1 DUP2 SLOAD ADD DUP1 DUP3 SSTORE DUP1 SWAP2 POP POP PUSH1 0x1 SWAP1 SUB SWAP1 PUSH1 0x0 MSTORE PUSH1 0x20 PUSH1 0x0 KECCAK256 SWAP1 PUSH1 0x2 MUL ADD PUSH1 0x0 SWAP1 SWAP2 SWAP1 SWAP2 SWAP1 SWAP2 POP PUSH1 0x0 DUP3 ADD MLOAD DUP2 PUSH1 0x0 ADD PUSH1 0x0 PUSH2 0x100 EXP DUP2 SLOAD DUP2 PUSH20 0xFFFFFFFFFFFFFFFFFFFFFFFFFFFFFFFFFFFFFFFF MUL NOT AND SWAP1 DUP4 PUSH20 0xFFFFFFFFFFFFFFFFFFFFFFFFFFFFFFFFFFFFFFFF AND MUL OR SWAP1 SSTORE POP PUSH1 0x20 DUP3 ADD MLOAD DUP2 PUSH1 0x1 ADD PUSH1 0x0 PUSH2 0x100 EXP DUP2 SLOAD DUP2 PUSH20 0xFFFFFFFFFFFFFFFFFFFFFFFFFFFFFFFFFFFFFFFF MUL NOT AND SWAP1 DUP4 PUSH20 0xFFFFFFFFFFFFFFFFFFFFFFFFFFFFFFFFFFFFFFFF AND MUL OR SWAP1 SSTORE POP PUSH1 0x40 DUP3 ADD MLOAD DUP2 PUSH1 0x1 ADD PUSH1 0x14 PUSH2 0x100 EXP DUP2 SLOAD DUP2 PUSH1 0xFF MUL NOT AND SWAP1 DUP4 PUSH1 0xFF AND MUL OR SWAP1 SSTORE POP PUSH1 0x60 DUP3 ADD MLOAD DUP2 PUSH1 0x1 ADD PUSH1 0x15 PUSH2 0x100 EXP DUP2 SLOAD DUP2 PUSH1 0xFF MUL NOT AND SWAP1 DUP4 PUSH1 0xFF AND MUL OR SWAP1 SSTORE POP PUSH1 0x80 DUP3 ADD MLOAD DUP2 PUSH1 0x1 ADD PUSH1 0x16 PUSH2 0x100 EXP DUP2 SLOAD DUP2 PUSH1 0xFF MUL NOT AND SWAP1 DUP4 PUSH1 0xFF AND MUL OR SWAP1 SSTORE POP PUSH1 0xA0 DUP3 ADD MLOAD DUP2 PUSH1 0x1 ADD PUSH1 0x17 PUSH2 0x100 EXP DUP2 SLOAD DUP2 PUSH1 0xFF MUL NOT AND SWAP1 DUP4 PUSH1 0xFF AND MUL OR SWAP1 SSTORE POP PUSH1 0xC0 DUP3 ADD MLOAD DUP2 PUSH1 0x1 ADD PUSH1 0x18 PUSH2 0x100 EXP DUP2 SLOAD DUP2 PUSH1 0xFF MUL NOT AND SWAP1 DUP4 PUSH1 0xFF AND MUL OR SWAP1 SSTORE POP PUSH1 0xE0 DUP3 ADD MLOAD DUP2 PUSH1 0x1 ADD PUSH1 0x19 PUSH2 0x100 EXP DUP2 SLOAD DUP2 PUSH1 0xFF MUL NOT AND SWAP1 DUP4 ISZERO ISZERO MUL OR SWAP1 SSTORE POP POP POP DUP3 PUSH1 0xFF AND DUP2 PUSH1 0x80 ADD MLOAD PUSH1 0xFF AND LT PUSH2 0x68A JUMPI PUSH1 0x0 DUP1 REVERT JUMPDEST PUSH1 0x0 DUP1 SLOAD SWAP1 PUSH2 0x100 EXP SWAP1 DIV PUSH20 0xFFFFFFFFFFFFFFFFFFFFFFFFFFFFFFFFFFFFFFFF AND PUSH20 0xFFFFFFFFFFFFFFFFFFFFFFFFFFFFFFFFFFFFFFFF AND PUSH4 0x23B872DD CALLER ADDRESS DUP9 PUSH1 0x40 MLOAD DUP5 PUSH4 0xFFFFFFFF AND PUSH1 0xE0 SHL DUP2 MSTORE PUSH1 0x4 ADD PUSH2 0x6E7 SWAP4 SWAP3 SWAP2 SWAP1 PUSH2 0x129B JUMP JUMPDEST PUSH1 0x20 PUSH1 0x40 MLOAD DUP1 DUP4 SUB DUP2 PUSH1 0x0 DUP8 GAS CALL ISZERO DUP1 ISZERO PUSH2 0x706 JUMPI RETURNDATASIZE PUSH1 0x0 DUP1 RETURNDATACOPY RETURNDATASIZE PUSH1 0x0 REVERT JUMPDEST POP POP POP POP PUSH1 0x40 MLOAD RETURNDATASIZE PUSH1 0x1F NOT PUSH1 0x1F DUP3 ADD AND DUP3 ADD DUP1 PUSH1 0x40 MSTORE POP DUP2 ADD SWAP1 PUSH2 0x72A SWAP2 SWAP1 PUSH2 0x12FE JUMP JUMPDEST POP PUSH32 0xAADB2F2750CBB4162DF8D5F0C90B7562C816E56441C31F6ACF40A6C9CD201C58 CALLER DUP8 DUP8 PUSH1 0x40 MLOAD PUSH2 0x75E SWAP4 SWAP3 SWAP2 SWAP1 PUSH2 0x129B JUMP JUMPDEST PUSH1 0x40 MLOAD DUP1 SWAP2 SUB SWAP1 LOG1 POP POP POP POP POP POP JUMP JUMPDEST PUSH1 0x3 PUSH1 0x20 MSTORE DUP2 PUSH1 0x0 MSTORE PUSH1 0x40 PUSH1 0x0 KECCAK256 PUSH1 0x20 MSTORE DUP1 PUSH1 0x0 MSTORE PUSH1 0x40 PUSH1 0x0 KECCAK256 PUSH1 0x0 SWAP2 POP SWAP2 POP SWAP1 SLOAD SWAP1 PUSH2 0x100 EXP SWAP1 DIV PUSH1 0xFF AND DUP2 JUMP JUMPDEST PUSH1 0x0 PUSH2 0x7A8 DUP3 PUSH2 0xAC6 JUMP JUMPDEST SWAP1 POP PUSH1 0x0 DUP2 SUB PUSH2 0x7B7 JUMPI PUSH1 0x0 DUP1 REVERT JUMPDEST PUSH1 0x0 DUP1 SLOAD SWAP1 PUSH2 0x100 EXP SWAP1 DIV PUSH20 0xFFFFFFFFFFFFFFFFFFFFFFFFFFFFFFFFFFFFFFFF AND PUSH20 0xFFFFFFFFFFFFFFFFFFFFFFFFFFFFFFFFFFFFFFFF AND PUSH4 0xA9059CBB CALLER DUP4 PUSH1 0x40 MLOAD DUP4 PUSH4 0xFFFFFFFF AND PUSH1 0xE0 SHL DUP2 MSTORE PUSH1 0x4 ADD PUSH2 0x812 SWAP3 SWAP2 SWAP1 PUSH2 0x132B JUMP JUMPDEST PUSH1 0x20 PUSH1 0x40 MLOAD DUP1 DUP4 SUB DUP2 PUSH1 0x0 DUP8 GAS CALL ISZERO DUP1 ISZERO PUSH2 0x831 JUMPI RETURNDATASIZE PUSH1 0x0 DUP1 RETURNDATACOPY RETURNDATASIZE PUSH1 0x0 REVERT JUMPDEST POP POP POP POP PUSH1 0x40 MLOAD RETURNDATASIZE PUSH1 0x1F NOT PUSH1 0x1F DUP3 ADD AND DUP3 ADD DUP1 PUSH1 0x40 MSTORE POP DUP2 ADD SWAP1 PUSH2 0x855 SWAP2 SWAP1 PUSH2 0x12FE JUMP JUMPDEST POP DUP1 PUSH1 0x2 PUSH1 0x0 CALLER PUSH20 0xFFFFFFFFFFFFFFFFFFFFFFFFFFFFFFFFFFFFFFFF AND PUSH20 0xFFFFFFFFFFFFFFFFFFFFFFFFFFFFFFFFFFFFFFFF AND DUP2 MSTORE PUSH1 0x20 ADD SWAP1 DUP2 MSTORE PUSH1 0x20 ADD PUSH1 0x0 KECCAK256 DUP4 PUSH1 0xFF AND DUP2 SLOAD DUP2 LT PUSH2 0x8AB JUMPI PUSH2 0x8AA PUSH2 0x1354 JUMP JUMPDEST JUMPDEST SWAP1 PUSH1 0x0 MSTORE PUSH1 0x20 PUSH1 0x0 KECCAK256 ADD PUSH1 0x0 DUP3 DUP3 SLOAD PUSH2 0x8C4 SWAP2 SWAP1 PUSH2 0x1383 JUMP JUMPDEST SWAP3 POP POP DUP2 SWAP1 SSTORE POP PUSH1 0x0 PUSH1 0x1 PUSH1 0x0 CALLER PUSH20 0xFFFFFFFFFFFFFFFFFFFFFFFFFFFFFFFFFFFFFFFF AND PUSH20 0xFFFFFFFFFFFFFFFFFFFFFFFFFFFFFFFFFFFFFFFF AND DUP2 MSTORE PUSH1 0x20 ADD SWAP1 DUP2 MSTORE PUSH1 0x20 ADD PUSH1 0x0 KECCAK256 DUP4 PUSH1 0xFF AND DUP2 SLOAD DUP2 LT PUSH2 0x921 JUMPI PUSH2 0x920 PUSH2 0x1354 JUMP JUMPDEST JUMPDEST SWAP1 PUSH1 0x0 MSTORE PUSH1 0x20 PUSH1 0x0 KECCAK256 SWAP1 PUSH1 0x2 MUL ADD PUSH1 0x0 ADD PUSH1 0x0 SWAP1 SLOAD SWAP1 PUSH2 0x100 EXP SWAP1 DIV PUSH20 0xFFFFFFFFFFFFFFFFFFFFFFFFFFFFFFFFFFFFFFFF AND SWAP1 POP PUSH32 0x2E8FBF54CECD6C94B9CC0A4444BEF56D7836157EA1F144DA84DF7E568C9AE482 CALLER DUP3 PUSH1 0x2 PUSH1 0x0 CALLER PUSH20 0xFFFFFFFFFFFFFFFFFFFFFFFFFFFFFFFFFFFFFFFF AND PUSH20 0xFFFFFFFFFFFFFFFFFFFFFFFFFFFFFFFFFFFFFFFF AND DUP2 MSTORE PUSH1 0x20 ADD SWAP1 DUP2 MSTORE PUSH1 0x20 ADD PUSH1 0x0 KECCAK256 DUP7 PUSH1 0xFF AND DUP2 SLOAD DUP2 LT PUSH2 0x9CC JUMPI PUSH2 0x9CB PUSH2 0x1354 JUMP JUMPDEST JUMPDEST SWAP1 PUSH1 0x0 MSTORE PUSH1 0x20 PUSH1 0x0 KECCAK256 ADD SLOAD PUSH1 0x40 MLOAD PUSH2 0x9E6 SWAP4 SWAP3 SWAP2 SWAP1 PUSH2 0x13B7 JUMP JUMPDEST PUSH1 0x40 MLOAD DUP1 SWAP2 SUB SWAP1 LOG1 POP POP POP JUMP JUMPDEST PUSH1 0x0 DUP1 PUSH1 0x0 SWAP1 SLOAD SWAP1 PUSH2 0x100 EXP SWAP1 DIV PUSH20 0xFFFFFFFFFFFFFFFFFFFFFFFFFFFFFFFFFFFFFFFF AND PUSH20 0xFFFFFFFFFFFFFFFFFFFFFFFFFFFFFFFFFFFFFFFF AND PUSH4 0x70A08231 ADDRESS PUSH1 0x40 MLOAD DUP3 PUSH4 0xFFFFFFFF AND PUSH1 0xE0 SHL DUP2 MSTORE PUSH1 0x4 ADD PUSH2 0xA4F SWAP2 SWAP1 PUSH2 0x13EE JUMP JUMPDEST PUSH1 0x20 PUSH1 0x40 MLOAD DUP1 DUP4 SUB DUP2 DUP7 GAS STATICCALL ISZERO DUP1 ISZERO PUSH2 0xA6C JUMPI RETURNDATASIZE PUSH1 0x0 DUP1 RETURNDATACOPY RETURNDATASIZE PUSH1 0x0 REVERT JUMPDEST POP POP POP POP PUSH1 0x40 MLOAD RETURNDATASIZE PUSH1 0x1F NOT PUSH1 0x1F DUP3 ADD AND DUP3 ADD DUP1 PUSH1 0x40 MSTORE POP DUP2 ADD SWAP1 PUSH2 0xA90 SWAP2 SWAP1 PUSH2 0x141E JUMP JUMPDEST SWAP1 POP SWAP1 JUMP JUMPDEST PUSH1 0x2 PUSH1 0x20 MSTORE DUP2 PUSH1 0x0 MSTORE PUSH1 0x40 PUSH1 0x0 KECCAK256 DUP2 DUP2 SLOAD DUP2 LT PUSH2 0xAB1 JUMPI PUSH1 0x0 DUP1 REVERT JUMPDEST SWAP1 PUSH1 0x0 MSTORE PUSH1 0x20 PUSH1 0x0 KECCAK256 ADD PUSH1 0x0 SWAP2 POP SWAP2 POP POP SLOAD DUP2 JUMP JUMPDEST PUSH1 0x0 DUP1 PUSH1 0x1 PUSH1 0x0 CALLER PUSH20 0xFFFFFFFFFFFFFFFFFFFFFFFFFFFFFFFFFFFFFFFF AND PUSH20 0xFFFFFFFFFFFFFFFFFFFFFFFFFFFFFFFFFFFFFFFF AND DUP2 MSTORE PUSH1 0x20 ADD SWAP1 DUP2 MSTORE PUSH1 0x20 ADD PUSH1 0x0 KECCAK256 DUP4 PUSH1 0xFF AND DUP2 SLOAD DUP2 LT PUSH2 0xB1D JUMPI PUSH2 0xB1C PUSH2 0x1354 JUMP JUMPDEST JUMPDEST SWAP1 PUSH1 0x0 MSTORE PUSH1 0x20 PUSH1 0x0 KECCAK256 SWAP1 PUSH1 0x2 MUL ADD PUSH1 0x1 ADD PUSH1 0x18 SWAP1 SLOAD SWAP1 PUSH2 0x100 EXP SWAP1 DIV PUSH1 0xFF AND PUSH1 0x1 PUSH1 0x0 CALLER PUSH20 0xFFFFFFFFFFFFFFFFFFFFFFFFFFFFFFFFFFFFFFFF AND PUSH20 0xFFFFFFFFFFFFFFFFFFFFFFFFFFFFFFFFFFFFFFFF AND DUP2 MSTORE PUSH1 0x20 ADD SWAP1 DUP2 MSTORE PUSH1 0x20 ADD PUSH1 0x0 KECCAK256 DUP5 PUSH1 0xFF AND DUP2 SLOAD DUP2 LT PUSH2 0xB90 JUMPI PUSH2 0xB8F PUSH2 0x1354 JUMP JUMPDEST JUMPDEST SWAP1 PUSH1 0x0 MSTORE PUSH1 0x20 PUSH1 0x0 KECCAK256 SWAP1 PUSH1 0x2 MUL ADD PUSH1 0x1 ADD PUSH1 0x17 SWAP1 SLOAD SWAP1 PUSH2 0x100 EXP SWAP1 DIV PUSH1 0xFF AND PUSH2 0xBB9 SWAP2 SWAP1 PUSH2 0x147A JUMP JUMPDEST SWAP1 POP PUSH1 0x0 DUP2 PUSH1 0x1 PUSH1 0x0 CALLER PUSH20 0xFFFFFFFFFFFFFFFFFFFFFFFFFFFFFFFFFFFFFFFF AND PUSH20 0xFFFFFFFFFFFFFFFFFFFFFFFFFFFFFFFFFFFFFFFF AND DUP2 MSTORE PUSH1 0x20 ADD SWAP1 DUP2 MSTORE PUSH1 0x20 ADD PUSH1 0x0 KECCAK256 DUP6 PUSH1 0xFF AND DUP2 SLOAD DUP2 LT PUSH2 0xC12 JUMPI PUSH2 0xC11 PUSH2 0x1354 JUMP JUMPDEST JUMPDEST SWAP1 PUSH1 0x0 MSTORE PUSH1 0x20 PUSH1 0x0 KECCAK256 SWAP1 PUSH1 0x2 MUL ADD PUSH1 0x1 ADD PUSH1 0x14 SWAP1 SLOAD SWAP1 PUSH2 0x100 EXP SWAP1 DIV PUSH1 0xFF AND PUSH2 0xC3B SWAP2 SWAP1 PUSH2 0x147A JUMP JUMPDEST SWAP1 POP PUSH1 0x0 PUSH1 0x1 PUSH1 0x0 CALLER PUSH20 0xFFFFFFFFFFFFFFFFFFFFFFFFFFFFFFFFFFFFFFFF AND PUSH20 0xFFFFFFFFFFFFFFFFFFFFFFFFFFFFFFFFFFFFFFFF AND DUP2 MSTORE PUSH1 0x20 ADD SWAP1 DUP2 MSTORE PUSH1 0x20 ADD PUSH1 0x0 KECCAK256 DUP6 PUSH1 0xFF AND DUP2 SLOAD DUP2 LT PUSH2 0xC93 JUMPI PUSH2 0xC92 PUSH2 0x1354 JUMP JUMPDEST JUMPDEST SWAP1 PUSH1 0x0 MSTORE PUSH1 0x20 PUSH1 0x0 KECCAK256 SWAP1 PUSH1 0x2 MUL ADD PUSH1 0x1 ADD PUSH1 0x16 SWAP1 SLOAD SWAP1 PUSH2 0x100 EXP SWAP1 DIV PUSH1 0xFF AND TIMESTAMP PUSH2 0xCBD SWAP2 SWAP1 PUSH2 0x14AB JUMP JUMPDEST SWAP1 POP PUSH1 0x0 PUSH1 0x1 PUSH1 0x0 CALLER PUSH20 0xFFFFFFFFFFFFFFFFFFFFFFFFFFFFFFFFFFFFFFFF AND PUSH20 0xFFFFFFFFFFFFFFFFFFFFFFFFFFFFFFFFFFFFFFFF AND DUP2 MSTORE PUSH1 0x20 ADD SWAP1 DUP2 MSTORE PUSH1 0x20 ADD PUSH1 0x0 KECCAK256 DUP7 PUSH1 0xFF AND DUP2 SLOAD DUP2 LT PUSH2 0xD15 JUMPI PUSH2 0xD14 PUSH2 0x1354 JUMP JUMPDEST JUMPDEST SWAP1 PUSH1 0x0 MSTORE PUSH1 0x20 PUSH1 0x0 KECCAK256 SWAP1 PUSH1 0x2 MUL ADD PUSH1 0x1 ADD PUSH1 0x18 SWAP1 SLOAD SWAP1 PUSH2 0x100 EXP SWAP1 DIV PUSH1 0xFF AND DUP3 PUSH2 0xD3F SWAP2 SWAP1 PUSH2 0x147A JUMP JUMPDEST SWAP1 POP PUSH1 0x0 PUSH1 0x2 PUSH1 0x0 CALLER PUSH20 0xFFFFFFFFFFFFFFFFFFFFFFFFFFFFFFFFFFFFFFFF AND PUSH20 0xFFFFFFFFFFFFFFFFFFFFFFFFFFFFFFFFFFFFFFFF AND DUP2 MSTORE PUSH1 0x20 ADD SWAP1 DUP2 MSTORE PUSH1 0x20 ADD PUSH1 0x0 KECCAK256 DUP8 PUSH1 0xFF AND DUP2 SLOAD DUP2 LT PUSH2 0xD97 JUMPI PUSH2 0xD96 PUSH2 0x1354 JUMP JUMPDEST JUMPDEST SWAP1 PUSH1 0x0 MSTORE PUSH1 0x20 PUSH1 0x0 KECCAK256 ADD SLOAD DUP5 DUP4 PUSH2 0xDAE SWAP2 SWAP1 PUSH2 0x14E0 JUMP JUMPDEST PUSH1 0xFF AND PUSH2 0xDBB SWAP2 SWAP1 PUSH2 0x151D JUMP JUMPDEST SWAP1 POP DUP5 PUSH1 0xFF AND DUP3 PUSH1 0xFF AND LT PUSH2 0xE4E JUMPI PUSH1 0x2 PUSH1 0x0 CALLER PUSH20 0xFFFFFFFFFFFFFFFFFFFFFFFFFFFFFFFFFFFFFFFF AND PUSH20 0xFFFFFFFFFFFFFFFFFFFFFFFFFFFFFFFFFFFFFFFF AND DUP2 MSTORE PUSH1 0x20 ADD SWAP1 DUP2 MSTORE PUSH1 0x20 ADD PUSH1 0x0 KECCAK256 DUP8 PUSH1 0xFF AND DUP2 SLOAD DUP2 LT PUSH2 0xE1E JUMPI PUSH2 0xE1D PUSH2 0x1354 JUMP JUMPDEST JUMPDEST SWAP1 PUSH1 0x0 MSTORE PUSH1 0x20 PUSH1 0x0 KECCAK256 ADD SLOAD DUP6 DUP6 PUSH2 0xE35 SWAP2 SWAP1 PUSH2 0x14E0 JUMP JUMPDEST PUSH1 0xFF AND PUSH2 0xE42 SWAP2 SWAP1 PUSH2 0x151D JUMP JUMPDEST SWAP6 POP POP POP POP POP POP PUSH2 0xE57 JUMP JUMPDEST DUP1 SWAP6 POP POP POP POP POP POP JUMPDEST SWAP2 SWAP1 POP JUMP JUMPDEST PUSH1 0x0 DUP1 REVERT JUMPDEST PUSH1 0x0 PUSH20 0xFFFFFFFFFFFFFFFFFFFFFFFFFFFFFFFFFFFFFFFF DUP3 AND SWAP1 POP SWAP2 SWAP1 POP JUMP JUMPDEST PUSH1 0x0 PUSH2 0xE8C DUP3 PUSH2 0xE61 JUMP JUMPDEST SWAP1 POP SWAP2 SWAP1 POP JUMP JUMPDEST PUSH2 0xE9C DUP2 PUSH2 0xE81 JUMP JUMPDEST DUP2 EQ PUSH2 0xEA7 JUMPI PUSH1 0x0 DUP1 REVERT JUMPDEST POP JUMP JUMPDEST PUSH1 0x0 DUP2 CALLDATALOAD SWAP1 POP PUSH2 0xEB9 DUP2 PUSH2 0xE93 JUMP JUMPDEST SWAP3 SWAP2 POP POP JUMP JUMPDEST PUSH1 0x0 PUSH1 0x20 DUP3 DUP5 SUB SLT ISZERO PUSH2 0xED5 JUMPI PUSH2 0xED4 PUSH2 0xE5C JUMP JUMPDEST JUMPDEST PUSH1 0x0 PUSH2 0xEE3 DUP5 DUP3 DUP6 ADD PUSH2 0xEAA JUMP JUMPDEST SWAP2 POP POP SWAP3 SWAP2 POP POP JUMP JUMPDEST PUSH1 0x0 DUP2 SWAP1 POP SWAP2 SWAP1 POP JUMP JUMPDEST PUSH2 0xEFF DUP2 PUSH2 0xEEC JUMP JUMPDEST DUP2 EQ PUSH2 0xF0A JUMPI PUSH1 0x0 DUP1 REVERT JUMPDEST POP JUMP JUMPDEST PUSH1 0x0 DUP2 CALLDATALOAD SWAP1 POP PUSH2 0xF1C DUP2 PUSH2 0xEF6 JUMP JUMPDEST SWAP3 SWAP2 POP POP JUMP JUMPDEST PUSH1 0x0 DUP1 PUSH1 0x40 DUP4 DUP6 SUB SLT ISZERO PUSH2 0xF39 JUMPI PUSH2 0xF38 PUSH2 0xE5C JUMP JUMPDEST JUMPDEST PUSH1 0x0 PUSH2 0xF47 DUP6 DUP3 DUP7 ADD PUSH2 0xEAA JUMP JUMPDEST SWAP3 POP POP PUSH1 0x20 PUSH2 0xF58 DUP6 DUP3 DUP7 ADD PUSH2 0xF0D JUMP JUMPDEST SWAP2 POP POP SWAP3 POP SWAP3 SWAP1 POP JUMP JUMPDEST PUSH2 0xF6B DUP2 PUSH2 0xE81 JUMP JUMPDEST DUP3 MSTORE POP POP JUMP JUMPDEST PUSH1 0x0 PUSH1 0xFF DUP3 AND SWAP1 POP SWAP2 SWAP1 POP JUMP JUMPDEST PUSH2 0xF87 DUP2 PUSH2 0xF71 JUMP JUMPDEST DUP3 MSTORE POP POP JUMP JUMPDEST PUSH1 0x0 DUP2 ISZERO ISZERO SWAP1 POP SWAP2 SWAP1 POP JUMP JUMPDEST PUSH2 0xFA2 DUP2 PUSH2 0xF8D JUMP JUMPDEST DUP3 MSTORE POP POP JUMP JUMPDEST PUSH1 0x0 PUSH2 0x100 DUP3 ADD SWAP1 POP PUSH2 0xFBE PUSH1 0x0 DUP4 ADD DUP12 PUSH2 0xF62 JUMP JUMPDEST PUSH2 0xFCB PUSH1 0x20 DUP4 ADD DUP11 PUSH2 0xF62 JUMP JUMPDEST PUSH2 0xFD8 PUSH1 0x40 DUP4 ADD DUP10 PUSH2 0xF7E JUMP JUMPDEST PUSH2 0xFE5 PUSH1 0x60 DUP4 ADD DUP9 PUSH2 0xF7E JUMP JUMPDEST PUSH2 0xFF2 PUSH1 0x80 DUP4 ADD DUP8 PUSH2 0xF7E JUMP JUMPDEST PUSH2 0xFFF PUSH1 0xA0 DUP4 ADD DUP7 PUSH2 0xF7E JUMP JUMPDEST PUSH2 0x100C PUSH1 0xC0 DUP4 ADD DUP6 PUSH2 0xF7E JUMP JUMPDEST PUSH2 0x1019 PUSH1 0xE0 DUP4 ADD DUP5 PUSH2 0xF99 JUMP JUMPDEST SWAP10 SWAP9 POP POP POP POP POP POP POP POP POP JUMP JUMPDEST PUSH2 0x102F DUP2 PUSH2 0xF71 JUMP JUMPDEST DUP2 EQ PUSH2 0x103A JUMPI PUSH1 0x0 DUP1 REVERT JUMPDEST POP JUMP JUMPDEST PUSH1 0x0 DUP2 CALLDATALOAD SWAP1 POP PUSH2 0x104C DUP2 PUSH2 0x1026 JUMP JUMPDEST SWAP3 SWAP2 POP POP JUMP JUMPDEST PUSH1 0x0 DUP1 PUSH1 0x0 DUP1 PUSH1 0x0 PUSH1 0xA0 DUP7 DUP9 SUB SLT ISZERO PUSH2 0x106E JUMPI PUSH2 0x106D PUSH2 0xE5C JUMP JUMPDEST JUMPDEST PUSH1 0x0 PUSH2 0x107C DUP9 DUP3 DUP10 ADD PUSH2 0xEAA JUMP JUMPDEST SWAP6 POP POP PUSH1 0x20 PUSH2 0x108D DUP9 DUP3 DUP10 ADD PUSH2 0x103D JUMP JUMPDEST SWAP5 POP POP PUSH1 0x40 PUSH2 0x109E DUP9 DUP3 DUP10 ADD PUSH2 0x103D JUMP JUMPDEST SWAP4 POP POP PUSH1 0x60 PUSH2 0x10AF DUP9 DUP3 DUP10 ADD PUSH2 0x103D JUMP JUMPDEST SWAP3 POP POP PUSH1 0x80 PUSH2 0x10C0 DUP9 DUP3 DUP10 ADD PUSH2 0x103D JUMP JUMPDEST SWAP2 POP POP SWAP3 SWAP6 POP SWAP3 SWAP6 SWAP1 SWAP4 POP JUMP JUMPDEST PUSH1 0x0 DUP1 PUSH1 0x40 DUP4 DUP6 SUB SLT ISZERO PUSH2 0x10E4 JUMPI PUSH2 0x10E3 PUSH2 0xE5C JUMP JUMPDEST JUMPDEST PUSH1 0x0 PUSH2 0x10F2 DUP6 DUP3 DUP7 ADD PUSH2 0xEAA JUMP JUMPDEST SWAP3 POP POP PUSH1 0x20 PUSH2 0x1103 DUP6 DUP3 DUP7 ADD PUSH2 0xEAA JUMP JUMPDEST SWAP2 POP POP SWAP3 POP SWAP3 SWAP1 POP JUMP JUMPDEST PUSH1 0x0 PUSH1 0x20 DUP3 ADD SWAP1 POP PUSH2 0x1122 PUSH1 0x0 DUP4 ADD DUP5 PUSH2 0xF99 JUMP JUMPDEST SWAP3 SWAP2 POP POP JUMP JUMPDEST PUSH1 0x0 PUSH1 0x20 DUP3 DUP5 SUB SLT ISZERO PUSH2 0x113E JUMPI PUSH2 0x113D PUSH2 0xE5C JUMP JUMPDEST JUMPDEST PUSH1 0x0 PUSH2 0x114C DUP5 DUP3 DUP6 ADD PUSH2 0x103D JUMP JUMPDEST SWAP2 POP POP SWAP3 SWAP2 POP POP JUMP JUMPDEST PUSH2 0x115E DUP2 PUSH2 0xEEC JUMP JUMPDEST DUP3 MSTORE POP POP JUMP JUMPDEST PUSH1 0x0 PUSH1 0x20 DUP3 ADD SWAP1 POP PUSH2 0x1179 PUSH1 0x0 DUP4 ADD DUP5 PUSH2 0x1155 JUMP JUMPDEST SWAP3 SWAP2 POP POP JUMP JUMPDEST PUSH1 0x0 DUP3 DUP3 MSTORE PUSH1 0x20 DUP3 ADD SWAP1 POP SWAP3 SWAP2 POP POP JUMP JUMPDEST PUSH32 0x546F6B656E206973206E6F7420616C6C6F776564000000000000000000000000 PUSH1 0x0 DUP3 ADD MSTORE POP JUMP JUMPDEST PUSH1 0x0 PUSH2 0x11C6 PUSH1 0x14 DUP4 PUSH2 0x117F JUMP JUMPDEST SWAP2 POP PUSH2 0x11D1 DUP3 PUSH2 0x1190 JUMP JUMPDEST PUSH1 0x20 DUP3 ADD SWAP1 POP SWAP2 SWAP1 POP JUMP JUMPDEST PUSH1 0x0 PUSH1 0x20 DUP3 ADD SWAP1 POP DUP2 DUP2 SUB PUSH1 0x0 DUP4 ADD MSTORE PUSH2 0x11F5 DUP2 PUSH2 0x11B9 JUMP JUMPDEST SWAP1 POP SWAP2 SWAP1 POP JUMP JUMPDEST PUSH32 0x4E487B7100000000000000000000000000000000000000000000000000000000 PUSH1 0x0 MSTORE PUSH1 0x11 PUSH1 0x4 MSTORE PUSH1 0x24 PUSH1 0x0 REVERT JUMPDEST PUSH1 0x0 PUSH2 0x1236 DUP3 PUSH2 0xF71 JUMP JUMPDEST SWAP2 POP PUSH2 0x1241 DUP4 PUSH2 0xF71 JUMP JUMPDEST SWAP3 POP DUP3 DUP3 ADD SWAP1 POP PUSH1 0xFF DUP2 GT ISZERO PUSH2 0x125A JUMPI PUSH2 0x1259 PUSH2 0x11FC JUMP JUMPDEST JUMPDEST SWAP3 SWAP2 POP POP JUMP JUMPDEST PUSH1 0x0 DUP2 SWAP1 POP SWAP2 SWAP1 POP JUMP JUMPDEST PUSH1 0x0 PUSH2 0x1285 PUSH2 0x1280 PUSH2 0x127B DUP5 PUSH2 0xF71 JUMP JUMPDEST PUSH2 0x1260 JUMP JUMPDEST PUSH2 0xEEC JUMP JUMPDEST SWAP1 POP SWAP2 SWAP1 POP JUMP JUMPDEST PUSH2 0x1295 DUP2 PUSH2 0x126A JUMP JUMPDEST DUP3 MSTORE POP POP JUMP JUMPDEST PUSH1 0x0 PUSH1 0x60 DUP3 ADD SWAP1 POP PUSH2 0x12B0 PUSH1 0x0 DUP4 ADD DUP7 PUSH2 0xF62 JUMP JUMPDEST PUSH2 0x12BD PUSH1 0x20 DUP4 ADD DUP6 PUSH2 0xF62 JUMP JUMPDEST PUSH2 0x12CA PUSH1 0x40 DUP4 ADD DUP5 PUSH2 0x128C JUMP JUMPDEST SWAP5 SWAP4 POP POP POP POP JUMP JUMPDEST PUSH2 0x12DB DUP2 PUSH2 0xF8D JUMP JUMPDEST DUP2 EQ PUSH2 0x12E6 JUMPI PUSH1 0x0 DUP1 REVERT JUMPDEST POP JUMP JUMPDEST PUSH1 0x0 DUP2 MLOAD SWAP1 POP PUSH2 0x12F8 DUP2 PUSH2 0x12D2 JUMP JUMPDEST SWAP3 SWAP2 POP POP JUMP JUMPDEST PUSH1 0x0 PUSH1 0x20 DUP3 DUP5 SUB SLT ISZERO PUSH2 0x1314 JUMPI PUSH2 0x1313 PUSH2 0xE5C JUMP JUMPDEST JUMPDEST PUSH1 0x0 PUSH2 0x1322 DUP5 DUP3 DUP6 ADD PUSH2 0x12E9 JUMP JUMPDEST SWAP2 POP POP SWAP3 SWAP2 POP POP JUMP JUMPDEST PUSH1 0x0 PUSH1 0x40 DUP3 ADD SWAP1 POP PUSH2 0x1340 PUSH1 0x0 DUP4 ADD DUP6 PUSH2 0xF62 JUMP JUMPDEST PUSH2 0x134D PUSH1 0x20 DUP4 ADD DUP5 PUSH2 0x1155 JUMP JUMPDEST SWAP4 SWAP3 POP POP POP JUMP JUMPDEST PUSH32 0x4E487B7100000000000000000000000000000000000000000000000000000000 PUSH1 0x0 MSTORE PUSH1 0x32 PUSH1 0x4 MSTORE PUSH1 0x24 PUSH1 0x0 REVERT JUMPDEST PUSH1 0x0 PUSH2 0x138E DUP3 PUSH2 0xEEC JUMP JUMPDEST SWAP2 POP PUSH2 0x1399 DUP4 PUSH2 0xEEC JUMP JUMPDEST SWAP3 POP DUP3 DUP3 ADD SWAP1 POP DUP1 DUP3 GT ISZERO PUSH2 0x13B1 JUMPI PUSH2 0x13B0 PUSH2 0x11FC JUMP JUMPDEST JUMPDEST SWAP3 SWAP2 POP POP JUMP JUMPDEST PUSH1 0x0 PUSH1 0x60 DUP3 ADD SWAP1 POP PUSH2 0x13CC PUSH1 0x0 DUP4 ADD DUP7 PUSH2 0xF62 JUMP JUMPDEST PUSH2 0x13D9 PUSH1 0x20 DUP4 ADD DUP6 PUSH2 0xF62 JUMP JUMPDEST PUSH2 0x13E6 PUSH1 0x40 DUP4 ADD DUP5 PUSH2 0x1155 JUMP JUMPDEST SWAP5 SWAP4 POP POP POP POP JUMP JUMPDEST PUSH1 0x0 PUSH1 0x20 DUP3 ADD SWAP1 POP PUSH2 0x1403 PUSH1 0x0 DUP4 ADD DUP5 PUSH2 0xF62 JUMP JUMPDEST SWAP3 SWAP2 POP POP JUMP JUMPDEST PUSH1 0x0 DUP2 MLOAD SWAP1 POP PUSH2 0x1418 DUP2 PUSH2 0xEF6 JUMP JUMPDEST SWAP3 SWAP2 POP POP JUMP JUMPDEST PUSH1 0x0 PUSH1 0x20 DUP3 DUP5 SUB SLT ISZERO PUSH2 0x1434 JUMPI PUSH2 0x1433 PUSH2 0xE5C JUMP JUMPDEST JUMPDEST PUSH1 0x0 PUSH2 0x1442 DUP5 DUP3 DUP6 ADD PUSH2 0x1409 JUMP JUMPDEST SWAP2 POP POP SWAP3 SWAP2 POP POP JUMP JUMPDEST PUSH32 0x4E487B7100000000000000000000000000000000000000000000000000000000 PUSH1 0x0 MSTORE PUSH1 0x12 PUSH1 0x4 MSTORE PUSH1 0x24 PUSH1 0x0 REVERT JUMPDEST PUSH1 0x0 PUSH2 0x1485 DUP3 PUSH2 0xF71 JUMP JUMPDEST SWAP2 POP PUSH2 0x1490 DUP4 PUSH2 0xF71 JUMP JUMPDEST SWAP3 POP DUP3 PUSH2 0x14A0 JUMPI PUSH2 0x149F PUSH2 0x144B JUMP JUMPDEST JUMPDEST DUP3 DUP3 DIV SWAP1 POP SWAP3 SWAP2 POP POP JUMP JUMPDEST PUSH1 0x0 PUSH2 0x14B6 DUP3 PUSH2 0xF71 JUMP JUMPDEST SWAP2 POP PUSH2 0x14C1 DUP4 PUSH2 0xF71 JUMP JUMPDEST SWAP3 POP DUP3 DUP3 SUB SWAP1 POP PUSH1 0xFF DUP2 GT ISZERO PUSH2 0x14DA JUMPI PUSH2 0x14D9 PUSH2 0x11FC JUMP JUMPDEST JUMPDEST SWAP3 SWAP2 POP POP JUMP JUMPDEST PUSH1 0x0 PUSH2 0x14EB DUP3 PUSH2 0xF71 JUMP JUMPDEST SWAP2 POP PUSH2 0x14F6 DUP4 PUSH2 0xF71 JUMP JUMPDEST SWAP3 POP DUP3 DUP3 MUL PUSH2 0x1504 DUP2 PUSH2 0xF71 JUMP JUMPDEST SWAP2 POP DUP1 DUP3 EQ PUSH2 0x1516 JUMPI PUSH2 0x1515 PUSH2 0x11FC JUMP JUMPDEST JUMPDEST POP SWAP3 SWAP2 POP POP JUMP JUMPDEST PUSH1 0x0 PUSH2 0x1528 DUP3 PUSH2 0xEEC JUMP JUMPDEST SWAP2 POP PUSH2 0x1533 DUP4 PUSH2 0xEEC JUMP JUMPDEST SWAP3 POP DUP3 DUP3 SUB SWAP1 POP DUP2 DUP2 GT ISZERO PUSH2 0x154B JUMPI PUSH2 0x154A PUSH2 0x11FC JUMP JUMPDEST JUMPDEST SWAP3 SWAP2 POP POP JUMP INVALID LOG2 PUSH5 0x6970667358 0x22 SLT KECCAK256 0x4E 0xB2 RETURN 0xB2 CREATE PC DUP9 MLOAD CALLDATALOAD SWAP5 SWAP16 0xCE 0xD4 0xDB RETURN 0x4C 0xEE RETURNDATACOPY DUP10 0x49 PUSH21 0xBCB9F03DDDB051DA3A2C9F64736F6C634300081200 CALLER "
				},
				"gasEstimates": {
					"creation": {
						"codeDepositCost": "1102200",
						"executionCost": "1147",
						"totalCost": "1103347"
					},
					"external": {
						"beneficiaryDetails(address,uint256)": "infinite",
						"checkBalance()": "infinite",
						"lockTokens(address,uint8,uint8,uint8,uint8)": "infinite",
						"releasedTokens(address,uint256)": "infinite",
						"whitelist(address,address)": "infinite",
						"whitelistTokens(address)": "24902",
						"withdrawTokens(uint8)": "infinite"
					},
					"internal": {
						"unlockTokens(uint8)": "infinite"
					}
				},
				"methodIdentifiers": {
					"beneficiaryDetails(address,uint256)": "73ce12d4",
					"checkBalance()": "c71daccb",
					"lockTokens(address,uint8,uint8,uint8,uint8)": "79c15cad",
					"releasedTokens(address,uint256)": "eef0934b",
					"whitelist(address,address)": "b092145e",
					"whitelistTokens(address)": "5fb2386e",
					"withdrawTokens(uint8)": "b1b39337"
				}
			},
			"storageLayout": {
				"storage": [
					{
						"astId": 5,
						"contract": "Contracts/vesting.sol:vesting",
						"label": "token",
						"offset": 0,
						"slot": "0",
						"type": "t_contract(IERC20)408"
					},
					{
						"astId": 28,
						"contract": "Contracts/vesting.sol:vesting",
						"label": "beneficiaryDetails",
						"offset": 0,
						"slot": "1",
						"type": "t_mapping(t_address,t_array(t_struct(beneficiarydata)22_storage)dyn_storage)"
					},
					{
						"astId": 33,
						"contract": "Contracts/vesting.sol:vesting",
						"label": "releasedTokens",
						"offset": 0,
						"slot": "2",
						"type": "t_mapping(t_address,t_array(t_uint256)dyn_storage)"
					},
					{
						"astId": 39,
						"contract": "Contracts/vesting.sol:vesting",
						"label": "whitelist",
						"offset": 0,
						"slot": "3",
						"type": "t_mapping(t_address,t_mapping(t_address,t_bool))"
					}
				],
				"types": {
					"t_address": {
						"encoding": "inplace",
						"label": "address",
						"numberOfBytes": "20"
					},
					"t_array(t_struct(beneficiarydata)22_storage)dyn_storage": {
						"base": "t_struct(beneficiarydata)22_storage",
						"encoding": "dynamic_array",
						"label": "struct vesting.beneficiarydata[]",
						"numberOfBytes": "32"
					},
					"t_array(t_uint256)dyn_storage": {
						"base": "t_uint256",
						"encoding": "dynamic_array",
						"label": "uint256[]",
						"numberOfBytes": "32"
					},
					"t_bool": {
						"encoding": "inplace",
						"label": "bool",
						"numberOfBytes": "1"
					},
					"t_contract(IERC20)408": {
						"encoding": "inplace",
						"label": "contract IERC20",
						"numberOfBytes": "20"
					},
					"t_mapping(t_address,t_array(t_struct(beneficiarydata)22_storage)dyn_storage)": {
						"encoding": "mapping",
						"key": "t_address",
						"label": "mapping(address => struct vesting.beneficiarydata[])",
						"numberOfBytes": "32",
						"value": "t_array(t_struct(beneficiarydata)22_storage)dyn_storage"
					},
					"t_mapping(t_address,t_array(t_uint256)dyn_storage)": {
						"encoding": "mapping",
						"key": "t_address",
						"label": "mapping(address => uint256[])",
						"numberOfBytes": "32",
						"value": "t_array(t_uint256)dyn_storage"
					},
					"t_mapping(t_address,t_bool)": {
						"encoding": "mapping",
						"key": "t_address",
						"label": "mapping(address => bool)",
						"numberOfBytes": "32",
						"value": "t_bool"
					},
					"t_mapping(t_address,t_mapping(t_address,t_bool))": {
						"encoding": "mapping",
						"key": "t_address",
						"label": "mapping(address => mapping(address => bool))",
						"numberOfBytes": "32",
						"value": "t_mapping(t_address,t_bool)"
					},
					"t_struct(beneficiarydata)22_storage": {
						"encoding": "inplace",
						"label": "struct vesting.beneficiarydata",
						"members": [
							{
								"astId": 7,
								"contract": "Contracts/vesting.sol:vesting",
								"label": "addressOfToken",
								"offset": 0,
								"slot": "0",
								"type": "t_address"
							},
							{
								"astId": 9,
								"contract": "Contracts/vesting.sol:vesting",
								"label": "beneficiary",
								"offset": 0,
								"slot": "1",
								"type": "t_address"
							},
							{
								"astId": 11,
								"contract": "Contracts/vesting.sol:vesting",
								"label": "noOfTokens",
								"offset": 20,
								"slot": "1",
								"type": "t_uint8"
							},
							{
								"astId": 13,
								"contract": "Contracts/vesting.sol:vesting",
								"label": "cliff",
								"offset": 21,
								"slot": "1",
								"type": "t_uint8"
							},
							{
								"astId": 15,
								"contract": "Contracts/vesting.sol:vesting",
								"label": "startTime",
								"offset": 22,
								"slot": "1",
								"type": "t_uint8"
							},
							{
								"astId": 17,
								"contract": "Contracts/vesting.sol:vesting",
								"label": "duration",
								"offset": 23,
								"slot": "1",
								"type": "t_uint8"
							},
							{
								"astId": 19,
								"contract": "Contracts/vesting.sol:vesting",
								"label": "slicePeriod",
								"offset": 24,
								"slot": "1",
								"type": "t_uint8"
							},
							{
								"astId": 21,
								"contract": "Contracts/vesting.sol:vesting",
								"label": "locked",
								"offset": 25,
								"slot": "1",
								"type": "t_bool"
							}
						],
						"numberOfBytes": "64"
					},
					"t_uint256": {
						"encoding": "inplace",
						"label": "uint256",
						"numberOfBytes": "32"
					},
					"t_uint8": {
						"encoding": "inplace",
						"label": "uint8",
						"numberOfBytes": "1"
					}
				}
			},
			"userdoc": {
				"kind": "user",
				"methods": {},
				"version": 1
			}
		}
	}
}